{
	"contracts/localVariables_10.sol": {
		"LocalVariables": {
			"abi": [
				{
					"inputs": [],
					"name": "local",
					"outputs": [
						{
							"internalType": "uint256",
							"name": "",
							"type": "uint256"
						}
					],
					"stateMutability": "nonpayable",
					"type": "function"
				},
				{
					"inputs": [],
					"name": "local_a",
					"outputs": [
						{
							"internalType": "address",
							"name": "",
							"type": "address"
						},
						{
							"internalType": "uint256",
							"name": "",
							"type": "uint256"
						},
						{
							"internalType": "uint256",
							"name": "",
							"type": "uint256"
						}
					],
					"stateMutability": "nonpayable",
					"type": "function"
				},
				{
					"inputs": [],
					"name": "local_p",
					"outputs": [
						{
							"internalType": "uint256",
							"name": "",
							"type": "uint256"
						}
					],
					"stateMutability": "pure",
					"type": "function"
				},
				{
					"inputs": [],
					"name": "myNumber",
					"outputs": [
						{
							"internalType": "uint256",
							"name": "",
							"type": "uint256"
						}
					],
					"stateMutability": "view",
					"type": "function"
				}
			],
			"devdoc": {
				"kind": "dev",
				"methods": {},
				"version": 1
			},
			"evm": {
				"assembly": "    /* \"contracts/localVariables_10.sol\":102:1663  contract LocalVariables {... */\n  mstore(0x40, 0x80)\n  callvalue\n  dup1\n  iszero\n  tag_1\n  jumpi\n  0x00\n  dup1\n  revert\ntag_1:\n  pop\n  dataSize(sub_0)\n  dup1\n  dataOffset(sub_0)\n  0x00\n  codecopy\n  0x00\n  return\nstop\n\nsub_0: assembly {\n        /* \"contracts/localVariables_10.sol\":102:1663  contract LocalVariables {... */\n      mstore(0x40, 0x80)\n      callvalue\n      dup1\n      iszero\n      tag_1\n      jumpi\n      0x00\n      dup1\n      revert\n    tag_1:\n      pop\n      jumpi(tag_2, lt(calldatasize, 0x04))\n      shr(0xe0, calldataload(0x00))\n      dup1\n      0x0f166ad4\n      eq\n      tag_3\n      jumpi\n      dup1\n      0x23fd0e40\n      eq\n      tag_4\n      jumpi\n      dup1\n      0x3b683f36\n      eq\n      tag_5\n      jumpi\n      dup1\n      0xdf3e46b0\n      eq\n      tag_6\n      jumpi\n    tag_2:\n      0x00\n      dup1\n      revert\n        /* \"contracts/localVariables_10.sol\":685:1110  function local() public returns(uint256) {... */\n    tag_3:\n      tag_7\n      tag_8\n      jump\t// in\n    tag_7:\n      mload(0x40)\n      tag_9\n      swap2\n      swap1\n      tag_10\n      jump\t// in\n    tag_9:\n      mload(0x40)\n      dup1\n      swap2\n      sub\n      swap1\n      return\n        /* \"contracts/localVariables_10.sol\":132:155  uint256 public myNumber */\n    tag_4:\n      tag_11\n      tag_12\n      jump\t// in\n    tag_11:\n      mload(0x40)\n      tag_13\n      swap2\n      swap1\n      tag_10\n      jump\t// in\n    tag_13:\n      mload(0x40)\n      dup1\n      swap2\n      sub\n      swap1\n      return\n        /* \"contracts/localVariables_10.sol\":1439:1661  function local_a()public returns(address, uint256, uint256) {... */\n    tag_5:\n      tag_14\n      tag_15\n      jump\t// in\n    tag_14:\n      mload(0x40)\n      tag_16\n      swap4\n      swap3\n      swap2\n      swap1\n      tag_17\n      jump\t// in\n    tag_16:\n      mload(0x40)\n      dup1\n      swap2\n      sub\n      swap1\n      return\n        /* \"contracts/localVariables_10.sol\":389:512  function local_p() public pure returns(uint256) {... */\n    tag_6:\n      tag_18\n      tag_19\n      jump\t// in\n    tag_18:\n      mload(0x40)\n      tag_20\n      swap2\n      swap1\n      tag_10\n      jump\t// in\n    tag_20:\n      mload(0x40)\n      dup1\n      swap2\n      sub\n      swap1\n      return\n        /* \"contracts/localVariables_10.sol\":685:1110  function local() public returns(uint256) {... */\n    tag_8:\n        /* \"contracts/localVariables_10.sol\":717:724  uint256 */\n      0x00\n        /* \"contracts/localVariables_10.sol\":1041:1050  uint256 i */\n      dup1\n        /* \"contracts/localVariables_10.sol\":1053:1056  256 */\n      0x0100\n        /* \"contracts/localVariables_10.sol\":1041:1056  uint256 i = 256 */\n      swap1\n      pop\n        /* \"contracts/localVariables_10.sol\":1077:1078  i */\n      dup1\n        /* \"contracts/localVariables_10.sol\":1066:1074  myNumber */\n      0x00\n        /* \"contracts/localVariables_10.sol\":1066:1078  myNumber = i */\n      dup2\n      swap1\n      sstore\n      pop\n        /* \"contracts/localVariables_10.sol\":1095:1103  myNumber */\n      sload(0x00)\n        /* \"contracts/localVariables_10.sol\":1088:1103  return myNumber */\n      swap2\n      pop\n      pop\n        /* \"contracts/localVariables_10.sol\":685:1110  function local() public returns(uint256) {... */\n      swap1\n      jump\t// out\n        /* \"contracts/localVariables_10.sol\":132:155  uint256 public myNumber */\n    tag_12:\n      sload(0x00)\n      dup2\n      jump\t// out\n        /* \"contracts/localVariables_10.sol\":1439:1661  function local_a()public returns(address, uint256, uint256) {... */\n    tag_15:\n        /* \"contracts/localVariables_10.sol\":1472:1479  address */\n      0x00\n        /* \"contracts/localVariables_10.sol\":1481:1488  uint256 */\n      dup1\n        /* \"contracts/localVariables_10.sol\":1490:1497  uint256 */\n      0x00\n        /* \"contracts/localVariables_10.sol\":1509:1518  uint256 i */\n      dup1\n        /* \"contracts/localVariables_10.sol\":1521:1524  345 */\n      0x0159\n        /* \"contracts/localVariables_10.sol\":1509:1524  uint256 i = 345 */\n      swap1\n      pop\n        /* \"contracts/localVariables_10.sol\":1545:1546  i */\n      dup1\n        /* \"contracts/localVariables_10.sol\":1534:1542  myNumber */\n      0x00\n        /* \"contracts/localVariables_10.sol\":1534:1546  myNumber = i */\n      dup2\n      swap1\n      sstore\n      pop\n        /* \"contracts/localVariables_10.sol\":1562:1564  45 */\n      0x2d\n        /* \"contracts/localVariables_10.sol\":1557:1564  i += 45 */\n      dup2\n      tag_23\n      swap2\n      swap1\n      tag_24\n      jump\t// in\n    tag_23:\n      swap1\n      pop\n        /* \"contracts/localVariables_10.sol\":1574:1591  address myAddress */\n      0x00\n        /* \"contracts/localVariables_10.sol\":1602:1603  1 */\n      0x01\n        /* \"contracts/localVariables_10.sol\":1574:1604  address myAddress = address(1) */\n      swap1\n      pop\n        /* \"contracts/localVariables_10.sol\":1623:1632  myAddress */\n      dup1\n        /* \"contracts/localVariables_10.sol\":1634:1642  myNumber */\n      sload(0x00)\n        /* \"contracts/localVariables_10.sol\":1644:1645  i */\n      dup4\n        /* \"contracts/localVariables_10.sol\":1615:1646  return (myAddress, myNumber, i) */\n      swap5\n      pop\n      swap5\n      pop\n      swap5\n      pop\n      pop\n      pop\n        /* \"contracts/localVariables_10.sol\":1439:1661  function local_a()public returns(address, uint256, uint256) {... */\n      swap1\n      swap2\n      swap3\n      jump\t// out\n        /* \"contracts/localVariables_10.sol\":389:512  function local_p() public pure returns(uint256) {... */\n    tag_19:\n        /* \"contracts/localVariables_10.sol\":428:435  uint256 */\n      0x00\n        /* \"contracts/localVariables_10.sol\":464:473  uint256 a */\n      dup1\n        /* \"contracts/localVariables_10.sol\":476:479  256 */\n      0x0100\n        /* \"contracts/localVariables_10.sol\":464:479  uint256 a = 256 */\n      swap1\n      pop\n        /* \"contracts/localVariables_10.sol\":504:505  a */\n      dup1\n        /* \"contracts/localVariables_10.sol\":497:505  return a */\n      swap2\n      pop\n      pop\n        /* \"contracts/localVariables_10.sol\":389:512  function local_p() public pure returns(uint256) {... */\n      swap1\n      jump\t// out\n        /* \"#utility.yul\":7:84   */\n    tag_26:\n        /* \"#utility.yul\":44:51   */\n      0x00\n        /* \"#utility.yul\":73:78   */\n      dup2\n        /* \"#utility.yul\":62:78   */\n      swap1\n      pop\n        /* \"#utility.yul\":7:84   */\n      swap2\n      swap1\n      pop\n      jump\t// out\n        /* \"#utility.yul\":90:208   */\n    tag_27:\n        /* \"#utility.yul\":177:201   */\n      tag_35\n        /* \"#utility.yul\":195:200   */\n      dup2\n        /* \"#utility.yul\":177:201   */\n      tag_26\n      jump\t// in\n    tag_35:\n        /* \"#utility.yul\":172:175   */\n      dup3\n        /* \"#utility.yul\":165:202   */\n      mstore\n        /* \"#utility.yul\":90:208   */\n      pop\n      pop\n      jump\t// out\n        /* \"#utility.yul\":214:436   */\n    tag_10:\n        /* \"#utility.yul\":307:311   */\n      0x00\n        /* \"#utility.yul\":345:347   */\n      0x20\n        /* \"#utility.yul\":334:343   */\n      dup3\n        /* \"#utility.yul\":330:348   */\n      add\n        /* \"#utility.yul\":322:348   */\n      swap1\n      pop\n        /* \"#utility.yul\":358:429   */\n      tag_37\n        /* \"#utility.yul\":426:427   */\n      0x00\n        /* \"#utility.yul\":415:424   */\n      dup4\n        /* \"#utility.yul\":411:428   */\n      add\n        /* \"#utility.yul\":402:408   */\n      dup5\n        /* \"#utility.yul\":358:429   */\n      tag_27\n      jump\t// in\n    tag_37:\n        /* \"#utility.yul\":214:436   */\n      swap3\n      swap2\n      pop\n      pop\n      jump\t// out\n        /* \"#utility.yul\":442:568   */\n    tag_28:\n        /* \"#utility.yul\":479:486   */\n      0x00\n        /* \"#utility.yul\":519:561   */\n      0xffffffffffffffffffffffffffffffffffffffff\n        /* \"#utility.yul\":512:517   */\n      dup3\n        /* \"#utility.yul\":508:562   */\n      and\n        /* \"#utility.yul\":497:562   */\n      swap1\n      pop\n        /* \"#utility.yul\":442:568   */\n      swap2\n      swap1\n      pop\n      jump\t// out\n        /* \"#utility.yul\":574:670   */\n    tag_29:\n        /* \"#utility.yul\":611:618   */\n      0x00\n        /* \"#utility.yul\":640:664   */\n      tag_40\n        /* \"#utility.yul\":658:663   */\n      dup3\n        /* \"#utility.yul\":640:664   */\n      tag_28\n      jump\t// in\n    tag_40:\n        /* \"#utility.yul\":629:664   */\n      swap1\n      pop\n        /* \"#utility.yul\":574:670   */\n      swap2\n      swap1\n      pop\n      jump\t// out\n        /* \"#utility.yul\":676:794   */\n    tag_30:\n        /* \"#utility.yul\":763:787   */\n      tag_42\n        /* \"#utility.yul\":781:786   */\n      dup2\n        /* \"#utility.yul\":763:787   */\n      tag_29\n      jump\t// in\n    tag_42:\n        /* \"#utility.yul\":758:761   */\n      dup3\n        /* \"#utility.yul\":751:788   */\n      mstore\n        /* \"#utility.yul\":676:794   */\n      pop\n      pop\n      jump\t// out\n        /* \"#utility.yul\":800:1242   */\n    tag_17:\n        /* \"#utility.yul\":949:953   */\n      0x00\n        /* \"#utility.yul\":987:989   */\n      0x60\n        /* \"#utility.yul\":976:985   */\n      dup3\n        /* \"#utility.yul\":972:990   */\n      add\n        /* \"#utility.yul\":964:990   */\n      swap1\n      pop\n        /* \"#utility.yul\":1000:1071   */\n      tag_44\n        /* \"#utility.yul\":1068:1069   */\n      0x00\n        /* \"#utility.yul\":1057:1066   */\n      dup4\n        /* \"#utility.yul\":1053:1070   */\n      add\n        /* \"#utility.yul\":1044:1050   */\n      dup7\n        /* \"#utility.yul\":1000:1071   */\n      tag_30\n      jump\t// in\n    tag_44:\n        /* \"#utility.yul\":1081:1153   */\n      tag_45\n        /* \"#utility.yul\":1149:1151   */\n      0x20\n        /* \"#utility.yul\":1138:1147   */\n      dup4\n        /* \"#utility.yul\":1134:1152   */\n      add\n        /* \"#utility.yul\":1125:1131   */\n      dup6\n        /* \"#utility.yul\":1081:1153   */\n      tag_27\n      jump\t// in\n    tag_45:\n        /* \"#utility.yul\":1163:1235   */\n      tag_46\n        /* \"#utility.yul\":1231:1233   */\n      0x40\n        /* \"#utility.yul\":1220:1229   */\n      dup4\n        /* \"#utility.yul\":1216:1234   */\n      add\n        /* \"#utility.yul\":1207:1213   */\n      dup5\n        /* \"#utility.yul\":1163:1235   */\n      tag_27\n      jump\t// in\n    tag_46:\n        /* \"#utility.yul\":800:1242   */\n      swap5\n      swap4\n      pop\n      pop\n      pop\n      pop\n      jump\t// out\n        /* \"#utility.yul\":1248:1428   */\n    tag_31:\n        /* \"#utility.yul\":1296:1373   */\n      0x4e487b7100000000000000000000000000000000000000000000000000000000\n        /* \"#utility.yul\":1293:1294   */\n      0x00\n        /* \"#utility.yul\":1286:1374   */\n      mstore\n        /* \"#utility.yul\":1393:1397   */\n      0x11\n        /* \"#utility.yul\":1390:1391   */\n      0x04\n        /* \"#utility.yul\":1383:1398   */\n      mstore\n        /* \"#utility.yul\":1417:1421   */\n      0x24\n        /* \"#utility.yul\":1414:1415   */\n      0x00\n        /* \"#utility.yul\":1407:1422   */\n      revert\n        /* \"#utility.yul\":1434:1739   */\n    tag_24:\n        /* \"#utility.yul\":1474:1477   */\n      0x00\n        /* \"#utility.yul\":1493:1513   */\n      tag_49\n        /* \"#utility.yul\":1511:1512   */\n      dup3\n        /* \"#utility.yul\":1493:1513   */\n      tag_26\n      jump\t// in\n    tag_49:\n        /* \"#utility.yul\":1488:1513   */\n      swap2\n      pop\n        /* \"#utility.yul\":1527:1547   */\n      tag_50\n        /* \"#utility.yul\":1545:1546   */\n      dup4\n        /* \"#utility.yul\":1527:1547   */\n      tag_26\n      jump\t// in\n    tag_50:\n        /* \"#utility.yul\":1522:1547   */\n      swap3\n      pop\n        /* \"#utility.yul\":1681:1682   */\n      dup3\n        /* \"#utility.yul\":1613:1679   */\n      0xffffffffffffffffffffffffffffffffffffffffffffffffffffffffffffffff\n        /* \"#utility.yul\":1609:1683   */\n      sub\n        /* \"#utility.yul\":1606:1607   */\n      dup3\n        /* \"#utility.yul\":1603:1684   */\n      gt\n        /* \"#utility.yul\":1600:1707   */\n      iszero\n      tag_51\n      jumpi\n        /* \"#utility.yul\":1687:1705   */\n      tag_52\n      tag_31\n      jump\t// in\n    tag_52:\n        /* \"#utility.yul\":1600:1707   */\n    tag_51:\n        /* \"#utility.yul\":1731:1732   */\n      dup3\n        /* \"#utility.yul\":1728:1729   */\n      dup3\n        /* \"#utility.yul\":1724:1733   */\n      add\n        /* \"#utility.yul\":1717:1733   */\n      swap1\n      pop\n        /* \"#utility.yul\":1434:1739   */\n      swap3\n      swap2\n      pop\n      pop\n      jump\t// out\n\n    auxdata: 0xa26469706673582212207d14fde74d32d1b73cdecae19c6fa3805c90c54f0e119ac99ae8f06e96bb381464736f6c634300080d0033\n}\n",
				"bytecode": {
					"linkReferences": {},
					"object": "608060405234801561001057600080fd5b50610298806100206000396000f3fe608060405234801561001057600080fd5b506004361061004c5760003560e01c80630f166ad41461005157806323fd0e401461006f5780633b683f361461008d578063df3e46b0146100ad575b600080fd5b6100596100cb565b604051610066919061014a565b60405180910390f35b6100776100e3565b604051610084919061014a565b60405180910390f35b6100956100e9565b6040516100a4939291906101a6565b60405180910390f35b6100b5610122565b6040516100c2919061014a565b60405180910390f35b60008061010090508060008190555060005491505090565b60005481565b600080600080610159905080600081905550602d81610108919061020c565b905060006001905080600054839450945094505050909192565b60008061010090508091505090565b6000819050919050565b61014481610131565b82525050565b600060208201905061015f600083018461013b565b92915050565b600073ffffffffffffffffffffffffffffffffffffffff82169050919050565b600061019082610165565b9050919050565b6101a081610185565b82525050565b60006060820190506101bb6000830186610197565b6101c8602083018561013b565b6101d5604083018461013b565b949350505050565b7f4e487b7100000000000000000000000000000000000000000000000000000000600052601160045260246000fd5b600061021782610131565b915061022283610131565b9250827fffffffffffffffffffffffffffffffffffffffffffffffffffffffffffffffff03821115610257576102566101dd565b5b82820190509291505056fea26469706673582212207d14fde74d32d1b73cdecae19c6fa3805c90c54f0e119ac99ae8f06e96bb381464736f6c634300080d0033",
					"opcodes": "PUSH1 0x80 PUSH1 0x40 MSTORE CALLVALUE DUP1 ISZERO PUSH2 0x10 JUMPI PUSH1 0x0 DUP1 REVERT JUMPDEST POP PUSH2 0x298 DUP1 PUSH2 0x20 PUSH1 0x0 CODECOPY PUSH1 0x0 RETURN INVALID PUSH1 0x80 PUSH1 0x40 MSTORE CALLVALUE DUP1 ISZERO PUSH2 0x10 JUMPI PUSH1 0x0 DUP1 REVERT JUMPDEST POP PUSH1 0x4 CALLDATASIZE LT PUSH2 0x4C JUMPI PUSH1 0x0 CALLDATALOAD PUSH1 0xE0 SHR DUP1 PUSH4 0xF166AD4 EQ PUSH2 0x51 JUMPI DUP1 PUSH4 0x23FD0E40 EQ PUSH2 0x6F JUMPI DUP1 PUSH4 0x3B683F36 EQ PUSH2 0x8D JUMPI DUP1 PUSH4 0xDF3E46B0 EQ PUSH2 0xAD JUMPI JUMPDEST PUSH1 0x0 DUP1 REVERT JUMPDEST PUSH2 0x59 PUSH2 0xCB JUMP JUMPDEST PUSH1 0x40 MLOAD PUSH2 0x66 SWAP2 SWAP1 PUSH2 0x14A JUMP JUMPDEST PUSH1 0x40 MLOAD DUP1 SWAP2 SUB SWAP1 RETURN JUMPDEST PUSH2 0x77 PUSH2 0xE3 JUMP JUMPDEST PUSH1 0x40 MLOAD PUSH2 0x84 SWAP2 SWAP1 PUSH2 0x14A JUMP JUMPDEST PUSH1 0x40 MLOAD DUP1 SWAP2 SUB SWAP1 RETURN JUMPDEST PUSH2 0x95 PUSH2 0xE9 JUMP JUMPDEST PUSH1 0x40 MLOAD PUSH2 0xA4 SWAP4 SWAP3 SWAP2 SWAP1 PUSH2 0x1A6 JUMP JUMPDEST PUSH1 0x40 MLOAD DUP1 SWAP2 SUB SWAP1 RETURN JUMPDEST PUSH2 0xB5 PUSH2 0x122 JUMP JUMPDEST PUSH1 0x40 MLOAD PUSH2 0xC2 SWAP2 SWAP1 PUSH2 0x14A JUMP JUMPDEST PUSH1 0x40 MLOAD DUP1 SWAP2 SUB SWAP1 RETURN JUMPDEST PUSH1 0x0 DUP1 PUSH2 0x100 SWAP1 POP DUP1 PUSH1 0x0 DUP2 SWAP1 SSTORE POP PUSH1 0x0 SLOAD SWAP2 POP POP SWAP1 JUMP JUMPDEST PUSH1 0x0 SLOAD DUP2 JUMP JUMPDEST PUSH1 0x0 DUP1 PUSH1 0x0 DUP1 PUSH2 0x159 SWAP1 POP DUP1 PUSH1 0x0 DUP2 SWAP1 SSTORE POP PUSH1 0x2D DUP2 PUSH2 0x108 SWAP2 SWAP1 PUSH2 0x20C JUMP JUMPDEST SWAP1 POP PUSH1 0x0 PUSH1 0x1 SWAP1 POP DUP1 PUSH1 0x0 SLOAD DUP4 SWAP5 POP SWAP5 POP SWAP5 POP POP POP SWAP1 SWAP2 SWAP3 JUMP JUMPDEST PUSH1 0x0 DUP1 PUSH2 0x100 SWAP1 POP DUP1 SWAP2 POP POP SWAP1 JUMP JUMPDEST PUSH1 0x0 DUP2 SWAP1 POP SWAP2 SWAP1 POP JUMP JUMPDEST PUSH2 0x144 DUP2 PUSH2 0x131 JUMP JUMPDEST DUP3 MSTORE POP POP JUMP JUMPDEST PUSH1 0x0 PUSH1 0x20 DUP3 ADD SWAP1 POP PUSH2 0x15F PUSH1 0x0 DUP4 ADD DUP5 PUSH2 0x13B JUMP JUMPDEST SWAP3 SWAP2 POP POP JUMP JUMPDEST PUSH1 0x0 PUSH20 0xFFFFFFFFFFFFFFFFFFFFFFFFFFFFFFFFFFFFFFFF DUP3 AND SWAP1 POP SWAP2 SWAP1 POP JUMP JUMPDEST PUSH1 0x0 PUSH2 0x190 DUP3 PUSH2 0x165 JUMP JUMPDEST SWAP1 POP SWAP2 SWAP1 POP JUMP JUMPDEST PUSH2 0x1A0 DUP2 PUSH2 0x185 JUMP JUMPDEST DUP3 MSTORE POP POP JUMP JUMPDEST PUSH1 0x0 PUSH1 0x60 DUP3 ADD SWAP1 POP PUSH2 0x1BB PUSH1 0x0 DUP4 ADD DUP7 PUSH2 0x197 JUMP JUMPDEST PUSH2 0x1C8 PUSH1 0x20 DUP4 ADD DUP6 PUSH2 0x13B JUMP JUMPDEST PUSH2 0x1D5 PUSH1 0x40 DUP4 ADD DUP5 PUSH2 0x13B JUMP JUMPDEST SWAP5 SWAP4 POP POP POP POP JUMP JUMPDEST PUSH32 0x4E487B7100000000000000000000000000000000000000000000000000000000 PUSH1 0x0 MSTORE PUSH1 0x11 PUSH1 0x4 MSTORE PUSH1 0x24 PUSH1 0x0 REVERT JUMPDEST PUSH1 0x0 PUSH2 0x217 DUP3 PUSH2 0x131 JUMP JUMPDEST SWAP2 POP PUSH2 0x222 DUP4 PUSH2 0x131 JUMP JUMPDEST SWAP3 POP DUP3 PUSH32 0xFFFFFFFFFFFFFFFFFFFFFFFFFFFFFFFFFFFFFFFFFFFFFFFFFFFFFFFFFFFFFFFF SUB DUP3 GT ISZERO PUSH2 0x257 JUMPI PUSH2 0x256 PUSH2 0x1DD JUMP JUMPDEST JUMPDEST DUP3 DUP3 ADD SWAP1 POP SWAP3 SWAP2 POP POP JUMP INVALID LOG2 PUSH5 0x6970667358 0x22 SLT KECCAK256 PUSH30 0x14FDE74D32D1B73CDECAE19C6FA3805C90C54F0E119AC99AE8F06E96BB38 EQ PUSH5 0x736F6C6343 STOP ADDMOD 0xD STOP CALLER "
				},
				"gasEstimates": {
					"creation": {
						"codeDepositCost": "132800",
						"executionCost": "177",
						"totalCost": "132977"
					},
					"external": {
						"local()": "24542",
						"local_a()": "infinite",
						"local_p()": "394",
						"myNumber()": "2429"
					}
				},
				"methodIdentifiers": {
					"local()": "0f166ad4",
					"local_a()": "3b683f36",
					"local_p()": "df3e46b0",
					"myNumber()": "23fd0e40"
				}
			},
			"storageLayout": {
				"storage": [
					{
						"astId": 3,
						"contract": "contracts/localVariables_10.sol:LocalVariables",
						"label": "myNumber",
						"offset": 0,
						"slot": "0",
						"type": "t_uint256"
					}
				],
				"types": {
					"t_uint256": {
						"encoding": "inplace",
						"label": "uint256",
						"numberOfBytes": "32"
					}
				}
			},
			"userdoc": {
				"kind": "user",
				"methods": {},
				"version": 1
			}
		}
	}
}