{
	"contracts/revert_statement_22.sol": {
		"RevertStatements": {
			"abi": [
				{
					"inputs": [
						{
							"internalType": "uint256",
							"name": "_num1",
							"type": "uint256"
						},
						{
							"internalType": "uint256",
							"name": "_num2",
							"type": "uint256"
						}
					],
					"name": "checkOverFlow",
					"outputs": [
						{
							"internalType": "string",
							"name": "",
							"type": "string"
						},
						{
							"internalType": "uint256",
							"name": "",
							"type": "uint256"
						}
					],
					"stateMutability": "view",
					"type": "function"
				}
			],
			"devdoc": {
				"kind": "dev",
				"methods": {},
				"version": 1
			},
			"evm": {
				"assembly": "    /* \"contracts/revert_statement_22.sol\":192:1323  contract RevertStatements{... */\n  mstore(0x40, 0x80)\n  callvalue\n  dup1\n  iszero\n  tag_1\n  jumpi\n  0x00\n  dup1\n  revert\ntag_1:\n  pop\n  dataSize(sub_0)\n  dup1\n  dataOffset(sub_0)\n  0x00\n  codecopy\n  0x00\n  return\nstop\n\nsub_0: assembly {\n        /* \"contracts/revert_statement_22.sol\":192:1323  contract RevertStatements{... */\n      mstore(0x40, 0x80)\n      callvalue\n      dup1\n      iszero\n      tag_1\n      jumpi\n      0x00\n      dup1\n      revert\n    tag_1:\n      pop\n      jumpi(tag_2, lt(calldatasize, 0x04))\n      shr(0xe0, calldataload(0x00))\n      dup1\n      0x0bfb0686\n      eq\n      tag_3\n      jumpi\n    tag_2:\n      0x00\n      dup1\n      revert\n        /* \"contracts/revert_statement_22.sol\":905:1182  function checkOverFlow(uint256 _num1, uint256 _num2)public view returns(string memory, uint256){... */\n    tag_3:\n      tag_4\n      0x04\n      dup1\n      calldatasize\n      sub\n      dup2\n      add\n      swap1\n      tag_5\n      swap2\n      swap1\n      tag_6\n      jump\t// in\n    tag_5:\n      tag_7\n      jump\t// in\n    tag_4:\n      mload(0x40)\n      tag_8\n      swap3\n      swap2\n      swap1\n      tag_9\n      jump\t// in\n    tag_8:\n      mload(0x40)\n      dup1\n      swap2\n      sub\n      swap1\n      return\n    tag_7:\n        /* \"contracts/revert_statement_22.sol\":977:990  string memory */\n      0x60\n        /* \"contracts/revert_statement_22.sol\":992:999  uint256 */\n      0x00\n        /* \"contracts/revert_statement_22.sol\":1010:1021  uint256 sum */\n      dup1\n        /* \"contracts/revert_statement_22.sol\":1032:1037  _num2 */\n      dup4\n        /* \"contracts/revert_statement_22.sol\":1024:1029  _num1 */\n      dup6\n        /* \"contracts/revert_statement_22.sol\":1024:1037  _num1 + _num2 */\n      tag_11\n      swap2\n      swap1\n      tag_12\n      jump\t// in\n    tag_11:\n        /* \"contracts/revert_statement_22.sol\":1010:1037  uint256 sum = _num1 + _num2 */\n      swap1\n      pop\n        /* \"contracts/revert_statement_22.sol\":1066:1067  0 */\n      0x00\n        /* \"contracts/revert_statement_22.sol\":1059:1062  sum */\n      dup2\n        /* \"contracts/revert_statement_22.sol\":1059:1067  sum <= 0 */\n      gt\n      iszero\n        /* \"contracts/revert_statement_22.sol\":1059:1080  sum <= 0 || sum > 255 */\n      dup1\n      tag_13\n      jumpi\n      pop\n        /* \"contracts/revert_statement_22.sol\":1077:1080  255 */\n      0xff\n        /* \"contracts/revert_statement_22.sol\":1071:1074  sum */\n      dup2\n        /* \"contracts/revert_statement_22.sol\":1071:1080  sum > 255 */\n      gt\n        /* \"contracts/revert_statement_22.sol\":1059:1080  sum <= 0 || sum > 255 */\n    tag_13:\n        /* \"contracts/revert_statement_22.sol\":1056:1175  if(sum <= 0 || sum > 255)... */\n      iszero\n      tag_14\n      jumpi\n        /* \"contracts/revert_statement_22.sol\":1094:1120  revert(\"Overflow Exist !\") */\n      mload(0x40)\n      0x08c379a000000000000000000000000000000000000000000000000000000000\n      dup2\n      mstore\n      0x04\n      add\n      tag_15\n      swap1\n      tag_16\n      jump\t// in\n    tag_15:\n      mload(0x40)\n      dup1\n      swap2\n      sub\n      swap1\n      revert\n        /* \"contracts/revert_statement_22.sol\":1056:1175  if(sum <= 0 || sum > 255)... */\n    tag_14:\n        /* \"contracts/revert_statement_22.sol\":1171:1174  sum */\n      dup1\n        /* \"contracts/revert_statement_22.sol\":1147:1175  return(\"No Overflow !\", sum) */\n      mload(0x40)\n      dup1\n      0x40\n      add\n      0x40\n      mstore\n      dup1\n      0x0d\n      dup2\n      mstore\n      0x20\n      add\n      0x4e6f204f766572666c6f77202100000000000000000000000000000000000000\n      dup2\n      mstore\n      pop\n      swap1\n      swap3\n      pop\n      swap3\n      pop\n      pop\n        /* \"contracts/revert_statement_22.sol\":905:1182  function checkOverFlow(uint256 _num1, uint256 _num2)public view returns(string memory, uint256){... */\n      swap3\n      pop\n      swap3\n      swap1\n      pop\n      jump\t// out\n        /* \"#utility.yul\":88:205   */\n    tag_19:\n        /* \"#utility.yul\":197:198   */\n      0x00\n        /* \"#utility.yul\":194:195   */\n      dup1\n        /* \"#utility.yul\":187:199   */\n      revert\n        /* \"#utility.yul\":334:411   */\n    tag_21:\n        /* \"#utility.yul\":371:378   */\n      0x00\n        /* \"#utility.yul\":400:405   */\n      dup2\n        /* \"#utility.yul\":389:405   */\n      swap1\n      pop\n        /* \"#utility.yul\":334:411   */\n      swap2\n      swap1\n      pop\n      jump\t// out\n        /* \"#utility.yul\":417:539   */\n    tag_22:\n        /* \"#utility.yul\":490:514   */\n      tag_39\n        /* \"#utility.yul\":508:513   */\n      dup2\n        /* \"#utility.yul\":490:514   */\n      tag_21\n      jump\t// in\n    tag_39:\n        /* \"#utility.yul\":483:488   */\n      dup2\n        /* \"#utility.yul\":480:515   */\n      eq\n        /* \"#utility.yul\":470:533   */\n      tag_40\n      jumpi\n        /* \"#utility.yul\":529:530   */\n      0x00\n        /* \"#utility.yul\":526:527   */\n      dup1\n        /* \"#utility.yul\":519:531   */\n      revert\n        /* \"#utility.yul\":470:533   */\n    tag_40:\n        /* \"#utility.yul\":417:539   */\n      pop\n      jump\t// out\n        /* \"#utility.yul\":545:684   */\n    tag_23:\n        /* \"#utility.yul\":591:596   */\n      0x00\n        /* \"#utility.yul\":629:635   */\n      dup2\n        /* \"#utility.yul\":616:636   */\n      calldataload\n        /* \"#utility.yul\":607:636   */\n      swap1\n      pop\n        /* \"#utility.yul\":645:678   */\n      tag_42\n        /* \"#utility.yul\":672:677   */\n      dup2\n        /* \"#utility.yul\":645:678   */\n      tag_22\n      jump\t// in\n    tag_42:\n        /* \"#utility.yul\":545:684   */\n      swap3\n      swap2\n      pop\n      pop\n      jump\t// out\n        /* \"#utility.yul\":690:1164   */\n    tag_6:\n        /* \"#utility.yul\":758:764   */\n      0x00\n        /* \"#utility.yul\":766:772   */\n      dup1\n        /* \"#utility.yul\":815:817   */\n      0x40\n        /* \"#utility.yul\":803:812   */\n      dup4\n        /* \"#utility.yul\":794:801   */\n      dup6\n        /* \"#utility.yul\":790:813   */\n      sub\n        /* \"#utility.yul\":786:818   */\n      slt\n        /* \"#utility.yul\":783:902   */\n      iszero\n      tag_44\n      jumpi\n        /* \"#utility.yul\":821:900   */\n      tag_45\n      tag_19\n      jump\t// in\n    tag_45:\n        /* \"#utility.yul\":783:902   */\n    tag_44:\n        /* \"#utility.yul\":941:942   */\n      0x00\n        /* \"#utility.yul\":966:1019   */\n      tag_46\n        /* \"#utility.yul\":1011:1018   */\n      dup6\n        /* \"#utility.yul\":1002:1008   */\n      dup3\n        /* \"#utility.yul\":991:1000   */\n      dup7\n        /* \"#utility.yul\":987:1009   */\n      add\n        /* \"#utility.yul\":966:1019   */\n      tag_23\n      jump\t// in\n    tag_46:\n        /* \"#utility.yul\":956:1019   */\n      swap3\n      pop\n        /* \"#utility.yul\":912:1029   */\n      pop\n        /* \"#utility.yul\":1068:1070   */\n      0x20\n        /* \"#utility.yul\":1094:1147   */\n      tag_47\n        /* \"#utility.yul\":1139:1146   */\n      dup6\n        /* \"#utility.yul\":1130:1136   */\n      dup3\n        /* \"#utility.yul\":1119:1128   */\n      dup7\n        /* \"#utility.yul\":1115:1137   */\n      add\n        /* \"#utility.yul\":1094:1147   */\n      tag_23\n      jump\t// in\n    tag_47:\n        /* \"#utility.yul\":1084:1147   */\n      swap2\n      pop\n        /* \"#utility.yul\":1039:1157   */\n      pop\n        /* \"#utility.yul\":690:1164   */\n      swap3\n      pop\n      swap3\n      swap1\n      pop\n      jump\t// out\n        /* \"#utility.yul\":1170:1269   */\n    tag_24:\n        /* \"#utility.yul\":1222:1228   */\n      0x00\n        /* \"#utility.yul\":1256:1261   */\n      dup2\n        /* \"#utility.yul\":1250:1262   */\n      mload\n        /* \"#utility.yul\":1240:1262   */\n      swap1\n      pop\n        /* \"#utility.yul\":1170:1269   */\n      swap2\n      swap1\n      pop\n      jump\t// out\n        /* \"#utility.yul\":1275:1444   */\n    tag_25:\n        /* \"#utility.yul\":1359:1370   */\n      0x00\n        /* \"#utility.yul\":1393:1399   */\n      dup3\n        /* \"#utility.yul\":1388:1391   */\n      dup3\n        /* \"#utility.yul\":1381:1400   */\n      mstore\n        /* \"#utility.yul\":1433:1437   */\n      0x20\n        /* \"#utility.yul\":1428:1431   */\n      dup3\n        /* \"#utility.yul\":1424:1438   */\n      add\n        /* \"#utility.yul\":1409:1438   */\n      swap1\n      pop\n        /* \"#utility.yul\":1275:1444   */\n      swap3\n      swap2\n      pop\n      pop\n      jump\t// out\n        /* \"#utility.yul\":1450:1757   */\n    tag_26:\n        /* \"#utility.yul\":1518:1519   */\n      0x00\n        /* \"#utility.yul\":1528:1641   */\n    tag_51:\n        /* \"#utility.yul\":1542:1548   */\n      dup4\n        /* \"#utility.yul\":1539:1540   */\n      dup2\n        /* \"#utility.yul\":1536:1549   */\n      lt\n        /* \"#utility.yul\":1528:1641   */\n      iszero\n      tag_53\n      jumpi\n        /* \"#utility.yul\":1627:1628   */\n      dup1\n        /* \"#utility.yul\":1622:1625   */\n      dup3\n        /* \"#utility.yul\":1618:1629   */\n      add\n        /* \"#utility.yul\":1612:1630   */\n      mload\n        /* \"#utility.yul\":1608:1609   */\n      dup2\n        /* \"#utility.yul\":1603:1606   */\n      dup5\n        /* \"#utility.yul\":1599:1610   */\n      add\n        /* \"#utility.yul\":1592:1631   */\n      mstore\n        /* \"#utility.yul\":1564:1566   */\n      0x20\n        /* \"#utility.yul\":1561:1562   */\n      dup2\n        /* \"#utility.yul\":1557:1567   */\n      add\n        /* \"#utility.yul\":1552:1567   */\n      swap1\n      pop\n        /* \"#utility.yul\":1528:1641   */\n      jump(tag_51)\n    tag_53:\n        /* \"#utility.yul\":1659:1665   */\n      dup4\n        /* \"#utility.yul\":1656:1657   */\n      dup2\n        /* \"#utility.yul\":1653:1666   */\n      gt\n        /* \"#utility.yul\":1650:1751   */\n      iszero\n      tag_54\n      jumpi\n        /* \"#utility.yul\":1739:1740   */\n      0x00\n        /* \"#utility.yul\":1730:1736   */\n      dup5\n        /* \"#utility.yul\":1725:1728   */\n      dup5\n        /* \"#utility.yul\":1721:1737   */\n      add\n        /* \"#utility.yul\":1714:1741   */\n      mstore\n        /* \"#utility.yul\":1650:1751   */\n    tag_54:\n        /* \"#utility.yul\":1499:1757   */\n      pop\n        /* \"#utility.yul\":1450:1757   */\n      pop\n      pop\n      pop\n      jump\t// out\n        /* \"#utility.yul\":1763:1865   */\n    tag_27:\n        /* \"#utility.yul\":1804:1810   */\n      0x00\n        /* \"#utility.yul\":1855:1857   */\n      0x1f\n        /* \"#utility.yul\":1851:1858   */\n      not\n        /* \"#utility.yul\":1846:1848   */\n      0x1f\n        /* \"#utility.yul\":1839:1844   */\n      dup4\n        /* \"#utility.yul\":1835:1849   */\n      add\n        /* \"#utility.yul\":1831:1859   */\n      and\n        /* \"#utility.yul\":1821:1859   */\n      swap1\n      pop\n        /* \"#utility.yul\":1763:1865   */\n      swap2\n      swap1\n      pop\n      jump\t// out\n        /* \"#utility.yul\":1871:2235   */\n    tag_28:\n        /* \"#utility.yul\":1959:1962   */\n      0x00\n        /* \"#utility.yul\":1987:2026   */\n      tag_57\n        /* \"#utility.yul\":2020:2025   */\n      dup3\n        /* \"#utility.yul\":1987:2026   */\n      tag_24\n      jump\t// in\n    tag_57:\n        /* \"#utility.yul\":2042:2113   */\n      tag_58\n        /* \"#utility.yul\":2106:2112   */\n      dup2\n        /* \"#utility.yul\":2101:2104   */\n      dup6\n        /* \"#utility.yul\":2042:2113   */\n      tag_25\n      jump\t// in\n    tag_58:\n        /* \"#utility.yul\":2035:2113   */\n      swap4\n      pop\n        /* \"#utility.yul\":2122:2174   */\n      tag_59\n        /* \"#utility.yul\":2167:2173   */\n      dup2\n        /* \"#utility.yul\":2162:2165   */\n      dup6\n        /* \"#utility.yul\":2155:2159   */\n      0x20\n        /* \"#utility.yul\":2148:2153   */\n      dup7\n        /* \"#utility.yul\":2144:2160   */\n      add\n        /* \"#utility.yul\":2122:2174   */\n      tag_26\n      jump\t// in\n    tag_59:\n        /* \"#utility.yul\":2199:2228   */\n      tag_60\n        /* \"#utility.yul\":2221:2227   */\n      dup2\n        /* \"#utility.yul\":2199:2228   */\n      tag_27\n      jump\t// in\n    tag_60:\n        /* \"#utility.yul\":2194:2197   */\n      dup5\n        /* \"#utility.yul\":2190:2229   */\n      add\n        /* \"#utility.yul\":2183:2229   */\n      swap2\n      pop\n        /* \"#utility.yul\":1963:2235   */\n      pop\n        /* \"#utility.yul\":1871:2235   */\n      swap3\n      swap2\n      pop\n      pop\n      jump\t// out\n        /* \"#utility.yul\":2241:2359   */\n    tag_29:\n        /* \"#utility.yul\":2328:2352   */\n      tag_62\n        /* \"#utility.yul\":2346:2351   */\n      dup2\n        /* \"#utility.yul\":2328:2352   */\n      tag_21\n      jump\t// in\n    tag_62:\n        /* \"#utility.yul\":2323:2326   */\n      dup3\n        /* \"#utility.yul\":2316:2353   */\n      mstore\n        /* \"#utility.yul\":2241:2359   */\n      pop\n      pop\n      jump\t// out\n        /* \"#utility.yul\":2365:2788   */\n    tag_9:\n        /* \"#utility.yul\":2506:2510   */\n      0x00\n        /* \"#utility.yul\":2544:2546   */\n      0x40\n        /* \"#utility.yul\":2533:2542   */\n      dup3\n        /* \"#utility.yul\":2529:2547   */\n      add\n        /* \"#utility.yul\":2521:2547   */\n      swap1\n      pop\n        /* \"#utility.yul\":2593:2602   */\n      dup2\n        /* \"#utility.yul\":2587:2591   */\n      dup2\n        /* \"#utility.yul\":2583:2603   */\n      sub\n        /* \"#utility.yul\":2579:2580   */\n      0x00\n        /* \"#utility.yul\":2568:2577   */\n      dup4\n        /* \"#utility.yul\":2564:2581   */\n      add\n        /* \"#utility.yul\":2557:2604   */\n      mstore\n        /* \"#utility.yul\":2621:2699   */\n      tag_64\n        /* \"#utility.yul\":2694:2698   */\n      dup2\n        /* \"#utility.yul\":2685:2691   */\n      dup6\n        /* \"#utility.yul\":2621:2699   */\n      tag_28\n      jump\t// in\n    tag_64:\n        /* \"#utility.yul\":2613:2699   */\n      swap1\n      pop\n        /* \"#utility.yul\":2709:2781   */\n      tag_65\n        /* \"#utility.yul\":2777:2779   */\n      0x20\n        /* \"#utility.yul\":2766:2775   */\n      dup4\n        /* \"#utility.yul\":2762:2780   */\n      add\n        /* \"#utility.yul\":2753:2759   */\n      dup5\n        /* \"#utility.yul\":2709:2781   */\n      tag_29\n      jump\t// in\n    tag_65:\n        /* \"#utility.yul\":2365:2788   */\n      swap4\n      swap3\n      pop\n      pop\n      pop\n      jump\t// out\n        /* \"#utility.yul\":2794:2974   */\n    tag_30:\n        /* \"#utility.yul\":2842:2919   */\n      0x4e487b7100000000000000000000000000000000000000000000000000000000\n        /* \"#utility.yul\":2839:2840   */\n      0x00\n        /* \"#utility.yul\":2832:2920   */\n      mstore\n        /* \"#utility.yul\":2939:2943   */\n      0x11\n        /* \"#utility.yul\":2936:2937   */\n      0x04\n        /* \"#utility.yul\":2929:2944   */\n      mstore\n        /* \"#utility.yul\":2963:2967   */\n      0x24\n        /* \"#utility.yul\":2960:2961   */\n      0x00\n        /* \"#utility.yul\":2953:2968   */\n      revert\n        /* \"#utility.yul\":2980:3285   */\n    tag_12:\n        /* \"#utility.yul\":3020:3023   */\n      0x00\n        /* \"#utility.yul\":3039:3059   */\n      tag_68\n        /* \"#utility.yul\":3057:3058   */\n      dup3\n        /* \"#utility.yul\":3039:3059   */\n      tag_21\n      jump\t// in\n    tag_68:\n        /* \"#utility.yul\":3034:3059   */\n      swap2\n      pop\n        /* \"#utility.yul\":3073:3093   */\n      tag_69\n        /* \"#utility.yul\":3091:3092   */\n      dup4\n        /* \"#utility.yul\":3073:3093   */\n      tag_21\n      jump\t// in\n    tag_69:\n        /* \"#utility.yul\":3068:3093   */\n      swap3\n      pop\n        /* \"#utility.yul\":3227:3228   */\n      dup3\n        /* \"#utility.yul\":3159:3225   */\n      0xffffffffffffffffffffffffffffffffffffffffffffffffffffffffffffffff\n        /* \"#utility.yul\":3155:3229   */\n      sub\n        /* \"#utility.yul\":3152:3153   */\n      dup3\n        /* \"#utility.yul\":3149:3230   */\n      gt\n        /* \"#utility.yul\":3146:3253   */\n      iszero\n      tag_70\n      jumpi\n        /* \"#utility.yul\":3233:3251   */\n      tag_71\n      tag_30\n      jump\t// in\n    tag_71:\n        /* \"#utility.yul\":3146:3253   */\n    tag_70:\n        /* \"#utility.yul\":3277:3278   */\n      dup3\n        /* \"#utility.yul\":3274:3275   */\n      dup3\n        /* \"#utility.yul\":3270:3279   */\n      add\n        /* \"#utility.yul\":3263:3279   */\n      swap1\n      pop\n        /* \"#utility.yul\":2980:3285   */\n      swap3\n      swap2\n      pop\n      pop\n      jump\t// out\n        /* \"#utility.yul\":3291:3457   */\n    tag_31:\n        /* \"#utility.yul\":3431:3449   */\n      0x4f766572666c6f77204578697374202100000000000000000000000000000000\n        /* \"#utility.yul\":3427:3428   */\n      0x00\n        /* \"#utility.yul\":3419:3425   */\n      dup3\n        /* \"#utility.yul\":3415:3429   */\n      add\n        /* \"#utility.yul\":3408:3450   */\n      mstore\n        /* \"#utility.yul\":3291:3457   */\n      pop\n      jump\t// out\n        /* \"#utility.yul\":3463:3829   */\n    tag_32:\n        /* \"#utility.yul\":3605:3608   */\n      0x00\n        /* \"#utility.yul\":3626:3693   */\n      tag_74\n        /* \"#utility.yul\":3690:3692   */\n      0x10\n        /* \"#utility.yul\":3685:3688   */\n      dup4\n        /* \"#utility.yul\":3626:3693   */\n      tag_25\n      jump\t// in\n    tag_74:\n        /* \"#utility.yul\":3619:3693   */\n      swap2\n      pop\n        /* \"#utility.yul\":3702:3795   */\n      tag_75\n        /* \"#utility.yul\":3791:3794   */\n      dup3\n        /* \"#utility.yul\":3702:3795   */\n      tag_31\n      jump\t// in\n    tag_75:\n        /* \"#utility.yul\":3820:3822   */\n      0x20\n        /* \"#utility.yul\":3815:3818   */\n      dup3\n        /* \"#utility.yul\":3811:3823   */\n      add\n        /* \"#utility.yul\":3804:3823   */\n      swap1\n      pop\n        /* \"#utility.yul\":3463:3829   */\n      swap2\n      swap1\n      pop\n      jump\t// out\n        /* \"#utility.yul\":3835:4254   */\n    tag_16:\n        /* \"#utility.yul\":4001:4005   */\n      0x00\n        /* \"#utility.yul\":4039:4041   */\n      0x20\n        /* \"#utility.yul\":4028:4037   */\n      dup3\n        /* \"#utility.yul\":4024:4042   */\n      add\n        /* \"#utility.yul\":4016:4042   */\n      swap1\n      pop\n        /* \"#utility.yul\":4088:4097   */\n      dup2\n        /* \"#utility.yul\":4082:4086   */\n      dup2\n        /* \"#utility.yul\":4078:4098   */\n      sub\n        /* \"#utility.yul\":4074:4075   */\n      0x00\n        /* \"#utility.yul\":4063:4072   */\n      dup4\n        /* \"#utility.yul\":4059:4076   */\n      add\n        /* \"#utility.yul\":4052:4099   */\n      mstore\n        /* \"#utility.yul\":4116:4247   */\n      tag_77\n        /* \"#utility.yul\":4242:4246   */\n      dup2\n        /* \"#utility.yul\":4116:4247   */\n      tag_32\n      jump\t// in\n    tag_77:\n        /* \"#utility.yul\":4108:4247   */\n      swap1\n      pop\n        /* \"#utility.yul\":3835:4254   */\n      swap2\n      swap1\n      pop\n      jump\t// out\n\n    auxdata: 0xa26469706673582212204b254bb3b951aa4eee33cdc48e1dd381e5a3477f57732b8adc0a517ec4ae1d0064736f6c634300080d0033\n}\n",
				"bytecode": {
					"linkReferences": {},
					"object": "608060405234801561001057600080fd5b50610382806100206000396000f3fe608060405234801561001057600080fd5b506004361061002b5760003560e01c80630bfb068614610030575b600080fd5b61004a60048036038101906100459190610143565b610061565b60405161005892919061022b565b60405180910390f35b60606000808385610072919061028a565b9050600081111580610084575060ff81115b156100c4576040517f08c379a00000000000000000000000000000000000000000000000000000000081526004016100bb9061032c565b60405180910390fd5b806040518060400160405280600d81526020017f4e6f204f766572666c6f772021000000000000000000000000000000000000008152509092509250509250929050565b600080fd5b6000819050919050565b6101208161010d565b811461012b57600080fd5b50565b60008135905061013d81610117565b92915050565b6000806040838503121561015a57610159610108565b5b60006101688582860161012e565b92505060206101798582860161012e565b9150509250929050565b600081519050919050565b600082825260208201905092915050565b60005b838110156101bd5780820151818401526020810190506101a2565b838111156101cc576000848401525b50505050565b6000601f19601f8301169050919050565b60006101ee82610183565b6101f8818561018e565b935061020881856020860161019f565b610211816101d2565b840191505092915050565b6102258161010d565b82525050565b6000604082019050818103600083015261024581856101e3565b9050610254602083018461021c565b9392505050565b7f4e487b7100000000000000000000000000000000000000000000000000000000600052601160045260246000fd5b60006102958261010d565b91506102a08361010d565b9250827fffffffffffffffffffffffffffffffffffffffffffffffffffffffffffffffff038211156102d5576102d461025b565b5b828201905092915050565b7f4f766572666c6f77204578697374202100000000000000000000000000000000600082015250565b600061031660108361018e565b9150610321826102e0565b602082019050919050565b6000602082019050818103600083015261034581610309565b905091905056fea26469706673582212204b254bb3b951aa4eee33cdc48e1dd381e5a3477f57732b8adc0a517ec4ae1d0064736f6c634300080d0033",
					"opcodes": "PUSH1 0x80 PUSH1 0x40 MSTORE CALLVALUE DUP1 ISZERO PUSH2 0x10 JUMPI PUSH1 0x0 DUP1 REVERT JUMPDEST POP PUSH2 0x382 DUP1 PUSH2 0x20 PUSH1 0x0 CODECOPY PUSH1 0x0 RETURN INVALID PUSH1 0x80 PUSH1 0x40 MSTORE CALLVALUE DUP1 ISZERO PUSH2 0x10 JUMPI PUSH1 0x0 DUP1 REVERT JUMPDEST POP PUSH1 0x4 CALLDATASIZE LT PUSH2 0x2B JUMPI PUSH1 0x0 CALLDATALOAD PUSH1 0xE0 SHR DUP1 PUSH4 0xBFB0686 EQ PUSH2 0x30 JUMPI JUMPDEST PUSH1 0x0 DUP1 REVERT JUMPDEST PUSH2 0x4A PUSH1 0x4 DUP1 CALLDATASIZE SUB DUP2 ADD SWAP1 PUSH2 0x45 SWAP2 SWAP1 PUSH2 0x143 JUMP JUMPDEST PUSH2 0x61 JUMP JUMPDEST PUSH1 0x40 MLOAD PUSH2 0x58 SWAP3 SWAP2 SWAP1 PUSH2 0x22B JUMP JUMPDEST PUSH1 0x40 MLOAD DUP1 SWAP2 SUB SWAP1 RETURN JUMPDEST PUSH1 0x60 PUSH1 0x0 DUP1 DUP4 DUP6 PUSH2 0x72 SWAP2 SWAP1 PUSH2 0x28A JUMP JUMPDEST SWAP1 POP PUSH1 0x0 DUP2 GT ISZERO DUP1 PUSH2 0x84 JUMPI POP PUSH1 0xFF DUP2 GT JUMPDEST ISZERO PUSH2 0xC4 JUMPI PUSH1 0x40 MLOAD PUSH32 0x8C379A000000000000000000000000000000000000000000000000000000000 DUP2 MSTORE PUSH1 0x4 ADD PUSH2 0xBB SWAP1 PUSH2 0x32C JUMP JUMPDEST PUSH1 0x40 MLOAD DUP1 SWAP2 SUB SWAP1 REVERT JUMPDEST DUP1 PUSH1 0x40 MLOAD DUP1 PUSH1 0x40 ADD PUSH1 0x40 MSTORE DUP1 PUSH1 0xD DUP2 MSTORE PUSH1 0x20 ADD PUSH32 0x4E6F204F766572666C6F77202100000000000000000000000000000000000000 DUP2 MSTORE POP SWAP1 SWAP3 POP SWAP3 POP POP SWAP3 POP SWAP3 SWAP1 POP JUMP JUMPDEST PUSH1 0x0 DUP1 REVERT JUMPDEST PUSH1 0x0 DUP2 SWAP1 POP SWAP2 SWAP1 POP JUMP JUMPDEST PUSH2 0x120 DUP2 PUSH2 0x10D JUMP JUMPDEST DUP2 EQ PUSH2 0x12B JUMPI PUSH1 0x0 DUP1 REVERT JUMPDEST POP JUMP JUMPDEST PUSH1 0x0 DUP2 CALLDATALOAD SWAP1 POP PUSH2 0x13D DUP2 PUSH2 0x117 JUMP JUMPDEST SWAP3 SWAP2 POP POP JUMP JUMPDEST PUSH1 0x0 DUP1 PUSH1 0x40 DUP4 DUP6 SUB SLT ISZERO PUSH2 0x15A JUMPI PUSH2 0x159 PUSH2 0x108 JUMP JUMPDEST JUMPDEST PUSH1 0x0 PUSH2 0x168 DUP6 DUP3 DUP7 ADD PUSH2 0x12E JUMP JUMPDEST SWAP3 POP POP PUSH1 0x20 PUSH2 0x179 DUP6 DUP3 DUP7 ADD PUSH2 0x12E JUMP JUMPDEST SWAP2 POP POP SWAP3 POP SWAP3 SWAP1 POP JUMP JUMPDEST PUSH1 0x0 DUP2 MLOAD SWAP1 POP SWAP2 SWAP1 POP JUMP JUMPDEST PUSH1 0x0 DUP3 DUP3 MSTORE PUSH1 0x20 DUP3 ADD SWAP1 POP SWAP3 SWAP2 POP POP JUMP JUMPDEST PUSH1 0x0 JUMPDEST DUP4 DUP2 LT ISZERO PUSH2 0x1BD JUMPI DUP1 DUP3 ADD MLOAD DUP2 DUP5 ADD MSTORE PUSH1 0x20 DUP2 ADD SWAP1 POP PUSH2 0x1A2 JUMP JUMPDEST DUP4 DUP2 GT ISZERO PUSH2 0x1CC JUMPI PUSH1 0x0 DUP5 DUP5 ADD MSTORE JUMPDEST POP POP POP POP JUMP JUMPDEST PUSH1 0x0 PUSH1 0x1F NOT PUSH1 0x1F DUP4 ADD AND SWAP1 POP SWAP2 SWAP1 POP JUMP JUMPDEST PUSH1 0x0 PUSH2 0x1EE DUP3 PUSH2 0x183 JUMP JUMPDEST PUSH2 0x1F8 DUP2 DUP6 PUSH2 0x18E JUMP JUMPDEST SWAP4 POP PUSH2 0x208 DUP2 DUP6 PUSH1 0x20 DUP7 ADD PUSH2 0x19F JUMP JUMPDEST PUSH2 0x211 DUP2 PUSH2 0x1D2 JUMP JUMPDEST DUP5 ADD SWAP2 POP POP SWAP3 SWAP2 POP POP JUMP JUMPDEST PUSH2 0x225 DUP2 PUSH2 0x10D JUMP JUMPDEST DUP3 MSTORE POP POP JUMP JUMPDEST PUSH1 0x0 PUSH1 0x40 DUP3 ADD SWAP1 POP DUP2 DUP2 SUB PUSH1 0x0 DUP4 ADD MSTORE PUSH2 0x245 DUP2 DUP6 PUSH2 0x1E3 JUMP JUMPDEST SWAP1 POP PUSH2 0x254 PUSH1 0x20 DUP4 ADD DUP5 PUSH2 0x21C JUMP JUMPDEST SWAP4 SWAP3 POP POP POP JUMP JUMPDEST PUSH32 0x4E487B7100000000000000000000000000000000000000000000000000000000 PUSH1 0x0 MSTORE PUSH1 0x11 PUSH1 0x4 MSTORE PUSH1 0x24 PUSH1 0x0 REVERT JUMPDEST PUSH1 0x0 PUSH2 0x295 DUP3 PUSH2 0x10D JUMP JUMPDEST SWAP2 POP PUSH2 0x2A0 DUP4 PUSH2 0x10D JUMP JUMPDEST SWAP3 POP DUP3 PUSH32 0xFFFFFFFFFFFFFFFFFFFFFFFFFFFFFFFFFFFFFFFFFFFFFFFFFFFFFFFFFFFFFFFF SUB DUP3 GT ISZERO PUSH2 0x2D5 JUMPI PUSH2 0x2D4 PUSH2 0x25B JUMP JUMPDEST JUMPDEST DUP3 DUP3 ADD SWAP1 POP SWAP3 SWAP2 POP POP JUMP JUMPDEST PUSH32 0x4F766572666C6F77204578697374202100000000000000000000000000000000 PUSH1 0x0 DUP3 ADD MSTORE POP JUMP JUMPDEST PUSH1 0x0 PUSH2 0x316 PUSH1 0x10 DUP4 PUSH2 0x18E JUMP JUMPDEST SWAP2 POP PUSH2 0x321 DUP3 PUSH2 0x2E0 JUMP JUMPDEST PUSH1 0x20 DUP3 ADD SWAP1 POP SWAP2 SWAP1 POP JUMP JUMPDEST PUSH1 0x0 PUSH1 0x20 DUP3 ADD SWAP1 POP DUP2 DUP2 SUB PUSH1 0x0 DUP4 ADD MSTORE PUSH2 0x345 DUP2 PUSH2 0x309 JUMP JUMPDEST SWAP1 POP SWAP2 SWAP1 POP JUMP INVALID LOG2 PUSH5 0x6970667358 0x22 SLT KECCAK256 0x4B 0x25 0x4B 0xB3 0xB9 MLOAD 0xAA 0x4E 0xEE CALLER 0xCD 0xC4 DUP15 SAR 0xD3 DUP2 0xE5 LOG3 SELFBALANCE PUSH32 0x57732B8ADC0A517EC4AE1D0064736F6C634300080D0033000000000000000000 "
				},
				"gasEstimates": {
					"creation": {
						"codeDepositCost": "179600",
						"executionCost": "226",
						"totalCost": "179826"
					},
					"external": {
						"checkOverFlow(uint256,uint256)": "infinite"
					}
				},
				"methodIdentifiers": {
					"checkOverFlow(uint256,uint256)": "0bfb0686"
				}
			},
			"storageLayout": {
				"storage": [],
				"types": null
			},
			"userdoc": {
				"kind": "user",
				"methods": {
					"checkOverFlow(uint256,uint256)": {
						"notice": "Na função abaixo é usado o 'revert', onde é feita uma verificação com com 'if' e, caso seja atendida, o revert é executado para lhe dar com o erro e o bloco é interrompido. Aparece uma mensagem no log de execução: revert: ' The transaction has been reverted to the initial state. Reason provided by the contract: \"Overflow Exist !\". ' Na maioria dos contratos que já existem em diferentes blockchains, o 'revert' NÃO é usado porque ele é limitado, pois necessário verificar as condições com base na declaração 'if else' . São usadas várias linhas de código desnecessárias. para usar a palavra chave 'revert'. "
					}
				},
				"version": 1
			}
		}
	}
}