{
	"contracts/teste.sol": {
		"View": {
			"abi": [
				{
					"inputs": [],
					"name": "NumC",
					"outputs": [
						{
							"internalType": "uint256",
							"name": "",
							"type": "uint256"
						}
					],
					"stateMutability": "view",
					"type": "function"
				},
				{
					"inputs": [],
					"name": "NumD",
					"outputs": [
						{
							"internalType": "uint256",
							"name": "",
							"type": "uint256"
						}
					],
					"stateMutability": "view",
					"type": "function"
				},
				{
					"inputs": [],
					"name": "calcProdTot",
					"outputs": [
						{
							"internalType": "uint256",
							"name": "produto",
							"type": "uint256"
						},
						{
							"internalType": "uint256",
							"name": "total",
							"type": "uint256"
						}
					],
					"stateMutability": "pure",
					"type": "function"
				},
				{
					"inputs": [],
					"name": "calcProdTotVarGlob",
					"outputs": [
						{
							"internalType": "uint256",
							"name": "produto",
							"type": "uint256"
						},
						{
							"internalType": "uint256",
							"name": "total",
							"type": "uint256"
						}
					],
					"stateMutability": "view",
					"type": "function"
				},
				{
					"inputs": [],
					"name": "calcProdTotVarGlobPublc",
					"outputs": [
						{
							"internalType": "uint256",
							"name": "",
							"type": "uint256"
						},
						{
							"internalType": "uint256",
							"name": "",
							"type": "uint256"
						}
					],
					"stateMutability": "view",
					"type": "function"
				},
				{
					"inputs": [],
					"name": "calcProdTotVarGlobView",
					"outputs": [
						{
							"internalType": "uint256",
							"name": "produto",
							"type": "uint256"
						},
						{
							"internalType": "uint256",
							"name": "total",
							"type": "uint256"
						}
					],
					"stateMutability": "nonpayable",
					"type": "function"
				},
				{
					"inputs": [],
					"name": "printNums",
					"outputs": [
						{
							"internalType": "uint256",
							"name": "",
							"type": "uint256"
						},
						{
							"internalType": "uint256",
							"name": "",
							"type": "uint256"
						}
					],
					"stateMutability": "view",
					"type": "function"
				}
			],
			"devdoc": {
				"kind": "dev",
				"methods": {},
				"version": 1
			},
			"evm": {
				"assembly": "    /* \"contracts/teste.sol\":58:1150  contract View {    ... */\n  mstore(0x40, 0x80)\n    /* \"contracts/teste.sol\":98:100  11 */\n  0x0b\n    /* \"contracts/teste.sol\":83:100  uint256 NumA = 11 */\n  0x00\n  sstore\n    /* \"contracts/teste.sol\":125:127  22 */\n  0x16\n    /* \"contracts/teste.sol\":110:127  uint256 NumB = 22 */\n  0x01\n  sstore\n    /* \"contracts/teste.sol\":156:159  333 */\n  0x014d\n    /* \"contracts/teste.sol\":134:159  uint256 public NumC = 333 */\n  0x02\n  sstore\n    /* \"contracts/teste.sol\":187:190  444 */\n  0x01bc\n    /* \"contracts/teste.sol\":165:190  uint256 public NumD = 444 */\n  0x03\n  sstore\n    /* \"contracts/teste.sol\":58:1150  contract View {    ... */\n  callvalue\n  dup1\n  iszero\n  tag_1\n  jumpi\n  0x00\n  dup1\n  revert\ntag_1:\n  pop\n  dataSize(sub_0)\n  dup1\n  dataOffset(sub_0)\n  0x00\n  codecopy\n  0x00\n  return\nstop\n\nsub_0: assembly {\n        /* \"contracts/teste.sol\":58:1150  contract View {    ... */\n      mstore(0x40, 0x80)\n      callvalue\n      dup1\n      iszero\n      tag_1\n      jumpi\n      0x00\n      dup1\n      revert\n    tag_1:\n      pop\n      jumpi(tag_2, lt(calldatasize, 0x04))\n      shr(0xe0, calldataload(0x00))\n      dup1\n      0x4fa37b0c\n      gt\n      tag_10\n      jumpi\n      dup1\n      0x4fa37b0c\n      eq\n      tag_6\n      jumpi\n      dup1\n      0x7808f90b\n      eq\n      tag_7\n      jumpi\n      dup1\n      0x892dfb5b\n      eq\n      tag_8\n      jumpi\n      dup1\n      0xd675b121\n      eq\n      tag_9\n      jumpi\n      jump(tag_2)\n    tag_10:\n      dup1\n      0x056ccccf\n      eq\n      tag_3\n      jumpi\n      dup1\n      0x21292970\n      eq\n      tag_4\n      jumpi\n      dup1\n      0x38a305e8\n      eq\n      tag_5\n      jumpi\n    tag_2:\n      0x00\n      dup1\n      revert\n        /* \"contracts/teste.sol\":732:951  function calcProdTotVarGlobView() public returns(uint256 produto, uint256 total) {... */\n    tag_3:\n      tag_11\n      tag_12\n      jump\t// in\n    tag_11:\n      mload(0x40)\n      tag_13\n      swap3\n      swap2\n      swap1\n      tag_14\n      jump\t// in\n    tag_13:\n      mload(0x40)\n      dup1\n      swap2\n      sub\n      swap1\n      return\n        /* \"contracts/teste.sol\":300:537  function calcProdTot() public pure returns(uint256 produto, uint256 total) {... */\n    tag_4:\n      tag_15\n      tag_16\n      jump\t// in\n    tag_15:\n      mload(0x40)\n      tag_17\n      swap3\n      swap2\n      swap1\n      tag_14\n      jump\t// in\n    tag_17:\n      mload(0x40)\n      dup1\n      swap2\n      sub\n      swap1\n      return\n        /* \"contracts/teste.sol\":543:726  function calcProdTotVarGlob() public view returns(uint256 produto, uint256 total) {... */\n    tag_5:\n      tag_18\n      tag_19\n      jump\t// in\n    tag_18:\n      mload(0x40)\n      tag_20\n      swap3\n      swap2\n      swap1\n      tag_14\n      jump\t// in\n    tag_20:\n      mload(0x40)\n      dup1\n      swap2\n      sub\n      swap1\n      return\n        /* \"contracts/teste.sol\":197:290  function printNums() public view returns(uint256, uint256){... */\n    tag_6:\n      tag_21\n      tag_22\n      jump\t// in\n    tag_21:\n      mload(0x40)\n      tag_23\n      swap3\n      swap2\n      swap1\n      tag_14\n      jump\t// in\n    tag_23:\n      mload(0x40)\n      dup1\n      swap2\n      sub\n      swap1\n      return\n        /* \"contracts/teste.sol\":134:159  uint256 public NumC = 333 */\n    tag_7:\n      tag_24\n      tag_25\n      jump\t// in\n    tag_24:\n      mload(0x40)\n      tag_26\n      swap2\n      swap1\n      tag_27\n      jump\t// in\n    tag_26:\n      mload(0x40)\n      dup1\n      swap2\n      sub\n      swap1\n      return\n        /* \"contracts/teste.sol\":957:1148  function calcProdTotVarGlobPublc() public view returns(uint256 , uint256) {... */\n    tag_8:\n      tag_28\n      tag_29\n      jump\t// in\n    tag_28:\n      mload(0x40)\n      tag_30\n      swap3\n      swap2\n      swap1\n      tag_14\n      jump\t// in\n    tag_30:\n      mload(0x40)\n      dup1\n      swap2\n      sub\n      swap1\n      return\n        /* \"contracts/teste.sol\":165:190  uint256 public NumD = 444 */\n    tag_9:\n      tag_31\n      tag_32\n      jump\t// in\n    tag_31:\n      mload(0x40)\n      tag_33\n      swap2\n      swap1\n      tag_27\n      jump\t// in\n    tag_33:\n      mload(0x40)\n      dup1\n      swap2\n      sub\n      swap1\n      return\n        /* \"contracts/teste.sol\":732:951  function calcProdTotVarGlobView() public returns(uint256 produto, uint256 total) {... */\n    tag_12:\n        /* \"contracts/teste.sol\":781:796  uint256 produto */\n      0x00\n        /* \"contracts/teste.sol\":798:811  uint256 total */\n      dup1\n        /* \"contracts/teste.sol\":831:832  1 */\n      0x01\n        /* \"contracts/teste.sol\":824:828  NumA */\n      0x00\n        /* \"contracts/teste.sol\":824:832  NumA = 1 */\n      dup2\n      swap1\n      sstore\n      pop\n        /* \"contracts/teste.sol\":849:850  2 */\n      0x02\n        /* \"contracts/teste.sol\":842:846  NumB */\n      0x01\n        /* \"contracts/teste.sol\":842:850  NumB = 2 */\n      dup2\n      swap1\n      sstore\n      pop\n        /* \"contracts/teste.sol\":878:882  NumB */\n      sload(0x01)\n        /* \"contracts/teste.sol\":871:875  NumA */\n      sload(0x00)\n        /* \"contracts/teste.sol\":871:882  NumA * NumB */\n      tag_35\n      swap2\n      swap1\n      tag_36\n      jump\t// in\n    tag_35:\n        /* \"contracts/teste.sol\":861:882  produto = NumA * NumB */\n      swap2\n      pop\n        /* \"contracts/teste.sol\":907:911  NumB */\n      sload(0x01)\n        /* \"contracts/teste.sol\":900:904  NumA */\n      sload(0x00)\n        /* \"contracts/teste.sol\":900:911  NumA + NumB */\n      tag_37\n      swap2\n      swap1\n      tag_38\n      jump\t// in\n    tag_37:\n        /* \"contracts/teste.sol\":892:911  total = NumA + NumB */\n      swap1\n      pop\n        /* \"contracts/teste.sol\":732:951  function calcProdTotVarGlobView() public returns(uint256 produto, uint256 total) {... */\n      swap1\n      swap2\n      jump\t// out\n        /* \"contracts/teste.sol\":300:537  function calcProdTot() public pure returns(uint256 produto, uint256 total) {... */\n    tag_16:\n        /* \"contracts/teste.sol\":343:358  uint256 produto */\n      0x00\n        /* \"contracts/teste.sol\":360:373  uint256 total */\n      dup1\n        /* \"contracts/teste.sol\":394:406  uint256 numA */\n      0x00\n        /* \"contracts/teste.sol\":409:410  1 */\n      0x01\n        /* \"contracts/teste.sol\":394:410  uint256 numA = 1 */\n      swap1\n      pop\n        /* \"contracts/teste.sol\":420:432  uint256 numB */\n      0x00\n        /* \"contracts/teste.sol\":435:436  2 */\n      0x02\n        /* \"contracts/teste.sol\":420:436  uint256 numB = 2 */\n      swap1\n      pop\n        /* \"contracts/teste.sol\":464:468  numB */\n      dup1\n        /* \"contracts/teste.sol\":457:461  numA */\n      dup3\n        /* \"contracts/teste.sol\":457:468  numA * numB */\n      tag_40\n      swap2\n      swap1\n      tag_36\n      jump\t// in\n    tag_40:\n        /* \"contracts/teste.sol\":447:468  produto = numA * numB */\n      swap4\n      pop\n        /* \"contracts/teste.sol\":493:497  numB */\n      dup1\n        /* \"contracts/teste.sol\":486:490  numA */\n      dup3\n        /* \"contracts/teste.sol\":486:497  numA + numB */\n      tag_41\n      swap2\n      swap1\n      tag_38\n      jump\t// in\n    tag_41:\n        /* \"contracts/teste.sol\":478:497  total = numA + numB */\n      swap3\n      pop\n        /* \"contracts/teste.sol\":508:530  return(produto, total) */\n      pop\n      pop\n        /* \"contracts/teste.sol\":300:537  function calcProdTot() public pure returns(uint256 produto, uint256 total) {... */\n      swap1\n      swap2\n      jump\t// out\n        /* \"contracts/teste.sol\":543:726  function calcProdTotVarGlob() public view returns(uint256 produto, uint256 total) {... */\n    tag_19:\n        /* \"contracts/teste.sol\":593:608  uint256 produto */\n      0x00\n        /* \"contracts/teste.sol\":610:623  uint256 total */\n      dup1\n        /* \"contracts/teste.sol\":653:657  NumB */\n      sload(0x01)\n        /* \"contracts/teste.sol\":646:650  NumA */\n      sload(0x00)\n        /* \"contracts/teste.sol\":646:657  NumA * NumB */\n      tag_43\n      swap2\n      swap1\n      tag_36\n      jump\t// in\n    tag_43:\n        /* \"contracts/teste.sol\":636:657  produto = NumA * NumB */\n      swap2\n      pop\n        /* \"contracts/teste.sol\":682:686  NumB */\n      sload(0x01)\n        /* \"contracts/teste.sol\":675:679  NumA */\n      sload(0x00)\n        /* \"contracts/teste.sol\":675:686  NumA + NumB */\n      tag_44\n      swap2\n      swap1\n      tag_38\n      jump\t// in\n    tag_44:\n        /* \"contracts/teste.sol\":667:686  total = NumA + NumB */\n      swap1\n      pop\n        /* \"contracts/teste.sol\":543:726  function calcProdTotVarGlob() public view returns(uint256 produto, uint256 total) {... */\n      swap1\n      swap2\n      jump\t// out\n        /* \"contracts/teste.sol\":197:290  function printNums() public view returns(uint256, uint256){... */\n    tag_22:\n        /* \"contracts/teste.sol\":238:245  uint256 */\n      0x00\n        /* \"contracts/teste.sol\":247:254  uint256 */\n      dup1\n        /* \"contracts/teste.sol\":272:276  NumA */\n      sload(0x00)\n        /* \"contracts/teste.sol\":278:282  NumB */\n      sload(0x01)\n        /* \"contracts/teste.sol\":265:283  return(NumA, NumB) */\n      swap2\n      pop\n      swap2\n      pop\n        /* \"contracts/teste.sol\":197:290  function printNums() public view returns(uint256, uint256){... */\n      swap1\n      swap2\n      jump\t// out\n        /* \"contracts/teste.sol\":134:159  uint256 public NumC = 333 */\n    tag_25:\n      sload(0x02)\n      dup2\n      jump\t// out\n        /* \"contracts/teste.sol\":957:1148  function calcProdTotVarGlobPublc() public view returns(uint256 , uint256) {... */\n    tag_29:\n        /* \"contracts/teste.sol\":1012:1019  uint256 */\n      0x00\n        /* \"contracts/teste.sol\":1022:1029  uint256 */\n      dup1\n        /* \"contracts/teste.sol\":1042:1057  uint256 produto */\n      0x00\n        /* \"contracts/teste.sol\":1067:1071  NumD */\n      sload(0x03)\n        /* \"contracts/teste.sol\":1060:1064  NumC */\n      sload(0x02)\n        /* \"contracts/teste.sol\":1060:1071  NumC * NumD */\n      tag_47\n      swap2\n      swap1\n      tag_36\n      jump\t// in\n    tag_47:\n        /* \"contracts/teste.sol\":1042:1071  uint256 produto = NumC * NumD */\n      swap1\n      pop\n        /* \"contracts/teste.sol\":1081:1094  uint256 total */\n      0x00\n        /* \"contracts/teste.sol\":1104:1108  NumD */\n      sload(0x03)\n        /* \"contracts/teste.sol\":1097:1101  NumC */\n      sload(0x02)\n        /* \"contracts/teste.sol\":1097:1108  NumC + NumD */\n      tag_48\n      swap2\n      swap1\n      tag_38\n      jump\t// in\n    tag_48:\n        /* \"contracts/teste.sol\":1081:1108  uint256 total = NumC + NumD */\n      swap1\n      pop\n        /* \"contracts/teste.sol\":1126:1133  produto */\n      dup2\n        /* \"contracts/teste.sol\":1135:1140  total */\n      dup2\n        /* \"contracts/teste.sol\":1119:1141  return(produto, total) */\n      swap4\n      pop\n      swap4\n      pop\n      pop\n      pop\n        /* \"contracts/teste.sol\":957:1148  function calcProdTotVarGlobPublc() public view returns(uint256 , uint256) {... */\n      swap1\n      swap2\n      jump\t// out\n        /* \"contracts/teste.sol\":165:190  uint256 public NumD = 444 */\n    tag_32:\n      sload(0x03)\n      dup2\n      jump\t// out\n        /* \"#utility.yul\":7:84   */\n    tag_49:\n        /* \"#utility.yul\":44:51   */\n      0x00\n        /* \"#utility.yul\":73:78   */\n      dup2\n        /* \"#utility.yul\":62:78   */\n      swap1\n      pop\n        /* \"#utility.yul\":7:84   */\n      swap2\n      swap1\n      pop\n      jump\t// out\n        /* \"#utility.yul\":90:208   */\n    tag_50:\n        /* \"#utility.yul\":177:201   */\n      tag_55\n        /* \"#utility.yul\":195:200   */\n      dup2\n        /* \"#utility.yul\":177:201   */\n      tag_49\n      jump\t// in\n    tag_55:\n        /* \"#utility.yul\":172:175   */\n      dup3\n        /* \"#utility.yul\":165:202   */\n      mstore\n        /* \"#utility.yul\":90:208   */\n      pop\n      pop\n      jump\t// out\n        /* \"#utility.yul\":214:546   */\n    tag_14:\n        /* \"#utility.yul\":335:339   */\n      0x00\n        /* \"#utility.yul\":373:375   */\n      0x40\n        /* \"#utility.yul\":362:371   */\n      dup3\n        /* \"#utility.yul\":358:376   */\n      add\n        /* \"#utility.yul\":350:376   */\n      swap1\n      pop\n        /* \"#utility.yul\":386:457   */\n      tag_57\n        /* \"#utility.yul\":454:455   */\n      0x00\n        /* \"#utility.yul\":443:452   */\n      dup4\n        /* \"#utility.yul\":439:456   */\n      add\n        /* \"#utility.yul\":430:436   */\n      dup6\n        /* \"#utility.yul\":386:457   */\n      tag_50\n      jump\t// in\n    tag_57:\n        /* \"#utility.yul\":467:539   */\n      tag_58\n        /* \"#utility.yul\":535:537   */\n      0x20\n        /* \"#utility.yul\":524:533   */\n      dup4\n        /* \"#utility.yul\":520:538   */\n      add\n        /* \"#utility.yul\":511:517   */\n      dup5\n        /* \"#utility.yul\":467:539   */\n      tag_50\n      jump\t// in\n    tag_58:\n        /* \"#utility.yul\":214:546   */\n      swap4\n      swap3\n      pop\n      pop\n      pop\n      jump\t// out\n        /* \"#utility.yul\":552:774   */\n    tag_27:\n        /* \"#utility.yul\":645:649   */\n      0x00\n        /* \"#utility.yul\":683:685   */\n      0x20\n        /* \"#utility.yul\":672:681   */\n      dup3\n        /* \"#utility.yul\":668:686   */\n      add\n        /* \"#utility.yul\":660:686   */\n      swap1\n      pop\n        /* \"#utility.yul\":696:767   */\n      tag_60\n        /* \"#utility.yul\":764:765   */\n      0x00\n        /* \"#utility.yul\":753:762   */\n      dup4\n        /* \"#utility.yul\":749:766   */\n      add\n        /* \"#utility.yul\":740:746   */\n      dup5\n        /* \"#utility.yul\":696:767   */\n      tag_50\n      jump\t// in\n    tag_60:\n        /* \"#utility.yul\":552:774   */\n      swap3\n      swap2\n      pop\n      pop\n      jump\t// out\n        /* \"#utility.yul\":780:960   */\n    tag_51:\n        /* \"#utility.yul\":828:905   */\n      0x4e487b7100000000000000000000000000000000000000000000000000000000\n        /* \"#utility.yul\":825:826   */\n      0x00\n        /* \"#utility.yul\":818:906   */\n      mstore\n        /* \"#utility.yul\":925:929   */\n      0x11\n        /* \"#utility.yul\":922:923   */\n      0x04\n        /* \"#utility.yul\":915:930   */\n      mstore\n        /* \"#utility.yul\":949:953   */\n      0x24\n        /* \"#utility.yul\":946:947   */\n      0x00\n        /* \"#utility.yul\":939:954   */\n      revert\n        /* \"#utility.yul\":966:1314   */\n    tag_36:\n        /* \"#utility.yul\":1006:1013   */\n      0x00\n        /* \"#utility.yul\":1029:1049   */\n      tag_63\n        /* \"#utility.yul\":1047:1048   */\n      dup3\n        /* \"#utility.yul\":1029:1049   */\n      tag_49\n      jump\t// in\n    tag_63:\n        /* \"#utility.yul\":1024:1049   */\n      swap2\n      pop\n        /* \"#utility.yul\":1063:1083   */\n      tag_64\n        /* \"#utility.yul\":1081:1082   */\n      dup4\n        /* \"#utility.yul\":1063:1083   */\n      tag_49\n      jump\t// in\n    tag_64:\n        /* \"#utility.yul\":1058:1083   */\n      swap3\n      pop\n        /* \"#utility.yul\":1251:1252   */\n      dup2\n        /* \"#utility.yul\":1183:1249   */\n      0xffffffffffffffffffffffffffffffffffffffffffffffffffffffffffffffff\n        /* \"#utility.yul\":1179:1253   */\n      div\n        /* \"#utility.yul\":1176:1177   */\n      dup4\n        /* \"#utility.yul\":1173:1254   */\n      gt\n        /* \"#utility.yul\":1168:1169   */\n      dup3\n        /* \"#utility.yul\":1161:1170   */\n      iszero\n        /* \"#utility.yul\":1154:1171   */\n      iszero\n        /* \"#utility.yul\":1150:1255   */\n      and\n        /* \"#utility.yul\":1147:1278   */\n      iszero\n      tag_65\n      jumpi\n        /* \"#utility.yul\":1258:1276   */\n      tag_66\n      tag_51\n      jump\t// in\n    tag_66:\n        /* \"#utility.yul\":1147:1278   */\n    tag_65:\n        /* \"#utility.yul\":1306:1307   */\n      dup3\n        /* \"#utility.yul\":1303:1304   */\n      dup3\n        /* \"#utility.yul\":1299:1308   */\n      mul\n        /* \"#utility.yul\":1288:1308   */\n      swap1\n      pop\n        /* \"#utility.yul\":966:1314   */\n      swap3\n      swap2\n      pop\n      pop\n      jump\t// out\n        /* \"#utility.yul\":1320:1625   */\n    tag_38:\n        /* \"#utility.yul\":1360:1363   */\n      0x00\n        /* \"#utility.yul\":1379:1399   */\n      tag_68\n        /* \"#utility.yul\":1397:1398   */\n      dup3\n        /* \"#utility.yul\":1379:1399   */\n      tag_49\n      jump\t// in\n    tag_68:\n        /* \"#utility.yul\":1374:1399   */\n      swap2\n      pop\n        /* \"#utility.yul\":1413:1433   */\n      tag_69\n        /* \"#utility.yul\":1431:1432   */\n      dup4\n        /* \"#utility.yul\":1413:1433   */\n      tag_49\n      jump\t// in\n    tag_69:\n        /* \"#utility.yul\":1408:1433   */\n      swap3\n      pop\n        /* \"#utility.yul\":1567:1568   */\n      dup3\n        /* \"#utility.yul\":1499:1565   */\n      0xffffffffffffffffffffffffffffffffffffffffffffffffffffffffffffffff\n        /* \"#utility.yul\":1495:1569   */\n      sub\n        /* \"#utility.yul\":1492:1493   */\n      dup3\n        /* \"#utility.yul\":1489:1570   */\n      gt\n        /* \"#utility.yul\":1486:1593   */\n      iszero\n      tag_70\n      jumpi\n        /* \"#utility.yul\":1573:1591   */\n      tag_71\n      tag_51\n      jump\t// in\n    tag_71:\n        /* \"#utility.yul\":1486:1593   */\n    tag_70:\n        /* \"#utility.yul\":1617:1618   */\n      dup3\n        /* \"#utility.yul\":1614:1615   */\n      dup3\n        /* \"#utility.yul\":1610:1619   */\n      add\n        /* \"#utility.yul\":1603:1619   */\n      swap1\n      pop\n        /* \"#utility.yul\":1320:1625   */\n      swap3\n      swap2\n      pop\n      pop\n      jump\t// out\n\n    auxdata: 0xa26469706673582212207dc222a3b94528b86f0bc18f01400ae708ce59d9058adbfcb2c5fc631805ca3b64736f6c634300080d0033\n}\n",
				"bytecode": {
					"linkReferences": {},
					"object": "6080604052600b600055601660015561014d6002556101bc60035534801561002657600080fd5b506103b6806100366000396000f3fe608060405234801561001057600080fd5b506004361061007d5760003560e01c80634fa37b0c1161005b5780634fa37b0c146100df5780637808f90b146100fe578063892dfb5b1461011c578063d675b1211461013b5761007d565b8063056ccccf1461008257806321292970146100a157806338a305e8146100c0575b600080fd5b61008a610159565b60405161009892919061025d565b60405180910390f35b6100a9610194565b6040516100b792919061025d565b60405180910390f35b6100c86101c5565b6040516100d692919061025d565b60405180910390f35b6100e76101f0565b6040516100f592919061025d565b60405180910390f35b610106610201565b6040516101139190610286565b60405180910390f35b610124610207565b60405161013292919061025d565b60405180910390f35b61014361023e565b6040516101509190610286565b60405180910390f35b6000806001600081905550600260018190555060015460005461017c91906102d0565b915060015460005461018e919061032a565b90509091565b60008060006001905060006002905080826101af91906102d0565b935080826101bd919061032a565b925050509091565b6000806001546000546101d891906102d0565b91506001546000546101ea919061032a565b90509091565b600080600054600154915091509091565b60025481565b600080600060035460025461021c91906102d0565b90506000600354600254610230919061032a565b905081819350935050509091565b60035481565b6000819050919050565b61025781610244565b82525050565b6000604082019050610272600083018561024e565b61027f602083018461024e565b9392505050565b600060208201905061029b600083018461024e565b92915050565b7f4e487b7100000000000000000000000000000000000000000000000000000000600052601160045260246000fd5b60006102db82610244565b91506102e683610244565b9250817fffffffffffffffffffffffffffffffffffffffffffffffffffffffffffffffff048311821515161561031f5761031e6102a1565b5b828202905092915050565b600061033582610244565b915061034083610244565b9250827fffffffffffffffffffffffffffffffffffffffffffffffffffffffffffffffff03821115610375576103746102a1565b5b82820190509291505056fea26469706673582212207dc222a3b94528b86f0bc18f01400ae708ce59d9058adbfcb2c5fc631805ca3b64736f6c634300080d0033",
					"opcodes": "PUSH1 0x80 PUSH1 0x40 MSTORE PUSH1 0xB PUSH1 0x0 SSTORE PUSH1 0x16 PUSH1 0x1 SSTORE PUSH2 0x14D PUSH1 0x2 SSTORE PUSH2 0x1BC PUSH1 0x3 SSTORE CALLVALUE DUP1 ISZERO PUSH2 0x26 JUMPI PUSH1 0x0 DUP1 REVERT JUMPDEST POP PUSH2 0x3B6 DUP1 PUSH2 0x36 PUSH1 0x0 CODECOPY PUSH1 0x0 RETURN INVALID PUSH1 0x80 PUSH1 0x40 MSTORE CALLVALUE DUP1 ISZERO PUSH2 0x10 JUMPI PUSH1 0x0 DUP1 REVERT JUMPDEST POP PUSH1 0x4 CALLDATASIZE LT PUSH2 0x7D JUMPI PUSH1 0x0 CALLDATALOAD PUSH1 0xE0 SHR DUP1 PUSH4 0x4FA37B0C GT PUSH2 0x5B JUMPI DUP1 PUSH4 0x4FA37B0C EQ PUSH2 0xDF JUMPI DUP1 PUSH4 0x7808F90B EQ PUSH2 0xFE JUMPI DUP1 PUSH4 0x892DFB5B EQ PUSH2 0x11C JUMPI DUP1 PUSH4 0xD675B121 EQ PUSH2 0x13B JUMPI PUSH2 0x7D JUMP JUMPDEST DUP1 PUSH4 0x56CCCCF EQ PUSH2 0x82 JUMPI DUP1 PUSH4 0x21292970 EQ PUSH2 0xA1 JUMPI DUP1 PUSH4 0x38A305E8 EQ PUSH2 0xC0 JUMPI JUMPDEST PUSH1 0x0 DUP1 REVERT JUMPDEST PUSH2 0x8A PUSH2 0x159 JUMP JUMPDEST PUSH1 0x40 MLOAD PUSH2 0x98 SWAP3 SWAP2 SWAP1 PUSH2 0x25D JUMP JUMPDEST PUSH1 0x40 MLOAD DUP1 SWAP2 SUB SWAP1 RETURN JUMPDEST PUSH2 0xA9 PUSH2 0x194 JUMP JUMPDEST PUSH1 0x40 MLOAD PUSH2 0xB7 SWAP3 SWAP2 SWAP1 PUSH2 0x25D JUMP JUMPDEST PUSH1 0x40 MLOAD DUP1 SWAP2 SUB SWAP1 RETURN JUMPDEST PUSH2 0xC8 PUSH2 0x1C5 JUMP JUMPDEST PUSH1 0x40 MLOAD PUSH2 0xD6 SWAP3 SWAP2 SWAP1 PUSH2 0x25D JUMP JUMPDEST PUSH1 0x40 MLOAD DUP1 SWAP2 SUB SWAP1 RETURN JUMPDEST PUSH2 0xE7 PUSH2 0x1F0 JUMP JUMPDEST PUSH1 0x40 MLOAD PUSH2 0xF5 SWAP3 SWAP2 SWAP1 PUSH2 0x25D JUMP JUMPDEST PUSH1 0x40 MLOAD DUP1 SWAP2 SUB SWAP1 RETURN JUMPDEST PUSH2 0x106 PUSH2 0x201 JUMP JUMPDEST PUSH1 0x40 MLOAD PUSH2 0x113 SWAP2 SWAP1 PUSH2 0x286 JUMP JUMPDEST PUSH1 0x40 MLOAD DUP1 SWAP2 SUB SWAP1 RETURN JUMPDEST PUSH2 0x124 PUSH2 0x207 JUMP JUMPDEST PUSH1 0x40 MLOAD PUSH2 0x132 SWAP3 SWAP2 SWAP1 PUSH2 0x25D JUMP JUMPDEST PUSH1 0x40 MLOAD DUP1 SWAP2 SUB SWAP1 RETURN JUMPDEST PUSH2 0x143 PUSH2 0x23E JUMP JUMPDEST PUSH1 0x40 MLOAD PUSH2 0x150 SWAP2 SWAP1 PUSH2 0x286 JUMP JUMPDEST PUSH1 0x40 MLOAD DUP1 SWAP2 SUB SWAP1 RETURN JUMPDEST PUSH1 0x0 DUP1 PUSH1 0x1 PUSH1 0x0 DUP2 SWAP1 SSTORE POP PUSH1 0x2 PUSH1 0x1 DUP2 SWAP1 SSTORE POP PUSH1 0x1 SLOAD PUSH1 0x0 SLOAD PUSH2 0x17C SWAP2 SWAP1 PUSH2 0x2D0 JUMP JUMPDEST SWAP2 POP PUSH1 0x1 SLOAD PUSH1 0x0 SLOAD PUSH2 0x18E SWAP2 SWAP1 PUSH2 0x32A JUMP JUMPDEST SWAP1 POP SWAP1 SWAP2 JUMP JUMPDEST PUSH1 0x0 DUP1 PUSH1 0x0 PUSH1 0x1 SWAP1 POP PUSH1 0x0 PUSH1 0x2 SWAP1 POP DUP1 DUP3 PUSH2 0x1AF SWAP2 SWAP1 PUSH2 0x2D0 JUMP JUMPDEST SWAP4 POP DUP1 DUP3 PUSH2 0x1BD SWAP2 SWAP1 PUSH2 0x32A JUMP JUMPDEST SWAP3 POP POP POP SWAP1 SWAP2 JUMP JUMPDEST PUSH1 0x0 DUP1 PUSH1 0x1 SLOAD PUSH1 0x0 SLOAD PUSH2 0x1D8 SWAP2 SWAP1 PUSH2 0x2D0 JUMP JUMPDEST SWAP2 POP PUSH1 0x1 SLOAD PUSH1 0x0 SLOAD PUSH2 0x1EA SWAP2 SWAP1 PUSH2 0x32A JUMP JUMPDEST SWAP1 POP SWAP1 SWAP2 JUMP JUMPDEST PUSH1 0x0 DUP1 PUSH1 0x0 SLOAD PUSH1 0x1 SLOAD SWAP2 POP SWAP2 POP SWAP1 SWAP2 JUMP JUMPDEST PUSH1 0x2 SLOAD DUP2 JUMP JUMPDEST PUSH1 0x0 DUP1 PUSH1 0x0 PUSH1 0x3 SLOAD PUSH1 0x2 SLOAD PUSH2 0x21C SWAP2 SWAP1 PUSH2 0x2D0 JUMP JUMPDEST SWAP1 POP PUSH1 0x0 PUSH1 0x3 SLOAD PUSH1 0x2 SLOAD PUSH2 0x230 SWAP2 SWAP1 PUSH2 0x32A JUMP JUMPDEST SWAP1 POP DUP2 DUP2 SWAP4 POP SWAP4 POP POP POP SWAP1 SWAP2 JUMP JUMPDEST PUSH1 0x3 SLOAD DUP2 JUMP JUMPDEST PUSH1 0x0 DUP2 SWAP1 POP SWAP2 SWAP1 POP JUMP JUMPDEST PUSH2 0x257 DUP2 PUSH2 0x244 JUMP JUMPDEST DUP3 MSTORE POP POP JUMP JUMPDEST PUSH1 0x0 PUSH1 0x40 DUP3 ADD SWAP1 POP PUSH2 0x272 PUSH1 0x0 DUP4 ADD DUP6 PUSH2 0x24E JUMP JUMPDEST PUSH2 0x27F PUSH1 0x20 DUP4 ADD DUP5 PUSH2 0x24E JUMP JUMPDEST SWAP4 SWAP3 POP POP POP JUMP JUMPDEST PUSH1 0x0 PUSH1 0x20 DUP3 ADD SWAP1 POP PUSH2 0x29B PUSH1 0x0 DUP4 ADD DUP5 PUSH2 0x24E JUMP JUMPDEST SWAP3 SWAP2 POP POP JUMP JUMPDEST PUSH32 0x4E487B7100000000000000000000000000000000000000000000000000000000 PUSH1 0x0 MSTORE PUSH1 0x11 PUSH1 0x4 MSTORE PUSH1 0x24 PUSH1 0x0 REVERT JUMPDEST PUSH1 0x0 PUSH2 0x2DB DUP3 PUSH2 0x244 JUMP JUMPDEST SWAP2 POP PUSH2 0x2E6 DUP4 PUSH2 0x244 JUMP JUMPDEST SWAP3 POP DUP2 PUSH32 0xFFFFFFFFFFFFFFFFFFFFFFFFFFFFFFFFFFFFFFFFFFFFFFFFFFFFFFFFFFFFFFFF DIV DUP4 GT DUP3 ISZERO ISZERO AND ISZERO PUSH2 0x31F JUMPI PUSH2 0x31E PUSH2 0x2A1 JUMP JUMPDEST JUMPDEST DUP3 DUP3 MUL SWAP1 POP SWAP3 SWAP2 POP POP JUMP JUMPDEST PUSH1 0x0 PUSH2 0x335 DUP3 PUSH2 0x244 JUMP JUMPDEST SWAP2 POP PUSH2 0x340 DUP4 PUSH2 0x244 JUMP JUMPDEST SWAP3 POP DUP3 PUSH32 0xFFFFFFFFFFFFFFFFFFFFFFFFFFFFFFFFFFFFFFFFFFFFFFFFFFFFFFFFFFFFFFFF SUB DUP3 GT ISZERO PUSH2 0x375 JUMPI PUSH2 0x374 PUSH2 0x2A1 JUMP JUMPDEST JUMPDEST DUP3 DUP3 ADD SWAP1 POP SWAP3 SWAP2 POP POP JUMP INVALID LOG2 PUSH5 0x6970667358 0x22 SLT KECCAK256 PUSH30 0xC222A3B94528B86F0BC18F01400AE708CE59D9058ADBFCB2C5FC631805CA EXTCODESIZE PUSH5 0x736F6C6343 STOP ADDMOD 0xD STOP CALLER "
				},
				"gasEstimates": {
					"creation": {
						"codeDepositCost": "190000",
						"executionCost": "88656",
						"totalCost": "278656"
					},
					"external": {
						"NumC()": "2451",
						"NumD()": "2495",
						"calcProdTot()": "infinite",
						"calcProdTotVarGlob()": "infinite",
						"calcProdTotVarGlobPublc()": "infinite",
						"calcProdTotVarGlobView()": "infinite",
						"printNums()": "infinite"
					}
				},
				"methodIdentifiers": {
					"NumC()": "7808f90b",
					"NumD()": "d675b121",
					"calcProdTot()": "21292970",
					"calcProdTotVarGlob()": "38a305e8",
					"calcProdTotVarGlobPublc()": "892dfb5b",
					"calcProdTotVarGlobView()": "056ccccf",
					"printNums()": "4fa37b0c"
				}
			},
			"storageLayout": {
				"storage": [
					{
						"astId": 4,
						"contract": "contracts/teste.sol:View",
						"label": "NumA",
						"offset": 0,
						"slot": "0",
						"type": "t_uint256"
					},
					{
						"astId": 7,
						"contract": "contracts/teste.sol:View",
						"label": "NumB",
						"offset": 0,
						"slot": "1",
						"type": "t_uint256"
					},
					{
						"astId": 10,
						"contract": "contracts/teste.sol:View",
						"label": "NumC",
						"offset": 0,
						"slot": "2",
						"type": "t_uint256"
					},
					{
						"astId": 13,
						"contract": "contracts/teste.sol:View",
						"label": "NumD",
						"offset": 0,
						"slot": "3",
						"type": "t_uint256"
					}
				],
				"types": {
					"t_uint256": {
						"encoding": "inplace",
						"label": "uint256",
						"numberOfBytes": "32"
					}
				}
			},
			"userdoc": {
				"kind": "user",
				"methods": {},
				"version": 1
			}
		}
	}
}