{
	"contracts/function_34.sol": {
		"XYZ": {
			"abi": [
				{
					"inputs": [],
					"name": "chamadaFuncao",
					"outputs": [
						{
							"internalType": "uint256",
							"name": "",
							"type": "uint256"
						}
					],
					"stateMutability": "pure",
					"type": "function"
				},
				{
					"inputs": [],
					"name": "chamadaFuncaoValorChave",
					"outputs": [
						{
							"internalType": "uint256",
							"name": "",
							"type": "uint256"
						}
					],
					"stateMutability": "pure",
					"type": "function"
				},
				{
					"inputs": [
						{
							"internalType": "uint256",
							"name": "x",
							"type": "uint256"
						},
						{
							"internalType": "uint256",
							"name": "y",
							"type": "uint256"
						},
						{
							"internalType": "uint256",
							"name": "z",
							"type": "uint256"
						},
						{
							"internalType": "address",
							"name": "a",
							"type": "address"
						},
						{
							"internalType": "bool",
							"name": "b",
							"type": "bool"
						},
						{
							"internalType": "string",
							"name": "c",
							"type": "string"
						}
					],
					"name": "funcaoMuitosInputs",
					"outputs": [
						{
							"internalType": "uint256",
							"name": "",
							"type": "uint256"
						}
					],
					"stateMutability": "pure",
					"type": "function"
				}
			],
			"devdoc": {
				"kind": "dev",
				"methods": {},
				"version": 1
			},
			"evm": {
				"assembly": "    /* \"contracts/function_34.sol\":1966:3092  contract XYZ {... */\n  mstore(0x40, 0x80)\n  callvalue\n  dup1\n  iszero\n  tag_1\n  jumpi\n  0x00\n  dup1\n  revert\ntag_1:\n  pop\n  dataSize(sub_0)\n  dup1\n  dataOffset(sub_0)\n  0x00\n  codecopy\n  0x00\n  return\nstop\n\nsub_0: assembly {\n        /* \"contracts/function_34.sol\":1966:3092  contract XYZ {... */\n      mstore(0x40, 0x80)\n      callvalue\n      dup1\n      iszero\n      tag_1\n      jumpi\n      0x00\n      dup1\n      revert\n    tag_1:\n      pop\n      jumpi(tag_2, lt(calldatasize, 0x04))\n      shr(0xe0, calldataload(0x00))\n      dup1\n      0x1234e9fd\n      eq\n      tag_3\n      jumpi\n      dup1\n      0x74dc598a\n      eq\n      tag_4\n      jumpi\n      dup1\n      0xe5ddd828\n      eq\n      tag_5\n      jumpi\n    tag_2:\n      0x00\n      dup1\n      revert\n        /* \"contracts/function_34.sol\":2211:2567  function chamadaFuncao()external pure returns(uint256){... */\n    tag_3:\n      tag_6\n      tag_7\n      jump\t// in\n    tag_6:\n      mload(0x40)\n      tag_8\n      swap2\n      swap1\n      tag_9\n      jump\t// in\n    tag_8:\n      mload(0x40)\n      dup1\n      swap2\n      sub\n      swap1\n      return\n        /* \"contracts/function_34.sol\":2573:3090  function chamadaFuncaoValorChave() external pure returns(uint256){... */\n    tag_4:\n      tag_10\n      tag_11\n      jump\t// in\n    tag_10:\n      mload(0x40)\n      tag_12\n      swap2\n      swap1\n      tag_9\n      jump\t// in\n    tag_12:\n      mload(0x40)\n      dup1\n      swap2\n      sub\n      swap1\n      return\n        /* \"contracts/function_34.sol\":1986:2201  function funcaoMuitosInputs(... */\n    tag_5:\n      tag_13\n      0x04\n      dup1\n      calldatasize\n      sub\n      dup2\n      add\n      swap1\n      tag_14\n      swap2\n      swap1\n      tag_15\n      jump\t// in\n    tag_14:\n      tag_16\n      jump\t// in\n    tag_13:\n      mload(0x40)\n      tag_17\n      swap2\n      swap1\n      tag_9\n      jump\t// in\n    tag_17:\n      mload(0x40)\n      dup1\n      swap2\n      sub\n      swap1\n      return\n        /* \"contracts/function_34.sol\":2211:2567  function chamadaFuncao()external pure returns(uint256){... */\n    tag_7:\n        /* \"contracts/function_34.sol\":2257:2264  uint256 */\n      0x00\n        /* \"contracts/function_34.sol\":2510:2560  funcaoMuitosInputs(1, 2, 3, address(0), true, \"c\") */\n      tag_19\n        /* \"contracts/function_34.sol\":2529:2530  1 */\n      0x01\n        /* \"contracts/function_34.sol\":2532:2533  2 */\n      0x02\n        /* \"contracts/function_34.sol\":2535:2536  3 */\n      0x03\n        /* \"contracts/function_34.sol\":2546:2547  0 */\n      0x00\n        /* \"contracts/function_34.sol\":2550:2554  true */\n      0x01\n        /* \"contracts/function_34.sol\":2510:2560  funcaoMuitosInputs(1, 2, 3, address(0), true, \"c\") */\n      mload(0x40)\n      dup1\n      0x40\n      add\n      0x40\n      mstore\n      dup1\n      0x01\n      dup2\n      mstore\n      0x20\n      add\n      0x6300000000000000000000000000000000000000000000000000000000000000\n      dup2\n      mstore\n      pop\n        /* \"contracts/function_34.sol\":2510:2528  funcaoMuitosInputs */\n      tag_16\n        /* \"contracts/function_34.sol\":2510:2560  funcaoMuitosInputs(1, 2, 3, address(0), true, \"c\") */\n      jump\t// in\n    tag_19:\n        /* \"contracts/function_34.sol\":2503:2560  return funcaoMuitosInputs(1, 2, 3, address(0), true, \"c\") */\n      swap1\n      pop\n        /* \"contracts/function_34.sol\":2211:2567  function chamadaFuncao()external pure returns(uint256){... */\n      swap1\n      jump\t// out\n        /* \"contracts/function_34.sol\":2573:3090  function chamadaFuncaoValorChave() external pure returns(uint256){... */\n    tag_11:\n        /* \"contracts/function_34.sol\":2630:2637  uint256 */\n      0x00\n        /* \"contracts/function_34.sol\":2875:3083  funcaoMuitosInputs({... */\n      tag_21\n        /* \"contracts/function_34.sol\":3011:3012  1 */\n      0x01\n        /* \"contracts/function_34.sol\":3037:3038  2 */\n      0x02\n        /* \"contracts/function_34.sol\":3063:3064  3 */\n      0x03\n        /* \"contracts/function_34.sol\":2927:2928  0 */\n      0x00\n        /* \"contracts/function_34.sol\":2954:2958  true */\n      0x01\n        /* \"contracts/function_34.sol\":2875:3083  funcaoMuitosInputs({... */\n      mload(0x40)\n      dup1\n      0x40\n      add\n      0x40\n      mstore\n      dup1\n      0x01\n      dup2\n      mstore\n      0x20\n      add\n      0x6300000000000000000000000000000000000000000000000000000000000000\n      dup2\n      mstore\n      pop\n        /* \"contracts/function_34.sol\":2875:2893  funcaoMuitosInputs */\n      tag_16\n        /* \"contracts/function_34.sol\":2875:3083  funcaoMuitosInputs({... */\n      jump\t// in\n    tag_21:\n        /* \"contracts/function_34.sol\":2868:3083  return funcaoMuitosInputs({... */\n      swap1\n      pop\n        /* \"contracts/function_34.sol\":2573:3090  function chamadaFuncaoValorChave() external pure returns(uint256){... */\n      swap1\n      jump\t// out\n        /* \"contracts/function_34.sol\":1986:2201  function funcaoMuitosInputs(... */\n    tag_16:\n        /* \"contracts/function_34.sol\":2152:2159  uint256 */\n      0x00\n        /* \"contracts/function_34.sol\":2192:2193  z */\n      dup5\n        /* \"contracts/function_34.sol\":2190:2191  y */\n      dup7\n        /* \"contracts/function_34.sol\":2188:2189  x */\n      dup9\n        /* \"contracts/function_34.sol\":2188:2191  x+y */\n      tag_23\n      swap2\n      swap1\n      tag_24\n      jump\t// in\n    tag_23:\n        /* \"contracts/function_34.sol\":2188:2193  x+y+z */\n      tag_25\n      swap2\n      swap1\n      tag_24\n      jump\t// in\n    tag_25:\n        /* \"contracts/function_34.sol\":2180:2194  return (x+y+z) */\n      swap1\n      pop\n        /* \"contracts/function_34.sol\":1986:2201  function funcaoMuitosInputs(... */\n      swap7\n      swap6\n      pop\n      pop\n      pop\n      pop\n      pop\n      pop\n      jump\t// out\n        /* \"#utility.yul\":7:84   */\n    tag_26:\n        /* \"#utility.yul\":44:51   */\n      0x00\n        /* \"#utility.yul\":73:78   */\n      dup2\n        /* \"#utility.yul\":62:78   */\n      swap1\n      pop\n        /* \"#utility.yul\":7:84   */\n      swap2\n      swap1\n      pop\n      jump\t// out\n        /* \"#utility.yul\":90:208   */\n    tag_27:\n        /* \"#utility.yul\":177:201   */\n      tag_54\n        /* \"#utility.yul\":195:200   */\n      dup2\n        /* \"#utility.yul\":177:201   */\n      tag_26\n      jump\t// in\n    tag_54:\n        /* \"#utility.yul\":172:175   */\n      dup3\n        /* \"#utility.yul\":165:202   */\n      mstore\n        /* \"#utility.yul\":90:208   */\n      pop\n      pop\n      jump\t// out\n        /* \"#utility.yul\":214:436   */\n    tag_9:\n        /* \"#utility.yul\":307:311   */\n      0x00\n        /* \"#utility.yul\":345:347   */\n      0x20\n        /* \"#utility.yul\":334:343   */\n      dup3\n        /* \"#utility.yul\":330:348   */\n      add\n        /* \"#utility.yul\":322:348   */\n      swap1\n      pop\n        /* \"#utility.yul\":358:429   */\n      tag_56\n        /* \"#utility.yul\":426:427   */\n      0x00\n        /* \"#utility.yul\":415:424   */\n      dup4\n        /* \"#utility.yul\":411:428   */\n      add\n        /* \"#utility.yul\":402:408   */\n      dup5\n        /* \"#utility.yul\":358:429   */\n      tag_27\n      jump\t// in\n    tag_56:\n        /* \"#utility.yul\":214:436   */\n      swap3\n      swap2\n      pop\n      pop\n      jump\t// out\n        /* \"#utility.yul\":442:517   */\n    tag_28:\n        /* \"#utility.yul\":475:481   */\n      0x00\n        /* \"#utility.yul\":508:510   */\n      0x40\n        /* \"#utility.yul\":502:511   */\n      mload\n        /* \"#utility.yul\":492:511   */\n      swap1\n      pop\n        /* \"#utility.yul\":442:517   */\n      swap1\n      jump\t// out\n        /* \"#utility.yul\":523:640   */\n    tag_29:\n        /* \"#utility.yul\":632:633   */\n      0x00\n        /* \"#utility.yul\":629:630   */\n      dup1\n        /* \"#utility.yul\":622:634   */\n      revert\n        /* \"#utility.yul\":646:763   */\n    tag_30:\n        /* \"#utility.yul\":755:756   */\n      0x00\n        /* \"#utility.yul\":752:753   */\n      dup1\n        /* \"#utility.yul\":745:757   */\n      revert\n        /* \"#utility.yul\":769:891   */\n    tag_31:\n        /* \"#utility.yul\":842:866   */\n      tag_61\n        /* \"#utility.yul\":860:865   */\n      dup2\n        /* \"#utility.yul\":842:866   */\n      tag_26\n      jump\t// in\n    tag_61:\n        /* \"#utility.yul\":835:840   */\n      dup2\n        /* \"#utility.yul\":832:867   */\n      eq\n        /* \"#utility.yul\":822:885   */\n      tag_62\n      jumpi\n        /* \"#utility.yul\":881:882   */\n      0x00\n        /* \"#utility.yul\":878:879   */\n      dup1\n        /* \"#utility.yul\":871:883   */\n      revert\n        /* \"#utility.yul\":822:885   */\n    tag_62:\n        /* \"#utility.yul\":769:891   */\n      pop\n      jump\t// out\n        /* \"#utility.yul\":897:1036   */\n    tag_32:\n        /* \"#utility.yul\":943:948   */\n      0x00\n        /* \"#utility.yul\":981:987   */\n      dup2\n        /* \"#utility.yul\":968:988   */\n      calldataload\n        /* \"#utility.yul\":959:988   */\n      swap1\n      pop\n        /* \"#utility.yul\":997:1030   */\n      tag_64\n        /* \"#utility.yul\":1024:1029   */\n      dup2\n        /* \"#utility.yul\":997:1030   */\n      tag_31\n      jump\t// in\n    tag_64:\n        /* \"#utility.yul\":897:1036   */\n      swap3\n      swap2\n      pop\n      pop\n      jump\t// out\n        /* \"#utility.yul\":1042:1168   */\n    tag_33:\n        /* \"#utility.yul\":1079:1086   */\n      0x00\n        /* \"#utility.yul\":1119:1161   */\n      0xffffffffffffffffffffffffffffffffffffffff\n        /* \"#utility.yul\":1112:1117   */\n      dup3\n        /* \"#utility.yul\":1108:1162   */\n      and\n        /* \"#utility.yul\":1097:1162   */\n      swap1\n      pop\n        /* \"#utility.yul\":1042:1168   */\n      swap2\n      swap1\n      pop\n      jump\t// out\n        /* \"#utility.yul\":1174:1270   */\n    tag_34:\n        /* \"#utility.yul\":1211:1218   */\n      0x00\n        /* \"#utility.yul\":1240:1264   */\n      tag_67\n        /* \"#utility.yul\":1258:1263   */\n      dup3\n        /* \"#utility.yul\":1240:1264   */\n      tag_33\n      jump\t// in\n    tag_67:\n        /* \"#utility.yul\":1229:1264   */\n      swap1\n      pop\n        /* \"#utility.yul\":1174:1270   */\n      swap2\n      swap1\n      pop\n      jump\t// out\n        /* \"#utility.yul\":1276:1398   */\n    tag_35:\n        /* \"#utility.yul\":1349:1373   */\n      tag_69\n        /* \"#utility.yul\":1367:1372   */\n      dup2\n        /* \"#utility.yul\":1349:1373   */\n      tag_34\n      jump\t// in\n    tag_69:\n        /* \"#utility.yul\":1342:1347   */\n      dup2\n        /* \"#utility.yul\":1339:1374   */\n      eq\n        /* \"#utility.yul\":1329:1392   */\n      tag_70\n      jumpi\n        /* \"#utility.yul\":1388:1389   */\n      0x00\n        /* \"#utility.yul\":1385:1386   */\n      dup1\n        /* \"#utility.yul\":1378:1390   */\n      revert\n        /* \"#utility.yul\":1329:1392   */\n    tag_70:\n        /* \"#utility.yul\":1276:1398   */\n      pop\n      jump\t// out\n        /* \"#utility.yul\":1404:1543   */\n    tag_36:\n        /* \"#utility.yul\":1450:1455   */\n      0x00\n        /* \"#utility.yul\":1488:1494   */\n      dup2\n        /* \"#utility.yul\":1475:1495   */\n      calldataload\n        /* \"#utility.yul\":1466:1495   */\n      swap1\n      pop\n        /* \"#utility.yul\":1504:1537   */\n      tag_72\n        /* \"#utility.yul\":1531:1536   */\n      dup2\n        /* \"#utility.yul\":1504:1537   */\n      tag_35\n      jump\t// in\n    tag_72:\n        /* \"#utility.yul\":1404:1543   */\n      swap3\n      swap2\n      pop\n      pop\n      jump\t// out\n        /* \"#utility.yul\":1549:1639   */\n    tag_37:\n        /* \"#utility.yul\":1583:1590   */\n      0x00\n        /* \"#utility.yul\":1626:1631   */\n      dup2\n        /* \"#utility.yul\":1619:1632   */\n      iszero\n        /* \"#utility.yul\":1612:1633   */\n      iszero\n        /* \"#utility.yul\":1601:1633   */\n      swap1\n      pop\n        /* \"#utility.yul\":1549:1639   */\n      swap2\n      swap1\n      pop\n      jump\t// out\n        /* \"#utility.yul\":1645:1761   */\n    tag_38:\n        /* \"#utility.yul\":1715:1736   */\n      tag_75\n        /* \"#utility.yul\":1730:1735   */\n      dup2\n        /* \"#utility.yul\":1715:1736   */\n      tag_37\n      jump\t// in\n    tag_75:\n        /* \"#utility.yul\":1708:1713   */\n      dup2\n        /* \"#utility.yul\":1705:1737   */\n      eq\n        /* \"#utility.yul\":1695:1755   */\n      tag_76\n      jumpi\n        /* \"#utility.yul\":1751:1752   */\n      0x00\n        /* \"#utility.yul\":1748:1749   */\n      dup1\n        /* \"#utility.yul\":1741:1753   */\n      revert\n        /* \"#utility.yul\":1695:1755   */\n    tag_76:\n        /* \"#utility.yul\":1645:1761   */\n      pop\n      jump\t// out\n        /* \"#utility.yul\":1767:1900   */\n    tag_39:\n        /* \"#utility.yul\":1810:1815   */\n      0x00\n        /* \"#utility.yul\":1848:1854   */\n      dup2\n        /* \"#utility.yul\":1835:1855   */\n      calldataload\n        /* \"#utility.yul\":1826:1855   */\n      swap1\n      pop\n        /* \"#utility.yul\":1864:1894   */\n      tag_78\n        /* \"#utility.yul\":1888:1893   */\n      dup2\n        /* \"#utility.yul\":1864:1894   */\n      tag_38\n      jump\t// in\n    tag_78:\n        /* \"#utility.yul\":1767:1900   */\n      swap3\n      swap2\n      pop\n      pop\n      jump\t// out\n        /* \"#utility.yul\":1906:2023   */\n    tag_40:\n        /* \"#utility.yul\":2015:2016   */\n      0x00\n        /* \"#utility.yul\":2012:2013   */\n      dup1\n        /* \"#utility.yul\":2005:2017   */\n      revert\n        /* \"#utility.yul\":2029:2146   */\n    tag_41:\n        /* \"#utility.yul\":2138:2139   */\n      0x00\n        /* \"#utility.yul\":2135:2136   */\n      dup1\n        /* \"#utility.yul\":2128:2140   */\n      revert\n        /* \"#utility.yul\":2152:2254   */\n    tag_42:\n        /* \"#utility.yul\":2193:2199   */\n      0x00\n        /* \"#utility.yul\":2244:2246   */\n      0x1f\n        /* \"#utility.yul\":2240:2247   */\n      not\n        /* \"#utility.yul\":2235:2237   */\n      0x1f\n        /* \"#utility.yul\":2228:2233   */\n      dup4\n        /* \"#utility.yul\":2224:2238   */\n      add\n        /* \"#utility.yul\":2220:2248   */\n      and\n        /* \"#utility.yul\":2210:2248   */\n      swap1\n      pop\n        /* \"#utility.yul\":2152:2254   */\n      swap2\n      swap1\n      pop\n      jump\t// out\n        /* \"#utility.yul\":2260:2440   */\n    tag_43:\n        /* \"#utility.yul\":2308:2385   */\n      0x4e487b7100000000000000000000000000000000000000000000000000000000\n        /* \"#utility.yul\":2305:2306   */\n      0x00\n        /* \"#utility.yul\":2298:2386   */\n      mstore\n        /* \"#utility.yul\":2405:2409   */\n      0x41\n        /* \"#utility.yul\":2402:2403   */\n      0x04\n        /* \"#utility.yul\":2395:2410   */\n      mstore\n        /* \"#utility.yul\":2429:2433   */\n      0x24\n        /* \"#utility.yul\":2426:2427   */\n      0x00\n        /* \"#utility.yul\":2419:2434   */\n      revert\n        /* \"#utility.yul\":2446:2727   */\n    tag_44:\n        /* \"#utility.yul\":2529:2556   */\n      tag_84\n        /* \"#utility.yul\":2551:2555   */\n      dup3\n        /* \"#utility.yul\":2529:2556   */\n      tag_42\n      jump\t// in\n    tag_84:\n        /* \"#utility.yul\":2521:2527   */\n      dup2\n        /* \"#utility.yul\":2517:2557   */\n      add\n        /* \"#utility.yul\":2659:2665   */\n      dup2\n        /* \"#utility.yul\":2647:2657   */\n      dup2\n        /* \"#utility.yul\":2644:2666   */\n      lt\n        /* \"#utility.yul\":2623:2641   */\n      0xffffffffffffffff\n        /* \"#utility.yul\":2611:2621   */\n      dup3\n        /* \"#utility.yul\":2608:2642   */\n      gt\n        /* \"#utility.yul\":2605:2667   */\n      or\n        /* \"#utility.yul\":2602:2690   */\n      iszero\n      tag_85\n      jumpi\n        /* \"#utility.yul\":2670:2688   */\n      tag_86\n      tag_43\n      jump\t// in\n    tag_86:\n        /* \"#utility.yul\":2602:2690   */\n    tag_85:\n        /* \"#utility.yul\":2710:2720   */\n      dup1\n        /* \"#utility.yul\":2706:2708   */\n      0x40\n        /* \"#utility.yul\":2699:2721   */\n      mstore\n        /* \"#utility.yul\":2489:2727   */\n      pop\n        /* \"#utility.yul\":2446:2727   */\n      pop\n      pop\n      jump\t// out\n        /* \"#utility.yul\":2733:2862   */\n    tag_45:\n        /* \"#utility.yul\":2767:2773   */\n      0x00\n        /* \"#utility.yul\":2794:2814   */\n      tag_88\n      tag_28\n      jump\t// in\n    tag_88:\n        /* \"#utility.yul\":2784:2814   */\n      swap1\n      pop\n        /* \"#utility.yul\":2823:2856   */\n      tag_89\n        /* \"#utility.yul\":2851:2855   */\n      dup3\n        /* \"#utility.yul\":2843:2849   */\n      dup3\n        /* \"#utility.yul\":2823:2856   */\n      tag_44\n      jump\t// in\n    tag_89:\n        /* \"#utility.yul\":2733:2862   */\n      swap2\n      swap1\n      pop\n      jump\t// out\n        /* \"#utility.yul\":2868:3176   */\n    tag_46:\n        /* \"#utility.yul\":2930:2934   */\n      0x00\n        /* \"#utility.yul\":3020:3038   */\n      0xffffffffffffffff\n        /* \"#utility.yul\":3012:3018   */\n      dup3\n        /* \"#utility.yul\":3009:3039   */\n      gt\n        /* \"#utility.yul\":3006:3062   */\n      iszero\n      tag_91\n      jumpi\n        /* \"#utility.yul\":3042:3060   */\n      tag_92\n      tag_43\n      jump\t// in\n    tag_92:\n        /* \"#utility.yul\":3006:3062   */\n    tag_91:\n        /* \"#utility.yul\":3080:3109   */\n      tag_93\n        /* \"#utility.yul\":3102:3108   */\n      dup3\n        /* \"#utility.yul\":3080:3109   */\n      tag_42\n      jump\t// in\n    tag_93:\n        /* \"#utility.yul\":3072:3109   */\n      swap1\n      pop\n        /* \"#utility.yul\":3164:3168   */\n      0x20\n        /* \"#utility.yul\":3158:3162   */\n      dup2\n        /* \"#utility.yul\":3154:3169   */\n      add\n        /* \"#utility.yul\":3146:3169   */\n      swap1\n      pop\n        /* \"#utility.yul\":2868:3176   */\n      swap2\n      swap1\n      pop\n      jump\t// out\n        /* \"#utility.yul\":3182:3336   */\n    tag_47:\n        /* \"#utility.yul\":3266:3272   */\n      dup3\n        /* \"#utility.yul\":3261:3264   */\n      dup2\n        /* \"#utility.yul\":3256:3259   */\n      dup4\n        /* \"#utility.yul\":3243:3273   */\n      calldatacopy\n        /* \"#utility.yul\":3328:3329   */\n      0x00\n        /* \"#utility.yul\":3319:3325   */\n      dup4\n        /* \"#utility.yul\":3314:3317   */\n      dup4\n        /* \"#utility.yul\":3310:3326   */\n      add\n        /* \"#utility.yul\":3303:3330   */\n      mstore\n        /* \"#utility.yul\":3182:3336   */\n      pop\n      pop\n      pop\n      jump\t// out\n        /* \"#utility.yul\":3342:3754   */\n    tag_48:\n        /* \"#utility.yul\":3420:3425   */\n      0x00\n        /* \"#utility.yul\":3445:3511   */\n      tag_96\n        /* \"#utility.yul\":3461:3510   */\n      tag_97\n        /* \"#utility.yul\":3503:3509   */\n      dup5\n        /* \"#utility.yul\":3461:3510   */\n      tag_46\n      jump\t// in\n    tag_97:\n        /* \"#utility.yul\":3445:3511   */\n      tag_45\n      jump\t// in\n    tag_96:\n        /* \"#utility.yul\":3436:3511   */\n      swap1\n      pop\n        /* \"#utility.yul\":3534:3540   */\n      dup3\n        /* \"#utility.yul\":3527:3532   */\n      dup2\n        /* \"#utility.yul\":3520:3541   */\n      mstore\n        /* \"#utility.yul\":3572:3576   */\n      0x20\n        /* \"#utility.yul\":3565:3570   */\n      dup2\n        /* \"#utility.yul\":3561:3577   */\n      add\n        /* \"#utility.yul\":3610:3613   */\n      dup5\n        /* \"#utility.yul\":3601:3607   */\n      dup5\n        /* \"#utility.yul\":3596:3599   */\n      dup5\n        /* \"#utility.yul\":3592:3608   */\n      add\n        /* \"#utility.yul\":3589:3614   */\n      gt\n        /* \"#utility.yul\":3586:3698   */\n      iszero\n      tag_98\n      jumpi\n        /* \"#utility.yul\":3617:3696   */\n      tag_99\n      tag_41\n      jump\t// in\n    tag_99:\n        /* \"#utility.yul\":3586:3698   */\n    tag_98:\n        /* \"#utility.yul\":3707:3748   */\n      tag_100\n        /* \"#utility.yul\":3741:3747   */\n      dup5\n        /* \"#utility.yul\":3736:3739   */\n      dup3\n        /* \"#utility.yul\":3731:3734   */\n      dup6\n        /* \"#utility.yul\":3707:3748   */\n      tag_47\n      jump\t// in\n    tag_100:\n        /* \"#utility.yul\":3426:3754   */\n      pop\n        /* \"#utility.yul\":3342:3754   */\n      swap4\n      swap3\n      pop\n      pop\n      pop\n      jump\t// out\n        /* \"#utility.yul\":3774:4114   */\n    tag_49:\n        /* \"#utility.yul\":3830:3835   */\n      0x00\n        /* \"#utility.yul\":3879:3882   */\n      dup3\n        /* \"#utility.yul\":3872:3876   */\n      0x1f\n        /* \"#utility.yul\":3864:3870   */\n      dup4\n        /* \"#utility.yul\":3860:3877   */\n      add\n        /* \"#utility.yul\":3856:3883   */\n      slt\n        /* \"#utility.yul\":3846:3968   */\n      tag_102\n      jumpi\n        /* \"#utility.yul\":3887:3966   */\n      tag_103\n      tag_40\n      jump\t// in\n    tag_103:\n        /* \"#utility.yul\":3846:3968   */\n    tag_102:\n        /* \"#utility.yul\":4004:4010   */\n      dup2\n        /* \"#utility.yul\":3991:4011   */\n      calldataload\n        /* \"#utility.yul\":4029:4108   */\n      tag_104\n        /* \"#utility.yul\":4104:4107   */\n      dup5\n        /* \"#utility.yul\":4096:4102   */\n      dup3\n        /* \"#utility.yul\":4089:4093   */\n      0x20\n        /* \"#utility.yul\":4081:4087   */\n      dup7\n        /* \"#utility.yul\":4077:4094   */\n      add\n        /* \"#utility.yul\":4029:4108   */\n      tag_48\n      jump\t// in\n    tag_104:\n        /* \"#utility.yul\":4020:4108   */\n      swap2\n      pop\n        /* \"#utility.yul\":3836:4114   */\n      pop\n        /* \"#utility.yul\":3774:4114   */\n      swap3\n      swap2\n      pop\n      pop\n      jump\t// out\n        /* \"#utility.yul\":4120:5351   */\n    tag_15:\n        /* \"#utility.yul\":4231:4237   */\n      0x00\n        /* \"#utility.yul\":4239:4245   */\n      dup1\n        /* \"#utility.yul\":4247:4253   */\n      0x00\n        /* \"#utility.yul\":4255:4261   */\n      dup1\n        /* \"#utility.yul\":4263:4269   */\n      0x00\n        /* \"#utility.yul\":4271:4277   */\n      dup1\n        /* \"#utility.yul\":4320:4323   */\n      0xc0\n        /* \"#utility.yul\":4308:4317   */\n      dup8\n        /* \"#utility.yul\":4299:4306   */\n      dup10\n        /* \"#utility.yul\":4295:4318   */\n      sub\n        /* \"#utility.yul\":4291:4324   */\n      slt\n        /* \"#utility.yul\":4288:4408   */\n      iszero\n      tag_106\n      jumpi\n        /* \"#utility.yul\":4327:4406   */\n      tag_107\n      tag_29\n      jump\t// in\n    tag_107:\n        /* \"#utility.yul\":4288:4408   */\n    tag_106:\n        /* \"#utility.yul\":4447:4448   */\n      0x00\n        /* \"#utility.yul\":4472:4525   */\n      tag_108\n        /* \"#utility.yul\":4517:4524   */\n      dup10\n        /* \"#utility.yul\":4508:4514   */\n      dup3\n        /* \"#utility.yul\":4497:4506   */\n      dup11\n        /* \"#utility.yul\":4493:4515   */\n      add\n        /* \"#utility.yul\":4472:4525   */\n      tag_32\n      jump\t// in\n    tag_108:\n        /* \"#utility.yul\":4462:4525   */\n      swap7\n      pop\n        /* \"#utility.yul\":4418:4535   */\n      pop\n        /* \"#utility.yul\":4574:4576   */\n      0x20\n        /* \"#utility.yul\":4600:4653   */\n      tag_109\n        /* \"#utility.yul\":4645:4652   */\n      dup10\n        /* \"#utility.yul\":4636:4642   */\n      dup3\n        /* \"#utility.yul\":4625:4634   */\n      dup11\n        /* \"#utility.yul\":4621:4643   */\n      add\n        /* \"#utility.yul\":4600:4653   */\n      tag_32\n      jump\t// in\n    tag_109:\n        /* \"#utility.yul\":4590:4653   */\n      swap6\n      pop\n        /* \"#utility.yul\":4545:4663   */\n      pop\n        /* \"#utility.yul\":4702:4704   */\n      0x40\n        /* \"#utility.yul\":4728:4781   */\n      tag_110\n        /* \"#utility.yul\":4773:4780   */\n      dup10\n        /* \"#utility.yul\":4764:4770   */\n      dup3\n        /* \"#utility.yul\":4753:4762   */\n      dup11\n        /* \"#utility.yul\":4749:4771   */\n      add\n        /* \"#utility.yul\":4728:4781   */\n      tag_32\n      jump\t// in\n    tag_110:\n        /* \"#utility.yul\":4718:4781   */\n      swap5\n      pop\n        /* \"#utility.yul\":4673:4791   */\n      pop\n        /* \"#utility.yul\":4830:4832   */\n      0x60\n        /* \"#utility.yul\":4856:4909   */\n      tag_111\n        /* \"#utility.yul\":4901:4908   */\n      dup10\n        /* \"#utility.yul\":4892:4898   */\n      dup3\n        /* \"#utility.yul\":4881:4890   */\n      dup11\n        /* \"#utility.yul\":4877:4899   */\n      add\n        /* \"#utility.yul\":4856:4909   */\n      tag_36\n      jump\t// in\n    tag_111:\n        /* \"#utility.yul\":4846:4909   */\n      swap4\n      pop\n        /* \"#utility.yul\":4801:4919   */\n      pop\n        /* \"#utility.yul\":4958:4961   */\n      0x80\n        /* \"#utility.yul\":4985:5035   */\n      tag_112\n        /* \"#utility.yul\":5027:5034   */\n      dup10\n        /* \"#utility.yul\":5018:5024   */\n      dup3\n        /* \"#utility.yul\":5007:5016   */\n      dup11\n        /* \"#utility.yul\":5003:5025   */\n      add\n        /* \"#utility.yul\":4985:5035   */\n      tag_39\n      jump\t// in\n    tag_112:\n        /* \"#utility.yul\":4975:5035   */\n      swap3\n      pop\n        /* \"#utility.yul\":4929:5045   */\n      pop\n        /* \"#utility.yul\":5112:5115   */\n      0xa0\n        /* \"#utility.yul\":5101:5110   */\n      dup8\n        /* \"#utility.yul\":5097:5116   */\n      add\n        /* \"#utility.yul\":5084:5117   */\n      calldataload\n        /* \"#utility.yul\":5144:5162   */\n      0xffffffffffffffff\n        /* \"#utility.yul\":5136:5142   */\n      dup2\n        /* \"#utility.yul\":5133:5163   */\n      gt\n        /* \"#utility.yul\":5130:5247   */\n      iszero\n      tag_113\n      jumpi\n        /* \"#utility.yul\":5166:5245   */\n      tag_114\n      tag_30\n      jump\t// in\n    tag_114:\n        /* \"#utility.yul\":5130:5247   */\n    tag_113:\n        /* \"#utility.yul\":5271:5334   */\n      tag_115\n        /* \"#utility.yul\":5326:5333   */\n      dup10\n        /* \"#utility.yul\":5317:5323   */\n      dup3\n        /* \"#utility.yul\":5306:5315   */\n      dup11\n        /* \"#utility.yul\":5302:5324   */\n      add\n        /* \"#utility.yul\":5271:5334   */\n      tag_49\n      jump\t// in\n    tag_115:\n        /* \"#utility.yul\":5261:5334   */\n      swap2\n      pop\n        /* \"#utility.yul\":5055:5344   */\n      pop\n        /* \"#utility.yul\":4120:5351   */\n      swap3\n      swap6\n      pop\n      swap3\n      swap6\n      pop\n      swap3\n      swap6\n      jump\t// out\n        /* \"#utility.yul\":5357:5537   */\n    tag_50:\n        /* \"#utility.yul\":5405:5482   */\n      0x4e487b7100000000000000000000000000000000000000000000000000000000\n        /* \"#utility.yul\":5402:5403   */\n      0x00\n        /* \"#utility.yul\":5395:5483   */\n      mstore\n        /* \"#utility.yul\":5502:5506   */\n      0x11\n        /* \"#utility.yul\":5499:5500   */\n      0x04\n        /* \"#utility.yul\":5492:5507   */\n      mstore\n        /* \"#utility.yul\":5526:5530   */\n      0x24\n        /* \"#utility.yul\":5523:5524   */\n      0x00\n        /* \"#utility.yul\":5516:5531   */\n      revert\n        /* \"#utility.yul\":5543:5848   */\n    tag_24:\n        /* \"#utility.yul\":5583:5586   */\n      0x00\n        /* \"#utility.yul\":5602:5622   */\n      tag_118\n        /* \"#utility.yul\":5620:5621   */\n      dup3\n        /* \"#utility.yul\":5602:5622   */\n      tag_26\n      jump\t// in\n    tag_118:\n        /* \"#utility.yul\":5597:5622   */\n      swap2\n      pop\n        /* \"#utility.yul\":5636:5656   */\n      tag_119\n        /* \"#utility.yul\":5654:5655   */\n      dup4\n        /* \"#utility.yul\":5636:5656   */\n      tag_26\n      jump\t// in\n    tag_119:\n        /* \"#utility.yul\":5631:5656   */\n      swap3\n      pop\n        /* \"#utility.yul\":5790:5791   */\n      dup3\n        /* \"#utility.yul\":5722:5788   */\n      0xffffffffffffffffffffffffffffffffffffffffffffffffffffffffffffffff\n        /* \"#utility.yul\":5718:5792   */\n      sub\n        /* \"#utility.yul\":5715:5716   */\n      dup3\n        /* \"#utility.yul\":5712:5793   */\n      gt\n        /* \"#utility.yul\":5709:5816   */\n      iszero\n      tag_120\n      jumpi\n        /* \"#utility.yul\":5796:5814   */\n      tag_121\n      tag_50\n      jump\t// in\n    tag_121:\n        /* \"#utility.yul\":5709:5816   */\n    tag_120:\n        /* \"#utility.yul\":5840:5841   */\n      dup3\n        /* \"#utility.yul\":5837:5838   */\n      dup3\n        /* \"#utility.yul\":5833:5842   */\n      add\n        /* \"#utility.yul\":5826:5842   */\n      swap1\n      pop\n        /* \"#utility.yul\":5543:5848   */\n      swap3\n      swap2\n      pop\n      pop\n      jump\t// out\n\n    auxdata: 0xa264697066735822122067e5067b148a3da1b5d886e77fcc1c85ff5f956904c9dc1ea667e958104cbb7364736f6c634300080d0033\n}\n",
				"bytecode": {
					"linkReferences": {},
					"object": "608060405234801561001057600080fd5b50610529806100206000396000f3fe608060405234801561001057600080fd5b50600436106100415760003560e01c80631234e9fd1461004657806374dc598a14610064578063e5ddd82814610082575b600080fd5b61004e6100b2565b60405161005b919061018e565b60405180910390f35b61006c610101565b604051610079919061018e565b60405180910390f35b61009c600480360381019061009791906103c5565b610150565b6040516100a9919061018e565b60405180910390f35b60006100fc600160026003600060016040518060400160405280600181526020017f6300000000000000000000000000000000000000000000000000000000000000815250610150565b905090565b600061014b600160026003600060016040518060400160405280600181526020017f6300000000000000000000000000000000000000000000000000000000000000815250610150565b905090565b600084868861015f919061049d565b610169919061049d565b90509695505050505050565b6000819050919050565b61018881610175565b82525050565b60006020820190506101a3600083018461017f565b92915050565b6000604051905090565b600080fd5b600080fd5b6101c681610175565b81146101d157600080fd5b50565b6000813590506101e3816101bd565b92915050565b600073ffffffffffffffffffffffffffffffffffffffff82169050919050565b6000610214826101e9565b9050919050565b61022481610209565b811461022f57600080fd5b50565b6000813590506102418161021b565b92915050565b60008115159050919050565b61025c81610247565b811461026757600080fd5b50565b60008135905061027981610253565b92915050565b600080fd5b600080fd5b6000601f19601f8301169050919050565b7f4e487b7100000000000000000000000000000000000000000000000000000000600052604160045260246000fd5b6102d282610289565b810181811067ffffffffffffffff821117156102f1576102f061029a565b5b80604052505050565b60006103046101a9565b905061031082826102c9565b919050565b600067ffffffffffffffff8211156103305761032f61029a565b5b61033982610289565b9050602081019050919050565b82818337600083830152505050565b600061036861036384610315565b6102fa565b90508281526020810184848401111561038457610383610284565b5b61038f848285610346565b509392505050565b600082601f8301126103ac576103ab61027f565b5b81356103bc848260208601610355565b91505092915050565b60008060008060008060c087890312156103e2576103e16101b3565b5b60006103f089828a016101d4565b965050602061040189828a016101d4565b955050604061041289828a016101d4565b945050606061042389828a01610232565b935050608061043489828a0161026a565b92505060a087013567ffffffffffffffff811115610455576104546101b8565b5b61046189828a01610397565b9150509295509295509295565b7f4e487b7100000000000000000000000000000000000000000000000000000000600052601160045260246000fd5b60006104a882610175565b91506104b383610175565b9250827fffffffffffffffffffffffffffffffffffffffffffffffffffffffffffffffff038211156104e8576104e761046e565b5b82820190509291505056fea264697066735822122067e5067b148a3da1b5d886e77fcc1c85ff5f956904c9dc1ea667e958104cbb7364736f6c634300080d0033",
					"opcodes": "PUSH1 0x80 PUSH1 0x40 MSTORE CALLVALUE DUP1 ISZERO PUSH2 0x10 JUMPI PUSH1 0x0 DUP1 REVERT JUMPDEST POP PUSH2 0x529 DUP1 PUSH2 0x20 PUSH1 0x0 CODECOPY PUSH1 0x0 RETURN INVALID PUSH1 0x80 PUSH1 0x40 MSTORE CALLVALUE DUP1 ISZERO PUSH2 0x10 JUMPI PUSH1 0x0 DUP1 REVERT JUMPDEST POP PUSH1 0x4 CALLDATASIZE LT PUSH2 0x41 JUMPI PUSH1 0x0 CALLDATALOAD PUSH1 0xE0 SHR DUP1 PUSH4 0x1234E9FD EQ PUSH2 0x46 JUMPI DUP1 PUSH4 0x74DC598A EQ PUSH2 0x64 JUMPI DUP1 PUSH4 0xE5DDD828 EQ PUSH2 0x82 JUMPI JUMPDEST PUSH1 0x0 DUP1 REVERT JUMPDEST PUSH2 0x4E PUSH2 0xB2 JUMP JUMPDEST PUSH1 0x40 MLOAD PUSH2 0x5B SWAP2 SWAP1 PUSH2 0x18E JUMP JUMPDEST PUSH1 0x40 MLOAD DUP1 SWAP2 SUB SWAP1 RETURN JUMPDEST PUSH2 0x6C PUSH2 0x101 JUMP JUMPDEST PUSH1 0x40 MLOAD PUSH2 0x79 SWAP2 SWAP1 PUSH2 0x18E JUMP JUMPDEST PUSH1 0x40 MLOAD DUP1 SWAP2 SUB SWAP1 RETURN JUMPDEST PUSH2 0x9C PUSH1 0x4 DUP1 CALLDATASIZE SUB DUP2 ADD SWAP1 PUSH2 0x97 SWAP2 SWAP1 PUSH2 0x3C5 JUMP JUMPDEST PUSH2 0x150 JUMP JUMPDEST PUSH1 0x40 MLOAD PUSH2 0xA9 SWAP2 SWAP1 PUSH2 0x18E JUMP JUMPDEST PUSH1 0x40 MLOAD DUP1 SWAP2 SUB SWAP1 RETURN JUMPDEST PUSH1 0x0 PUSH2 0xFC PUSH1 0x1 PUSH1 0x2 PUSH1 0x3 PUSH1 0x0 PUSH1 0x1 PUSH1 0x40 MLOAD DUP1 PUSH1 0x40 ADD PUSH1 0x40 MSTORE DUP1 PUSH1 0x1 DUP2 MSTORE PUSH1 0x20 ADD PUSH32 0x6300000000000000000000000000000000000000000000000000000000000000 DUP2 MSTORE POP PUSH2 0x150 JUMP JUMPDEST SWAP1 POP SWAP1 JUMP JUMPDEST PUSH1 0x0 PUSH2 0x14B PUSH1 0x1 PUSH1 0x2 PUSH1 0x3 PUSH1 0x0 PUSH1 0x1 PUSH1 0x40 MLOAD DUP1 PUSH1 0x40 ADD PUSH1 0x40 MSTORE DUP1 PUSH1 0x1 DUP2 MSTORE PUSH1 0x20 ADD PUSH32 0x6300000000000000000000000000000000000000000000000000000000000000 DUP2 MSTORE POP PUSH2 0x150 JUMP JUMPDEST SWAP1 POP SWAP1 JUMP JUMPDEST PUSH1 0x0 DUP5 DUP7 DUP9 PUSH2 0x15F SWAP2 SWAP1 PUSH2 0x49D JUMP JUMPDEST PUSH2 0x169 SWAP2 SWAP1 PUSH2 0x49D JUMP JUMPDEST SWAP1 POP SWAP7 SWAP6 POP POP POP POP POP POP JUMP JUMPDEST PUSH1 0x0 DUP2 SWAP1 POP SWAP2 SWAP1 POP JUMP JUMPDEST PUSH2 0x188 DUP2 PUSH2 0x175 JUMP JUMPDEST DUP3 MSTORE POP POP JUMP JUMPDEST PUSH1 0x0 PUSH1 0x20 DUP3 ADD SWAP1 POP PUSH2 0x1A3 PUSH1 0x0 DUP4 ADD DUP5 PUSH2 0x17F JUMP JUMPDEST SWAP3 SWAP2 POP POP JUMP JUMPDEST PUSH1 0x0 PUSH1 0x40 MLOAD SWAP1 POP SWAP1 JUMP JUMPDEST PUSH1 0x0 DUP1 REVERT JUMPDEST PUSH1 0x0 DUP1 REVERT JUMPDEST PUSH2 0x1C6 DUP2 PUSH2 0x175 JUMP JUMPDEST DUP2 EQ PUSH2 0x1D1 JUMPI PUSH1 0x0 DUP1 REVERT JUMPDEST POP JUMP JUMPDEST PUSH1 0x0 DUP2 CALLDATALOAD SWAP1 POP PUSH2 0x1E3 DUP2 PUSH2 0x1BD JUMP JUMPDEST SWAP3 SWAP2 POP POP JUMP JUMPDEST PUSH1 0x0 PUSH20 0xFFFFFFFFFFFFFFFFFFFFFFFFFFFFFFFFFFFFFFFF DUP3 AND SWAP1 POP SWAP2 SWAP1 POP JUMP JUMPDEST PUSH1 0x0 PUSH2 0x214 DUP3 PUSH2 0x1E9 JUMP JUMPDEST SWAP1 POP SWAP2 SWAP1 POP JUMP JUMPDEST PUSH2 0x224 DUP2 PUSH2 0x209 JUMP JUMPDEST DUP2 EQ PUSH2 0x22F JUMPI PUSH1 0x0 DUP1 REVERT JUMPDEST POP JUMP JUMPDEST PUSH1 0x0 DUP2 CALLDATALOAD SWAP1 POP PUSH2 0x241 DUP2 PUSH2 0x21B JUMP JUMPDEST SWAP3 SWAP2 POP POP JUMP JUMPDEST PUSH1 0x0 DUP2 ISZERO ISZERO SWAP1 POP SWAP2 SWAP1 POP JUMP JUMPDEST PUSH2 0x25C DUP2 PUSH2 0x247 JUMP JUMPDEST DUP2 EQ PUSH2 0x267 JUMPI PUSH1 0x0 DUP1 REVERT JUMPDEST POP JUMP JUMPDEST PUSH1 0x0 DUP2 CALLDATALOAD SWAP1 POP PUSH2 0x279 DUP2 PUSH2 0x253 JUMP JUMPDEST SWAP3 SWAP2 POP POP JUMP JUMPDEST PUSH1 0x0 DUP1 REVERT JUMPDEST PUSH1 0x0 DUP1 REVERT JUMPDEST PUSH1 0x0 PUSH1 0x1F NOT PUSH1 0x1F DUP4 ADD AND SWAP1 POP SWAP2 SWAP1 POP JUMP JUMPDEST PUSH32 0x4E487B7100000000000000000000000000000000000000000000000000000000 PUSH1 0x0 MSTORE PUSH1 0x41 PUSH1 0x4 MSTORE PUSH1 0x24 PUSH1 0x0 REVERT JUMPDEST PUSH2 0x2D2 DUP3 PUSH2 0x289 JUMP JUMPDEST DUP2 ADD DUP2 DUP2 LT PUSH8 0xFFFFFFFFFFFFFFFF DUP3 GT OR ISZERO PUSH2 0x2F1 JUMPI PUSH2 0x2F0 PUSH2 0x29A JUMP JUMPDEST JUMPDEST DUP1 PUSH1 0x40 MSTORE POP POP POP JUMP JUMPDEST PUSH1 0x0 PUSH2 0x304 PUSH2 0x1A9 JUMP JUMPDEST SWAP1 POP PUSH2 0x310 DUP3 DUP3 PUSH2 0x2C9 JUMP JUMPDEST SWAP2 SWAP1 POP JUMP JUMPDEST PUSH1 0x0 PUSH8 0xFFFFFFFFFFFFFFFF DUP3 GT ISZERO PUSH2 0x330 JUMPI PUSH2 0x32F PUSH2 0x29A JUMP JUMPDEST JUMPDEST PUSH2 0x339 DUP3 PUSH2 0x289 JUMP JUMPDEST SWAP1 POP PUSH1 0x20 DUP2 ADD SWAP1 POP SWAP2 SWAP1 POP JUMP JUMPDEST DUP3 DUP2 DUP4 CALLDATACOPY PUSH1 0x0 DUP4 DUP4 ADD MSTORE POP POP POP JUMP JUMPDEST PUSH1 0x0 PUSH2 0x368 PUSH2 0x363 DUP5 PUSH2 0x315 JUMP JUMPDEST PUSH2 0x2FA JUMP JUMPDEST SWAP1 POP DUP3 DUP2 MSTORE PUSH1 0x20 DUP2 ADD DUP5 DUP5 DUP5 ADD GT ISZERO PUSH2 0x384 JUMPI PUSH2 0x383 PUSH2 0x284 JUMP JUMPDEST JUMPDEST PUSH2 0x38F DUP5 DUP3 DUP6 PUSH2 0x346 JUMP JUMPDEST POP SWAP4 SWAP3 POP POP POP JUMP JUMPDEST PUSH1 0x0 DUP3 PUSH1 0x1F DUP4 ADD SLT PUSH2 0x3AC JUMPI PUSH2 0x3AB PUSH2 0x27F JUMP JUMPDEST JUMPDEST DUP2 CALLDATALOAD PUSH2 0x3BC DUP5 DUP3 PUSH1 0x20 DUP7 ADD PUSH2 0x355 JUMP JUMPDEST SWAP2 POP POP SWAP3 SWAP2 POP POP JUMP JUMPDEST PUSH1 0x0 DUP1 PUSH1 0x0 DUP1 PUSH1 0x0 DUP1 PUSH1 0xC0 DUP8 DUP10 SUB SLT ISZERO PUSH2 0x3E2 JUMPI PUSH2 0x3E1 PUSH2 0x1B3 JUMP JUMPDEST JUMPDEST PUSH1 0x0 PUSH2 0x3F0 DUP10 DUP3 DUP11 ADD PUSH2 0x1D4 JUMP JUMPDEST SWAP7 POP POP PUSH1 0x20 PUSH2 0x401 DUP10 DUP3 DUP11 ADD PUSH2 0x1D4 JUMP JUMPDEST SWAP6 POP POP PUSH1 0x40 PUSH2 0x412 DUP10 DUP3 DUP11 ADD PUSH2 0x1D4 JUMP JUMPDEST SWAP5 POP POP PUSH1 0x60 PUSH2 0x423 DUP10 DUP3 DUP11 ADD PUSH2 0x232 JUMP JUMPDEST SWAP4 POP POP PUSH1 0x80 PUSH2 0x434 DUP10 DUP3 DUP11 ADD PUSH2 0x26A JUMP JUMPDEST SWAP3 POP POP PUSH1 0xA0 DUP8 ADD CALLDATALOAD PUSH8 0xFFFFFFFFFFFFFFFF DUP2 GT ISZERO PUSH2 0x455 JUMPI PUSH2 0x454 PUSH2 0x1B8 JUMP JUMPDEST JUMPDEST PUSH2 0x461 DUP10 DUP3 DUP11 ADD PUSH2 0x397 JUMP JUMPDEST SWAP2 POP POP SWAP3 SWAP6 POP SWAP3 SWAP6 POP SWAP3 SWAP6 JUMP JUMPDEST PUSH32 0x4E487B7100000000000000000000000000000000000000000000000000000000 PUSH1 0x0 MSTORE PUSH1 0x11 PUSH1 0x4 MSTORE PUSH1 0x24 PUSH1 0x0 REVERT JUMPDEST PUSH1 0x0 PUSH2 0x4A8 DUP3 PUSH2 0x175 JUMP JUMPDEST SWAP2 POP PUSH2 0x4B3 DUP4 PUSH2 0x175 JUMP JUMPDEST SWAP3 POP DUP3 PUSH32 0xFFFFFFFFFFFFFFFFFFFFFFFFFFFFFFFFFFFFFFFFFFFFFFFFFFFFFFFFFFFFFFFF SUB DUP3 GT ISZERO PUSH2 0x4E8 JUMPI PUSH2 0x4E7 PUSH2 0x46E JUMP JUMPDEST JUMPDEST DUP3 DUP3 ADD SWAP1 POP SWAP3 SWAP2 POP POP JUMP INVALID LOG2 PUSH5 0x6970667358 0x22 SLT KECCAK256 PUSH8 0xE5067B148A3DA1B5 0xD8 DUP7 0xE7 PUSH32 0xCC1C85FF5F956904C9DC1EA667E958104CBB7364736F6C634300080D00330000 "
				},
				"gasEstimates": {
					"creation": {
						"codeDepositCost": "264200",
						"executionCost": "306",
						"totalCost": "264506"
					},
					"external": {
						"chamadaFuncao()": "infinite",
						"chamadaFuncaoValorChave()": "infinite",
						"funcaoMuitosInputs(uint256,uint256,uint256,address,bool,string)": "infinite"
					}
				},
				"methodIdentifiers": {
					"chamadaFuncao()": "1234e9fd",
					"chamadaFuncaoValorChave()": "74dc598a",
					"funcaoMuitosInputs(uint256,uint256,uint256,address,bool,string)": "e5ddd828"
				}
			},
			"storageLayout": {
				"storage": [],
				"types": null
			},
			"userdoc": {
				"kind": "user",
				"methods": {},
				"version": 1
			}
		}
	}
}