{
	"contracts/events_35.sol": {
		"Event": {
			"abi": [
				{
					"anonymous": false,
					"inputs": [
						{
							"indexed": true,
							"internalType": "address",
							"name": "remetente",
							"type": "address"
						},
						{
							"indexed": false,
							"internalType": "string",
							"name": "mensagem",
							"type": "string"
						}
					],
					"name": "Log",
					"type": "event"
				},
				{
					"anonymous": false,
					"inputs": [],
					"name": "OutroLog",
					"type": "event"
				},
				{
					"inputs": [],
					"name": "teste",
					"outputs": [],
					"stateMutability": "nonpayable",
					"type": "function"
				}
			],
			"devdoc": {
				"kind": "dev",
				"methods": {},
				"version": 1
			},
			"evm": {
				"assembly": "    /* \"contracts/events_35.sol\":662:1407  contract Event{... */\n  mstore(0x40, 0x80)\n  callvalue\n  dup1\n  iszero\n  tag_1\n  jumpi\n  0x00\n  dup1\n  revert\ntag_1:\n  pop\n  dataSize(sub_0)\n  dup1\n  dataOffset(sub_0)\n  0x00\n  codecopy\n  0x00\n  return\nstop\n\nsub_0: assembly {\n        /* \"contracts/events_35.sol\":662:1407  contract Event{... */\n      mstore(0x40, 0x80)\n      callvalue\n      dup1\n      iszero\n      tag_1\n      jumpi\n      0x00\n      dup1\n      revert\n    tag_1:\n      pop\n      jumpi(tag_2, lt(calldatasize, 0x04))\n      shr(0xe0, calldataload(0x00))\n      dup1\n      0x9ee4bacd\n      eq\n      tag_3\n      jumpi\n    tag_2:\n      0x00\n      dup1\n      revert\n        /* \"contracts/events_35.sol\":1190:1405  function teste()public {... */\n    tag_3:\n      tag_4\n      tag_5\n      jump\t// in\n    tag_4:\n      stop\n    tag_5:\n        /* \"contracts/events_35.sol\":1232:1242  msg.sender */\n      caller\n        /* \"contracts/events_35.sol\":1228:1258  Log(msg.sender, \"Ola Mundo !\") */\n      0xffffffffffffffffffffffffffffffffffffffff\n      and\n      0x0738f4da267a110d810e6e89fc59e46be6de0c37b1d5cd559b267dc3688e74e0\n      mload(0x40)\n      tag_7\n      swap1\n      tag_8\n      jump\t// in\n    tag_7:\n      mload(0x40)\n      dup1\n      swap2\n      sub\n      swap1\n      log2\n        /* \"contracts/events_35.sol\":1312:1322  msg.sender */\n      caller\n        /* \"contracts/events_35.sol\":1308:1336  Log(msg.sender, \"Ola EVM !\") */\n      0xffffffffffffffffffffffffffffffffffffffff\n      and\n      0x0738f4da267a110d810e6e89fc59e46be6de0c37b1d5cd559b267dc3688e74e0\n      mload(0x40)\n      tag_9\n      swap1\n      tag_10\n      jump\t// in\n    tag_9:\n      mload(0x40)\n      dup1\n      swap2\n      sub\n      swap1\n      log2\n        /* \"contracts/events_35.sol\":1388:1398  OutroLog() */\n      0x415131ace172c80566b4fc61bd80d5e42e89500da2d777cccea8a9e17bbc4f58\n      mload(0x40)\n      mload(0x40)\n      dup1\n      swap2\n      sub\n      swap1\n      log1\n        /* \"contracts/events_35.sol\":1190:1405  function teste()public {... */\n      jump\t// out\n        /* \"#utility.yul\":7:176   */\n    tag_11:\n        /* \"#utility.yul\":91:102   */\n      0x00\n        /* \"#utility.yul\":125:131   */\n      dup3\n        /* \"#utility.yul\":120:123   */\n      dup3\n        /* \"#utility.yul\":113:132   */\n      mstore\n        /* \"#utility.yul\":165:169   */\n      0x20\n        /* \"#utility.yul\":160:163   */\n      dup3\n        /* \"#utility.yul\":156:170   */\n      add\n        /* \"#utility.yul\":141:170   */\n      swap1\n      pop\n        /* \"#utility.yul\":7:176   */\n      swap3\n      swap2\n      pop\n      pop\n      jump\t// out\n        /* \"#utility.yul\":182:343   */\n    tag_12:\n        /* \"#utility.yul\":322:335   */\n      0x4f6c61204d756e646f2021000000000000000000000000000000000000000000\n        /* \"#utility.yul\":318:319   */\n      0x00\n        /* \"#utility.yul\":310:316   */\n      dup3\n        /* \"#utility.yul\":306:320   */\n      add\n        /* \"#utility.yul\":299:336   */\n      mstore\n        /* \"#utility.yul\":182:343   */\n      pop\n      jump\t// out\n        /* \"#utility.yul\":349:715   */\n    tag_13:\n        /* \"#utility.yul\":491:494   */\n      0x00\n        /* \"#utility.yul\":512:579   */\n      tag_20\n        /* \"#utility.yul\":576:578   */\n      0x0b\n        /* \"#utility.yul\":571:574   */\n      dup4\n        /* \"#utility.yul\":512:579   */\n      tag_11\n      jump\t// in\n    tag_20:\n        /* \"#utility.yul\":505:579   */\n      swap2\n      pop\n        /* \"#utility.yul\":588:681   */\n      tag_21\n        /* \"#utility.yul\":677:680   */\n      dup3\n        /* \"#utility.yul\":588:681   */\n      tag_12\n      jump\t// in\n    tag_21:\n        /* \"#utility.yul\":706:708   */\n      0x20\n        /* \"#utility.yul\":701:704   */\n      dup3\n        /* \"#utility.yul\":697:709   */\n      add\n        /* \"#utility.yul\":690:709   */\n      swap1\n      pop\n        /* \"#utility.yul\":349:715   */\n      swap2\n      swap1\n      pop\n      jump\t// out\n        /* \"#utility.yul\":721:1140   */\n    tag_8:\n        /* \"#utility.yul\":887:891   */\n      0x00\n        /* \"#utility.yul\":925:927   */\n      0x20\n        /* \"#utility.yul\":914:923   */\n      dup3\n        /* \"#utility.yul\":910:928   */\n      add\n        /* \"#utility.yul\":902:928   */\n      swap1\n      pop\n        /* \"#utility.yul\":974:983   */\n      dup2\n        /* \"#utility.yul\":968:972   */\n      dup2\n        /* \"#utility.yul\":964:984   */\n      sub\n        /* \"#utility.yul\":960:961   */\n      0x00\n        /* \"#utility.yul\":949:958   */\n      dup4\n        /* \"#utility.yul\":945:962   */\n      add\n        /* \"#utility.yul\":938:985   */\n      mstore\n        /* \"#utility.yul\":1002:1133   */\n      tag_23\n        /* \"#utility.yul\":1128:1132   */\n      dup2\n        /* \"#utility.yul\":1002:1133   */\n      tag_13\n      jump\t// in\n    tag_23:\n        /* \"#utility.yul\":994:1133   */\n      swap1\n      pop\n        /* \"#utility.yul\":721:1140   */\n      swap2\n      swap1\n      pop\n      jump\t// out\n        /* \"#utility.yul\":1146:1305   */\n    tag_14:\n        /* \"#utility.yul\":1286:1297   */\n      0x4f6c612045564d20210000000000000000000000000000000000000000000000\n        /* \"#utility.yul\":1282:1283   */\n      0x00\n        /* \"#utility.yul\":1274:1280   */\n      dup3\n        /* \"#utility.yul\":1270:1284   */\n      add\n        /* \"#utility.yul\":1263:1298   */\n      mstore\n        /* \"#utility.yul\":1146:1305   */\n      pop\n      jump\t// out\n        /* \"#utility.yul\":1311:1676   */\n    tag_15:\n        /* \"#utility.yul\":1453:1456   */\n      0x00\n        /* \"#utility.yul\":1474:1540   */\n      tag_26\n        /* \"#utility.yul\":1538:1539   */\n      0x09\n        /* \"#utility.yul\":1533:1536   */\n      dup4\n        /* \"#utility.yul\":1474:1540   */\n      tag_11\n      jump\t// in\n    tag_26:\n        /* \"#utility.yul\":1467:1540   */\n      swap2\n      pop\n        /* \"#utility.yul\":1549:1642   */\n      tag_27\n        /* \"#utility.yul\":1638:1641   */\n      dup3\n        /* \"#utility.yul\":1549:1642   */\n      tag_14\n      jump\t// in\n    tag_27:\n        /* \"#utility.yul\":1667:1669   */\n      0x20\n        /* \"#utility.yul\":1662:1665   */\n      dup3\n        /* \"#utility.yul\":1658:1670   */\n      add\n        /* \"#utility.yul\":1651:1670   */\n      swap1\n      pop\n        /* \"#utility.yul\":1311:1676   */\n      swap2\n      swap1\n      pop\n      jump\t// out\n        /* \"#utility.yul\":1682:2101   */\n    tag_10:\n        /* \"#utility.yul\":1848:1852   */\n      0x00\n        /* \"#utility.yul\":1886:1888   */\n      0x20\n        /* \"#utility.yul\":1875:1884   */\n      dup3\n        /* \"#utility.yul\":1871:1889   */\n      add\n        /* \"#utility.yul\":1863:1889   */\n      swap1\n      pop\n        /* \"#utility.yul\":1935:1944   */\n      dup2\n        /* \"#utility.yul\":1929:1933   */\n      dup2\n        /* \"#utility.yul\":1925:1945   */\n      sub\n        /* \"#utility.yul\":1921:1922   */\n      0x00\n        /* \"#utility.yul\":1910:1919   */\n      dup4\n        /* \"#utility.yul\":1906:1923   */\n      add\n        /* \"#utility.yul\":1899:1946   */\n      mstore\n        /* \"#utility.yul\":1963:2094   */\n      tag_29\n        /* \"#utility.yul\":2089:2093   */\n      dup2\n        /* \"#utility.yul\":1963:2094   */\n      tag_15\n      jump\t// in\n    tag_29:\n        /* \"#utility.yul\":1955:2094   */\n      swap1\n      pop\n        /* \"#utility.yul\":1682:2101   */\n      swap2\n      swap1\n      pop\n      jump\t// out\n\n    auxdata: 0xa2646970667358221220df34c2c0d3ce8fcc4c2cbcc7b95aafca69b8b4bd60d07af0fa12ab03722c55dc64736f6c634300080d0033\n}\n",
				"bytecode": {
					"linkReferences": {},
					"object": "608060405234801561001057600080fd5b5061021f806100206000396000f3fe608060405234801561001057600080fd5b506004361061002b5760003560e01c80639ee4bacd14610030575b600080fd5b61003861003a565b005b3373ffffffffffffffffffffffffffffffffffffffff167f0738f4da267a110d810e6e89fc59e46be6de0c37b1d5cd559b267dc3688e74e060405161007e9061015d565b60405180910390a23373ffffffffffffffffffffffffffffffffffffffff167f0738f4da267a110d810e6e89fc59e46be6de0c37b1d5cd559b267dc3688e74e06040516100ca906101c9565b60405180910390a27f415131ace172c80566b4fc61bd80d5e42e89500da2d777cccea8a9e17bbc4f5860405160405180910390a1565b600082825260208201905092915050565b7f4f6c61204d756e646f2021000000000000000000000000000000000000000000600082015250565b6000610147600b83610100565b915061015282610111565b602082019050919050565b600060208201905081810360008301526101768161013a565b9050919050565b7f4f6c612045564d20210000000000000000000000000000000000000000000000600082015250565b60006101b3600983610100565b91506101be8261017d565b602082019050919050565b600060208201905081810360008301526101e2816101a6565b905091905056fea2646970667358221220df34c2c0d3ce8fcc4c2cbcc7b95aafca69b8b4bd60d07af0fa12ab03722c55dc64736f6c634300080d0033",
					"opcodes": "PUSH1 0x80 PUSH1 0x40 MSTORE CALLVALUE DUP1 ISZERO PUSH2 0x10 JUMPI PUSH1 0x0 DUP1 REVERT JUMPDEST POP PUSH2 0x21F DUP1 PUSH2 0x20 PUSH1 0x0 CODECOPY PUSH1 0x0 RETURN INVALID PUSH1 0x80 PUSH1 0x40 MSTORE CALLVALUE DUP1 ISZERO PUSH2 0x10 JUMPI PUSH1 0x0 DUP1 REVERT JUMPDEST POP PUSH1 0x4 CALLDATASIZE LT PUSH2 0x2B JUMPI PUSH1 0x0 CALLDATALOAD PUSH1 0xE0 SHR DUP1 PUSH4 0x9EE4BACD EQ PUSH2 0x30 JUMPI JUMPDEST PUSH1 0x0 DUP1 REVERT JUMPDEST PUSH2 0x38 PUSH2 0x3A JUMP JUMPDEST STOP JUMPDEST CALLER PUSH20 0xFFFFFFFFFFFFFFFFFFFFFFFFFFFFFFFFFFFFFFFF AND PUSH32 0x738F4DA267A110D810E6E89FC59E46BE6DE0C37B1D5CD559B267DC3688E74E0 PUSH1 0x40 MLOAD PUSH2 0x7E SWAP1 PUSH2 0x15D JUMP JUMPDEST PUSH1 0x40 MLOAD DUP1 SWAP2 SUB SWAP1 LOG2 CALLER PUSH20 0xFFFFFFFFFFFFFFFFFFFFFFFFFFFFFFFFFFFFFFFF AND PUSH32 0x738F4DA267A110D810E6E89FC59E46BE6DE0C37B1D5CD559B267DC3688E74E0 PUSH1 0x40 MLOAD PUSH2 0xCA SWAP1 PUSH2 0x1C9 JUMP JUMPDEST PUSH1 0x40 MLOAD DUP1 SWAP2 SUB SWAP1 LOG2 PUSH32 0x415131ACE172C80566B4FC61BD80D5E42E89500DA2D777CCCEA8A9E17BBC4F58 PUSH1 0x40 MLOAD PUSH1 0x40 MLOAD DUP1 SWAP2 SUB SWAP1 LOG1 JUMP JUMPDEST PUSH1 0x0 DUP3 DUP3 MSTORE PUSH1 0x20 DUP3 ADD SWAP1 POP SWAP3 SWAP2 POP POP JUMP JUMPDEST PUSH32 0x4F6C61204D756E646F2021000000000000000000000000000000000000000000 PUSH1 0x0 DUP3 ADD MSTORE POP JUMP JUMPDEST PUSH1 0x0 PUSH2 0x147 PUSH1 0xB DUP4 PUSH2 0x100 JUMP JUMPDEST SWAP2 POP PUSH2 0x152 DUP3 PUSH2 0x111 JUMP JUMPDEST PUSH1 0x20 DUP3 ADD SWAP1 POP SWAP2 SWAP1 POP JUMP JUMPDEST PUSH1 0x0 PUSH1 0x20 DUP3 ADD SWAP1 POP DUP2 DUP2 SUB PUSH1 0x0 DUP4 ADD MSTORE PUSH2 0x176 DUP2 PUSH2 0x13A JUMP JUMPDEST SWAP1 POP SWAP2 SWAP1 POP JUMP JUMPDEST PUSH32 0x4F6C612045564D20210000000000000000000000000000000000000000000000 PUSH1 0x0 DUP3 ADD MSTORE POP JUMP JUMPDEST PUSH1 0x0 PUSH2 0x1B3 PUSH1 0x9 DUP4 PUSH2 0x100 JUMP JUMPDEST SWAP2 POP PUSH2 0x1BE DUP3 PUSH2 0x17D JUMP JUMPDEST PUSH1 0x20 DUP3 ADD SWAP1 POP SWAP2 SWAP1 POP JUMP JUMPDEST PUSH1 0x0 PUSH1 0x20 DUP3 ADD SWAP1 POP DUP2 DUP2 SUB PUSH1 0x0 DUP4 ADD MSTORE PUSH2 0x1E2 DUP2 PUSH2 0x1A6 JUMP JUMPDEST SWAP1 POP SWAP2 SWAP1 POP JUMP INVALID LOG2 PUSH5 0x6970667358 0x22 SLT KECCAK256 0xDF CALLVALUE 0xC2 0xC0 0xD3 0xCE DUP16 0xCC 0x4C 0x2C 0xBC 0xC7 0xB9 GAS 0xAF 0xCA PUSH10 0xB8B4BD60D07AF0FA12AB SUB PUSH19 0x2C55DC64736F6C634300080D00330000000000 "
				},
				"gasEstimates": {
					"creation": {
						"codeDepositCost": "108600",
						"executionCost": "153",
						"totalCost": "108753"
					},
					"external": {
						"teste()": "infinite"
					}
				},
				"methodIdentifiers": {
					"teste()": "9ee4bacd"
				}
			},
			"storageLayout": {
				"storage": [],
				"types": null
			},
			"userdoc": {
				"kind": "user",
				"methods": {},
				"version": 1
			}
		}
	}
}