{
	"contracts/stateVariables_9.sol": {
		"StateVariables": {
			"abi": [
				{
					"inputs": [],
					"name": "defaltByte",
					"outputs": [
						{
							"internalType": "bytes",
							"name": "",
							"type": "bytes"
						}
					],
					"stateMutability": "view",
					"type": "function"
				},
				{
					"inputs": [],
					"name": "defaltByteNo",
					"outputs": [
						{
							"internalType": "bytes",
							"name": "",
							"type": "bytes"
						}
					],
					"stateMutability": "view",
					"type": "function"
				},
				{
					"inputs": [],
					"name": "defaltNum",
					"outputs": [
						{
							"internalType": "uint256",
							"name": "",
							"type": "uint256"
						}
					],
					"stateMutability": "view",
					"type": "function"
				},
				{
					"inputs": [],
					"name": "defaltText",
					"outputs": [
						{
							"internalType": "string",
							"name": "",
							"type": "string"
						}
					],
					"stateMutability": "view",
					"type": "function"
				},
				{
					"inputs": [],
					"name": "myNum",
					"outputs": [
						{
							"internalType": "uint256",
							"name": "",
							"type": "uint256"
						}
					],
					"stateMutability": "view",
					"type": "function"
				},
				{
					"inputs": [
						{
							"internalType": "uint256",
							"name": "",
							"type": "uint256"
						}
					],
					"name": "myNumber",
					"outputs": [
						{
							"internalType": "uint256",
							"name": "",
							"type": "uint256"
						}
					],
					"stateMutability": "view",
					"type": "function"
				},
				{
					"inputs": [],
					"name": "myState",
					"outputs": [
						{
							"internalType": "string",
							"name": "",
							"type": "string"
						}
					],
					"stateMutability": "view",
					"type": "function"
				},
				{
					"inputs": [
						{
							"internalType": "string",
							"name": "_texto",
							"type": "string"
						},
						{
							"internalType": "uint256",
							"name": "_no",
							"type": "uint256"
						}
					],
					"name": "update",
					"outputs": [],
					"stateMutability": "nonpayable",
					"type": "function"
				}
			],
			"devdoc": {
				"kind": "dev",
				"methods": {},
				"version": 1
			},
			"evm": {
				"assembly": "    /* \"contracts/stateVariables_9.sol\":143:1424  contract StateVariables {... */\n  mstore(0x40, 0x80)\n    /* \"contracts/stateVariables_9.sol\":433:478  string public defaltText = \"Hey default text\" */\n  mload(0x40)\n  dup1\n  0x40\n  add\n  0x40\n  mstore\n  dup1\n  0x10\n  dup2\n  mstore\n  0x20\n  add\n  0x4865792064656661756c74207465787400000000000000000000000000000000\n  dup2\n  mstore\n  pop\n  0x02\n  swap1\n  dup1\n  mload\n  swap1\n  0x20\n  add\n  swap1\n  tag_1\n  swap3\n  swap2\n  swap1\n  tag_2\n  jump\t// in\ntag_1:\n  pop\n    /* \"contracts/stateVariables_9.sol\":511:512  5 */\n  0x05\n    /* \"contracts/stateVariables_9.sol\":484:512  uint256 public defaltNum = 5 */\n  0x03\n  sstore\n    /* \"contracts/stateVariables_9.sol\":675:714  bytes public defaltByte  = \"het daulat\" */\n  mload(0x40)\n  dup1\n  0x40\n  add\n  0x40\n  mstore\n  dup1\n  0x0a\n  dup2\n  mstore\n  0x20\n  add\n  0x686574206461756c617400000000000000000000000000000000000000000000\n  dup2\n  mstore\n  pop\n  0x04\n  swap1\n  dup1\n  mload\n  swap1\n  0x20\n  add\n  swap1\n  tag_3\n  swap3\n  swap2\n  swap1\n  tag_4\n  jump\t// in\ntag_3:\n  pop\n    /* \"contracts/stateVariables_9.sol\":143:1424  contract StateVariables {... */\n  callvalue\n  dup1\n  iszero\n  tag_5\n  jumpi\n  0x00\n  dup1\n  revert\ntag_5:\n  pop\n  jump(tag_6)\ntag_2:\n  dup3\n  dup1\n  sload\n  tag_7\n  swap1\n  tag_8\n  jump\t// in\ntag_7:\n  swap1\n  0x00\n  mstore\n  keccak256(0x00, 0x20)\n  swap1\n  0x1f\n  add\n  0x20\n  swap1\n  div\n  dup2\n  add\n  swap3\n  dup3\n  tag_10\n  jumpi\n  0x00\n  dup6\n  sstore\n  jump(tag_9)\ntag_10:\n  dup3\n  0x1f\n  lt\n  tag_11\n  jumpi\n  dup1\n  mload\n  not(0xff)\n  and\n  dup4\n  dup1\n  add\n  or\n  dup6\n  sstore\n  jump(tag_9)\ntag_11:\n  dup3\n  dup1\n  add\n  0x01\n  add\n  dup6\n  sstore\n  dup3\n  iszero\n  tag_9\n  jumpi\n  swap2\n  dup3\n  add\ntag_12:\n  dup3\n  dup2\n  gt\n  iszero\n  tag_13\n  jumpi\n  dup3\n  mload\n  dup3\n  sstore\n  swap2\n  0x20\n  add\n  swap2\n  swap1\n  0x01\n  add\n  swap1\n  jump(tag_12)\ntag_13:\ntag_9:\n  pop\n  swap1\n  pop\n  tag_14\n  swap2\n  swap1\n  tag_15\n  jump\t// in\ntag_14:\n  pop\n  swap1\n  jump\t// out\ntag_4:\n  dup3\n  dup1\n  sload\n  tag_16\n  swap1\n  tag_8\n  jump\t// in\ntag_16:\n  swap1\n  0x00\n  mstore\n  keccak256(0x00, 0x20)\n  swap1\n  0x1f\n  add\n  0x20\n  swap1\n  div\n  dup2\n  add\n  swap3\n  dup3\n  tag_18\n  jumpi\n  0x00\n  dup6\n  sstore\n  jump(tag_17)\ntag_18:\n  dup3\n  0x1f\n  lt\n  tag_19\n  jumpi\n  dup1\n  mload\n  not(0xff)\n  and\n  dup4\n  dup1\n  add\n  or\n  dup6\n  sstore\n  jump(tag_17)\ntag_19:\n  dup3\n  dup1\n  add\n  0x01\n  add\n  dup6\n  sstore\n  dup3\n  iszero\n  tag_17\n  jumpi\n  swap2\n  dup3\n  add\ntag_20:\n  dup3\n  dup2\n  gt\n  iszero\n  tag_21\n  jumpi\n  dup3\n  mload\n  dup3\n  sstore\n  swap2\n  0x20\n  add\n  swap2\n  swap1\n  0x01\n  add\n  swap1\n  jump(tag_20)\ntag_21:\ntag_17:\n  pop\n  swap1\n  pop\n  tag_22\n  swap2\n  swap1\n  tag_15\n  jump\t// in\ntag_22:\n  pop\n  swap1\n  jump\t// out\ntag_15:\ntag_23:\n  dup1\n  dup3\n  gt\n  iszero\n  tag_24\n  jumpi\n  0x00\n  dup2\n  0x00\n  swap1\n  sstore\n  pop\n  0x01\n  add\n  jump(tag_23)\ntag_24:\n  pop\n  swap1\n  jump\t// out\n    /* \"#utility.yul\":7:187   */\ntag_25:\n    /* \"#utility.yul\":55:132   */\n  0x4e487b7100000000000000000000000000000000000000000000000000000000\n    /* \"#utility.yul\":52:53   */\n  0x00\n    /* \"#utility.yul\":45:133   */\n  mstore\n    /* \"#utility.yul\":152:156   */\n  0x22\n    /* \"#utility.yul\":149:150   */\n  0x04\n    /* \"#utility.yul\":142:157   */\n  mstore\n    /* \"#utility.yul\":176:180   */\n  0x24\n    /* \"#utility.yul\":173:174   */\n  0x00\n    /* \"#utility.yul\":166:181   */\n  revert\n    /* \"#utility.yul\":193:513   */\ntag_8:\n    /* \"#utility.yul\":237:243   */\n  0x00\n    /* \"#utility.yul\":274:275   */\n  0x02\n    /* \"#utility.yul\":268:272   */\n  dup3\n    /* \"#utility.yul\":264:276   */\n  div\n    /* \"#utility.yul\":254:276   */\n  swap1\n  pop\n    /* \"#utility.yul\":321:322   */\n  0x01\n    /* \"#utility.yul\":315:319   */\n  dup3\n    /* \"#utility.yul\":311:323   */\n  and\n    /* \"#utility.yul\":342:360   */\n  dup1\n    /* \"#utility.yul\":332:413   */\n  tag_29\n  jumpi\n    /* \"#utility.yul\":398:402   */\n  0x7f\n    /* \"#utility.yul\":390:396   */\n  dup3\n    /* \"#utility.yul\":386:403   */\n  and\n    /* \"#utility.yul\":376:403   */\n  swap2\n  pop\n    /* \"#utility.yul\":332:413   */\ntag_29:\n    /* \"#utility.yul\":460:462   */\n  0x20\n    /* \"#utility.yul\":452:458   */\n  dup3\n    /* \"#utility.yul\":449:463   */\n  lt\n    /* \"#utility.yul\":429:447   */\n  dup2\n    /* \"#utility.yul\":426:464   */\n  sub\n    /* \"#utility.yul\":423:507   */\n  tag_30\n  jumpi\n    /* \"#utility.yul\":479:497   */\n  tag_31\n  tag_25\n  jump\t// in\ntag_31:\n    /* \"#utility.yul\":423:507   */\ntag_30:\n    /* \"#utility.yul\":244:513   */\n  pop\n    /* \"#utility.yul\":193:513   */\n  swap2\n  swap1\n  pop\n  jump\t// out\n    /* \"contracts/stateVariables_9.sol\":143:1424  contract StateVariables {... */\ntag_6:\n  dataSize(sub_0)\n  dup1\n  dataOffset(sub_0)\n  0x00\n  codecopy\n  0x00\n  return\nstop\n\nsub_0: assembly {\n        /* \"contracts/stateVariables_9.sol\":143:1424  contract StateVariables {... */\n      mstore(0x40, 0x80)\n      callvalue\n      dup1\n      iszero\n      tag_1\n      jumpi\n      0x00\n      dup1\n      revert\n    tag_1:\n      pop\n      jumpi(tag_2, lt(calldatasize, 0x04))\n      shr(0xe0, calldataload(0x00))\n      dup1\n      0x4ee5c2ee\n      gt\n      tag_11\n      jumpi\n      dup1\n      0x4ee5c2ee\n      eq\n      tag_7\n      jumpi\n      dup1\n      0x8bf1799f\n      eq\n      tag_8\n      jumpi\n      dup1\n      0xd4da005a\n      eq\n      tag_9\n      jumpi\n      dup1\n      0xd72b3fa1\n      eq\n      tag_10\n      jumpi\n      jump(tag_2)\n    tag_11:\n      dup1\n      0x07ca2442\n      eq\n      tag_3\n      jumpi\n      dup1\n      0x0a070a57\n      eq\n      tag_4\n      jumpi\n      dup1\n      0x110474c7\n      eq\n      tag_5\n      jumpi\n      dup1\n      0x1542f3bf\n      eq\n      tag_6\n      jumpi\n    tag_2:\n      0x00\n      dup1\n      revert\n        /* \"contracts/stateVariables_9.sol\":951:976  uint256[] public myNumber */\n    tag_3:\n      tag_12\n      0x04\n      dup1\n      calldatasize\n      sub\n      dup2\n      add\n      swap1\n      tag_13\n      swap2\n      swap1\n      tag_14\n      jump\t// in\n    tag_13:\n      tag_15\n      jump\t// in\n    tag_12:\n      mload(0x40)\n      tag_16\n      swap2\n      swap1\n      tag_17\n      jump\t// in\n    tag_16:\n      mload(0x40)\n      dup1\n      swap2\n      sub\n      swap1\n      return\n        /* \"contracts/stateVariables_9.sol\":841:866  bytes public defaltByteNo */\n    tag_4:\n      tag_18\n      tag_19\n      jump\t// in\n    tag_18:\n      mload(0x40)\n      tag_20\n      swap2\n      swap1\n      tag_21\n      jump\t// in\n    tag_20:\n      mload(0x40)\n      dup1\n      swap2\n      sub\n      swap1\n      return\n        /* \"contracts/stateVariables_9.sol\":484:512  uint256 public defaltNum = 5 */\n    tag_5:\n      tag_22\n      tag_23\n      jump\t// in\n    tag_22:\n      mload(0x40)\n      tag_24\n      swap2\n      swap1\n      tag_17\n      jump\t// in\n    tag_24:\n      mload(0x40)\n      dup1\n      swap2\n      sub\n      swap1\n      return\n        /* \"contracts/stateVariables_9.sol\":433:478  string public defaltText = \"Hey default text\" */\n    tag_6:\n      tag_25\n      tag_26\n      jump\t// in\n    tag_25:\n      mload(0x40)\n      tag_27\n      swap2\n      swap1\n      tag_28\n      jump\t// in\n    tag_27:\n      mload(0x40)\n      dup1\n      swap2\n      sub\n      swap1\n      return\n        /* \"contracts/stateVariables_9.sol\":1302:1422  function update(string memory _texto, uint256 _no) public {... */\n    tag_7:\n      tag_29\n      0x04\n      dup1\n      calldatasize\n      sub\n      dup2\n      add\n      swap1\n      tag_30\n      swap2\n      swap1\n      tag_31\n      jump\t// in\n    tag_30:\n      tag_32\n      jump\t// in\n    tag_29:\n      stop\n        /* \"contracts/stateVariables_9.sol\":379:400  string public myState */\n    tag_8:\n      tag_33\n      tag_34\n      jump\t// in\n    tag_33:\n      mload(0x40)\n      tag_35\n      swap2\n      swap1\n      tag_28\n      jump\t// in\n    tag_35:\n      mload(0x40)\n      dup1\n      swap2\n      sub\n      swap1\n      return\n        /* \"contracts/stateVariables_9.sol\":406:426  uint256 public myNum */\n    tag_9:\n      tag_36\n      tag_37\n      jump\t// in\n    tag_36:\n      mload(0x40)\n      tag_38\n      swap2\n      swap1\n      tag_17\n      jump\t// in\n    tag_38:\n      mload(0x40)\n      dup1\n      swap2\n      sub\n      swap1\n      return\n        /* \"contracts/stateVariables_9.sol\":675:714  bytes public defaltByte  = \"het daulat\" */\n    tag_10:\n      tag_39\n      tag_40\n      jump\t// in\n    tag_39:\n      mload(0x40)\n      tag_41\n      swap2\n      swap1\n      tag_21\n      jump\t// in\n    tag_41:\n      mload(0x40)\n      dup1\n      swap2\n      sub\n      swap1\n      return\n        /* \"contracts/stateVariables_9.sol\":951:976  uint256[] public myNumber */\n    tag_15:\n      0x06\n      dup2\n      dup2\n      sload\n      dup2\n      lt\n      tag_42\n      jumpi\n      0x00\n      dup1\n      revert\n    tag_42:\n      swap1\n      0x00\n      mstore\n      keccak256(0x00, 0x20)\n      add\n      0x00\n      swap2\n      pop\n      swap1\n      pop\n      sload\n      dup2\n      jump\t// out\n        /* \"contracts/stateVariables_9.sol\":841:866  bytes public defaltByteNo */\n    tag_19:\n      0x05\n      dup1\n      sload\n      tag_44\n      swap1\n      tag_45\n      jump\t// in\n    tag_44:\n      dup1\n      0x1f\n      add\n      0x20\n      dup1\n      swap2\n      div\n      mul\n      0x20\n      add\n      mload(0x40)\n      swap1\n      dup2\n      add\n      0x40\n      mstore\n      dup1\n      swap3\n      swap2\n      swap1\n      dup2\n      dup2\n      mstore\n      0x20\n      add\n      dup3\n      dup1\n      sload\n      tag_46\n      swap1\n      tag_45\n      jump\t// in\n    tag_46:\n      dup1\n      iszero\n      tag_47\n      jumpi\n      dup1\n      0x1f\n      lt\n      tag_48\n      jumpi\n      0x0100\n      dup1\n      dup4\n      sload\n      div\n      mul\n      dup4\n      mstore\n      swap2\n      0x20\n      add\n      swap2\n      jump(tag_47)\n    tag_48:\n      dup3\n      add\n      swap2\n      swap1\n      0x00\n      mstore\n      keccak256(0x00, 0x20)\n      swap1\n    tag_49:\n      dup2\n      sload\n      dup2\n      mstore\n      swap1\n      0x01\n      add\n      swap1\n      0x20\n      add\n      dup1\n      dup4\n      gt\n      tag_49\n      jumpi\n      dup3\n      swap1\n      sub\n      0x1f\n      and\n      dup3\n      add\n      swap2\n    tag_47:\n      pop\n      pop\n      pop\n      pop\n      pop\n      dup2\n      jump\t// out\n        /* \"contracts/stateVariables_9.sol\":484:512  uint256 public defaltNum = 5 */\n    tag_23:\n      sload(0x03)\n      dup2\n      jump\t// out\n        /* \"contracts/stateVariables_9.sol\":433:478  string public defaltText = \"Hey default text\" */\n    tag_26:\n      0x02\n      dup1\n      sload\n      tag_50\n      swap1\n      tag_45\n      jump\t// in\n    tag_50:\n      dup1\n      0x1f\n      add\n      0x20\n      dup1\n      swap2\n      div\n      mul\n      0x20\n      add\n      mload(0x40)\n      swap1\n      dup2\n      add\n      0x40\n      mstore\n      dup1\n      swap3\n      swap2\n      swap1\n      dup2\n      dup2\n      mstore\n      0x20\n      add\n      dup3\n      dup1\n      sload\n      tag_51\n      swap1\n      tag_45\n      jump\t// in\n    tag_51:\n      dup1\n      iszero\n      tag_52\n      jumpi\n      dup1\n      0x1f\n      lt\n      tag_53\n      jumpi\n      0x0100\n      dup1\n      dup4\n      sload\n      div\n      mul\n      dup4\n      mstore\n      swap2\n      0x20\n      add\n      swap2\n      jump(tag_52)\n    tag_53:\n      dup3\n      add\n      swap2\n      swap1\n      0x00\n      mstore\n      keccak256(0x00, 0x20)\n      swap1\n    tag_54:\n      dup2\n      sload\n      dup2\n      mstore\n      swap1\n      0x01\n      add\n      swap1\n      0x20\n      add\n      dup1\n      dup4\n      gt\n      tag_54\n      jumpi\n      dup3\n      swap1\n      sub\n      0x1f\n      and\n      dup3\n      add\n      swap2\n    tag_52:\n      pop\n      pop\n      pop\n      pop\n      pop\n      dup2\n      jump\t// out\n        /* \"contracts/stateVariables_9.sol\":1302:1422  function update(string memory _texto, uint256 _no) public {... */\n    tag_32:\n        /* \"contracts/stateVariables_9.sol\":1380:1386  _texto */\n      dup2\n        /* \"contracts/stateVariables_9.sol\":1370:1377  myState */\n      0x00\n        /* \"contracts/stateVariables_9.sol\":1370:1386  myState = _texto */\n      swap1\n      dup1\n      mload\n      swap1\n      0x20\n      add\n      swap1\n      tag_56\n      swap3\n      swap2\n      swap1\n      tag_57\n      jump\t// in\n    tag_56:\n      pop\n        /* \"contracts/stateVariables_9.sol\":1404:1407  _no */\n      dup1\n        /* \"contracts/stateVariables_9.sol\":1396:1401  myNum */\n      0x01\n        /* \"contracts/stateVariables_9.sol\":1396:1407  myNum = _no */\n      dup2\n      swap1\n      sstore\n      pop\n        /* \"contracts/stateVariables_9.sol\":1302:1422  function update(string memory _texto, uint256 _no) public {... */\n      pop\n      pop\n      jump\t// out\n        /* \"contracts/stateVariables_9.sol\":379:400  string public myState */\n    tag_34:\n      0x00\n      dup1\n      sload\n      tag_58\n      swap1\n      tag_45\n      jump\t// in\n    tag_58:\n      dup1\n      0x1f\n      add\n      0x20\n      dup1\n      swap2\n      div\n      mul\n      0x20\n      add\n      mload(0x40)\n      swap1\n      dup2\n      add\n      0x40\n      mstore\n      dup1\n      swap3\n      swap2\n      swap1\n      dup2\n      dup2\n      mstore\n      0x20\n      add\n      dup3\n      dup1\n      sload\n      tag_59\n      swap1\n      tag_45\n      jump\t// in\n    tag_59:\n      dup1\n      iszero\n      tag_60\n      jumpi\n      dup1\n      0x1f\n      lt\n      tag_61\n      jumpi\n      0x0100\n      dup1\n      dup4\n      sload\n      div\n      mul\n      dup4\n      mstore\n      swap2\n      0x20\n      add\n      swap2\n      jump(tag_60)\n    tag_61:\n      dup3\n      add\n      swap2\n      swap1\n      0x00\n      mstore\n      keccak256(0x00, 0x20)\n      swap1\n    tag_62:\n      dup2\n      sload\n      dup2\n      mstore\n      swap1\n      0x01\n      add\n      swap1\n      0x20\n      add\n      dup1\n      dup4\n      gt\n      tag_62\n      jumpi\n      dup3\n      swap1\n      sub\n      0x1f\n      and\n      dup3\n      add\n      swap2\n    tag_60:\n      pop\n      pop\n      pop\n      pop\n      pop\n      dup2\n      jump\t// out\n        /* \"contracts/stateVariables_9.sol\":406:426  uint256 public myNum */\n    tag_37:\n      sload(0x01)\n      dup2\n      jump\t// out\n        /* \"contracts/stateVariables_9.sol\":675:714  bytes public defaltByte  = \"het daulat\" */\n    tag_40:\n      0x04\n      dup1\n      sload\n      tag_63\n      swap1\n      tag_45\n      jump\t// in\n    tag_63:\n      dup1\n      0x1f\n      add\n      0x20\n      dup1\n      swap2\n      div\n      mul\n      0x20\n      add\n      mload(0x40)\n      swap1\n      dup2\n      add\n      0x40\n      mstore\n      dup1\n      swap3\n      swap2\n      swap1\n      dup2\n      dup2\n      mstore\n      0x20\n      add\n      dup3\n      dup1\n      sload\n      tag_64\n      swap1\n      tag_45\n      jump\t// in\n    tag_64:\n      dup1\n      iszero\n      tag_65\n      jumpi\n      dup1\n      0x1f\n      lt\n      tag_66\n      jumpi\n      0x0100\n      dup1\n      dup4\n      sload\n      div\n      mul\n      dup4\n      mstore\n      swap2\n      0x20\n      add\n      swap2\n      jump(tag_65)\n    tag_66:\n      dup3\n      add\n      swap2\n      swap1\n      0x00\n      mstore\n      keccak256(0x00, 0x20)\n      swap1\n    tag_67:\n      dup2\n      sload\n      dup2\n      mstore\n      swap1\n      0x01\n      add\n      swap1\n      0x20\n      add\n      dup1\n      dup4\n      gt\n      tag_67\n      jumpi\n      dup3\n      swap1\n      sub\n      0x1f\n      and\n      dup3\n      add\n      swap2\n    tag_65:\n      pop\n      pop\n      pop\n      pop\n      pop\n      dup2\n      jump\t// out\n    tag_57:\n      dup3\n      dup1\n      sload\n      tag_68\n      swap1\n      tag_45\n      jump\t// in\n    tag_68:\n      swap1\n      0x00\n      mstore\n      keccak256(0x00, 0x20)\n      swap1\n      0x1f\n      add\n      0x20\n      swap1\n      div\n      dup2\n      add\n      swap3\n      dup3\n      tag_70\n      jumpi\n      0x00\n      dup6\n      sstore\n      jump(tag_69)\n    tag_70:\n      dup3\n      0x1f\n      lt\n      tag_71\n      jumpi\n      dup1\n      mload\n      not(0xff)\n      and\n      dup4\n      dup1\n      add\n      or\n      dup6\n      sstore\n      jump(tag_69)\n    tag_71:\n      dup3\n      dup1\n      add\n      0x01\n      add\n      dup6\n      sstore\n      dup3\n      iszero\n      tag_69\n      jumpi\n      swap2\n      dup3\n      add\n    tag_72:\n      dup3\n      dup2\n      gt\n      iszero\n      tag_73\n      jumpi\n      dup3\n      mload\n      dup3\n      sstore\n      swap2\n      0x20\n      add\n      swap2\n      swap1\n      0x01\n      add\n      swap1\n      jump(tag_72)\n    tag_73:\n    tag_69:\n      pop\n      swap1\n      pop\n      tag_74\n      swap2\n      swap1\n      tag_75\n      jump\t// in\n    tag_74:\n      pop\n      swap1\n      jump\t// out\n    tag_75:\n    tag_76:\n      dup1\n      dup3\n      gt\n      iszero\n      tag_77\n      jumpi\n      0x00\n      dup2\n      0x00\n      swap1\n      sstore\n      pop\n      0x01\n      add\n      jump(tag_76)\n    tag_77:\n      pop\n      swap1\n      jump\t// out\n        /* \"#utility.yul\":7:82   */\n    tag_78:\n        /* \"#utility.yul\":40:46   */\n      0x00\n        /* \"#utility.yul\":73:75   */\n      0x40\n        /* \"#utility.yul\":67:76   */\n      mload\n        /* \"#utility.yul\":57:76   */\n      swap1\n      pop\n        /* \"#utility.yul\":7:82   */\n      swap1\n      jump\t// out\n        /* \"#utility.yul\":88:205   */\n    tag_79:\n        /* \"#utility.yul\":197:198   */\n      0x00\n        /* \"#utility.yul\":194:195   */\n      dup1\n        /* \"#utility.yul\":187:199   */\n      revert\n        /* \"#utility.yul\":211:328   */\n    tag_80:\n        /* \"#utility.yul\":320:321   */\n      0x00\n        /* \"#utility.yul\":317:318   */\n      dup1\n        /* \"#utility.yul\":310:322   */\n      revert\n        /* \"#utility.yul\":334:411   */\n    tag_81:\n        /* \"#utility.yul\":371:378   */\n      0x00\n        /* \"#utility.yul\":400:405   */\n      dup2\n        /* \"#utility.yul\":389:405   */\n      swap1\n      pop\n        /* \"#utility.yul\":334:411   */\n      swap2\n      swap1\n      pop\n      jump\t// out\n        /* \"#utility.yul\":417:539   */\n    tag_82:\n        /* \"#utility.yul\":490:514   */\n      tag_109\n        /* \"#utility.yul\":508:513   */\n      dup2\n        /* \"#utility.yul\":490:514   */\n      tag_81\n      jump\t// in\n    tag_109:\n        /* \"#utility.yul\":483:488   */\n      dup2\n        /* \"#utility.yul\":480:515   */\n      eq\n        /* \"#utility.yul\":470:533   */\n      tag_110\n      jumpi\n        /* \"#utility.yul\":529:530   */\n      0x00\n        /* \"#utility.yul\":526:527   */\n      dup1\n        /* \"#utility.yul\":519:531   */\n      revert\n        /* \"#utility.yul\":470:533   */\n    tag_110:\n        /* \"#utility.yul\":417:539   */\n      pop\n      jump\t// out\n        /* \"#utility.yul\":545:684   */\n    tag_83:\n        /* \"#utility.yul\":591:596   */\n      0x00\n        /* \"#utility.yul\":629:635   */\n      dup2\n        /* \"#utility.yul\":616:636   */\n      calldataload\n        /* \"#utility.yul\":607:636   */\n      swap1\n      pop\n        /* \"#utility.yul\":645:678   */\n      tag_112\n        /* \"#utility.yul\":672:677   */\n      dup2\n        /* \"#utility.yul\":645:678   */\n      tag_82\n      jump\t// in\n    tag_112:\n        /* \"#utility.yul\":545:684   */\n      swap3\n      swap2\n      pop\n      pop\n      jump\t// out\n        /* \"#utility.yul\":690:1019   */\n    tag_14:\n        /* \"#utility.yul\":749:755   */\n      0x00\n        /* \"#utility.yul\":798:800   */\n      0x20\n        /* \"#utility.yul\":786:795   */\n      dup3\n        /* \"#utility.yul\":777:784   */\n      dup5\n        /* \"#utility.yul\":773:796   */\n      sub\n        /* \"#utility.yul\":769:801   */\n      slt\n        /* \"#utility.yul\":766:885   */\n      iszero\n      tag_114\n      jumpi\n        /* \"#utility.yul\":804:883   */\n      tag_115\n      tag_79\n      jump\t// in\n    tag_115:\n        /* \"#utility.yul\":766:885   */\n    tag_114:\n        /* \"#utility.yul\":924:925   */\n      0x00\n        /* \"#utility.yul\":949:1002   */\n      tag_116\n        /* \"#utility.yul\":994:1001   */\n      dup5\n        /* \"#utility.yul\":985:991   */\n      dup3\n        /* \"#utility.yul\":974:983   */\n      dup6\n        /* \"#utility.yul\":970:992   */\n      add\n        /* \"#utility.yul\":949:1002   */\n      tag_83\n      jump\t// in\n    tag_116:\n        /* \"#utility.yul\":939:1002   */\n      swap2\n      pop\n        /* \"#utility.yul\":895:1012   */\n      pop\n        /* \"#utility.yul\":690:1019   */\n      swap3\n      swap2\n      pop\n      pop\n      jump\t// out\n        /* \"#utility.yul\":1025:1143   */\n    tag_84:\n        /* \"#utility.yul\":1112:1136   */\n      tag_118\n        /* \"#utility.yul\":1130:1135   */\n      dup2\n        /* \"#utility.yul\":1112:1136   */\n      tag_81\n      jump\t// in\n    tag_118:\n        /* \"#utility.yul\":1107:1110   */\n      dup3\n        /* \"#utility.yul\":1100:1137   */\n      mstore\n        /* \"#utility.yul\":1025:1143   */\n      pop\n      pop\n      jump\t// out\n        /* \"#utility.yul\":1149:1371   */\n    tag_17:\n        /* \"#utility.yul\":1242:1246   */\n      0x00\n        /* \"#utility.yul\":1280:1282   */\n      0x20\n        /* \"#utility.yul\":1269:1278   */\n      dup3\n        /* \"#utility.yul\":1265:1283   */\n      add\n        /* \"#utility.yul\":1257:1283   */\n      swap1\n      pop\n        /* \"#utility.yul\":1293:1364   */\n      tag_120\n        /* \"#utility.yul\":1361:1362   */\n      0x00\n        /* \"#utility.yul\":1350:1359   */\n      dup4\n        /* \"#utility.yul\":1346:1363   */\n      add\n        /* \"#utility.yul\":1337:1343   */\n      dup5\n        /* \"#utility.yul\":1293:1364   */\n      tag_84\n      jump\t// in\n    tag_120:\n        /* \"#utility.yul\":1149:1371   */\n      swap3\n      swap2\n      pop\n      pop\n      jump\t// out\n        /* \"#utility.yul\":1377:1475   */\n    tag_85:\n        /* \"#utility.yul\":1428:1434   */\n      0x00\n        /* \"#utility.yul\":1462:1467   */\n      dup2\n        /* \"#utility.yul\":1456:1468   */\n      mload\n        /* \"#utility.yul\":1446:1468   */\n      swap1\n      pop\n        /* \"#utility.yul\":1377:1475   */\n      swap2\n      swap1\n      pop\n      jump\t// out\n        /* \"#utility.yul\":1481:1649   */\n    tag_86:\n        /* \"#utility.yul\":1564:1575   */\n      0x00\n        /* \"#utility.yul\":1598:1604   */\n      dup3\n        /* \"#utility.yul\":1593:1596   */\n      dup3\n        /* \"#utility.yul\":1586:1605   */\n      mstore\n        /* \"#utility.yul\":1638:1642   */\n      0x20\n        /* \"#utility.yul\":1633:1636   */\n      dup3\n        /* \"#utility.yul\":1629:1643   */\n      add\n        /* \"#utility.yul\":1614:1643   */\n      swap1\n      pop\n        /* \"#utility.yul\":1481:1649   */\n      swap3\n      swap2\n      pop\n      pop\n      jump\t// out\n        /* \"#utility.yul\":1655:1962   */\n    tag_87:\n        /* \"#utility.yul\":1723:1724   */\n      0x00\n        /* \"#utility.yul\":1733:1846   */\n    tag_124:\n        /* \"#utility.yul\":1747:1753   */\n      dup4\n        /* \"#utility.yul\":1744:1745   */\n      dup2\n        /* \"#utility.yul\":1741:1754   */\n      lt\n        /* \"#utility.yul\":1733:1846   */\n      iszero\n      tag_126\n      jumpi\n        /* \"#utility.yul\":1832:1833   */\n      dup1\n        /* \"#utility.yul\":1827:1830   */\n      dup3\n        /* \"#utility.yul\":1823:1834   */\n      add\n        /* \"#utility.yul\":1817:1835   */\n      mload\n        /* \"#utility.yul\":1813:1814   */\n      dup2\n        /* \"#utility.yul\":1808:1811   */\n      dup5\n        /* \"#utility.yul\":1804:1815   */\n      add\n        /* \"#utility.yul\":1797:1836   */\n      mstore\n        /* \"#utility.yul\":1769:1771   */\n      0x20\n        /* \"#utility.yul\":1766:1767   */\n      dup2\n        /* \"#utility.yul\":1762:1772   */\n      add\n        /* \"#utility.yul\":1757:1772   */\n      swap1\n      pop\n        /* \"#utility.yul\":1733:1846   */\n      jump(tag_124)\n    tag_126:\n        /* \"#utility.yul\":1864:1870   */\n      dup4\n        /* \"#utility.yul\":1861:1862   */\n      dup2\n        /* \"#utility.yul\":1858:1871   */\n      gt\n        /* \"#utility.yul\":1855:1956   */\n      iszero\n      tag_127\n      jumpi\n        /* \"#utility.yul\":1944:1945   */\n      0x00\n        /* \"#utility.yul\":1935:1941   */\n      dup5\n        /* \"#utility.yul\":1930:1933   */\n      dup5\n        /* \"#utility.yul\":1926:1942   */\n      add\n        /* \"#utility.yul\":1919:1946   */\n      mstore\n        /* \"#utility.yul\":1855:1956   */\n    tag_127:\n        /* \"#utility.yul\":1704:1962   */\n      pop\n        /* \"#utility.yul\":1655:1962   */\n      pop\n      pop\n      pop\n      jump\t// out\n        /* \"#utility.yul\":1968:2070   */\n    tag_88:\n        /* \"#utility.yul\":2009:2015   */\n      0x00\n        /* \"#utility.yul\":2060:2062   */\n      0x1f\n        /* \"#utility.yul\":2056:2063   */\n      not\n        /* \"#utility.yul\":2051:2053   */\n      0x1f\n        /* \"#utility.yul\":2044:2049   */\n      dup4\n        /* \"#utility.yul\":2040:2054   */\n      add\n        /* \"#utility.yul\":2036:2064   */\n      and\n        /* \"#utility.yul\":2026:2064   */\n      swap1\n      pop\n        /* \"#utility.yul\":1968:2070   */\n      swap2\n      swap1\n      pop\n      jump\t// out\n        /* \"#utility.yul\":2076:2436   */\n    tag_89:\n        /* \"#utility.yul\":2162:2165   */\n      0x00\n        /* \"#utility.yul\":2190:2228   */\n      tag_130\n        /* \"#utility.yul\":2222:2227   */\n      dup3\n        /* \"#utility.yul\":2190:2228   */\n      tag_85\n      jump\t// in\n    tag_130:\n        /* \"#utility.yul\":2244:2314   */\n      tag_131\n        /* \"#utility.yul\":2307:2313   */\n      dup2\n        /* \"#utility.yul\":2302:2305   */\n      dup6\n        /* \"#utility.yul\":2244:2314   */\n      tag_86\n      jump\t// in\n    tag_131:\n        /* \"#utility.yul\":2237:2314   */\n      swap4\n      pop\n        /* \"#utility.yul\":2323:2375   */\n      tag_132\n        /* \"#utility.yul\":2368:2374   */\n      dup2\n        /* \"#utility.yul\":2363:2366   */\n      dup6\n        /* \"#utility.yul\":2356:2360   */\n      0x20\n        /* \"#utility.yul\":2349:2354   */\n      dup7\n        /* \"#utility.yul\":2345:2361   */\n      add\n        /* \"#utility.yul\":2323:2375   */\n      tag_87\n      jump\t// in\n    tag_132:\n        /* \"#utility.yul\":2400:2429   */\n      tag_133\n        /* \"#utility.yul\":2422:2428   */\n      dup2\n        /* \"#utility.yul\":2400:2429   */\n      tag_88\n      jump\t// in\n    tag_133:\n        /* \"#utility.yul\":2395:2398   */\n      dup5\n        /* \"#utility.yul\":2391:2430   */\n      add\n        /* \"#utility.yul\":2384:2430   */\n      swap2\n      pop\n        /* \"#utility.yul\":2166:2436   */\n      pop\n        /* \"#utility.yul\":2076:2436   */\n      swap3\n      swap2\n      pop\n      pop\n      jump\t// out\n        /* \"#utility.yul\":2442:2751   */\n    tag_21:\n        /* \"#utility.yul\":2553:2557   */\n      0x00\n        /* \"#utility.yul\":2591:2593   */\n      0x20\n        /* \"#utility.yul\":2580:2589   */\n      dup3\n        /* \"#utility.yul\":2576:2594   */\n      add\n        /* \"#utility.yul\":2568:2594   */\n      swap1\n      pop\n        /* \"#utility.yul\":2640:2649   */\n      dup2\n        /* \"#utility.yul\":2634:2638   */\n      dup2\n        /* \"#utility.yul\":2630:2650   */\n      sub\n        /* \"#utility.yul\":2626:2627   */\n      0x00\n        /* \"#utility.yul\":2615:2624   */\n      dup4\n        /* \"#utility.yul\":2611:2628   */\n      add\n        /* \"#utility.yul\":2604:2651   */\n      mstore\n        /* \"#utility.yul\":2668:2744   */\n      tag_135\n        /* \"#utility.yul\":2739:2743   */\n      dup2\n        /* \"#utility.yul\":2730:2736   */\n      dup5\n        /* \"#utility.yul\":2668:2744   */\n      tag_89\n      jump\t// in\n    tag_135:\n        /* \"#utility.yul\":2660:2744   */\n      swap1\n      pop\n        /* \"#utility.yul\":2442:2751   */\n      swap3\n      swap2\n      pop\n      pop\n      jump\t// out\n        /* \"#utility.yul\":2757:2856   */\n    tag_90:\n        /* \"#utility.yul\":2809:2815   */\n      0x00\n        /* \"#utility.yul\":2843:2848   */\n      dup2\n        /* \"#utility.yul\":2837:2849   */\n      mload\n        /* \"#utility.yul\":2827:2849   */\n      swap1\n      pop\n        /* \"#utility.yul\":2757:2856   */\n      swap2\n      swap1\n      pop\n      jump\t// out\n        /* \"#utility.yul\":2862:3031   */\n    tag_91:\n        /* \"#utility.yul\":2946:2957   */\n      0x00\n        /* \"#utility.yul\":2980:2986   */\n      dup3\n        /* \"#utility.yul\":2975:2978   */\n      dup3\n        /* \"#utility.yul\":2968:2987   */\n      mstore\n        /* \"#utility.yul\":3020:3024   */\n      0x20\n        /* \"#utility.yul\":3015:3018   */\n      dup3\n        /* \"#utility.yul\":3011:3025   */\n      add\n        /* \"#utility.yul\":2996:3025   */\n      swap1\n      pop\n        /* \"#utility.yul\":2862:3031   */\n      swap3\n      swap2\n      pop\n      pop\n      jump\t// out\n        /* \"#utility.yul\":3037:3401   */\n    tag_92:\n        /* \"#utility.yul\":3125:3128   */\n      0x00\n        /* \"#utility.yul\":3153:3192   */\n      tag_139\n        /* \"#utility.yul\":3186:3191   */\n      dup3\n        /* \"#utility.yul\":3153:3192   */\n      tag_90\n      jump\t// in\n    tag_139:\n        /* \"#utility.yul\":3208:3279   */\n      tag_140\n        /* \"#utility.yul\":3272:3278   */\n      dup2\n        /* \"#utility.yul\":3267:3270   */\n      dup6\n        /* \"#utility.yul\":3208:3279   */\n      tag_91\n      jump\t// in\n    tag_140:\n        /* \"#utility.yul\":3201:3279   */\n      swap4\n      pop\n        /* \"#utility.yul\":3288:3340   */\n      tag_141\n        /* \"#utility.yul\":3333:3339   */\n      dup2\n        /* \"#utility.yul\":3328:3331   */\n      dup6\n        /* \"#utility.yul\":3321:3325   */\n      0x20\n        /* \"#utility.yul\":3314:3319   */\n      dup7\n        /* \"#utility.yul\":3310:3326   */\n      add\n        /* \"#utility.yul\":3288:3340   */\n      tag_87\n      jump\t// in\n    tag_141:\n        /* \"#utility.yul\":3365:3394   */\n      tag_142\n        /* \"#utility.yul\":3387:3393   */\n      dup2\n        /* \"#utility.yul\":3365:3394   */\n      tag_88\n      jump\t// in\n    tag_142:\n        /* \"#utility.yul\":3360:3363   */\n      dup5\n        /* \"#utility.yul\":3356:3395   */\n      add\n        /* \"#utility.yul\":3349:3395   */\n      swap2\n      pop\n        /* \"#utility.yul\":3129:3401   */\n      pop\n        /* \"#utility.yul\":3037:3401   */\n      swap3\n      swap2\n      pop\n      pop\n      jump\t// out\n        /* \"#utility.yul\":3407:3720   */\n    tag_28:\n        /* \"#utility.yul\":3520:3524   */\n      0x00\n        /* \"#utility.yul\":3558:3560   */\n      0x20\n        /* \"#utility.yul\":3547:3556   */\n      dup3\n        /* \"#utility.yul\":3543:3561   */\n      add\n        /* \"#utility.yul\":3535:3561   */\n      swap1\n      pop\n        /* \"#utility.yul\":3607:3616   */\n      dup2\n        /* \"#utility.yul\":3601:3605   */\n      dup2\n        /* \"#utility.yul\":3597:3617   */\n      sub\n        /* \"#utility.yul\":3593:3594   */\n      0x00\n        /* \"#utility.yul\":3582:3591   */\n      dup4\n        /* \"#utility.yul\":3578:3595   */\n      add\n        /* \"#utility.yul\":3571:3618   */\n      mstore\n        /* \"#utility.yul\":3635:3713   */\n      tag_144\n        /* \"#utility.yul\":3708:3712   */\n      dup2\n        /* \"#utility.yul\":3699:3705   */\n      dup5\n        /* \"#utility.yul\":3635:3713   */\n      tag_92\n      jump\t// in\n    tag_144:\n        /* \"#utility.yul\":3627:3713   */\n      swap1\n      pop\n        /* \"#utility.yul\":3407:3720   */\n      swap3\n      swap2\n      pop\n      pop\n      jump\t// out\n        /* \"#utility.yul\":3726:3843   */\n    tag_93:\n        /* \"#utility.yul\":3835:3836   */\n      0x00\n        /* \"#utility.yul\":3832:3833   */\n      dup1\n        /* \"#utility.yul\":3825:3837   */\n      revert\n        /* \"#utility.yul\":3849:3966   */\n    tag_94:\n        /* \"#utility.yul\":3958:3959   */\n      0x00\n        /* \"#utility.yul\":3955:3956   */\n      dup1\n        /* \"#utility.yul\":3948:3960   */\n      revert\n        /* \"#utility.yul\":3972:4152   */\n    tag_95:\n        /* \"#utility.yul\":4020:4097   */\n      0x4e487b7100000000000000000000000000000000000000000000000000000000\n        /* \"#utility.yul\":4017:4018   */\n      0x00\n        /* \"#utility.yul\":4010:4098   */\n      mstore\n        /* \"#utility.yul\":4117:4121   */\n      0x41\n        /* \"#utility.yul\":4114:4115   */\n      0x04\n        /* \"#utility.yul\":4107:4122   */\n      mstore\n        /* \"#utility.yul\":4141:4145   */\n      0x24\n        /* \"#utility.yul\":4138:4139   */\n      0x00\n        /* \"#utility.yul\":4131:4146   */\n      revert\n        /* \"#utility.yul\":4158:4439   */\n    tag_96:\n        /* \"#utility.yul\":4241:4268   */\n      tag_149\n        /* \"#utility.yul\":4263:4267   */\n      dup3\n        /* \"#utility.yul\":4241:4268   */\n      tag_88\n      jump\t// in\n    tag_149:\n        /* \"#utility.yul\":4233:4239   */\n      dup2\n        /* \"#utility.yul\":4229:4269   */\n      add\n        /* \"#utility.yul\":4371:4377   */\n      dup2\n        /* \"#utility.yul\":4359:4369   */\n      dup2\n        /* \"#utility.yul\":4356:4378   */\n      lt\n        /* \"#utility.yul\":4335:4353   */\n      0xffffffffffffffff\n        /* \"#utility.yul\":4323:4333   */\n      dup3\n        /* \"#utility.yul\":4320:4354   */\n      gt\n        /* \"#utility.yul\":4317:4379   */\n      or\n        /* \"#utility.yul\":4314:4402   */\n      iszero\n      tag_150\n      jumpi\n        /* \"#utility.yul\":4382:4400   */\n      tag_151\n      tag_95\n      jump\t// in\n    tag_151:\n        /* \"#utility.yul\":4314:4402   */\n    tag_150:\n        /* \"#utility.yul\":4422:4432   */\n      dup1\n        /* \"#utility.yul\":4418:4420   */\n      0x40\n        /* \"#utility.yul\":4411:4433   */\n      mstore\n        /* \"#utility.yul\":4201:4439   */\n      pop\n        /* \"#utility.yul\":4158:4439   */\n      pop\n      pop\n      jump\t// out\n        /* \"#utility.yul\":4445:4574   */\n    tag_97:\n        /* \"#utility.yul\":4479:4485   */\n      0x00\n        /* \"#utility.yul\":4506:4526   */\n      tag_153\n      tag_78\n      jump\t// in\n    tag_153:\n        /* \"#utility.yul\":4496:4526   */\n      swap1\n      pop\n        /* \"#utility.yul\":4535:4568   */\n      tag_154\n        /* \"#utility.yul\":4563:4567   */\n      dup3\n        /* \"#utility.yul\":4555:4561   */\n      dup3\n        /* \"#utility.yul\":4535:4568   */\n      tag_96\n      jump\t// in\n    tag_154:\n        /* \"#utility.yul\":4445:4574   */\n      swap2\n      swap1\n      pop\n      jump\t// out\n        /* \"#utility.yul\":4580:4888   */\n    tag_98:\n        /* \"#utility.yul\":4642:4646   */\n      0x00\n        /* \"#utility.yul\":4732:4750   */\n      0xffffffffffffffff\n        /* \"#utility.yul\":4724:4730   */\n      dup3\n        /* \"#utility.yul\":4721:4751   */\n      gt\n        /* \"#utility.yul\":4718:4774   */\n      iszero\n      tag_156\n      jumpi\n        /* \"#utility.yul\":4754:4772   */\n      tag_157\n      tag_95\n      jump\t// in\n    tag_157:\n        /* \"#utility.yul\":4718:4774   */\n    tag_156:\n        /* \"#utility.yul\":4792:4821   */\n      tag_158\n        /* \"#utility.yul\":4814:4820   */\n      dup3\n        /* \"#utility.yul\":4792:4821   */\n      tag_88\n      jump\t// in\n    tag_158:\n        /* \"#utility.yul\":4784:4821   */\n      swap1\n      pop\n        /* \"#utility.yul\":4876:4880   */\n      0x20\n        /* \"#utility.yul\":4870:4874   */\n      dup2\n        /* \"#utility.yul\":4866:4881   */\n      add\n        /* \"#utility.yul\":4858:4881   */\n      swap1\n      pop\n        /* \"#utility.yul\":4580:4888   */\n      swap2\n      swap1\n      pop\n      jump\t// out\n        /* \"#utility.yul\":4894:5048   */\n    tag_99:\n        /* \"#utility.yul\":4978:4984   */\n      dup3\n        /* \"#utility.yul\":4973:4976   */\n      dup2\n        /* \"#utility.yul\":4968:4971   */\n      dup4\n        /* \"#utility.yul\":4955:4985   */\n      calldatacopy\n        /* \"#utility.yul\":5040:5041   */\n      0x00\n        /* \"#utility.yul\":5031:5037   */\n      dup4\n        /* \"#utility.yul\":5026:5029   */\n      dup4\n        /* \"#utility.yul\":5022:5038   */\n      add\n        /* \"#utility.yul\":5015:5042   */\n      mstore\n        /* \"#utility.yul\":4894:5048   */\n      pop\n      pop\n      pop\n      jump\t// out\n        /* \"#utility.yul\":5054:5466   */\n    tag_100:\n        /* \"#utility.yul\":5132:5137   */\n      0x00\n        /* \"#utility.yul\":5157:5223   */\n      tag_161\n        /* \"#utility.yul\":5173:5222   */\n      tag_162\n        /* \"#utility.yul\":5215:5221   */\n      dup5\n        /* \"#utility.yul\":5173:5222   */\n      tag_98\n      jump\t// in\n    tag_162:\n        /* \"#utility.yul\":5157:5223   */\n      tag_97\n      jump\t// in\n    tag_161:\n        /* \"#utility.yul\":5148:5223   */\n      swap1\n      pop\n        /* \"#utility.yul\":5246:5252   */\n      dup3\n        /* \"#utility.yul\":5239:5244   */\n      dup2\n        /* \"#utility.yul\":5232:5253   */\n      mstore\n        /* \"#utility.yul\":5284:5288   */\n      0x20\n        /* \"#utility.yul\":5277:5282   */\n      dup2\n        /* \"#utility.yul\":5273:5289   */\n      add\n        /* \"#utility.yul\":5322:5325   */\n      dup5\n        /* \"#utility.yul\":5313:5319   */\n      dup5\n        /* \"#utility.yul\":5308:5311   */\n      dup5\n        /* \"#utility.yul\":5304:5320   */\n      add\n        /* \"#utility.yul\":5301:5326   */\n      gt\n        /* \"#utility.yul\":5298:5410   */\n      iszero\n      tag_163\n      jumpi\n        /* \"#utility.yul\":5329:5408   */\n      tag_164\n      tag_94\n      jump\t// in\n    tag_164:\n        /* \"#utility.yul\":5298:5410   */\n    tag_163:\n        /* \"#utility.yul\":5419:5460   */\n      tag_165\n        /* \"#utility.yul\":5453:5459   */\n      dup5\n        /* \"#utility.yul\":5448:5451   */\n      dup3\n        /* \"#utility.yul\":5443:5446   */\n      dup6\n        /* \"#utility.yul\":5419:5460   */\n      tag_99\n      jump\t// in\n    tag_165:\n        /* \"#utility.yul\":5138:5466   */\n      pop\n        /* \"#utility.yul\":5054:5466   */\n      swap4\n      swap3\n      pop\n      pop\n      pop\n      jump\t// out\n        /* \"#utility.yul\":5486:5826   */\n    tag_101:\n        /* \"#utility.yul\":5542:5547   */\n      0x00\n        /* \"#utility.yul\":5591:5594   */\n      dup3\n        /* \"#utility.yul\":5584:5588   */\n      0x1f\n        /* \"#utility.yul\":5576:5582   */\n      dup4\n        /* \"#utility.yul\":5572:5589   */\n      add\n        /* \"#utility.yul\":5568:5595   */\n      slt\n        /* \"#utility.yul\":5558:5680   */\n      tag_167\n      jumpi\n        /* \"#utility.yul\":5599:5678   */\n      tag_168\n      tag_93\n      jump\t// in\n    tag_168:\n        /* \"#utility.yul\":5558:5680   */\n    tag_167:\n        /* \"#utility.yul\":5716:5722   */\n      dup2\n        /* \"#utility.yul\":5703:5723   */\n      calldataload\n        /* \"#utility.yul\":5741:5820   */\n      tag_169\n        /* \"#utility.yul\":5816:5819   */\n      dup5\n        /* \"#utility.yul\":5808:5814   */\n      dup3\n        /* \"#utility.yul\":5801:5805   */\n      0x20\n        /* \"#utility.yul\":5793:5799   */\n      dup7\n        /* \"#utility.yul\":5789:5806   */\n      add\n        /* \"#utility.yul\":5741:5820   */\n      tag_100\n      jump\t// in\n    tag_169:\n        /* \"#utility.yul\":5732:5820   */\n      swap2\n      pop\n        /* \"#utility.yul\":5548:5826   */\n      pop\n        /* \"#utility.yul\":5486:5826   */\n      swap3\n      swap2\n      pop\n      pop\n      jump\t// out\n        /* \"#utility.yul\":5832:6486   */\n    tag_31:\n        /* \"#utility.yul\":5910:5916   */\n      0x00\n        /* \"#utility.yul\":5918:5924   */\n      dup1\n        /* \"#utility.yul\":5967:5969   */\n      0x40\n        /* \"#utility.yul\":5955:5964   */\n      dup4\n        /* \"#utility.yul\":5946:5953   */\n      dup6\n        /* \"#utility.yul\":5942:5965   */\n      sub\n        /* \"#utility.yul\":5938:5970   */\n      slt\n        /* \"#utility.yul\":5935:6054   */\n      iszero\n      tag_171\n      jumpi\n        /* \"#utility.yul\":5973:6052   */\n      tag_172\n      tag_79\n      jump\t// in\n    tag_172:\n        /* \"#utility.yul\":5935:6054   */\n    tag_171:\n        /* \"#utility.yul\":6121:6122   */\n      0x00\n        /* \"#utility.yul\":6110:6119   */\n      dup4\n        /* \"#utility.yul\":6106:6123   */\n      add\n        /* \"#utility.yul\":6093:6124   */\n      calldataload\n        /* \"#utility.yul\":6151:6169   */\n      0xffffffffffffffff\n        /* \"#utility.yul\":6143:6149   */\n      dup2\n        /* \"#utility.yul\":6140:6170   */\n      gt\n        /* \"#utility.yul\":6137:6254   */\n      iszero\n      tag_173\n      jumpi\n        /* \"#utility.yul\":6173:6252   */\n      tag_174\n      tag_80\n      jump\t// in\n    tag_174:\n        /* \"#utility.yul\":6137:6254   */\n    tag_173:\n        /* \"#utility.yul\":6278:6341   */\n      tag_175\n        /* \"#utility.yul\":6333:6340   */\n      dup6\n        /* \"#utility.yul\":6324:6330   */\n      dup3\n        /* \"#utility.yul\":6313:6322   */\n      dup7\n        /* \"#utility.yul\":6309:6331   */\n      add\n        /* \"#utility.yul\":6278:6341   */\n      tag_101\n      jump\t// in\n    tag_175:\n        /* \"#utility.yul\":6268:6341   */\n      swap3\n      pop\n        /* \"#utility.yul\":6064:6351   */\n      pop\n        /* \"#utility.yul\":6390:6392   */\n      0x20\n        /* \"#utility.yul\":6416:6469   */\n      tag_176\n        /* \"#utility.yul\":6461:6468   */\n      dup6\n        /* \"#utility.yul\":6452:6458   */\n      dup3\n        /* \"#utility.yul\":6441:6450   */\n      dup7\n        /* \"#utility.yul\":6437:6459   */\n      add\n        /* \"#utility.yul\":6416:6469   */\n      tag_83\n      jump\t// in\n    tag_176:\n        /* \"#utility.yul\":6406:6469   */\n      swap2\n      pop\n        /* \"#utility.yul\":6361:6479   */\n      pop\n        /* \"#utility.yul\":5832:6486   */\n      swap3\n      pop\n      swap3\n      swap1\n      pop\n      jump\t// out\n        /* \"#utility.yul\":6492:6672   */\n    tag_102:\n        /* \"#utility.yul\":6540:6617   */\n      0x4e487b7100000000000000000000000000000000000000000000000000000000\n        /* \"#utility.yul\":6537:6538   */\n      0x00\n        /* \"#utility.yul\":6530:6618   */\n      mstore\n        /* \"#utility.yul\":6637:6641   */\n      0x22\n        /* \"#utility.yul\":6634:6635   */\n      0x04\n        /* \"#utility.yul\":6627:6642   */\n      mstore\n        /* \"#utility.yul\":6661:6665   */\n      0x24\n        /* \"#utility.yul\":6658:6659   */\n      0x00\n        /* \"#utility.yul\":6651:6666   */\n      revert\n        /* \"#utility.yul\":6678:6998   */\n    tag_45:\n        /* \"#utility.yul\":6722:6728   */\n      0x00\n        /* \"#utility.yul\":6759:6760   */\n      0x02\n        /* \"#utility.yul\":6753:6757   */\n      dup3\n        /* \"#utility.yul\":6749:6761   */\n      div\n        /* \"#utility.yul\":6739:6761   */\n      swap1\n      pop\n        /* \"#utility.yul\":6806:6807   */\n      0x01\n        /* \"#utility.yul\":6800:6804   */\n      dup3\n        /* \"#utility.yul\":6796:6808   */\n      and\n        /* \"#utility.yul\":6827:6845   */\n      dup1\n        /* \"#utility.yul\":6817:6898   */\n      tag_179\n      jumpi\n        /* \"#utility.yul\":6883:6887   */\n      0x7f\n        /* \"#utility.yul\":6875:6881   */\n      dup3\n        /* \"#utility.yul\":6871:6888   */\n      and\n        /* \"#utility.yul\":6861:6888   */\n      swap2\n      pop\n        /* \"#utility.yul\":6817:6898   */\n    tag_179:\n        /* \"#utility.yul\":6945:6947   */\n      0x20\n        /* \"#utility.yul\":6937:6943   */\n      dup3\n        /* \"#utility.yul\":6934:6948   */\n      lt\n        /* \"#utility.yul\":6914:6932   */\n      dup2\n        /* \"#utility.yul\":6911:6949   */\n      sub\n        /* \"#utility.yul\":6908:6992   */\n      tag_180\n      jumpi\n        /* \"#utility.yul\":6964:6982   */\n      tag_181\n      tag_102\n      jump\t// in\n    tag_181:\n        /* \"#utility.yul\":6908:6992   */\n    tag_180:\n        /* \"#utility.yul\":6729:6998   */\n      pop\n        /* \"#utility.yul\":6678:6998   */\n      swap2\n      swap1\n      pop\n      jump\t// out\n\n    auxdata: 0xa26469706673582212203978bd354b90e99ca56f8670f10372f82082f431798655953d110d5eabc64de264736f6c634300080d0033\n}\n",
				"bytecode": {
					"linkReferences": {},
					"object": "60806040526040518060400160405280601081526020017f4865792064656661756c742074657874000000000000000000000000000000008152506002908051906020019062000051929190620000b9565b5060056003556040518060400160405280600a81526020017f686574206461756c61740000000000000000000000000000000000000000000081525060049080519060200190620000a49291906200014a565b50348015620000b257600080fd5b506200025e565b828054620000c79062000229565b90600052602060002090601f016020900481019282620000eb576000855562000137565b82601f106200010657805160ff191683800117855562000137565b8280016001018555821562000137579182015b828111156200013657825182559160200191906001019062000119565b5b509050620001469190620001db565b5090565b828054620001589062000229565b90600052602060002090601f0160209004810192826200017c5760008555620001c8565b82601f106200019757805160ff1916838001178555620001c8565b82800160010185558215620001c8579182015b82811115620001c7578251825591602001919060010190620001aa565b5b509050620001d79190620001db565b5090565b5b80821115620001f6576000816000905550600101620001dc565b5090565b7f4e487b7100000000000000000000000000000000000000000000000000000000600052602260045260246000fd5b600060028204905060018216806200024257607f821691505b602082108103620002585762000257620001fa565b5b50919050565b6108b4806200026e6000396000f3fe608060405234801561001057600080fd5b50600436106100885760003560e01c80634ee5c2ee1161005b5780634ee5c2ee146101175780638bf1799f14610133578063d4da005a14610151578063d72b3fa11461016f57610088565b806307ca24421461008d5780630a070a57146100bd578063110474c7146100db5780631542f3bf146100f9575b600080fd5b6100a760048036038101906100a29190610504565b61018d565b6040516100b49190610540565b60405180910390f35b6100c56101b1565b6040516100d291906105f4565b60405180910390f35b6100e361023f565b6040516100f09190610540565b60405180910390f35b610101610245565b60405161010e919061066b565b60405180910390f35b610131600480360381019061012c91906107c2565b6102d3565b005b61013b6102f5565b604051610148919061066b565b60405180910390f35b610159610383565b6040516101669190610540565b60405180910390f35b610177610389565b60405161018491906105f4565b60405180910390f35b6006818154811061019d57600080fd5b906000526020600020016000915090505481565b600580546101be9061084d565b80601f01602080910402602001604051908101604052809291908181526020018280546101ea9061084d565b80156102375780601f1061020c57610100808354040283529160200191610237565b820191906000526020600020905b81548152906001019060200180831161021a57829003601f168201915b505050505081565b60035481565b600280546102529061084d565b80601f016020809104026020016040519081016040528092919081815260200182805461027e9061084d565b80156102cb5780601f106102a0576101008083540402835291602001916102cb565b820191906000526020600020905b8154815290600101906020018083116102ae57829003601f168201915b505050505081565b81600090805190602001906102e9929190610417565b50806001819055505050565b600080546103029061084d565b80601f016020809104026020016040519081016040528092919081815260200182805461032e9061084d565b801561037b5780601f106103505761010080835404028352916020019161037b565b820191906000526020600020905b81548152906001019060200180831161035e57829003601f168201915b505050505081565b60015481565b600480546103969061084d565b80601f01602080910402602001604051908101604052809291908181526020018280546103c29061084d565b801561040f5780601f106103e45761010080835404028352916020019161040f565b820191906000526020600020905b8154815290600101906020018083116103f257829003601f168201915b505050505081565b8280546104239061084d565b90600052602060002090601f016020900481019282610445576000855561048c565b82601f1061045e57805160ff191683800117855561048c565b8280016001018555821561048c579182015b8281111561048b578251825591602001919060010190610470565b5b509050610499919061049d565b5090565b5b808211156104b657600081600090555060010161049e565b5090565b6000604051905090565b600080fd5b600080fd5b6000819050919050565b6104e1816104ce565b81146104ec57600080fd5b50565b6000813590506104fe816104d8565b92915050565b60006020828403121561051a576105196104c4565b5b6000610528848285016104ef565b91505092915050565b61053a816104ce565b82525050565b60006020820190506105556000830184610531565b92915050565b600081519050919050565b600082825260208201905092915050565b60005b8381101561059557808201518184015260208101905061057a565b838111156105a4576000848401525b50505050565b6000601f19601f8301169050919050565b60006105c68261055b565b6105d08185610566565b93506105e0818560208601610577565b6105e9816105aa565b840191505092915050565b6000602082019050818103600083015261060e81846105bb565b905092915050565b600081519050919050565b600082825260208201905092915050565b600061063d82610616565b6106478185610621565b9350610657818560208601610577565b610660816105aa565b840191505092915050565b600060208201905081810360008301526106858184610632565b905092915050565b600080fd5b600080fd5b7f4e487b7100000000000000000000000000000000000000000000000000000000600052604160045260246000fd5b6106cf826105aa565b810181811067ffffffffffffffff821117156106ee576106ed610697565b5b80604052505050565b60006107016104ba565b905061070d82826106c6565b919050565b600067ffffffffffffffff82111561072d5761072c610697565b5b610736826105aa565b9050602081019050919050565b82818337600083830152505050565b600061076561076084610712565b6106f7565b90508281526020810184848401111561078157610780610692565b5b61078c848285610743565b509392505050565b600082601f8301126107a9576107a861068d565b5b81356107b9848260208601610752565b91505092915050565b600080604083850312156107d9576107d86104c4565b5b600083013567ffffffffffffffff8111156107f7576107f66104c9565b5b61080385828601610794565b9250506020610814858286016104ef565b9150509250929050565b7f4e487b7100000000000000000000000000000000000000000000000000000000600052602260045260246000fd5b6000600282049050600182168061086557607f821691505b6020821081036108785761087761081e565b5b5091905056fea26469706673582212203978bd354b90e99ca56f8670f10372f82082f431798655953d110d5eabc64de264736f6c634300080d0033",
					"opcodes": "PUSH1 0x80 PUSH1 0x40 MSTORE PUSH1 0x40 MLOAD DUP1 PUSH1 0x40 ADD PUSH1 0x40 MSTORE DUP1 PUSH1 0x10 DUP2 MSTORE PUSH1 0x20 ADD PUSH32 0x4865792064656661756C74207465787400000000000000000000000000000000 DUP2 MSTORE POP PUSH1 0x2 SWAP1 DUP1 MLOAD SWAP1 PUSH1 0x20 ADD SWAP1 PUSH3 0x51 SWAP3 SWAP2 SWAP1 PUSH3 0xB9 JUMP JUMPDEST POP PUSH1 0x5 PUSH1 0x3 SSTORE PUSH1 0x40 MLOAD DUP1 PUSH1 0x40 ADD PUSH1 0x40 MSTORE DUP1 PUSH1 0xA DUP2 MSTORE PUSH1 0x20 ADD PUSH32 0x686574206461756C617400000000000000000000000000000000000000000000 DUP2 MSTORE POP PUSH1 0x4 SWAP1 DUP1 MLOAD SWAP1 PUSH1 0x20 ADD SWAP1 PUSH3 0xA4 SWAP3 SWAP2 SWAP1 PUSH3 0x14A JUMP JUMPDEST POP CALLVALUE DUP1 ISZERO PUSH3 0xB2 JUMPI PUSH1 0x0 DUP1 REVERT JUMPDEST POP PUSH3 0x25E JUMP JUMPDEST DUP3 DUP1 SLOAD PUSH3 0xC7 SWAP1 PUSH3 0x229 JUMP JUMPDEST SWAP1 PUSH1 0x0 MSTORE PUSH1 0x20 PUSH1 0x0 KECCAK256 SWAP1 PUSH1 0x1F ADD PUSH1 0x20 SWAP1 DIV DUP2 ADD SWAP3 DUP3 PUSH3 0xEB JUMPI PUSH1 0x0 DUP6 SSTORE PUSH3 0x137 JUMP JUMPDEST DUP3 PUSH1 0x1F LT PUSH3 0x106 JUMPI DUP1 MLOAD PUSH1 0xFF NOT AND DUP4 DUP1 ADD OR DUP6 SSTORE PUSH3 0x137 JUMP JUMPDEST DUP3 DUP1 ADD PUSH1 0x1 ADD DUP6 SSTORE DUP3 ISZERO PUSH3 0x137 JUMPI SWAP2 DUP3 ADD JUMPDEST DUP3 DUP2 GT ISZERO PUSH3 0x136 JUMPI DUP3 MLOAD DUP3 SSTORE SWAP2 PUSH1 0x20 ADD SWAP2 SWAP1 PUSH1 0x1 ADD SWAP1 PUSH3 0x119 JUMP JUMPDEST JUMPDEST POP SWAP1 POP PUSH3 0x146 SWAP2 SWAP1 PUSH3 0x1DB JUMP JUMPDEST POP SWAP1 JUMP JUMPDEST DUP3 DUP1 SLOAD PUSH3 0x158 SWAP1 PUSH3 0x229 JUMP JUMPDEST SWAP1 PUSH1 0x0 MSTORE PUSH1 0x20 PUSH1 0x0 KECCAK256 SWAP1 PUSH1 0x1F ADD PUSH1 0x20 SWAP1 DIV DUP2 ADD SWAP3 DUP3 PUSH3 0x17C JUMPI PUSH1 0x0 DUP6 SSTORE PUSH3 0x1C8 JUMP JUMPDEST DUP3 PUSH1 0x1F LT PUSH3 0x197 JUMPI DUP1 MLOAD PUSH1 0xFF NOT AND DUP4 DUP1 ADD OR DUP6 SSTORE PUSH3 0x1C8 JUMP JUMPDEST DUP3 DUP1 ADD PUSH1 0x1 ADD DUP6 SSTORE DUP3 ISZERO PUSH3 0x1C8 JUMPI SWAP2 DUP3 ADD JUMPDEST DUP3 DUP2 GT ISZERO PUSH3 0x1C7 JUMPI DUP3 MLOAD DUP3 SSTORE SWAP2 PUSH1 0x20 ADD SWAP2 SWAP1 PUSH1 0x1 ADD SWAP1 PUSH3 0x1AA JUMP JUMPDEST JUMPDEST POP SWAP1 POP PUSH3 0x1D7 SWAP2 SWAP1 PUSH3 0x1DB JUMP JUMPDEST POP SWAP1 JUMP JUMPDEST JUMPDEST DUP1 DUP3 GT ISZERO PUSH3 0x1F6 JUMPI PUSH1 0x0 DUP2 PUSH1 0x0 SWAP1 SSTORE POP PUSH1 0x1 ADD PUSH3 0x1DC JUMP JUMPDEST POP SWAP1 JUMP JUMPDEST PUSH32 0x4E487B7100000000000000000000000000000000000000000000000000000000 PUSH1 0x0 MSTORE PUSH1 0x22 PUSH1 0x4 MSTORE PUSH1 0x24 PUSH1 0x0 REVERT JUMPDEST PUSH1 0x0 PUSH1 0x2 DUP3 DIV SWAP1 POP PUSH1 0x1 DUP3 AND DUP1 PUSH3 0x242 JUMPI PUSH1 0x7F DUP3 AND SWAP2 POP JUMPDEST PUSH1 0x20 DUP3 LT DUP2 SUB PUSH3 0x258 JUMPI PUSH3 0x257 PUSH3 0x1FA JUMP JUMPDEST JUMPDEST POP SWAP2 SWAP1 POP JUMP JUMPDEST PUSH2 0x8B4 DUP1 PUSH3 0x26E PUSH1 0x0 CODECOPY PUSH1 0x0 RETURN INVALID PUSH1 0x80 PUSH1 0x40 MSTORE CALLVALUE DUP1 ISZERO PUSH2 0x10 JUMPI PUSH1 0x0 DUP1 REVERT JUMPDEST POP PUSH1 0x4 CALLDATASIZE LT PUSH2 0x88 JUMPI PUSH1 0x0 CALLDATALOAD PUSH1 0xE0 SHR DUP1 PUSH4 0x4EE5C2EE GT PUSH2 0x5B JUMPI DUP1 PUSH4 0x4EE5C2EE EQ PUSH2 0x117 JUMPI DUP1 PUSH4 0x8BF1799F EQ PUSH2 0x133 JUMPI DUP1 PUSH4 0xD4DA005A EQ PUSH2 0x151 JUMPI DUP1 PUSH4 0xD72B3FA1 EQ PUSH2 0x16F JUMPI PUSH2 0x88 JUMP JUMPDEST DUP1 PUSH4 0x7CA2442 EQ PUSH2 0x8D JUMPI DUP1 PUSH4 0xA070A57 EQ PUSH2 0xBD JUMPI DUP1 PUSH4 0x110474C7 EQ PUSH2 0xDB JUMPI DUP1 PUSH4 0x1542F3BF EQ PUSH2 0xF9 JUMPI JUMPDEST PUSH1 0x0 DUP1 REVERT JUMPDEST PUSH2 0xA7 PUSH1 0x4 DUP1 CALLDATASIZE SUB DUP2 ADD SWAP1 PUSH2 0xA2 SWAP2 SWAP1 PUSH2 0x504 JUMP JUMPDEST PUSH2 0x18D JUMP JUMPDEST PUSH1 0x40 MLOAD PUSH2 0xB4 SWAP2 SWAP1 PUSH2 0x540 JUMP JUMPDEST PUSH1 0x40 MLOAD DUP1 SWAP2 SUB SWAP1 RETURN JUMPDEST PUSH2 0xC5 PUSH2 0x1B1 JUMP JUMPDEST PUSH1 0x40 MLOAD PUSH2 0xD2 SWAP2 SWAP1 PUSH2 0x5F4 JUMP JUMPDEST PUSH1 0x40 MLOAD DUP1 SWAP2 SUB SWAP1 RETURN JUMPDEST PUSH2 0xE3 PUSH2 0x23F JUMP JUMPDEST PUSH1 0x40 MLOAD PUSH2 0xF0 SWAP2 SWAP1 PUSH2 0x540 JUMP JUMPDEST PUSH1 0x40 MLOAD DUP1 SWAP2 SUB SWAP1 RETURN JUMPDEST PUSH2 0x101 PUSH2 0x245 JUMP JUMPDEST PUSH1 0x40 MLOAD PUSH2 0x10E SWAP2 SWAP1 PUSH2 0x66B JUMP JUMPDEST PUSH1 0x40 MLOAD DUP1 SWAP2 SUB SWAP1 RETURN JUMPDEST PUSH2 0x131 PUSH1 0x4 DUP1 CALLDATASIZE SUB DUP2 ADD SWAP1 PUSH2 0x12C SWAP2 SWAP1 PUSH2 0x7C2 JUMP JUMPDEST PUSH2 0x2D3 JUMP JUMPDEST STOP JUMPDEST PUSH2 0x13B PUSH2 0x2F5 JUMP JUMPDEST PUSH1 0x40 MLOAD PUSH2 0x148 SWAP2 SWAP1 PUSH2 0x66B JUMP JUMPDEST PUSH1 0x40 MLOAD DUP1 SWAP2 SUB SWAP1 RETURN JUMPDEST PUSH2 0x159 PUSH2 0x383 JUMP JUMPDEST PUSH1 0x40 MLOAD PUSH2 0x166 SWAP2 SWAP1 PUSH2 0x540 JUMP JUMPDEST PUSH1 0x40 MLOAD DUP1 SWAP2 SUB SWAP1 RETURN JUMPDEST PUSH2 0x177 PUSH2 0x389 JUMP JUMPDEST PUSH1 0x40 MLOAD PUSH2 0x184 SWAP2 SWAP1 PUSH2 0x5F4 JUMP JUMPDEST PUSH1 0x40 MLOAD DUP1 SWAP2 SUB SWAP1 RETURN JUMPDEST PUSH1 0x6 DUP2 DUP2 SLOAD DUP2 LT PUSH2 0x19D JUMPI PUSH1 0x0 DUP1 REVERT JUMPDEST SWAP1 PUSH1 0x0 MSTORE PUSH1 0x20 PUSH1 0x0 KECCAK256 ADD PUSH1 0x0 SWAP2 POP SWAP1 POP SLOAD DUP2 JUMP JUMPDEST PUSH1 0x5 DUP1 SLOAD PUSH2 0x1BE SWAP1 PUSH2 0x84D JUMP JUMPDEST DUP1 PUSH1 0x1F ADD PUSH1 0x20 DUP1 SWAP2 DIV MUL PUSH1 0x20 ADD PUSH1 0x40 MLOAD SWAP1 DUP2 ADD PUSH1 0x40 MSTORE DUP1 SWAP3 SWAP2 SWAP1 DUP2 DUP2 MSTORE PUSH1 0x20 ADD DUP3 DUP1 SLOAD PUSH2 0x1EA SWAP1 PUSH2 0x84D JUMP JUMPDEST DUP1 ISZERO PUSH2 0x237 JUMPI DUP1 PUSH1 0x1F LT PUSH2 0x20C JUMPI PUSH2 0x100 DUP1 DUP4 SLOAD DIV MUL DUP4 MSTORE SWAP2 PUSH1 0x20 ADD SWAP2 PUSH2 0x237 JUMP JUMPDEST DUP3 ADD SWAP2 SWAP1 PUSH1 0x0 MSTORE PUSH1 0x20 PUSH1 0x0 KECCAK256 SWAP1 JUMPDEST DUP2 SLOAD DUP2 MSTORE SWAP1 PUSH1 0x1 ADD SWAP1 PUSH1 0x20 ADD DUP1 DUP4 GT PUSH2 0x21A JUMPI DUP3 SWAP1 SUB PUSH1 0x1F AND DUP3 ADD SWAP2 JUMPDEST POP POP POP POP POP DUP2 JUMP JUMPDEST PUSH1 0x3 SLOAD DUP2 JUMP JUMPDEST PUSH1 0x2 DUP1 SLOAD PUSH2 0x252 SWAP1 PUSH2 0x84D JUMP JUMPDEST DUP1 PUSH1 0x1F ADD PUSH1 0x20 DUP1 SWAP2 DIV MUL PUSH1 0x20 ADD PUSH1 0x40 MLOAD SWAP1 DUP2 ADD PUSH1 0x40 MSTORE DUP1 SWAP3 SWAP2 SWAP1 DUP2 DUP2 MSTORE PUSH1 0x20 ADD DUP3 DUP1 SLOAD PUSH2 0x27E SWAP1 PUSH2 0x84D JUMP JUMPDEST DUP1 ISZERO PUSH2 0x2CB JUMPI DUP1 PUSH1 0x1F LT PUSH2 0x2A0 JUMPI PUSH2 0x100 DUP1 DUP4 SLOAD DIV MUL DUP4 MSTORE SWAP2 PUSH1 0x20 ADD SWAP2 PUSH2 0x2CB JUMP JUMPDEST DUP3 ADD SWAP2 SWAP1 PUSH1 0x0 MSTORE PUSH1 0x20 PUSH1 0x0 KECCAK256 SWAP1 JUMPDEST DUP2 SLOAD DUP2 MSTORE SWAP1 PUSH1 0x1 ADD SWAP1 PUSH1 0x20 ADD DUP1 DUP4 GT PUSH2 0x2AE JUMPI DUP3 SWAP1 SUB PUSH1 0x1F AND DUP3 ADD SWAP2 JUMPDEST POP POP POP POP POP DUP2 JUMP JUMPDEST DUP2 PUSH1 0x0 SWAP1 DUP1 MLOAD SWAP1 PUSH1 0x20 ADD SWAP1 PUSH2 0x2E9 SWAP3 SWAP2 SWAP1 PUSH2 0x417 JUMP JUMPDEST POP DUP1 PUSH1 0x1 DUP2 SWAP1 SSTORE POP POP POP JUMP JUMPDEST PUSH1 0x0 DUP1 SLOAD PUSH2 0x302 SWAP1 PUSH2 0x84D JUMP JUMPDEST DUP1 PUSH1 0x1F ADD PUSH1 0x20 DUP1 SWAP2 DIV MUL PUSH1 0x20 ADD PUSH1 0x40 MLOAD SWAP1 DUP2 ADD PUSH1 0x40 MSTORE DUP1 SWAP3 SWAP2 SWAP1 DUP2 DUP2 MSTORE PUSH1 0x20 ADD DUP3 DUP1 SLOAD PUSH2 0x32E SWAP1 PUSH2 0x84D JUMP JUMPDEST DUP1 ISZERO PUSH2 0x37B JUMPI DUP1 PUSH1 0x1F LT PUSH2 0x350 JUMPI PUSH2 0x100 DUP1 DUP4 SLOAD DIV MUL DUP4 MSTORE SWAP2 PUSH1 0x20 ADD SWAP2 PUSH2 0x37B JUMP JUMPDEST DUP3 ADD SWAP2 SWAP1 PUSH1 0x0 MSTORE PUSH1 0x20 PUSH1 0x0 KECCAK256 SWAP1 JUMPDEST DUP2 SLOAD DUP2 MSTORE SWAP1 PUSH1 0x1 ADD SWAP1 PUSH1 0x20 ADD DUP1 DUP4 GT PUSH2 0x35E JUMPI DUP3 SWAP1 SUB PUSH1 0x1F AND DUP3 ADD SWAP2 JUMPDEST POP POP POP POP POP DUP2 JUMP JUMPDEST PUSH1 0x1 SLOAD DUP2 JUMP JUMPDEST PUSH1 0x4 DUP1 SLOAD PUSH2 0x396 SWAP1 PUSH2 0x84D JUMP JUMPDEST DUP1 PUSH1 0x1F ADD PUSH1 0x20 DUP1 SWAP2 DIV MUL PUSH1 0x20 ADD PUSH1 0x40 MLOAD SWAP1 DUP2 ADD PUSH1 0x40 MSTORE DUP1 SWAP3 SWAP2 SWAP1 DUP2 DUP2 MSTORE PUSH1 0x20 ADD DUP3 DUP1 SLOAD PUSH2 0x3C2 SWAP1 PUSH2 0x84D JUMP JUMPDEST DUP1 ISZERO PUSH2 0x40F JUMPI DUP1 PUSH1 0x1F LT PUSH2 0x3E4 JUMPI PUSH2 0x100 DUP1 DUP4 SLOAD DIV MUL DUP4 MSTORE SWAP2 PUSH1 0x20 ADD SWAP2 PUSH2 0x40F JUMP JUMPDEST DUP3 ADD SWAP2 SWAP1 PUSH1 0x0 MSTORE PUSH1 0x20 PUSH1 0x0 KECCAK256 SWAP1 JUMPDEST DUP2 SLOAD DUP2 MSTORE SWAP1 PUSH1 0x1 ADD SWAP1 PUSH1 0x20 ADD DUP1 DUP4 GT PUSH2 0x3F2 JUMPI DUP3 SWAP1 SUB PUSH1 0x1F AND DUP3 ADD SWAP2 JUMPDEST POP POP POP POP POP DUP2 JUMP JUMPDEST DUP3 DUP1 SLOAD PUSH2 0x423 SWAP1 PUSH2 0x84D JUMP JUMPDEST SWAP1 PUSH1 0x0 MSTORE PUSH1 0x20 PUSH1 0x0 KECCAK256 SWAP1 PUSH1 0x1F ADD PUSH1 0x20 SWAP1 DIV DUP2 ADD SWAP3 DUP3 PUSH2 0x445 JUMPI PUSH1 0x0 DUP6 SSTORE PUSH2 0x48C JUMP JUMPDEST DUP3 PUSH1 0x1F LT PUSH2 0x45E JUMPI DUP1 MLOAD PUSH1 0xFF NOT AND DUP4 DUP1 ADD OR DUP6 SSTORE PUSH2 0x48C JUMP JUMPDEST DUP3 DUP1 ADD PUSH1 0x1 ADD DUP6 SSTORE DUP3 ISZERO PUSH2 0x48C JUMPI SWAP2 DUP3 ADD JUMPDEST DUP3 DUP2 GT ISZERO PUSH2 0x48B JUMPI DUP3 MLOAD DUP3 SSTORE SWAP2 PUSH1 0x20 ADD SWAP2 SWAP1 PUSH1 0x1 ADD SWAP1 PUSH2 0x470 JUMP JUMPDEST JUMPDEST POP SWAP1 POP PUSH2 0x499 SWAP2 SWAP1 PUSH2 0x49D JUMP JUMPDEST POP SWAP1 JUMP JUMPDEST JUMPDEST DUP1 DUP3 GT ISZERO PUSH2 0x4B6 JUMPI PUSH1 0x0 DUP2 PUSH1 0x0 SWAP1 SSTORE POP PUSH1 0x1 ADD PUSH2 0x49E JUMP JUMPDEST POP SWAP1 JUMP JUMPDEST PUSH1 0x0 PUSH1 0x40 MLOAD SWAP1 POP SWAP1 JUMP JUMPDEST PUSH1 0x0 DUP1 REVERT JUMPDEST PUSH1 0x0 DUP1 REVERT JUMPDEST PUSH1 0x0 DUP2 SWAP1 POP SWAP2 SWAP1 POP JUMP JUMPDEST PUSH2 0x4E1 DUP2 PUSH2 0x4CE JUMP JUMPDEST DUP2 EQ PUSH2 0x4EC JUMPI PUSH1 0x0 DUP1 REVERT JUMPDEST POP JUMP JUMPDEST PUSH1 0x0 DUP2 CALLDATALOAD SWAP1 POP PUSH2 0x4FE DUP2 PUSH2 0x4D8 JUMP JUMPDEST SWAP3 SWAP2 POP POP JUMP JUMPDEST PUSH1 0x0 PUSH1 0x20 DUP3 DUP5 SUB SLT ISZERO PUSH2 0x51A JUMPI PUSH2 0x519 PUSH2 0x4C4 JUMP JUMPDEST JUMPDEST PUSH1 0x0 PUSH2 0x528 DUP5 DUP3 DUP6 ADD PUSH2 0x4EF JUMP JUMPDEST SWAP2 POP POP SWAP3 SWAP2 POP POP JUMP JUMPDEST PUSH2 0x53A DUP2 PUSH2 0x4CE JUMP JUMPDEST DUP3 MSTORE POP POP JUMP JUMPDEST PUSH1 0x0 PUSH1 0x20 DUP3 ADD SWAP1 POP PUSH2 0x555 PUSH1 0x0 DUP4 ADD DUP5 PUSH2 0x531 JUMP JUMPDEST SWAP3 SWAP2 POP POP JUMP JUMPDEST PUSH1 0x0 DUP2 MLOAD SWAP1 POP SWAP2 SWAP1 POP JUMP JUMPDEST PUSH1 0x0 DUP3 DUP3 MSTORE PUSH1 0x20 DUP3 ADD SWAP1 POP SWAP3 SWAP2 POP POP JUMP JUMPDEST PUSH1 0x0 JUMPDEST DUP4 DUP2 LT ISZERO PUSH2 0x595 JUMPI DUP1 DUP3 ADD MLOAD DUP2 DUP5 ADD MSTORE PUSH1 0x20 DUP2 ADD SWAP1 POP PUSH2 0x57A JUMP JUMPDEST DUP4 DUP2 GT ISZERO PUSH2 0x5A4 JUMPI PUSH1 0x0 DUP5 DUP5 ADD MSTORE JUMPDEST POP POP POP POP JUMP JUMPDEST PUSH1 0x0 PUSH1 0x1F NOT PUSH1 0x1F DUP4 ADD AND SWAP1 POP SWAP2 SWAP1 POP JUMP JUMPDEST PUSH1 0x0 PUSH2 0x5C6 DUP3 PUSH2 0x55B JUMP JUMPDEST PUSH2 0x5D0 DUP2 DUP6 PUSH2 0x566 JUMP JUMPDEST SWAP4 POP PUSH2 0x5E0 DUP2 DUP6 PUSH1 0x20 DUP7 ADD PUSH2 0x577 JUMP JUMPDEST PUSH2 0x5E9 DUP2 PUSH2 0x5AA JUMP JUMPDEST DUP5 ADD SWAP2 POP POP SWAP3 SWAP2 POP POP JUMP JUMPDEST PUSH1 0x0 PUSH1 0x20 DUP3 ADD SWAP1 POP DUP2 DUP2 SUB PUSH1 0x0 DUP4 ADD MSTORE PUSH2 0x60E DUP2 DUP5 PUSH2 0x5BB JUMP JUMPDEST SWAP1 POP SWAP3 SWAP2 POP POP JUMP JUMPDEST PUSH1 0x0 DUP2 MLOAD SWAP1 POP SWAP2 SWAP1 POP JUMP JUMPDEST PUSH1 0x0 DUP3 DUP3 MSTORE PUSH1 0x20 DUP3 ADD SWAP1 POP SWAP3 SWAP2 POP POP JUMP JUMPDEST PUSH1 0x0 PUSH2 0x63D DUP3 PUSH2 0x616 JUMP JUMPDEST PUSH2 0x647 DUP2 DUP6 PUSH2 0x621 JUMP JUMPDEST SWAP4 POP PUSH2 0x657 DUP2 DUP6 PUSH1 0x20 DUP7 ADD PUSH2 0x577 JUMP JUMPDEST PUSH2 0x660 DUP2 PUSH2 0x5AA JUMP JUMPDEST DUP5 ADD SWAP2 POP POP SWAP3 SWAP2 POP POP JUMP JUMPDEST PUSH1 0x0 PUSH1 0x20 DUP3 ADD SWAP1 POP DUP2 DUP2 SUB PUSH1 0x0 DUP4 ADD MSTORE PUSH2 0x685 DUP2 DUP5 PUSH2 0x632 JUMP JUMPDEST SWAP1 POP SWAP3 SWAP2 POP POP JUMP JUMPDEST PUSH1 0x0 DUP1 REVERT JUMPDEST PUSH1 0x0 DUP1 REVERT JUMPDEST PUSH32 0x4E487B7100000000000000000000000000000000000000000000000000000000 PUSH1 0x0 MSTORE PUSH1 0x41 PUSH1 0x4 MSTORE PUSH1 0x24 PUSH1 0x0 REVERT JUMPDEST PUSH2 0x6CF DUP3 PUSH2 0x5AA JUMP JUMPDEST DUP2 ADD DUP2 DUP2 LT PUSH8 0xFFFFFFFFFFFFFFFF DUP3 GT OR ISZERO PUSH2 0x6EE JUMPI PUSH2 0x6ED PUSH2 0x697 JUMP JUMPDEST JUMPDEST DUP1 PUSH1 0x40 MSTORE POP POP POP JUMP JUMPDEST PUSH1 0x0 PUSH2 0x701 PUSH2 0x4BA JUMP JUMPDEST SWAP1 POP PUSH2 0x70D DUP3 DUP3 PUSH2 0x6C6 JUMP JUMPDEST SWAP2 SWAP1 POP JUMP JUMPDEST PUSH1 0x0 PUSH8 0xFFFFFFFFFFFFFFFF DUP3 GT ISZERO PUSH2 0x72D JUMPI PUSH2 0x72C PUSH2 0x697 JUMP JUMPDEST JUMPDEST PUSH2 0x736 DUP3 PUSH2 0x5AA JUMP JUMPDEST SWAP1 POP PUSH1 0x20 DUP2 ADD SWAP1 POP SWAP2 SWAP1 POP JUMP JUMPDEST DUP3 DUP2 DUP4 CALLDATACOPY PUSH1 0x0 DUP4 DUP4 ADD MSTORE POP POP POP JUMP JUMPDEST PUSH1 0x0 PUSH2 0x765 PUSH2 0x760 DUP5 PUSH2 0x712 JUMP JUMPDEST PUSH2 0x6F7 JUMP JUMPDEST SWAP1 POP DUP3 DUP2 MSTORE PUSH1 0x20 DUP2 ADD DUP5 DUP5 DUP5 ADD GT ISZERO PUSH2 0x781 JUMPI PUSH2 0x780 PUSH2 0x692 JUMP JUMPDEST JUMPDEST PUSH2 0x78C DUP5 DUP3 DUP6 PUSH2 0x743 JUMP JUMPDEST POP SWAP4 SWAP3 POP POP POP JUMP JUMPDEST PUSH1 0x0 DUP3 PUSH1 0x1F DUP4 ADD SLT PUSH2 0x7A9 JUMPI PUSH2 0x7A8 PUSH2 0x68D JUMP JUMPDEST JUMPDEST DUP2 CALLDATALOAD PUSH2 0x7B9 DUP5 DUP3 PUSH1 0x20 DUP7 ADD PUSH2 0x752 JUMP JUMPDEST SWAP2 POP POP SWAP3 SWAP2 POP POP JUMP JUMPDEST PUSH1 0x0 DUP1 PUSH1 0x40 DUP4 DUP6 SUB SLT ISZERO PUSH2 0x7D9 JUMPI PUSH2 0x7D8 PUSH2 0x4C4 JUMP JUMPDEST JUMPDEST PUSH1 0x0 DUP4 ADD CALLDATALOAD PUSH8 0xFFFFFFFFFFFFFFFF DUP2 GT ISZERO PUSH2 0x7F7 JUMPI PUSH2 0x7F6 PUSH2 0x4C9 JUMP JUMPDEST JUMPDEST PUSH2 0x803 DUP6 DUP3 DUP7 ADD PUSH2 0x794 JUMP JUMPDEST SWAP3 POP POP PUSH1 0x20 PUSH2 0x814 DUP6 DUP3 DUP7 ADD PUSH2 0x4EF JUMP JUMPDEST SWAP2 POP POP SWAP3 POP SWAP3 SWAP1 POP JUMP JUMPDEST PUSH32 0x4E487B7100000000000000000000000000000000000000000000000000000000 PUSH1 0x0 MSTORE PUSH1 0x22 PUSH1 0x4 MSTORE PUSH1 0x24 PUSH1 0x0 REVERT JUMPDEST PUSH1 0x0 PUSH1 0x2 DUP3 DIV SWAP1 POP PUSH1 0x1 DUP3 AND DUP1 PUSH2 0x865 JUMPI PUSH1 0x7F DUP3 AND SWAP2 POP JUMPDEST PUSH1 0x20 DUP3 LT DUP2 SUB PUSH2 0x878 JUMPI PUSH2 0x877 PUSH2 0x81E JUMP JUMPDEST JUMPDEST POP SWAP2 SWAP1 POP JUMP INVALID LOG2 PUSH5 0x6970667358 0x22 SLT KECCAK256 CODECOPY PUSH25 0xBD354B90E99CA56F8670F10372F82082F431798655953D110D 0x5E 0xAB 0xC6 0x4D 0xE2 PUSH5 0x736F6C6343 STOP ADDMOD 0xD STOP CALLER "
				},
				"gasEstimates": {
					"creation": {
						"codeDepositCost": "445600",
						"executionCost": "infinite",
						"totalCost": "infinite"
					},
					"external": {
						"defaltByte()": "infinite",
						"defaltByteNo()": "infinite",
						"defaltNum()": "2474",
						"defaltText()": "infinite",
						"myNum()": "2473",
						"myNumber(uint256)": "infinite",
						"myState()": "infinite",
						"update(string,uint256)": "infinite"
					}
				},
				"methodIdentifiers": {
					"defaltByte()": "d72b3fa1",
					"defaltByteNo()": "0a070a57",
					"defaltNum()": "110474c7",
					"defaltText()": "1542f3bf",
					"myNum()": "d4da005a",
					"myNumber(uint256)": "07ca2442",
					"myState()": "8bf1799f",
					"update(string,uint256)": "4ee5c2ee"
				}
			},
			"storageLayout": {
				"storage": [
					{
						"astId": 3,
						"contract": "contracts/stateVariables_9.sol:StateVariables",
						"label": "myState",
						"offset": 0,
						"slot": "0",
						"type": "t_string_storage"
					},
					{
						"astId": 5,
						"contract": "contracts/stateVariables_9.sol:StateVariables",
						"label": "myNum",
						"offset": 0,
						"slot": "1",
						"type": "t_uint256"
					},
					{
						"astId": 8,
						"contract": "contracts/stateVariables_9.sol:StateVariables",
						"label": "defaltText",
						"offset": 0,
						"slot": "2",
						"type": "t_string_storage"
					},
					{
						"astId": 11,
						"contract": "contracts/stateVariables_9.sol:StateVariables",
						"label": "defaltNum",
						"offset": 0,
						"slot": "3",
						"type": "t_uint256"
					},
					{
						"astId": 14,
						"contract": "contracts/stateVariables_9.sol:StateVariables",
						"label": "defaltByte",
						"offset": 0,
						"slot": "4",
						"type": "t_bytes_storage"
					},
					{
						"astId": 16,
						"contract": "contracts/stateVariables_9.sol:StateVariables",
						"label": "defaltByteNo",
						"offset": 0,
						"slot": "5",
						"type": "t_bytes_storage"
					},
					{
						"astId": 19,
						"contract": "contracts/stateVariables_9.sol:StateVariables",
						"label": "myNumber",
						"offset": 0,
						"slot": "6",
						"type": "t_array(t_uint256)dyn_storage"
					}
				],
				"types": {
					"t_array(t_uint256)dyn_storage": {
						"base": "t_uint256",
						"encoding": "dynamic_array",
						"label": "uint256[]",
						"numberOfBytes": "32"
					},
					"t_bytes_storage": {
						"encoding": "bytes",
						"label": "bytes",
						"numberOfBytes": "32"
					},
					"t_string_storage": {
						"encoding": "bytes",
						"label": "string",
						"numberOfBytes": "32"
					},
					"t_uint256": {
						"encoding": "inplace",
						"label": "uint256",
						"numberOfBytes": "32"
					}
				}
			},
			"userdoc": {
				"kind": "user",
				"methods": {},
				"version": 1
			}
		}
	}
}