{
	"contracts/view_12.sol": {
		"View": {
			"abi": [
				{
					"inputs": [],
					"name": "Num3",
					"outputs": [
						{
							"internalType": "uint256",
							"name": "",
							"type": "uint256"
						}
					],
					"stateMutability": "view",
					"type": "function"
				},
				{
					"inputs": [],
					"name": "Num4",
					"outputs": [
						{
							"internalType": "uint256",
							"name": "",
							"type": "uint256"
						}
					],
					"stateMutability": "view",
					"type": "function"
				},
				{
					"inputs": [],
					"name": "getResults",
					"outputs": [
						{
							"internalType": "uint256",
							"name": "product",
							"type": "uint256"
						},
						{
							"internalType": "uint256",
							"name": "total",
							"type": "uint256"
						}
					],
					"stateMutability": "view",
					"type": "function"
				},
				{
					"inputs": [],
					"name": "getResultsCalcs",
					"outputs": [
						{
							"internalType": "uint256",
							"name": "product",
							"type": "uint256"
						},
						{
							"internalType": "uint256",
							"name": "total",
							"type": "uint256"
						}
					],
					"stateMutability": "view",
					"type": "function"
				},
				{
					"inputs": [],
					"name": "getResultsUp",
					"outputs": [
						{
							"internalType": "uint256",
							"name": "product",
							"type": "uint256"
						},
						{
							"internalType": "uint256",
							"name": "total",
							"type": "uint256"
						}
					],
					"stateMutability": "nonpayable",
					"type": "function"
				},
				{
					"inputs": [],
					"name": "getResultsUpPub",
					"outputs": [
						{
							"internalType": "uint256",
							"name": "",
							"type": "uint256"
						},
						{
							"internalType": "uint256",
							"name": "",
							"type": "uint256"
						}
					],
					"stateMutability": "view",
					"type": "function"
				}
			],
			"devdoc": {
				"kind": "dev",
				"methods": {},
				"version": 1
			},
			"evm": {
				"assembly": "    /* \"contracts/view_12.sol\":90:3534  contract View{... */\n  mstore(0x40, 0x80)\n    /* \"contracts/view_12.sol\":457:458  2 */\n  0x02\n    /* \"contracts/view_12.sol\":442:458  uint256 Num1 = 2 */\n  0x00\n  sstore\n    /* \"contracts/view_12.sol\":479:480  7 */\n  0x07\n    /* \"contracts/view_12.sol\":464:480  uint256 Num2 = 7 */\n  0x01\n  sstore\n    /* \"contracts/view_12.sol\":509:510  2 */\n  0x02\n    /* \"contracts/view_12.sol\":487:510  uint256 public Num3 = 2 */\n  dup1\n  sstore\n    /* \"contracts/view_12.sol\":538:539  7 */\n  0x07\n    /* \"contracts/view_12.sol\":516:539  uint256 public Num4 = 7 */\n  0x03\n  sstore\n    /* \"contracts/view_12.sol\":90:3534  contract View{... */\n  callvalue\n  dup1\n  iszero\n  tag_1\n  jumpi\n  0x00\n  dup1\n  revert\ntag_1:\n  pop\n  dataSize(sub_0)\n  dup1\n  dataOffset(sub_0)\n  0x00\n  codecopy\n  0x00\n  return\nstop\n\nsub_0: assembly {\n        /* \"contracts/view_12.sol\":90:3534  contract View{... */\n      mstore(0x40, 0x80)\n      callvalue\n      dup1\n      iszero\n      tag_1\n      jumpi\n      0x00\n      dup1\n      revert\n    tag_1:\n      pop\n      jumpi(tag_2, lt(calldatasize, 0x04))\n      shr(0xe0, calldataload(0x00))\n      dup1\n      0x11f56ae9\n      eq\n      tag_3\n      jumpi\n      dup1\n      0x3b62394e\n      eq\n      tag_4\n      jumpi\n      dup1\n      0x4717f97c\n      eq\n      tag_5\n      jumpi\n      dup1\n      0x7f1a4cd3\n      eq\n      tag_6\n      jumpi\n      dup1\n      0xb9976933\n      eq\n      tag_7\n      jumpi\n      dup1\n      0xbbb81e06\n      eq\n      tag_8\n      jumpi\n    tag_2:\n      0x00\n      dup1\n      revert\n        /* \"contracts/view_12.sol\":516:539  uint256 public Num4 = 7 */\n    tag_3:\n      tag_9\n      tag_10\n      jump\t// in\n    tag_9:\n      mload(0x40)\n      tag_11\n      swap2\n      swap1\n      tag_12\n      jump\t// in\n    tag_11:\n      mload(0x40)\n      dup1\n      swap2\n      sub\n      swap1\n      return\n        /* \"contracts/view_12.sol\":1497:1677  function getResultsCalcs() public view returns( uint256 product, uint256 total){... */\n    tag_4:\n      tag_13\n      tag_14\n      jump\t// in\n    tag_13:\n      mload(0x40)\n      tag_15\n      swap3\n      swap2\n      swap1\n      tag_16\n      jump\t// in\n    tag_15:\n      mload(0x40)\n      dup1\n      swap2\n      sub\n      swap1\n      return\n        /* \"contracts/view_12.sol\":1045:1275  function getResults() public view returns( uint256 product, uint256 total){... */\n    tag_5:\n      tag_17\n      tag_18\n      jump\t// in\n    tag_17:\n      mload(0x40)\n      tag_19\n      swap3\n      swap2\n      swap1\n      tag_16\n      jump\t// in\n    tag_19:\n      mload(0x40)\n      dup1\n      swap2\n      sub\n      swap1\n      return\n        /* \"contracts/view_12.sol\":2066:2285  function getResultsUp() public returns( uint256 product, uint256 total){... */\n    tag_6:\n      tag_20\n      tag_21\n      jump\t// in\n    tag_20:\n      mload(0x40)\n      tag_22\n      swap3\n      swap2\n      swap1\n      tag_16\n      jump\t// in\n    tag_22:\n      mload(0x40)\n      dup1\n      swap2\n      sub\n      swap1\n      return\n        /* \"contracts/view_12.sol\":3103:3286  function getResultsUpPub() public view returns( uint256, uint256){... */\n    tag_7:\n      tag_23\n      tag_24\n      jump\t// in\n    tag_23:\n      mload(0x40)\n      tag_25\n      swap3\n      swap2\n      swap1\n      tag_16\n      jump\t// in\n    tag_25:\n      mload(0x40)\n      dup1\n      swap2\n      sub\n      swap1\n      return\n        /* \"contracts/view_12.sol\":487:510  uint256 public Num3 = 2 */\n    tag_8:\n      tag_26\n      tag_27\n      jump\t// in\n    tag_26:\n      mload(0x40)\n      tag_28\n      swap2\n      swap1\n      tag_12\n      jump\t// in\n    tag_28:\n      mload(0x40)\n      dup1\n      swap2\n      sub\n      swap1\n      return\n        /* \"contracts/view_12.sol\":516:539  uint256 public Num4 = 7 */\n    tag_10:\n      sload(0x03)\n      dup2\n      jump\t// out\n        /* \"contracts/view_12.sol\":1497:1677  function getResultsCalcs() public view returns( uint256 product, uint256 total){... */\n    tag_14:\n        /* \"contracts/view_12.sol\":1545:1560  uint256 product */\n      0x00\n        /* \"contracts/view_12.sol\":1562:1575  uint256 total */\n      dup1\n        /* \"contracts/view_12.sol\":1604:1608  Num2 */\n      sload(0x01)\n        /* \"contracts/view_12.sol\":1597:1601  Num1 */\n      sload(0x00)\n        /* \"contracts/view_12.sol\":1597:1608  Num1 * Num2 */\n      tag_30\n      swap2\n      swap1\n      tag_31\n      jump\t// in\n    tag_30:\n        /* \"contracts/view_12.sol\":1587:1608  product = Num1 * Num2 */\n      swap2\n      pop\n        /* \"contracts/view_12.sol\":1633:1637  Num2 */\n      sload(0x01)\n        /* \"contracts/view_12.sol\":1626:1630  Num1 */\n      sload(0x00)\n        /* \"contracts/view_12.sol\":1626:1637  Num1 + Num2 */\n      tag_32\n      swap2\n      swap1\n      tag_33\n      jump\t// in\n    tag_32:\n        /* \"contracts/view_12.sol\":1618:1637  total = Num1 + Num2 */\n      swap1\n      pop\n        /* \"contracts/view_12.sol\":1497:1677  function getResultsCalcs() public view returns( uint256 product, uint256 total){... */\n      swap1\n      swap2\n      jump\t// out\n        /* \"contracts/view_12.sol\":1045:1275  function getResults() public view returns( uint256 product, uint256 total){... */\n    tag_18:\n        /* \"contracts/view_12.sol\":1088:1103  uint256 product */\n      0x00\n        /* \"contracts/view_12.sol\":1105:1118  uint256 total */\n      dup1\n        /* \"contracts/view_12.sol\":1130:1142  uint256 num1 */\n      0x00\n        /* \"contracts/view_12.sol\":1145:1147  20 */\n      0x14\n        /* \"contracts/view_12.sol\":1130:1147  uint256 num1 = 20 */\n      swap1\n      pop\n        /* \"contracts/view_12.sol\":1157:1169  uint256 num2 */\n      0x00\n        /* \"contracts/view_12.sol\":1172:1174  30 */\n      0x1e\n        /* \"contracts/view_12.sol\":1157:1174  uint256 num2 = 30 */\n      swap1\n      pop\n        /* \"contracts/view_12.sol\":1202:1206  num2 */\n      dup1\n        /* \"contracts/view_12.sol\":1195:1199  num1 */\n      dup3\n        /* \"contracts/view_12.sol\":1195:1206  num1 * num2 */\n      tag_35\n      swap2\n      swap1\n      tag_31\n      jump\t// in\n    tag_35:\n        /* \"contracts/view_12.sol\":1185:1206  product = num1 * num2 */\n      swap4\n      pop\n        /* \"contracts/view_12.sol\":1231:1235  num2 */\n      dup1\n        /* \"contracts/view_12.sol\":1224:1228  num1 */\n      dup3\n        /* \"contracts/view_12.sol\":1224:1235  num1 + num2 */\n      tag_36\n      swap2\n      swap1\n      tag_33\n      jump\t// in\n    tag_36:\n        /* \"contracts/view_12.sol\":1216:1235  total = num1 + num2 */\n      swap3\n      pop\n        /* \"contracts/view_12.sol\":1246:1268  return(product, total) */\n      pop\n      pop\n        /* \"contracts/view_12.sol\":1045:1275  function getResults() public view returns( uint256 product, uint256 total){... */\n      swap1\n      swap2\n      jump\t// out\n        /* \"contracts/view_12.sol\":2066:2285  function getResultsUp() public returns( uint256 product, uint256 total){... */\n    tag_21:\n        /* \"contracts/view_12.sol\":2106:2121  uint256 product */\n      0x00\n        /* \"contracts/view_12.sol\":2123:2136  uint256 total */\n      dup1\n        /* \"contracts/view_12.sol\":2156:2157  5 */\n      0x05\n        /* \"contracts/view_12.sol\":2148:2152  Num1 */\n      0x00\n      dup1\n        /* \"contracts/view_12.sol\":2148:2157  Num1 += 5 */\n      dup3\n      dup3\n      sload\n      tag_38\n      swap2\n      swap1\n      tag_33\n      jump\t// in\n    tag_38:\n      swap3\n      pop\n      pop\n      dup2\n      swap1\n      sstore\n      pop\n        /* \"contracts/view_12.sol\":2175:2176  7 */\n      0x07\n        /* \"contracts/view_12.sol\":2167:2171  Num2 */\n      0x01\n      0x00\n        /* \"contracts/view_12.sol\":2167:2176  Num2 += 7 */\n      dup3\n      dup3\n      sload\n      tag_39\n      swap2\n      swap1\n      tag_33\n      jump\t// in\n    tag_39:\n      swap3\n      pop\n      pop\n      dup2\n      swap1\n      sstore\n      pop\n        /* \"contracts/view_12.sol\":2204:2208  Num2 */\n      sload(0x01)\n        /* \"contracts/view_12.sol\":2197:2201  Num1 */\n      sload(0x00)\n        /* \"contracts/view_12.sol\":2197:2208  Num1 * Num2 */\n      tag_40\n      swap2\n      swap1\n      tag_31\n      jump\t// in\n    tag_40:\n        /* \"contracts/view_12.sol\":2187:2208  product = Num1 * Num2 */\n      swap2\n      pop\n        /* \"contracts/view_12.sol\":2233:2237  Num2 */\n      sload(0x01)\n        /* \"contracts/view_12.sol\":2226:2230  Num1 */\n      sload(0x00)\n        /* \"contracts/view_12.sol\":2226:2237  Num1 + Num2 */\n      tag_41\n      swap2\n      swap1\n      tag_33\n      jump\t// in\n    tag_41:\n        /* \"contracts/view_12.sol\":2218:2237  total = Num1 + Num2 */\n      swap1\n      pop\n        /* \"contracts/view_12.sol\":2066:2285  function getResultsUp() public returns( uint256 product, uint256 total){... */\n      swap1\n      swap2\n      jump\t// out\n        /* \"contracts/view_12.sol\":3103:3286  function getResultsUpPub() public view returns( uint256, uint256){... */\n    tag_24:\n        /* \"contracts/view_12.sol\":3151:3158  uint256 */\n      0x00\n        /* \"contracts/view_12.sol\":3160:3167  uint256 */\n      dup1\n        /* \"contracts/view_12.sol\":3179:3194  uint256 product */\n      0x00\n        /* \"contracts/view_12.sol\":3204:3208  Num4 */\n      sload(0x03)\n        /* \"contracts/view_12.sol\":3197:3201  Num3 */\n      sload(0x02)\n        /* \"contracts/view_12.sol\":3197:3208  Num3 * Num4 */\n      tag_43\n      swap2\n      swap1\n      tag_31\n      jump\t// in\n    tag_43:\n        /* \"contracts/view_12.sol\":3179:3208  uint256 product = Num3 * Num4 */\n      swap1\n      pop\n        /* \"contracts/view_12.sol\":3218:3231  uint256 total */\n      0x00\n        /* \"contracts/view_12.sol\":3241:3245  Num4 */\n      sload(0x03)\n        /* \"contracts/view_12.sol\":3234:3238  Num3 */\n      sload(0x02)\n        /* \"contracts/view_12.sol\":3234:3245  Num3 + Num4 */\n      tag_44\n      swap2\n      swap1\n      tag_33\n      jump\t// in\n    tag_44:\n        /* \"contracts/view_12.sol\":3218:3245  uint256 total = Num3 + Num4 */\n      swap1\n      pop\n        /* \"contracts/view_12.sol\":3264:3271  product */\n      dup2\n        /* \"contracts/view_12.sol\":3273:3278  total */\n      dup2\n        /* \"contracts/view_12.sol\":3256:3279  return (product, total) */\n      swap4\n      pop\n      swap4\n      pop\n      pop\n      pop\n        /* \"contracts/view_12.sol\":3103:3286  function getResultsUpPub() public view returns( uint256, uint256){... */\n      swap1\n      swap2\n      jump\t// out\n        /* \"contracts/view_12.sol\":487:510  uint256 public Num3 = 2 */\n    tag_27:\n      sload(0x02)\n      dup2\n      jump\t// out\n        /* \"#utility.yul\":7:84   */\n    tag_45:\n        /* \"#utility.yul\":44:51   */\n      0x00\n        /* \"#utility.yul\":73:78   */\n      dup2\n        /* \"#utility.yul\":62:78   */\n      swap1\n      pop\n        /* \"#utility.yul\":7:84   */\n      swap2\n      swap1\n      pop\n      jump\t// out\n        /* \"#utility.yul\":90:208   */\n    tag_46:\n        /* \"#utility.yul\":177:201   */\n      tag_51\n        /* \"#utility.yul\":195:200   */\n      dup2\n        /* \"#utility.yul\":177:201   */\n      tag_45\n      jump\t// in\n    tag_51:\n        /* \"#utility.yul\":172:175   */\n      dup3\n        /* \"#utility.yul\":165:202   */\n      mstore\n        /* \"#utility.yul\":90:208   */\n      pop\n      pop\n      jump\t// out\n        /* \"#utility.yul\":214:436   */\n    tag_12:\n        /* \"#utility.yul\":307:311   */\n      0x00\n        /* \"#utility.yul\":345:347   */\n      0x20\n        /* \"#utility.yul\":334:343   */\n      dup3\n        /* \"#utility.yul\":330:348   */\n      add\n        /* \"#utility.yul\":322:348   */\n      swap1\n      pop\n        /* \"#utility.yul\":358:429   */\n      tag_53\n        /* \"#utility.yul\":426:427   */\n      0x00\n        /* \"#utility.yul\":415:424   */\n      dup4\n        /* \"#utility.yul\":411:428   */\n      add\n        /* \"#utility.yul\":402:408   */\n      dup5\n        /* \"#utility.yul\":358:429   */\n      tag_46\n      jump\t// in\n    tag_53:\n        /* \"#utility.yul\":214:436   */\n      swap3\n      swap2\n      pop\n      pop\n      jump\t// out\n        /* \"#utility.yul\":442:774   */\n    tag_16:\n        /* \"#utility.yul\":563:567   */\n      0x00\n        /* \"#utility.yul\":601:603   */\n      0x40\n        /* \"#utility.yul\":590:599   */\n      dup3\n        /* \"#utility.yul\":586:604   */\n      add\n        /* \"#utility.yul\":578:604   */\n      swap1\n      pop\n        /* \"#utility.yul\":614:685   */\n      tag_55\n        /* \"#utility.yul\":682:683   */\n      0x00\n        /* \"#utility.yul\":671:680   */\n      dup4\n        /* \"#utility.yul\":667:684   */\n      add\n        /* \"#utility.yul\":658:664   */\n      dup6\n        /* \"#utility.yul\":614:685   */\n      tag_46\n      jump\t// in\n    tag_55:\n        /* \"#utility.yul\":695:767   */\n      tag_56\n        /* \"#utility.yul\":763:765   */\n      0x20\n        /* \"#utility.yul\":752:761   */\n      dup4\n        /* \"#utility.yul\":748:766   */\n      add\n        /* \"#utility.yul\":739:745   */\n      dup5\n        /* \"#utility.yul\":695:767   */\n      tag_46\n      jump\t// in\n    tag_56:\n        /* \"#utility.yul\":442:774   */\n      swap4\n      swap3\n      pop\n      pop\n      pop\n      jump\t// out\n        /* \"#utility.yul\":780:960   */\n    tag_47:\n        /* \"#utility.yul\":828:905   */\n      0x4e487b7100000000000000000000000000000000000000000000000000000000\n        /* \"#utility.yul\":825:826   */\n      0x00\n        /* \"#utility.yul\":818:906   */\n      mstore\n        /* \"#utility.yul\":925:929   */\n      0x11\n        /* \"#utility.yul\":922:923   */\n      0x04\n        /* \"#utility.yul\":915:930   */\n      mstore\n        /* \"#utility.yul\":949:953   */\n      0x24\n        /* \"#utility.yul\":946:947   */\n      0x00\n        /* \"#utility.yul\":939:954   */\n      revert\n        /* \"#utility.yul\":966:1314   */\n    tag_31:\n        /* \"#utility.yul\":1006:1013   */\n      0x00\n        /* \"#utility.yul\":1029:1049   */\n      tag_59\n        /* \"#utility.yul\":1047:1048   */\n      dup3\n        /* \"#utility.yul\":1029:1049   */\n      tag_45\n      jump\t// in\n    tag_59:\n        /* \"#utility.yul\":1024:1049   */\n      swap2\n      pop\n        /* \"#utility.yul\":1063:1083   */\n      tag_60\n        /* \"#utility.yul\":1081:1082   */\n      dup4\n        /* \"#utility.yul\":1063:1083   */\n      tag_45\n      jump\t// in\n    tag_60:\n        /* \"#utility.yul\":1058:1083   */\n      swap3\n      pop\n        /* \"#utility.yul\":1251:1252   */\n      dup2\n        /* \"#utility.yul\":1183:1249   */\n      0xffffffffffffffffffffffffffffffffffffffffffffffffffffffffffffffff\n        /* \"#utility.yul\":1179:1253   */\n      div\n        /* \"#utility.yul\":1176:1177   */\n      dup4\n        /* \"#utility.yul\":1173:1254   */\n      gt\n        /* \"#utility.yul\":1168:1169   */\n      dup3\n        /* \"#utility.yul\":1161:1170   */\n      iszero\n        /* \"#utility.yul\":1154:1171   */\n      iszero\n        /* \"#utility.yul\":1150:1255   */\n      and\n        /* \"#utility.yul\":1147:1278   */\n      iszero\n      tag_61\n      jumpi\n        /* \"#utility.yul\":1258:1276   */\n      tag_62\n      tag_47\n      jump\t// in\n    tag_62:\n        /* \"#utility.yul\":1147:1278   */\n    tag_61:\n        /* \"#utility.yul\":1306:1307   */\n      dup3\n        /* \"#utility.yul\":1303:1304   */\n      dup3\n        /* \"#utility.yul\":1299:1308   */\n      mul\n        /* \"#utility.yul\":1288:1308   */\n      swap1\n      pop\n        /* \"#utility.yul\":966:1314   */\n      swap3\n      swap2\n      pop\n      pop\n      jump\t// out\n        /* \"#utility.yul\":1320:1625   */\n    tag_33:\n        /* \"#utility.yul\":1360:1363   */\n      0x00\n        /* \"#utility.yul\":1379:1399   */\n      tag_64\n        /* \"#utility.yul\":1397:1398   */\n      dup3\n        /* \"#utility.yul\":1379:1399   */\n      tag_45\n      jump\t// in\n    tag_64:\n        /* \"#utility.yul\":1374:1399   */\n      swap2\n      pop\n        /* \"#utility.yul\":1413:1433   */\n      tag_65\n        /* \"#utility.yul\":1431:1432   */\n      dup4\n        /* \"#utility.yul\":1413:1433   */\n      tag_45\n      jump\t// in\n    tag_65:\n        /* \"#utility.yul\":1408:1433   */\n      swap3\n      pop\n        /* \"#utility.yul\":1567:1568   */\n      dup3\n        /* \"#utility.yul\":1499:1565   */\n      0xffffffffffffffffffffffffffffffffffffffffffffffffffffffffffffffff\n        /* \"#utility.yul\":1495:1569   */\n      sub\n        /* \"#utility.yul\":1492:1493   */\n      dup3\n        /* \"#utility.yul\":1489:1570   */\n      gt\n        /* \"#utility.yul\":1486:1593   */\n      iszero\n      tag_66\n      jumpi\n        /* \"#utility.yul\":1573:1591   */\n      tag_67\n      tag_47\n      jump\t// in\n    tag_67:\n        /* \"#utility.yul\":1486:1593   */\n    tag_66:\n        /* \"#utility.yul\":1617:1618   */\n      dup3\n        /* \"#utility.yul\":1614:1615   */\n      dup3\n        /* \"#utility.yul\":1610:1619   */\n      add\n        /* \"#utility.yul\":1603:1619   */\n      swap1\n      pop\n        /* \"#utility.yul\":1320:1625   */\n      swap3\n      swap2\n      pop\n      pop\n      jump\t// out\n\n    auxdata: 0xa264697066735822122016361de8f693e64685aa82e6f8c1a7ea9e307f1d3e0309870207fd1ffb672c0864736f6c634300080d0033\n}\n",
				"bytecode": {
					"linkReferences": {},
					"object": "60806040526002600055600760015560028055600760035534801561002357600080fd5b5061038e806100336000396000f3fe608060405234801561001057600080fd5b50600436106100625760003560e01c806311f56ae9146100675780633b62394e146100855780634717f97c146100a45780637f1a4cd3146100c3578063b9976933146100e2578063bbb81e0614610101575b600080fd5b61006f61011f565b60405161007c9190610235565b60405180910390f35b61008d610125565b60405161009b929190610250565b60405180910390f35b6100ac610150565b6040516100ba929190610250565b60405180910390f35b6100cb610181565b6040516100d9929190610250565b60405180910390f35b6100ea6101df565b6040516100f8929190610250565b60405180910390f35b610109610216565b6040516101169190610235565b60405180910390f35b60035481565b60008060015460005461013891906102a8565b915060015460005461014a9190610302565b90509091565b6000806000601490506000601e9050808261016b91906102a8565b935080826101799190610302565b925050509091565b60008060056000808282546101969190610302565b925050819055506007600160008282546101b09190610302565b925050819055506001546000546101c791906102a8565b91506001546000546101d99190610302565b90509091565b60008060006003546002546101f491906102a8565b905060006003546002546102089190610302565b905081819350935050509091565b60025481565b6000819050919050565b61022f8161021c565b82525050565b600060208201905061024a6000830184610226565b92915050565b60006040820190506102656000830185610226565b6102726020830184610226565b9392505050565b7f4e487b7100000000000000000000000000000000000000000000000000000000600052601160045260246000fd5b60006102b38261021c565b91506102be8361021c565b9250817fffffffffffffffffffffffffffffffffffffffffffffffffffffffffffffffff04831182151516156102f7576102f6610279565b5b828202905092915050565b600061030d8261021c565b91506103188361021c565b9250827fffffffffffffffffffffffffffffffffffffffffffffffffffffffffffffffff0382111561034d5761034c610279565b5b82820190509291505056fea264697066735822122016361de8f693e64685aa82e6f8c1a7ea9e307f1d3e0309870207fd1ffb672c0864736f6c634300080d0033",
					"opcodes": "PUSH1 0x80 PUSH1 0x40 MSTORE PUSH1 0x2 PUSH1 0x0 SSTORE PUSH1 0x7 PUSH1 0x1 SSTORE PUSH1 0x2 DUP1 SSTORE PUSH1 0x7 PUSH1 0x3 SSTORE CALLVALUE DUP1 ISZERO PUSH2 0x23 JUMPI PUSH1 0x0 DUP1 REVERT JUMPDEST POP PUSH2 0x38E DUP1 PUSH2 0x33 PUSH1 0x0 CODECOPY PUSH1 0x0 RETURN INVALID PUSH1 0x80 PUSH1 0x40 MSTORE CALLVALUE DUP1 ISZERO PUSH2 0x10 JUMPI PUSH1 0x0 DUP1 REVERT JUMPDEST POP PUSH1 0x4 CALLDATASIZE LT PUSH2 0x62 JUMPI PUSH1 0x0 CALLDATALOAD PUSH1 0xE0 SHR DUP1 PUSH4 0x11F56AE9 EQ PUSH2 0x67 JUMPI DUP1 PUSH4 0x3B62394E EQ PUSH2 0x85 JUMPI DUP1 PUSH4 0x4717F97C EQ PUSH2 0xA4 JUMPI DUP1 PUSH4 0x7F1A4CD3 EQ PUSH2 0xC3 JUMPI DUP1 PUSH4 0xB9976933 EQ PUSH2 0xE2 JUMPI DUP1 PUSH4 0xBBB81E06 EQ PUSH2 0x101 JUMPI JUMPDEST PUSH1 0x0 DUP1 REVERT JUMPDEST PUSH2 0x6F PUSH2 0x11F JUMP JUMPDEST PUSH1 0x40 MLOAD PUSH2 0x7C SWAP2 SWAP1 PUSH2 0x235 JUMP JUMPDEST PUSH1 0x40 MLOAD DUP1 SWAP2 SUB SWAP1 RETURN JUMPDEST PUSH2 0x8D PUSH2 0x125 JUMP JUMPDEST PUSH1 0x40 MLOAD PUSH2 0x9B SWAP3 SWAP2 SWAP1 PUSH2 0x250 JUMP JUMPDEST PUSH1 0x40 MLOAD DUP1 SWAP2 SUB SWAP1 RETURN JUMPDEST PUSH2 0xAC PUSH2 0x150 JUMP JUMPDEST PUSH1 0x40 MLOAD PUSH2 0xBA SWAP3 SWAP2 SWAP1 PUSH2 0x250 JUMP JUMPDEST PUSH1 0x40 MLOAD DUP1 SWAP2 SUB SWAP1 RETURN JUMPDEST PUSH2 0xCB PUSH2 0x181 JUMP JUMPDEST PUSH1 0x40 MLOAD PUSH2 0xD9 SWAP3 SWAP2 SWAP1 PUSH2 0x250 JUMP JUMPDEST PUSH1 0x40 MLOAD DUP1 SWAP2 SUB SWAP1 RETURN JUMPDEST PUSH2 0xEA PUSH2 0x1DF JUMP JUMPDEST PUSH1 0x40 MLOAD PUSH2 0xF8 SWAP3 SWAP2 SWAP1 PUSH2 0x250 JUMP JUMPDEST PUSH1 0x40 MLOAD DUP1 SWAP2 SUB SWAP1 RETURN JUMPDEST PUSH2 0x109 PUSH2 0x216 JUMP JUMPDEST PUSH1 0x40 MLOAD PUSH2 0x116 SWAP2 SWAP1 PUSH2 0x235 JUMP JUMPDEST PUSH1 0x40 MLOAD DUP1 SWAP2 SUB SWAP1 RETURN JUMPDEST PUSH1 0x3 SLOAD DUP2 JUMP JUMPDEST PUSH1 0x0 DUP1 PUSH1 0x1 SLOAD PUSH1 0x0 SLOAD PUSH2 0x138 SWAP2 SWAP1 PUSH2 0x2A8 JUMP JUMPDEST SWAP2 POP PUSH1 0x1 SLOAD PUSH1 0x0 SLOAD PUSH2 0x14A SWAP2 SWAP1 PUSH2 0x302 JUMP JUMPDEST SWAP1 POP SWAP1 SWAP2 JUMP JUMPDEST PUSH1 0x0 DUP1 PUSH1 0x0 PUSH1 0x14 SWAP1 POP PUSH1 0x0 PUSH1 0x1E SWAP1 POP DUP1 DUP3 PUSH2 0x16B SWAP2 SWAP1 PUSH2 0x2A8 JUMP JUMPDEST SWAP4 POP DUP1 DUP3 PUSH2 0x179 SWAP2 SWAP1 PUSH2 0x302 JUMP JUMPDEST SWAP3 POP POP POP SWAP1 SWAP2 JUMP JUMPDEST PUSH1 0x0 DUP1 PUSH1 0x5 PUSH1 0x0 DUP1 DUP3 DUP3 SLOAD PUSH2 0x196 SWAP2 SWAP1 PUSH2 0x302 JUMP JUMPDEST SWAP3 POP POP DUP2 SWAP1 SSTORE POP PUSH1 0x7 PUSH1 0x1 PUSH1 0x0 DUP3 DUP3 SLOAD PUSH2 0x1B0 SWAP2 SWAP1 PUSH2 0x302 JUMP JUMPDEST SWAP3 POP POP DUP2 SWAP1 SSTORE POP PUSH1 0x1 SLOAD PUSH1 0x0 SLOAD PUSH2 0x1C7 SWAP2 SWAP1 PUSH2 0x2A8 JUMP JUMPDEST SWAP2 POP PUSH1 0x1 SLOAD PUSH1 0x0 SLOAD PUSH2 0x1D9 SWAP2 SWAP1 PUSH2 0x302 JUMP JUMPDEST SWAP1 POP SWAP1 SWAP2 JUMP JUMPDEST PUSH1 0x0 DUP1 PUSH1 0x0 PUSH1 0x3 SLOAD PUSH1 0x2 SLOAD PUSH2 0x1F4 SWAP2 SWAP1 PUSH2 0x2A8 JUMP JUMPDEST SWAP1 POP PUSH1 0x0 PUSH1 0x3 SLOAD PUSH1 0x2 SLOAD PUSH2 0x208 SWAP2 SWAP1 PUSH2 0x302 JUMP JUMPDEST SWAP1 POP DUP2 DUP2 SWAP4 POP SWAP4 POP POP POP SWAP1 SWAP2 JUMP JUMPDEST PUSH1 0x2 SLOAD DUP2 JUMP JUMPDEST PUSH1 0x0 DUP2 SWAP1 POP SWAP2 SWAP1 POP JUMP JUMPDEST PUSH2 0x22F DUP2 PUSH2 0x21C JUMP JUMPDEST DUP3 MSTORE POP POP JUMP JUMPDEST PUSH1 0x0 PUSH1 0x20 DUP3 ADD SWAP1 POP PUSH2 0x24A PUSH1 0x0 DUP4 ADD DUP5 PUSH2 0x226 JUMP JUMPDEST SWAP3 SWAP2 POP POP JUMP JUMPDEST PUSH1 0x0 PUSH1 0x40 DUP3 ADD SWAP1 POP PUSH2 0x265 PUSH1 0x0 DUP4 ADD DUP6 PUSH2 0x226 JUMP JUMPDEST PUSH2 0x272 PUSH1 0x20 DUP4 ADD DUP5 PUSH2 0x226 JUMP JUMPDEST SWAP4 SWAP3 POP POP POP JUMP JUMPDEST PUSH32 0x4E487B7100000000000000000000000000000000000000000000000000000000 PUSH1 0x0 MSTORE PUSH1 0x11 PUSH1 0x4 MSTORE PUSH1 0x24 PUSH1 0x0 REVERT JUMPDEST PUSH1 0x0 PUSH2 0x2B3 DUP3 PUSH2 0x21C JUMP JUMPDEST SWAP2 POP PUSH2 0x2BE DUP4 PUSH2 0x21C JUMP JUMPDEST SWAP3 POP DUP2 PUSH32 0xFFFFFFFFFFFFFFFFFFFFFFFFFFFFFFFFFFFFFFFFFFFFFFFFFFFFFFFFFFFFFFFF DIV DUP4 GT DUP3 ISZERO ISZERO AND ISZERO PUSH2 0x2F7 JUMPI PUSH2 0x2F6 PUSH2 0x279 JUMP JUMPDEST JUMPDEST DUP3 DUP3 MUL SWAP1 POP SWAP3 SWAP2 POP POP JUMP JUMPDEST PUSH1 0x0 PUSH2 0x30D DUP3 PUSH2 0x21C JUMP JUMPDEST SWAP2 POP PUSH2 0x318 DUP4 PUSH2 0x21C JUMP JUMPDEST SWAP3 POP DUP3 PUSH32 0xFFFFFFFFFFFFFFFFFFFFFFFFFFFFFFFFFFFFFFFFFFFFFFFFFFFFFFFFFFFFFFFF SUB DUP3 GT ISZERO PUSH2 0x34D JUMPI PUSH2 0x34C PUSH2 0x279 JUMP JUMPDEST JUMPDEST DUP3 DUP3 ADD SWAP1 POP SWAP3 SWAP2 POP POP JUMP INVALID LOG2 PUSH5 0x6970667358 0x22 SLT KECCAK256 AND CALLDATASIZE SAR 0xE8 0xF6 SWAP4 0xE6 CHAINID DUP6 0xAA DUP3 0xE6 0xF8 0xC1 0xA7 0xEA SWAP15 ADDRESS PUSH32 0x1D3E0309870207FD1FFB672C0864736F6C634300080D00330000000000000000 "
				},
				"gasEstimates": {
					"creation": {
						"codeDepositCost": "182000",
						"executionCost": "88650",
						"totalCost": "270650"
					},
					"external": {
						"Num3()": "2517",
						"Num4()": "2407",
						"getResults()": "infinite",
						"getResultsCalcs()": "infinite",
						"getResultsUp()": "infinite",
						"getResultsUpPub()": "infinite"
					}
				},
				"methodIdentifiers": {
					"Num3()": "bbb81e06",
					"Num4()": "11f56ae9",
					"getResults()": "4717f97c",
					"getResultsCalcs()": "3b62394e",
					"getResultsUp()": "7f1a4cd3",
					"getResultsUpPub()": "b9976933"
				}
			},
			"storageLayout": {
				"storage": [
					{
						"astId": 4,
						"contract": "contracts/view_12.sol:View",
						"label": "Num1",
						"offset": 0,
						"slot": "0",
						"type": "t_uint256"
					},
					{
						"astId": 7,
						"contract": "contracts/view_12.sol:View",
						"label": "Num2",
						"offset": 0,
						"slot": "1",
						"type": "t_uint256"
					},
					{
						"astId": 10,
						"contract": "contracts/view_12.sol:View",
						"label": "Num3",
						"offset": 0,
						"slot": "2",
						"type": "t_uint256"
					},
					{
						"astId": 13,
						"contract": "contracts/view_12.sol:View",
						"label": "Num4",
						"offset": 0,
						"slot": "3",
						"type": "t_uint256"
					}
				],
				"types": {
					"t_uint256": {
						"encoding": "inplace",
						"label": "uint256",
						"numberOfBytes": "32"
					}
				}
			},
			"userdoc": {
				"kind": "user",
				"methods": {},
				"version": 1
			}
		}
	}
}