{
	"contracts/teste.sol": {
		"Assert": {
			"abi": [
				{
					"inputs": [
						{
							"internalType": "uint256",
							"name": "num_1",
							"type": "uint256"
						},
						{
							"internalType": "uint256",
							"name": "num_2",
							"type": "uint256"
						}
					],
					"name": "checkOverFlow",
					"outputs": [
						{
							"internalType": "string",
							"name": "",
							"type": "string"
						},
						{
							"internalType": "uint256",
							"name": "",
							"type": "uint256"
						}
					],
					"stateMutability": "pure",
					"type": "function"
				},
				{
					"inputs": [],
					"name": "result",
					"outputs": [
						{
							"internalType": "bool",
							"name": "",
							"type": "bool"
						}
					],
					"stateMutability": "view",
					"type": "function"
				}
			],
			"devdoc": {
				"kind": "dev",
				"methods": {},
				"version": 1
			},
			"evm": {
				"assembly": "    /* \"contracts/teste.sol\":58:397  contract Assert {    ... */\n  mstore(0x40, 0x80)\n  callvalue\n  dup1\n  iszero\n  tag_1\n  jumpi\n  0x00\n  dup1\n  revert\ntag_1:\n  pop\n  dataSize(sub_0)\n  dup1\n  dataOffset(sub_0)\n  0x00\n  codecopy\n  0x00\n  return\nstop\n\nsub_0: assembly {\n        /* \"contracts/teste.sol\":58:397  contract Assert {    ... */\n      mstore(0x40, 0x80)\n      callvalue\n      dup1\n      iszero\n      tag_1\n      jumpi\n      0x00\n      dup1\n      revert\n    tag_1:\n      pop\n      jumpi(tag_2, lt(calldatasize, 0x04))\n      shr(0xe0, calldataload(0x00))\n      dup1\n      0x0bfb0686\n      eq\n      tag_3\n      jumpi\n      dup1\n      0x65372147\n      eq\n      tag_4\n      jumpi\n    tag_2:\n      0x00\n      dup1\n      revert\n        /* \"contracts/teste.sol\":110:395  function checkOverFlow(uint256 num_1, uint256 num_2)public pure returns(string memory, uint256) {... */\n    tag_3:\n      tag_5\n      0x04\n      dup1\n      calldatasize\n      sub\n      dup2\n      add\n      swap1\n      tag_6\n      swap2\n      swap1\n      tag_7\n      jump\t// in\n    tag_6:\n      tag_8\n      jump\t// in\n    tag_5:\n      mload(0x40)\n      tag_9\n      swap3\n      swap2\n      swap1\n      tag_10\n      jump\t// in\n    tag_9:\n      mload(0x40)\n      dup1\n      swap2\n      sub\n      swap1\n      return\n        /* \"contracts/teste.sol\":85:103  bool public result */\n    tag_4:\n      tag_11\n      tag_12\n      jump\t// in\n    tag_11:\n      mload(0x40)\n      tag_13\n      swap2\n      swap1\n      tag_14\n      jump\t// in\n    tag_13:\n      mload(0x40)\n      dup1\n      swap2\n      sub\n      swap1\n      return\n        /* \"contracts/teste.sol\":110:395  function checkOverFlow(uint256 num_1, uint256 num_2)public pure returns(string memory, uint256) {... */\n    tag_8:\n        /* \"contracts/teste.sol\":182:195  string memory */\n      0x60\n        /* \"contracts/teste.sol\":197:204  uint256 */\n      0x00\n        /* \"contracts/teste.sol\":225:236  uint256 sum */\n      dup1\n        /* \"contracts/teste.sol\":247:252  num_2 */\n      dup4\n        /* \"contracts/teste.sol\":239:244  num_1 */\n      dup6\n        /* \"contracts/teste.sol\":239:252  num_1 + num_2 */\n      tag_16\n      swap2\n      swap1\n      tag_17\n      jump\t// in\n    tag_16:\n        /* \"contracts/teste.sol\":225:252  uint256 sum = num_1 + num_2 */\n      swap1\n      pop\n        /* \"contracts/teste.sol\":272:273  0 */\n      0x00\n        /* \"contracts/teste.sol\":266:269  sum */\n      dup2\n        /* \"contracts/teste.sol\":266:273  sum < 0 */\n      lt\n        /* \"contracts/teste.sol\":266:286  sum < 0 || sum > 255 */\n      dup1\n      tag_18\n      jumpi\n      pop\n        /* \"contracts/teste.sol\":283:286  255 */\n      0xff\n        /* \"contracts/teste.sol\":277:280  sum */\n      dup2\n        /* \"contracts/teste.sol\":277:286  sum > 255 */\n      gt\n        /* \"contracts/teste.sol\":266:286  sum < 0 || sum > 255 */\n    tag_18:\n        /* \"contracts/teste.sol\":263:388  if(sum < 0 || sum > 255)... */\n      iszero\n      tag_19\n      jumpi\n        /* \"contracts/teste.sol\":300:325  revert(\"It's OverFlow !\") */\n      mload(0x40)\n      0x08c379a000000000000000000000000000000000000000000000000000000000\n      dup2\n      mstore\n      0x04\n      add\n      tag_20\n      swap1\n      tag_21\n      jump\t// in\n    tag_20:\n      mload(0x40)\n      dup1\n      swap2\n      sub\n      swap1\n      revert\n        /* \"contracts/teste.sol\":263:388  if(sum < 0 || sum > 255)... */\n    tag_19:\n        /* \"contracts/teste.sol\":383:386  sum */\n      dup1\n        /* \"contracts/teste.sol\":354:388  return(\"It's NOT OverFlow. \",sum ) */\n      mload(0x40)\n      dup1\n      0x40\n      add\n      0x40\n      mstore\n      dup1\n      0x13\n      dup2\n      mstore\n      0x20\n      add\n      0x49742773204e4f54204f766572466c6f772e2000000000000000000000000000\n      dup2\n      mstore\n      pop\n      swap1\n      swap3\n      pop\n      swap3\n      pop\n      pop\n        /* \"contracts/teste.sol\":110:395  function checkOverFlow(uint256 num_1, uint256 num_2)public pure returns(string memory, uint256) {... */\n      swap3\n      pop\n      swap3\n      swap1\n      pop\n      jump\t// out\n        /* \"contracts/teste.sol\":85:103  bool public result */\n    tag_12:\n      0x00\n      dup1\n      sload\n      swap1\n      0x0100\n      exp\n      swap1\n      div\n      0xff\n      and\n      dup2\n      jump\t// out\n        /* \"#utility.yul\":88:205   */\n    tag_24:\n        /* \"#utility.yul\":197:198   */\n      0x00\n        /* \"#utility.yul\":194:195   */\n      dup1\n        /* \"#utility.yul\":187:199   */\n      revert\n        /* \"#utility.yul\":334:411   */\n    tag_26:\n        /* \"#utility.yul\":371:378   */\n      0x00\n        /* \"#utility.yul\":400:405   */\n      dup2\n        /* \"#utility.yul\":389:405   */\n      swap1\n      pop\n        /* \"#utility.yul\":334:411   */\n      swap2\n      swap1\n      pop\n      jump\t// out\n        /* \"#utility.yul\":417:539   */\n    tag_27:\n        /* \"#utility.yul\":490:514   */\n      tag_46\n        /* \"#utility.yul\":508:513   */\n      dup2\n        /* \"#utility.yul\":490:514   */\n      tag_26\n      jump\t// in\n    tag_46:\n        /* \"#utility.yul\":483:488   */\n      dup2\n        /* \"#utility.yul\":480:515   */\n      eq\n        /* \"#utility.yul\":470:533   */\n      tag_47\n      jumpi\n        /* \"#utility.yul\":529:530   */\n      0x00\n        /* \"#utility.yul\":526:527   */\n      dup1\n        /* \"#utility.yul\":519:531   */\n      revert\n        /* \"#utility.yul\":470:533   */\n    tag_47:\n        /* \"#utility.yul\":417:539   */\n      pop\n      jump\t// out\n        /* \"#utility.yul\":545:684   */\n    tag_28:\n        /* \"#utility.yul\":591:596   */\n      0x00\n        /* \"#utility.yul\":629:635   */\n      dup2\n        /* \"#utility.yul\":616:636   */\n      calldataload\n        /* \"#utility.yul\":607:636   */\n      swap1\n      pop\n        /* \"#utility.yul\":645:678   */\n      tag_49\n        /* \"#utility.yul\":672:677   */\n      dup2\n        /* \"#utility.yul\":645:678   */\n      tag_27\n      jump\t// in\n    tag_49:\n        /* \"#utility.yul\":545:684   */\n      swap3\n      swap2\n      pop\n      pop\n      jump\t// out\n        /* \"#utility.yul\":690:1164   */\n    tag_7:\n        /* \"#utility.yul\":758:764   */\n      0x00\n        /* \"#utility.yul\":766:772   */\n      dup1\n        /* \"#utility.yul\":815:817   */\n      0x40\n        /* \"#utility.yul\":803:812   */\n      dup4\n        /* \"#utility.yul\":794:801   */\n      dup6\n        /* \"#utility.yul\":790:813   */\n      sub\n        /* \"#utility.yul\":786:818   */\n      slt\n        /* \"#utility.yul\":783:902   */\n      iszero\n      tag_51\n      jumpi\n        /* \"#utility.yul\":821:900   */\n      tag_52\n      tag_24\n      jump\t// in\n    tag_52:\n        /* \"#utility.yul\":783:902   */\n    tag_51:\n        /* \"#utility.yul\":941:942   */\n      0x00\n        /* \"#utility.yul\":966:1019   */\n      tag_53\n        /* \"#utility.yul\":1011:1018   */\n      dup6\n        /* \"#utility.yul\":1002:1008   */\n      dup3\n        /* \"#utility.yul\":991:1000   */\n      dup7\n        /* \"#utility.yul\":987:1009   */\n      add\n        /* \"#utility.yul\":966:1019   */\n      tag_28\n      jump\t// in\n    tag_53:\n        /* \"#utility.yul\":956:1019   */\n      swap3\n      pop\n        /* \"#utility.yul\":912:1029   */\n      pop\n        /* \"#utility.yul\":1068:1070   */\n      0x20\n        /* \"#utility.yul\":1094:1147   */\n      tag_54\n        /* \"#utility.yul\":1139:1146   */\n      dup6\n        /* \"#utility.yul\":1130:1136   */\n      dup3\n        /* \"#utility.yul\":1119:1128   */\n      dup7\n        /* \"#utility.yul\":1115:1137   */\n      add\n        /* \"#utility.yul\":1094:1147   */\n      tag_28\n      jump\t// in\n    tag_54:\n        /* \"#utility.yul\":1084:1147   */\n      swap2\n      pop\n        /* \"#utility.yul\":1039:1157   */\n      pop\n        /* \"#utility.yul\":690:1164   */\n      swap3\n      pop\n      swap3\n      swap1\n      pop\n      jump\t// out\n        /* \"#utility.yul\":1170:1269   */\n    tag_29:\n        /* \"#utility.yul\":1222:1228   */\n      0x00\n        /* \"#utility.yul\":1256:1261   */\n      dup2\n        /* \"#utility.yul\":1250:1262   */\n      mload\n        /* \"#utility.yul\":1240:1262   */\n      swap1\n      pop\n        /* \"#utility.yul\":1170:1269   */\n      swap2\n      swap1\n      pop\n      jump\t// out\n        /* \"#utility.yul\":1275:1444   */\n    tag_30:\n        /* \"#utility.yul\":1359:1370   */\n      0x00\n        /* \"#utility.yul\":1393:1399   */\n      dup3\n        /* \"#utility.yul\":1388:1391   */\n      dup3\n        /* \"#utility.yul\":1381:1400   */\n      mstore\n        /* \"#utility.yul\":1433:1437   */\n      0x20\n        /* \"#utility.yul\":1428:1431   */\n      dup3\n        /* \"#utility.yul\":1424:1438   */\n      add\n        /* \"#utility.yul\":1409:1438   */\n      swap1\n      pop\n        /* \"#utility.yul\":1275:1444   */\n      swap3\n      swap2\n      pop\n      pop\n      jump\t// out\n        /* \"#utility.yul\":1450:1757   */\n    tag_31:\n        /* \"#utility.yul\":1518:1519   */\n      0x00\n        /* \"#utility.yul\":1528:1641   */\n    tag_58:\n        /* \"#utility.yul\":1542:1548   */\n      dup4\n        /* \"#utility.yul\":1539:1540   */\n      dup2\n        /* \"#utility.yul\":1536:1549   */\n      lt\n        /* \"#utility.yul\":1528:1641   */\n      iszero\n      tag_60\n      jumpi\n        /* \"#utility.yul\":1627:1628   */\n      dup1\n        /* \"#utility.yul\":1622:1625   */\n      dup3\n        /* \"#utility.yul\":1618:1629   */\n      add\n        /* \"#utility.yul\":1612:1630   */\n      mload\n        /* \"#utility.yul\":1608:1609   */\n      dup2\n        /* \"#utility.yul\":1603:1606   */\n      dup5\n        /* \"#utility.yul\":1599:1610   */\n      add\n        /* \"#utility.yul\":1592:1631   */\n      mstore\n        /* \"#utility.yul\":1564:1566   */\n      0x20\n        /* \"#utility.yul\":1561:1562   */\n      dup2\n        /* \"#utility.yul\":1557:1567   */\n      add\n        /* \"#utility.yul\":1552:1567   */\n      swap1\n      pop\n        /* \"#utility.yul\":1528:1641   */\n      jump(tag_58)\n    tag_60:\n        /* \"#utility.yul\":1659:1665   */\n      dup4\n        /* \"#utility.yul\":1656:1657   */\n      dup2\n        /* \"#utility.yul\":1653:1666   */\n      gt\n        /* \"#utility.yul\":1650:1751   */\n      iszero\n      tag_61\n      jumpi\n        /* \"#utility.yul\":1739:1740   */\n      0x00\n        /* \"#utility.yul\":1730:1736   */\n      dup5\n        /* \"#utility.yul\":1725:1728   */\n      dup5\n        /* \"#utility.yul\":1721:1737   */\n      add\n        /* \"#utility.yul\":1714:1741   */\n      mstore\n        /* \"#utility.yul\":1650:1751   */\n    tag_61:\n        /* \"#utility.yul\":1499:1757   */\n      pop\n        /* \"#utility.yul\":1450:1757   */\n      pop\n      pop\n      pop\n      jump\t// out\n        /* \"#utility.yul\":1763:1865   */\n    tag_32:\n        /* \"#utility.yul\":1804:1810   */\n      0x00\n        /* \"#utility.yul\":1855:1857   */\n      0x1f\n        /* \"#utility.yul\":1851:1858   */\n      not\n        /* \"#utility.yul\":1846:1848   */\n      0x1f\n        /* \"#utility.yul\":1839:1844   */\n      dup4\n        /* \"#utility.yul\":1835:1849   */\n      add\n        /* \"#utility.yul\":1831:1859   */\n      and\n        /* \"#utility.yul\":1821:1859   */\n      swap1\n      pop\n        /* \"#utility.yul\":1763:1865   */\n      swap2\n      swap1\n      pop\n      jump\t// out\n        /* \"#utility.yul\":1871:2235   */\n    tag_33:\n        /* \"#utility.yul\":1959:1962   */\n      0x00\n        /* \"#utility.yul\":1987:2026   */\n      tag_64\n        /* \"#utility.yul\":2020:2025   */\n      dup3\n        /* \"#utility.yul\":1987:2026   */\n      tag_29\n      jump\t// in\n    tag_64:\n        /* \"#utility.yul\":2042:2113   */\n      tag_65\n        /* \"#utility.yul\":2106:2112   */\n      dup2\n        /* \"#utility.yul\":2101:2104   */\n      dup6\n        /* \"#utility.yul\":2042:2113   */\n      tag_30\n      jump\t// in\n    tag_65:\n        /* \"#utility.yul\":2035:2113   */\n      swap4\n      pop\n        /* \"#utility.yul\":2122:2174   */\n      tag_66\n        /* \"#utility.yul\":2167:2173   */\n      dup2\n        /* \"#utility.yul\":2162:2165   */\n      dup6\n        /* \"#utility.yul\":2155:2159   */\n      0x20\n        /* \"#utility.yul\":2148:2153   */\n      dup7\n        /* \"#utility.yul\":2144:2160   */\n      add\n        /* \"#utility.yul\":2122:2174   */\n      tag_31\n      jump\t// in\n    tag_66:\n        /* \"#utility.yul\":2199:2228   */\n      tag_67\n        /* \"#utility.yul\":2221:2227   */\n      dup2\n        /* \"#utility.yul\":2199:2228   */\n      tag_32\n      jump\t// in\n    tag_67:\n        /* \"#utility.yul\":2194:2197   */\n      dup5\n        /* \"#utility.yul\":2190:2229   */\n      add\n        /* \"#utility.yul\":2183:2229   */\n      swap2\n      pop\n        /* \"#utility.yul\":1963:2235   */\n      pop\n        /* \"#utility.yul\":1871:2235   */\n      swap3\n      swap2\n      pop\n      pop\n      jump\t// out\n        /* \"#utility.yul\":2241:2359   */\n    tag_34:\n        /* \"#utility.yul\":2328:2352   */\n      tag_69\n        /* \"#utility.yul\":2346:2351   */\n      dup2\n        /* \"#utility.yul\":2328:2352   */\n      tag_26\n      jump\t// in\n    tag_69:\n        /* \"#utility.yul\":2323:2326   */\n      dup3\n        /* \"#utility.yul\":2316:2353   */\n      mstore\n        /* \"#utility.yul\":2241:2359   */\n      pop\n      pop\n      jump\t// out\n        /* \"#utility.yul\":2365:2788   */\n    tag_10:\n        /* \"#utility.yul\":2506:2510   */\n      0x00\n        /* \"#utility.yul\":2544:2546   */\n      0x40\n        /* \"#utility.yul\":2533:2542   */\n      dup3\n        /* \"#utility.yul\":2529:2547   */\n      add\n        /* \"#utility.yul\":2521:2547   */\n      swap1\n      pop\n        /* \"#utility.yul\":2593:2602   */\n      dup2\n        /* \"#utility.yul\":2587:2591   */\n      dup2\n        /* \"#utility.yul\":2583:2603   */\n      sub\n        /* \"#utility.yul\":2579:2580   */\n      0x00\n        /* \"#utility.yul\":2568:2577   */\n      dup4\n        /* \"#utility.yul\":2564:2581   */\n      add\n        /* \"#utility.yul\":2557:2604   */\n      mstore\n        /* \"#utility.yul\":2621:2699   */\n      tag_71\n        /* \"#utility.yul\":2694:2698   */\n      dup2\n        /* \"#utility.yul\":2685:2691   */\n      dup6\n        /* \"#utility.yul\":2621:2699   */\n      tag_33\n      jump\t// in\n    tag_71:\n        /* \"#utility.yul\":2613:2699   */\n      swap1\n      pop\n        /* \"#utility.yul\":2709:2781   */\n      tag_72\n        /* \"#utility.yul\":2777:2779   */\n      0x20\n        /* \"#utility.yul\":2766:2775   */\n      dup4\n        /* \"#utility.yul\":2762:2780   */\n      add\n        /* \"#utility.yul\":2753:2759   */\n      dup5\n        /* \"#utility.yul\":2709:2781   */\n      tag_34\n      jump\t// in\n    tag_72:\n        /* \"#utility.yul\":2365:2788   */\n      swap4\n      swap3\n      pop\n      pop\n      pop\n      jump\t// out\n        /* \"#utility.yul\":2794:2884   */\n    tag_35:\n        /* \"#utility.yul\":2828:2835   */\n      0x00\n        /* \"#utility.yul\":2871:2876   */\n      dup2\n        /* \"#utility.yul\":2864:2877   */\n      iszero\n        /* \"#utility.yul\":2857:2878   */\n      iszero\n        /* \"#utility.yul\":2846:2878   */\n      swap1\n      pop\n        /* \"#utility.yul\":2794:2884   */\n      swap2\n      swap1\n      pop\n      jump\t// out\n        /* \"#utility.yul\":2890:2999   */\n    tag_36:\n        /* \"#utility.yul\":2971:2992   */\n      tag_75\n        /* \"#utility.yul\":2986:2991   */\n      dup2\n        /* \"#utility.yul\":2971:2992   */\n      tag_35\n      jump\t// in\n    tag_75:\n        /* \"#utility.yul\":2966:2969   */\n      dup3\n        /* \"#utility.yul\":2959:2993   */\n      mstore\n        /* \"#utility.yul\":2890:2999   */\n      pop\n      pop\n      jump\t// out\n        /* \"#utility.yul\":3005:3215   */\n    tag_14:\n        /* \"#utility.yul\":3092:3096   */\n      0x00\n        /* \"#utility.yul\":3130:3132   */\n      0x20\n        /* \"#utility.yul\":3119:3128   */\n      dup3\n        /* \"#utility.yul\":3115:3133   */\n      add\n        /* \"#utility.yul\":3107:3133   */\n      swap1\n      pop\n        /* \"#utility.yul\":3143:3208   */\n      tag_77\n        /* \"#utility.yul\":3205:3206   */\n      0x00\n        /* \"#utility.yul\":3194:3203   */\n      dup4\n        /* \"#utility.yul\":3190:3207   */\n      add\n        /* \"#utility.yul\":3181:3187   */\n      dup5\n        /* \"#utility.yul\":3143:3208   */\n      tag_36\n      jump\t// in\n    tag_77:\n        /* \"#utility.yul\":3005:3215   */\n      swap3\n      swap2\n      pop\n      pop\n      jump\t// out\n        /* \"#utility.yul\":3221:3401   */\n    tag_37:\n        /* \"#utility.yul\":3269:3346   */\n      0x4e487b7100000000000000000000000000000000000000000000000000000000\n        /* \"#utility.yul\":3266:3267   */\n      0x00\n        /* \"#utility.yul\":3259:3347   */\n      mstore\n        /* \"#utility.yul\":3366:3370   */\n      0x11\n        /* \"#utility.yul\":3363:3364   */\n      0x04\n        /* \"#utility.yul\":3356:3371   */\n      mstore\n        /* \"#utility.yul\":3390:3394   */\n      0x24\n        /* \"#utility.yul\":3387:3388   */\n      0x00\n        /* \"#utility.yul\":3380:3395   */\n      revert\n        /* \"#utility.yul\":3407:3712   */\n    tag_17:\n        /* \"#utility.yul\":3447:3450   */\n      0x00\n        /* \"#utility.yul\":3466:3486   */\n      tag_80\n        /* \"#utility.yul\":3484:3485   */\n      dup3\n        /* \"#utility.yul\":3466:3486   */\n      tag_26\n      jump\t// in\n    tag_80:\n        /* \"#utility.yul\":3461:3486   */\n      swap2\n      pop\n        /* \"#utility.yul\":3500:3520   */\n      tag_81\n        /* \"#utility.yul\":3518:3519   */\n      dup4\n        /* \"#utility.yul\":3500:3520   */\n      tag_26\n      jump\t// in\n    tag_81:\n        /* \"#utility.yul\":3495:3520   */\n      swap3\n      pop\n        /* \"#utility.yul\":3654:3655   */\n      dup3\n        /* \"#utility.yul\":3586:3652   */\n      0xffffffffffffffffffffffffffffffffffffffffffffffffffffffffffffffff\n        /* \"#utility.yul\":3582:3656   */\n      sub\n        /* \"#utility.yul\":3579:3580   */\n      dup3\n        /* \"#utility.yul\":3576:3657   */\n      gt\n        /* \"#utility.yul\":3573:3680   */\n      iszero\n      tag_82\n      jumpi\n        /* \"#utility.yul\":3660:3678   */\n      tag_83\n      tag_37\n      jump\t// in\n    tag_83:\n        /* \"#utility.yul\":3573:3680   */\n    tag_82:\n        /* \"#utility.yul\":3704:3705   */\n      dup3\n        /* \"#utility.yul\":3701:3702   */\n      dup3\n        /* \"#utility.yul\":3697:3706   */\n      add\n        /* \"#utility.yul\":3690:3706   */\n      swap1\n      pop\n        /* \"#utility.yul\":3407:3712   */\n      swap3\n      swap2\n      pop\n      pop\n      jump\t// out\n        /* \"#utility.yul\":3718:3883   */\n    tag_38:\n        /* \"#utility.yul\":3858:3875   */\n      0x49742773204f766572466c6f7720210000000000000000000000000000000000\n        /* \"#utility.yul\":3854:3855   */\n      0x00\n        /* \"#utility.yul\":3846:3852   */\n      dup3\n        /* \"#utility.yul\":3842:3856   */\n      add\n        /* \"#utility.yul\":3835:3876   */\n      mstore\n        /* \"#utility.yul\":3718:3883   */\n      pop\n      jump\t// out\n        /* \"#utility.yul\":3889:4255   */\n    tag_39:\n        /* \"#utility.yul\":4031:4034   */\n      0x00\n        /* \"#utility.yul\":4052:4119   */\n      tag_86\n        /* \"#utility.yul\":4116:4118   */\n      0x0f\n        /* \"#utility.yul\":4111:4114   */\n      dup4\n        /* \"#utility.yul\":4052:4119   */\n      tag_30\n      jump\t// in\n    tag_86:\n        /* \"#utility.yul\":4045:4119   */\n      swap2\n      pop\n        /* \"#utility.yul\":4128:4221   */\n      tag_87\n        /* \"#utility.yul\":4217:4220   */\n      dup3\n        /* \"#utility.yul\":4128:4221   */\n      tag_38\n      jump\t// in\n    tag_87:\n        /* \"#utility.yul\":4246:4248   */\n      0x20\n        /* \"#utility.yul\":4241:4244   */\n      dup3\n        /* \"#utility.yul\":4237:4249   */\n      add\n        /* \"#utility.yul\":4230:4249   */\n      swap1\n      pop\n        /* \"#utility.yul\":3889:4255   */\n      swap2\n      swap1\n      pop\n      jump\t// out\n        /* \"#utility.yul\":4261:4680   */\n    tag_21:\n        /* \"#utility.yul\":4427:4431   */\n      0x00\n        /* \"#utility.yul\":4465:4467   */\n      0x20\n        /* \"#utility.yul\":4454:4463   */\n      dup3\n        /* \"#utility.yul\":4450:4468   */\n      add\n        /* \"#utility.yul\":4442:4468   */\n      swap1\n      pop\n        /* \"#utility.yul\":4514:4523   */\n      dup2\n        /* \"#utility.yul\":4508:4512   */\n      dup2\n        /* \"#utility.yul\":4504:4524   */\n      sub\n        /* \"#utility.yul\":4500:4501   */\n      0x00\n        /* \"#utility.yul\":4489:4498   */\n      dup4\n        /* \"#utility.yul\":4485:4502   */\n      add\n        /* \"#utility.yul\":4478:4525   */\n      mstore\n        /* \"#utility.yul\":4542:4673   */\n      tag_89\n        /* \"#utility.yul\":4668:4672   */\n      dup2\n        /* \"#utility.yul\":4542:4673   */\n      tag_39\n      jump\t// in\n    tag_89:\n        /* \"#utility.yul\":4534:4673   */\n      swap1\n      pop\n        /* \"#utility.yul\":4261:4680   */\n      swap2\n      swap1\n      pop\n      jump\t// out\n\n    auxdata: 0xa2646970667358221220acce593061fced5c89b4ec01ba05ec37defa60eb6fb11aae020be4d6db7363f664736f6c634300080d0033\n}\n",
				"bytecode": {
					"linkReferences": {},
					"object": "608060405234801561001057600080fd5b506103f1806100206000396000f3fe608060405234801561001057600080fd5b50600436106100365760003560e01c80630bfb06861461003b578063653721471461006c575b600080fd5b6100556004803603810190610050919061017c565b61008a565b604051610063929190610264565b60405180910390f35b610074610130565b60405161008191906102af565b60405180910390f35b6060600080838561009b91906102f9565b905060008110806100ac575060ff81115b156100ec576040517f08c379a00000000000000000000000000000000000000000000000000000000081526004016100e39061039b565b60405180910390fd5b806040518060400160405280601381526020017f49742773204e4f54204f766572466c6f772e20000000000000000000000000008152509092509250509250929050565b60008054906101000a900460ff1681565b600080fd5b6000819050919050565b61015981610146565b811461016457600080fd5b50565b60008135905061017681610150565b92915050565b6000806040838503121561019357610192610141565b5b60006101a185828601610167565b92505060206101b285828601610167565b9150509250929050565b600081519050919050565b600082825260208201905092915050565b60005b838110156101f65780820151818401526020810190506101db565b83811115610205576000848401525b50505050565b6000601f19601f8301169050919050565b6000610227826101bc565b61023181856101c7565b93506102418185602086016101d8565b61024a8161020b565b840191505092915050565b61025e81610146565b82525050565b6000604082019050818103600083015261027e818561021c565b905061028d6020830184610255565b9392505050565b60008115159050919050565b6102a981610294565b82525050565b60006020820190506102c460008301846102a0565b92915050565b7f4e487b7100000000000000000000000000000000000000000000000000000000600052601160045260246000fd5b600061030482610146565b915061030f83610146565b9250827fffffffffffffffffffffffffffffffffffffffffffffffffffffffffffffffff03821115610344576103436102ca565b5b828201905092915050565b7f49742773204f766572466c6f7720210000000000000000000000000000000000600082015250565b6000610385600f836101c7565b91506103908261034f565b602082019050919050565b600060208201905081810360008301526103b481610378565b905091905056fea2646970667358221220acce593061fced5c89b4ec01ba05ec37defa60eb6fb11aae020be4d6db7363f664736f6c634300080d0033",
					"opcodes": "PUSH1 0x80 PUSH1 0x40 MSTORE CALLVALUE DUP1 ISZERO PUSH2 0x10 JUMPI PUSH1 0x0 DUP1 REVERT JUMPDEST POP PUSH2 0x3F1 DUP1 PUSH2 0x20 PUSH1 0x0 CODECOPY PUSH1 0x0 RETURN INVALID PUSH1 0x80 PUSH1 0x40 MSTORE CALLVALUE DUP1 ISZERO PUSH2 0x10 JUMPI PUSH1 0x0 DUP1 REVERT JUMPDEST POP PUSH1 0x4 CALLDATASIZE LT PUSH2 0x36 JUMPI PUSH1 0x0 CALLDATALOAD PUSH1 0xE0 SHR DUP1 PUSH4 0xBFB0686 EQ PUSH2 0x3B JUMPI DUP1 PUSH4 0x65372147 EQ PUSH2 0x6C JUMPI JUMPDEST PUSH1 0x0 DUP1 REVERT JUMPDEST PUSH2 0x55 PUSH1 0x4 DUP1 CALLDATASIZE SUB DUP2 ADD SWAP1 PUSH2 0x50 SWAP2 SWAP1 PUSH2 0x17C JUMP JUMPDEST PUSH2 0x8A JUMP JUMPDEST PUSH1 0x40 MLOAD PUSH2 0x63 SWAP3 SWAP2 SWAP1 PUSH2 0x264 JUMP JUMPDEST PUSH1 0x40 MLOAD DUP1 SWAP2 SUB SWAP1 RETURN JUMPDEST PUSH2 0x74 PUSH2 0x130 JUMP JUMPDEST PUSH1 0x40 MLOAD PUSH2 0x81 SWAP2 SWAP1 PUSH2 0x2AF JUMP JUMPDEST PUSH1 0x40 MLOAD DUP1 SWAP2 SUB SWAP1 RETURN JUMPDEST PUSH1 0x60 PUSH1 0x0 DUP1 DUP4 DUP6 PUSH2 0x9B SWAP2 SWAP1 PUSH2 0x2F9 JUMP JUMPDEST SWAP1 POP PUSH1 0x0 DUP2 LT DUP1 PUSH2 0xAC JUMPI POP PUSH1 0xFF DUP2 GT JUMPDEST ISZERO PUSH2 0xEC JUMPI PUSH1 0x40 MLOAD PUSH32 0x8C379A000000000000000000000000000000000000000000000000000000000 DUP2 MSTORE PUSH1 0x4 ADD PUSH2 0xE3 SWAP1 PUSH2 0x39B JUMP JUMPDEST PUSH1 0x40 MLOAD DUP1 SWAP2 SUB SWAP1 REVERT JUMPDEST DUP1 PUSH1 0x40 MLOAD DUP1 PUSH1 0x40 ADD PUSH1 0x40 MSTORE DUP1 PUSH1 0x13 DUP2 MSTORE PUSH1 0x20 ADD PUSH32 0x49742773204E4F54204F766572466C6F772E2000000000000000000000000000 DUP2 MSTORE POP SWAP1 SWAP3 POP SWAP3 POP POP SWAP3 POP SWAP3 SWAP1 POP JUMP JUMPDEST PUSH1 0x0 DUP1 SLOAD SWAP1 PUSH2 0x100 EXP SWAP1 DIV PUSH1 0xFF AND DUP2 JUMP JUMPDEST PUSH1 0x0 DUP1 REVERT JUMPDEST PUSH1 0x0 DUP2 SWAP1 POP SWAP2 SWAP1 POP JUMP JUMPDEST PUSH2 0x159 DUP2 PUSH2 0x146 JUMP JUMPDEST DUP2 EQ PUSH2 0x164 JUMPI PUSH1 0x0 DUP1 REVERT JUMPDEST POP JUMP JUMPDEST PUSH1 0x0 DUP2 CALLDATALOAD SWAP1 POP PUSH2 0x176 DUP2 PUSH2 0x150 JUMP JUMPDEST SWAP3 SWAP2 POP POP JUMP JUMPDEST PUSH1 0x0 DUP1 PUSH1 0x40 DUP4 DUP6 SUB SLT ISZERO PUSH2 0x193 JUMPI PUSH2 0x192 PUSH2 0x141 JUMP JUMPDEST JUMPDEST PUSH1 0x0 PUSH2 0x1A1 DUP6 DUP3 DUP7 ADD PUSH2 0x167 JUMP JUMPDEST SWAP3 POP POP PUSH1 0x20 PUSH2 0x1B2 DUP6 DUP3 DUP7 ADD PUSH2 0x167 JUMP JUMPDEST SWAP2 POP POP SWAP3 POP SWAP3 SWAP1 POP JUMP JUMPDEST PUSH1 0x0 DUP2 MLOAD SWAP1 POP SWAP2 SWAP1 POP JUMP JUMPDEST PUSH1 0x0 DUP3 DUP3 MSTORE PUSH1 0x20 DUP3 ADD SWAP1 POP SWAP3 SWAP2 POP POP JUMP JUMPDEST PUSH1 0x0 JUMPDEST DUP4 DUP2 LT ISZERO PUSH2 0x1F6 JUMPI DUP1 DUP3 ADD MLOAD DUP2 DUP5 ADD MSTORE PUSH1 0x20 DUP2 ADD SWAP1 POP PUSH2 0x1DB JUMP JUMPDEST DUP4 DUP2 GT ISZERO PUSH2 0x205 JUMPI PUSH1 0x0 DUP5 DUP5 ADD MSTORE JUMPDEST POP POP POP POP JUMP JUMPDEST PUSH1 0x0 PUSH1 0x1F NOT PUSH1 0x1F DUP4 ADD AND SWAP1 POP SWAP2 SWAP1 POP JUMP JUMPDEST PUSH1 0x0 PUSH2 0x227 DUP3 PUSH2 0x1BC JUMP JUMPDEST PUSH2 0x231 DUP2 DUP6 PUSH2 0x1C7 JUMP JUMPDEST SWAP4 POP PUSH2 0x241 DUP2 DUP6 PUSH1 0x20 DUP7 ADD PUSH2 0x1D8 JUMP JUMPDEST PUSH2 0x24A DUP2 PUSH2 0x20B JUMP JUMPDEST DUP5 ADD SWAP2 POP POP SWAP3 SWAP2 POP POP JUMP JUMPDEST PUSH2 0x25E DUP2 PUSH2 0x146 JUMP JUMPDEST DUP3 MSTORE POP POP JUMP JUMPDEST PUSH1 0x0 PUSH1 0x40 DUP3 ADD SWAP1 POP DUP2 DUP2 SUB PUSH1 0x0 DUP4 ADD MSTORE PUSH2 0x27E DUP2 DUP6 PUSH2 0x21C JUMP JUMPDEST SWAP1 POP PUSH2 0x28D PUSH1 0x20 DUP4 ADD DUP5 PUSH2 0x255 JUMP JUMPDEST SWAP4 SWAP3 POP POP POP JUMP JUMPDEST PUSH1 0x0 DUP2 ISZERO ISZERO SWAP1 POP SWAP2 SWAP1 POP JUMP JUMPDEST PUSH2 0x2A9 DUP2 PUSH2 0x294 JUMP JUMPDEST DUP3 MSTORE POP POP JUMP JUMPDEST PUSH1 0x0 PUSH1 0x20 DUP3 ADD SWAP1 POP PUSH2 0x2C4 PUSH1 0x0 DUP4 ADD DUP5 PUSH2 0x2A0 JUMP JUMPDEST SWAP3 SWAP2 POP POP JUMP JUMPDEST PUSH32 0x4E487B7100000000000000000000000000000000000000000000000000000000 PUSH1 0x0 MSTORE PUSH1 0x11 PUSH1 0x4 MSTORE PUSH1 0x24 PUSH1 0x0 REVERT JUMPDEST PUSH1 0x0 PUSH2 0x304 DUP3 PUSH2 0x146 JUMP JUMPDEST SWAP2 POP PUSH2 0x30F DUP4 PUSH2 0x146 JUMP JUMPDEST SWAP3 POP DUP3 PUSH32 0xFFFFFFFFFFFFFFFFFFFFFFFFFFFFFFFFFFFFFFFFFFFFFFFFFFFFFFFFFFFFFFFF SUB DUP3 GT ISZERO PUSH2 0x344 JUMPI PUSH2 0x343 PUSH2 0x2CA JUMP JUMPDEST JUMPDEST DUP3 DUP3 ADD SWAP1 POP SWAP3 SWAP2 POP POP JUMP JUMPDEST PUSH32 0x49742773204F766572466C6F7720210000000000000000000000000000000000 PUSH1 0x0 DUP3 ADD MSTORE POP JUMP JUMPDEST PUSH1 0x0 PUSH2 0x385 PUSH1 0xF DUP4 PUSH2 0x1C7 JUMP JUMPDEST SWAP2 POP PUSH2 0x390 DUP3 PUSH2 0x34F JUMP JUMPDEST PUSH1 0x20 DUP3 ADD SWAP1 POP SWAP2 SWAP1 POP JUMP JUMPDEST PUSH1 0x0 PUSH1 0x20 DUP3 ADD SWAP1 POP DUP2 DUP2 SUB PUSH1 0x0 DUP4 ADD MSTORE PUSH2 0x3B4 DUP2 PUSH2 0x378 JUMP JUMPDEST SWAP1 POP SWAP2 SWAP1 POP JUMP INVALID LOG2 PUSH5 0x6970667358 0x22 SLT KECCAK256 0xAC 0xCE MSIZE ADDRESS PUSH2 0xFCED 0x5C DUP10 0xB4 0xEC ADD 0xBA SDIV 0xEC CALLDATACOPY 0xDE STATICCALL PUSH1 0xEB PUSH16 0xB11AAE020BE4D6DB7363F664736F6C63 NUMBER STOP ADDMOD 0xD STOP CALLER "
				},
				"gasEstimates": {
					"creation": {
						"codeDepositCost": "201800",
						"executionCost": "245",
						"totalCost": "202045"
					},
					"external": {
						"checkOverFlow(uint256,uint256)": "infinite",
						"result()": "2468"
					}
				},
				"methodIdentifiers": {
					"checkOverFlow(uint256,uint256)": "0bfb0686",
					"result()": "65372147"
				}
			},
			"storageLayout": {
				"storage": [
					{
						"astId": 3,
						"contract": "contracts/teste.sol:Assert",
						"label": "result",
						"offset": 0,
						"slot": "0",
						"type": "t_bool"
					}
				],
				"types": {
					"t_bool": {
						"encoding": "inplace",
						"label": "bool",
						"numberOfBytes": "1"
					}
				}
			},
			"userdoc": {
				"kind": "user",
				"methods": {},
				"version": 1
			}
		}
	}
}