{
	"contracts/dataTypes_07.sol": {
		"DataTypes": {
			"abi": [
				{
					"inputs": [],
					"name": "a",
					"outputs": [
						{
							"internalType": "bytes1",
							"name": "",
							"type": "bytes1"
						}
					],
					"stateMutability": "view",
					"type": "function"
				},
				{
					"inputs": [],
					"name": "addr",
					"outputs": [
						{
							"internalType": "address",
							"name": "",
							"type": "address"
						}
					],
					"stateMutability": "view",
					"type": "function"
				},
				{
					"inputs": [],
					"name": "b",
					"outputs": [
						{
							"internalType": "bytes1",
							"name": "",
							"type": "bytes1"
						}
					],
					"stateMutability": "view",
					"type": "function"
				},
				{
					"inputs": [],
					"name": "defaultAddr",
					"outputs": [
						{
							"internalType": "address",
							"name": "",
							"type": "address"
						}
					],
					"stateMutability": "view",
					"type": "function"
				},
				{
					"inputs": [],
					"name": "defaultBoll",
					"outputs": [
						{
							"internalType": "bool",
							"name": "",
							"type": "bool"
						}
					],
					"stateMutability": "view",
					"type": "function"
				},
				{
					"inputs": [],
					"name": "defaultInt",
					"outputs": [
						{
							"internalType": "int256",
							"name": "",
							"type": "int256"
						}
					],
					"stateMutability": "view",
					"type": "function"
				},
				{
					"inputs": [],
					"name": "hey",
					"outputs": [
						{
							"internalType": "address",
							"name": "",
							"type": "address"
						}
					],
					"stateMutability": "view",
					"type": "function"
				},
				{
					"inputs": [],
					"name": "i",
					"outputs": [
						{
							"internalType": "int256",
							"name": "",
							"type": "int256"
						}
					],
					"stateMutability": "view",
					"type": "function"
				},
				{
					"inputs": [],
					"name": "i256",
					"outputs": [
						{
							"internalType": "int256",
							"name": "",
							"type": "int256"
						}
					],
					"stateMutability": "view",
					"type": "function"
				},
				{
					"inputs": [],
					"name": "i8",
					"outputs": [
						{
							"internalType": "int8",
							"name": "",
							"type": "int8"
						}
					],
					"stateMutability": "view",
					"type": "function"
				},
				{
					"inputs": [],
					"name": "key",
					"outputs": [
						{
							"internalType": "bool",
							"name": "",
							"type": "bool"
						}
					],
					"stateMutability": "view",
					"type": "function"
				},
				{
					"inputs": [],
					"name": "maxInt",
					"outputs": [
						{
							"internalType": "int256",
							"name": "",
							"type": "int256"
						}
					],
					"stateMutability": "view",
					"type": "function"
				},
				{
					"inputs": [],
					"name": "maxInt8",
					"outputs": [
						{
							"internalType": "int8",
							"name": "",
							"type": "int8"
						}
					],
					"stateMutability": "view",
					"type": "function"
				},
				{
					"inputs": [],
					"name": "minInt",
					"outputs": [
						{
							"internalType": "int256",
							"name": "",
							"type": "int256"
						}
					],
					"stateMutability": "view",
					"type": "function"
				},
				{
					"inputs": [],
					"name": "minInt8",
					"outputs": [
						{
							"internalType": "int8",
							"name": "",
							"type": "int8"
						}
					],
					"stateMutability": "view",
					"type": "function"
				},
				{
					"inputs": [],
					"name": "no",
					"outputs": [
						{
							"internalType": "bool",
							"name": "",
							"type": "bool"
						}
					],
					"stateMutability": "view",
					"type": "function"
				},
				{
					"inputs": [],
					"name": "number",
					"outputs": [
						{
							"internalType": "uint256",
							"name": "",
							"type": "uint256"
						}
					],
					"stateMutability": "view",
					"type": "function"
				},
				{
					"inputs": [],
					"name": "u",
					"outputs": [
						{
							"internalType": "uint256",
							"name": "",
							"type": "uint256"
						}
					],
					"stateMutability": "view",
					"type": "function"
				},
				{
					"inputs": [],
					"name": "u256",
					"outputs": [
						{
							"internalType": "uint256",
							"name": "",
							"type": "uint256"
						}
					],
					"stateMutability": "view",
					"type": "function"
				},
				{
					"inputs": [],
					"name": "u8",
					"outputs": [
						{
							"internalType": "uint8",
							"name": "",
							"type": "uint8"
						}
					],
					"stateMutability": "view",
					"type": "function"
				}
			],
			"devdoc": {
				"kind": "dev",
				"methods": {},
				"version": 1
			},
			"evm": {
				"assembly": "    /* \"contracts/dataTypes_07.sol\":126:3028  contract DataTypes {... */\n  mstore(0x40, 0x80)\n    /* \"contracts/dataTypes_07.sol\":235:239  true */\n  0x01\n    /* \"contracts/dataTypes_07.sol\":218:239  bool public no = true */\n  0x00\n  exp(0x0100, 0x01)\n  dup2\n  sload\n  dup2\n  0xff\n  mul\n  not\n  and\n  swap1\n  dup4\n  iszero\n  iszero\n  mul\n  or\n  swap1\n  sstore\n  pop\n    /* \"contracts/dataTypes_07.sol\":731:732  1 */\n  0x01\n    /* \"contracts/dataTypes_07.sol\":713:732  uint8 public u8 = 1 */\n  0x00\n  exp(0x0100, 0x02)\n  dup2\n  sload\n  dup2\n  0xff\n  mul\n  not\n  and\n  swap1\n  dup4\n  0xff\n  and\n  mul\n  or\n  swap1\n  sstore\n  pop\n    /* \"contracts/dataTypes_07.sol\":758:761  456 */\n  0x01c8\n    /* \"contracts/dataTypes_07.sol\":738:761  uint  public u256 = 456 */\n  0x01\n  sstore\n    /* \"contracts/dataTypes_07.sol\":784:787  123 */\n  0x7b\n    /* \"contracts/dataTypes_07.sol\":767:787  uint  public u = 123 */\n  0x02\n  sstore\n    /* \"contracts/dataTypes_07.sol\":1185:1187  -1 */\n  0xffffffffffffffffffffffffffffffffffffffffffffffffffffffffffffffff\n    /* \"contracts/dataTypes_07.sol\":1168:1187  int8 public i8 = -1 */\n  0x03\n  exp(0x0100, 0x00)\n  dup2\n  sload\n  dup2\n  0xff\n  mul\n  not\n  and\n  swap1\n  dup4\n  0x00\n  signextend\n  0xff\n  and\n  mul\n  or\n  swap1\n  sstore\n  pop\n    /* \"contracts/dataTypes_07.sol\":1211:1214  456 */\n  0x01c8\n    /* \"contracts/dataTypes_07.sol\":1193:1214  int public i256 = 456 */\n  0x04\n  sstore\n    /* \"contracts/dataTypes_07.sol\":1235:1240  -1234 */\n  0xfffffffffffffffffffffffffffffffffffffffffffffffffffffffffffffb2e\n    /* \"contracts/dataTypes_07.sol\":1220:1240  int public i = -1234 */\n  0x05\n  sstore\n    /* \"contracts/dataTypes_07.sol\":1459:1472  type(int).min */\n  0x8000000000000000000000000000000000000000000000000000000000000000\n    /* \"contracts/dataTypes_07.sol\":1439:1472  int public minInt = type(int).min */\n  0x06\n  sstore\n    /* \"contracts/dataTypes_07.sol\":1498:1511  type(int).max */\n  0x7fffffffffffffffffffffffffffffffffffffffffffffffffffffffffffffff\n    /* \"contracts/dataTypes_07.sol\":1478:1511  int public maxInt = type(int).max */\n  0x07\n  sstore\n    /* \"contracts/dataTypes_07.sol\":1540:1554  type(int8).min */\n  0xffffffffffffffffffffffffffffffffffffffffffffffffffffffffffffff80\n    /* \"contracts/dataTypes_07.sol\":1518:1554  int8 public minInt8 = type(int8).min */\n  0x08\n  exp(0x0100, 0x00)\n  dup2\n  sload\n  dup2\n  0xff\n  mul\n  not\n  and\n  swap1\n  dup4\n  0x00\n  signextend\n  0xff\n  and\n  mul\n  or\n  swap1\n  sstore\n  pop\n    /* \"contracts/dataTypes_07.sol\":1582:1596  type(int8).max */\n  0x7f\n    /* \"contracts/dataTypes_07.sol\":1560:1596  int8 public maxInt8 = type(int8).max */\n  0x08\n  exp(0x0100, 0x01)\n  dup2\n  sload\n  dup2\n  0xff\n  mul\n  not\n  and\n  swap1\n  dup4\n  0x00\n  signextend\n  0xff\n  and\n  mul\n  or\n  swap1\n  sstore\n  pop\n    /* \"contracts/dataTypes_07.sol\":2064:2068  0xb5 */\n  0xb5\n    /* \"contracts/dataTypes_07.sol\":2046:2068  bytes1 public a = 0xb5 */\n  0xf8\n  shl\n  0x08\n  exp(0x0100, 0x02)\n  dup2\n  sload\n  dup2\n  0xff\n  mul\n  not\n  and\n  swap1\n  dup4\n  0xf8\n  shr\n  mul\n  or\n  swap1\n  sstore\n  pop\n    /* \"contracts/dataTypes_07.sol\":2106:2110  0x56 */\n  0x56\n    /* \"contracts/dataTypes_07.sol\":2088:2110  bytes1 public b = 0x56 */\n  0xf8\n  shl\n  0x08\n  exp(0x0100, 0x03)\n  dup2\n  sload\n  dup2\n  0xff\n  mul\n  not\n  and\n  swap1\n  dup4\n  0xf8\n  shr\n  mul\n  or\n  swap1\n  sstore\n  pop\n    /* \"contracts/dataTypes_07.sol\":2499:2541  0x5B38Da6a701c568545dCfcB03FcB875f56beddC4 */\n  0x5b38da6a701c568545dcfcb03fcb875f56beddc4\n    /* \"contracts/dataTypes_07.sol\":2477:2541  address public addr = 0x5B38Da6a701c568545dCfcB03FcB875f56beddC4 */\n  0x09\n  exp(0x0100, 0x00)\n  dup2\n  sload\n  dup2\n  0xffffffffffffffffffffffffffffffffffffffff\n  mul\n  not\n  and\n  swap1\n  dup4\n  0xffffffffffffffffffffffffffffffffffffffff\n  and\n  mul\n  or\n  swap1\n  sstore\n  pop\n    /* \"contracts/dataTypes_07.sol\":126:3028  contract DataTypes {... */\n  callvalue\n  dup1\n  iszero\n  tag_1\n  jumpi\n  0x00\n  dup1\n  revert\ntag_1:\n  pop\n  dataSize(sub_0)\n  dup1\n  dataOffset(sub_0)\n  0x00\n  codecopy\n  0x00\n  return\nstop\n\nsub_0: assembly {\n        /* \"contracts/dataTypes_07.sol\":126:3028  contract DataTypes {... */\n      mstore(0x40, 0x80)\n      callvalue\n      dup1\n      iszero\n      tag_1\n      jumpi\n      0x00\n      dup1\n      revert\n    tag_1:\n      pop\n      jumpi(tag_2, lt(calldatasize, 0x04))\n      shr(0xe0, calldataload(0x00))\n      dup1\n      0x8381f58a\n      gt\n      tag_23\n      jumpi\n      dup1\n      0xb6c52ae8\n      gt\n      tag_24\n      jumpi\n      dup1\n      0xb6c52ae8\n      eq\n      tag_18\n      jumpi\n      dup1\n      0xbde2b573\n      eq\n      tag_19\n      jumpi\n      dup1\n      0xc6a898c5\n      eq\n      tag_20\n      jumpi\n      dup1\n      0xe5aa3d58\n      eq\n      tag_21\n      jumpi\n      dup1\n      0xf2427d37\n      eq\n      tag_22\n      jumpi\n      jump(tag_2)\n    tag_24:\n      dup1\n      0x8381f58a\n      eq\n      tag_13\n      jumpi\n      dup1\n      0x921cda74\n      eq\n      tag_14\n      jumpi\n      dup1\n      0xa1dd7ec0\n      eq\n      tag_15\n      jumpi\n      dup1\n      0xa631eb62\n      eq\n      tag_16\n      jumpi\n      dup1\n      0xab3a58a3\n      eq\n      tag_17\n      jumpi\n      jump(tag_2)\n    tag_23:\n      dup1\n      0x4df7e3d0\n      gt\n      tag_25\n      jumpi\n      dup1\n      0x4df7e3d0\n      eq\n      tag_8\n      jumpi\n      dup1\n      0x5abe622b\n      eq\n      tag_9\n      jumpi\n      dup1\n      0x767800de\n      eq\n      tag_10\n      jumpi\n      dup1\n      0x7a4c2571\n      eq\n      tag_11\n      jumpi\n      dup1\n      0x7e4e14cc\n      eq\n      tag_12\n      jumpi\n      jump(tag_2)\n    tag_25:\n      dup1\n      0x0dbe671f\n      eq\n      tag_3\n      jumpi\n      dup1\n      0x3814c856\n      eq\n      tag_4\n      jumpi\n      dup1\n      0x3943380c\n      eq\n      tag_5\n      jumpi\n      dup1\n      0x459b1acf\n      eq\n      tag_6\n      jumpi\n      dup1\n      0x4c27fd62\n      eq\n      tag_7\n      jumpi\n    tag_2:\n      0x00\n      dup1\n      revert\n        /* \"contracts/dataTypes_07.sol\":2046:2068  bytes1 public a = 0xb5 */\n    tag_3:\n      tag_26\n      tag_27\n      jump\t// in\n    tag_26:\n      mload(0x40)\n      tag_28\n      swap2\n      swap1\n      tag_29\n      jump\t// in\n    tag_28:\n      mload(0x40)\n      dup1\n      swap2\n      sub\n      swap1\n      return\n        /* \"contracts/dataTypes_07.sol\":1560:1596  int8 public maxInt8 = type(int8).max */\n    tag_4:\n      tag_30\n      tag_31\n      jump\t// in\n    tag_30:\n      mload(0x40)\n      tag_32\n      swap2\n      swap1\n      tag_33\n      jump\t// in\n    tag_32:\n      mload(0x40)\n      dup1\n      swap2\n      sub\n      swap1\n      return\n        /* \"contracts/dataTypes_07.sol\":197:212  bool public key */\n    tag_5:\n      tag_34\n      tag_35\n      jump\t// in\n    tag_34:\n      mload(0x40)\n      tag_36\n      swap2\n      swap1\n      tag_37\n      jump\t// in\n    tag_36:\n      mload(0x40)\n      dup1\n      swap2\n      sub\n      swap1\n      return\n        /* \"contracts/dataTypes_07.sol\":738:761  uint  public u256 = 456 */\n    tag_6:\n      tag_38\n      tag_39\n      jump\t// in\n    tag_38:\n      mload(0x40)\n      tag_40\n      swap2\n      swap1\n      tag_41\n      jump\t// in\n    tag_40:\n      mload(0x40)\n      dup1\n      swap2\n      sub\n      swap1\n      return\n        /* \"contracts/dataTypes_07.sol\":1193:1214  int public i256 = 456 */\n    tag_7:\n      tag_42\n      tag_43\n      jump\t// in\n    tag_42:\n      mload(0x40)\n      tag_44\n      swap2\n      swap1\n      tag_45\n      jump\t// in\n    tag_44:\n      mload(0x40)\n      dup1\n      swap2\n      sub\n      swap1\n      return\n        /* \"contracts/dataTypes_07.sol\":2088:2110  bytes1 public b = 0x56 */\n    tag_8:\n      tag_46\n      tag_47\n      jump\t// in\n    tag_46:\n      mload(0x40)\n      tag_48\n      swap2\n      swap1\n      tag_29\n      jump\t// in\n    tag_48:\n      mload(0x40)\n      dup1\n      swap2\n      sub\n      swap1\n      return\n        /* \"contracts/dataTypes_07.sol\":2780:2806  int     public  defaultInt */\n    tag_9:\n      tag_49\n      tag_50\n      jump\t// in\n    tag_49:\n      mload(0x40)\n      tag_51\n      swap2\n      swap1\n      tag_45\n      jump\t// in\n    tag_51:\n      mload(0x40)\n      dup1\n      swap2\n      sub\n      swap1\n      return\n        /* \"contracts/dataTypes_07.sol\":2477:2541  address public addr = 0x5B38Da6a701c568545dCfcB03FcB875f56beddC4 */\n    tag_10:\n      tag_52\n      tag_53\n      jump\t// in\n    tag_52:\n      mload(0x40)\n      tag_54\n      swap2\n      swap1\n      tag_55\n      jump\t// in\n    tag_54:\n      mload(0x40)\n      dup1\n      swap2\n      sub\n      swap1\n      return\n        /* \"contracts/dataTypes_07.sol\":1478:1511  int public maxInt = type(int).max */\n    tag_11:\n      tag_56\n      tag_57\n      jump\t// in\n    tag_56:\n      mload(0x40)\n      tag_58\n      swap2\n      swap1\n      tag_45\n      jump\t// in\n    tag_58:\n      mload(0x40)\n      dup1\n      swap2\n      sub\n      swap1\n      return\n        /* \"contracts/dataTypes_07.sol\":1439:1472  int public minInt = type(int).min */\n    tag_12:\n      tag_59\n      tag_60\n      jump\t// in\n    tag_59:\n      mload(0x40)\n      tag_61\n      swap2\n      swap1\n      tag_45\n      jump\t// in\n    tag_61:\n      mload(0x40)\n      dup1\n      swap2\n      sub\n      swap1\n      return\n        /* \"contracts/dataTypes_07.sol\":2742:2764  uint    public  number */\n    tag_13:\n      tag_62\n      tag_63\n      jump\t// in\n    tag_62:\n      mload(0x40)\n      tag_64\n      swap2\n      swap1\n      tag_41\n      jump\t// in\n    tag_64:\n      mload(0x40)\n      dup1\n      swap2\n      sub\n      swap1\n      return\n        /* \"contracts/dataTypes_07.sol\":1168:1187  int8 public i8 = -1 */\n    tag_14:\n      tag_65\n      tag_66\n      jump\t// in\n    tag_65:\n      mload(0x40)\n      tag_67\n      swap2\n      swap1\n      tag_33\n      jump\t// in\n    tag_67:\n      mload(0x40)\n      dup1\n      swap2\n      sub\n      swap1\n      return\n        /* \"contracts/dataTypes_07.sol\":2700:2727  bool    public  defaultBoll */\n    tag_15:\n      tag_68\n      tag_69\n      jump\t// in\n    tag_68:\n      mload(0x40)\n      tag_70\n      swap2\n      swap1\n      tag_37\n      jump\t// in\n    tag_70:\n      mload(0x40)\n      dup1\n      swap2\n      sub\n      swap1\n      return\n        /* \"contracts/dataTypes_07.sol\":1518:1554  int8 public minInt8 = type(int8).min */\n    tag_16:\n      tag_71\n      tag_72\n      jump\t// in\n    tag_71:\n      mload(0x40)\n      tag_73\n      swap2\n      swap1\n      tag_33\n      jump\t// in\n    tag_73:\n      mload(0x40)\n      dup1\n      swap2\n      sub\n      swap1\n      return\n        /* \"contracts/dataTypes_07.sol\":713:732  uint8 public u8 = 1 */\n    tag_17:\n      tag_74\n      tag_75\n      jump\t// in\n    tag_74:\n      mload(0x40)\n      tag_76\n      swap2\n      swap1\n      tag_77\n      jump\t// in\n    tag_76:\n      mload(0x40)\n      dup1\n      swap2\n      sub\n      swap1\n      return\n        /* \"contracts/dataTypes_07.sol\":218:239  bool public no = true */\n    tag_18:\n      tag_78\n      tag_79\n      jump\t// in\n    tag_78:\n      mload(0x40)\n      tag_80\n      swap2\n      swap1\n      tag_37\n      jump\t// in\n    tag_80:\n      mload(0x40)\n      dup1\n      swap2\n      sub\n      swap1\n      return\n        /* \"contracts/dataTypes_07.sol\":2403:2421  address public hey */\n    tag_19:\n      tag_81\n      tag_82\n      jump\t// in\n    tag_81:\n      mload(0x40)\n      tag_83\n      swap2\n      swap1\n      tag_55\n      jump\t// in\n    tag_83:\n      mload(0x40)\n      dup1\n      swap2\n      sub\n      swap1\n      return\n        /* \"contracts/dataTypes_07.sol\":767:787  uint  public u = 123 */\n    tag_20:\n      tag_84\n      tag_85\n      jump\t// in\n    tag_84:\n      mload(0x40)\n      tag_86\n      swap2\n      swap1\n      tag_41\n      jump\t// in\n    tag_86:\n      mload(0x40)\n      dup1\n      swap2\n      sub\n      swap1\n      return\n        /* \"contracts/dataTypes_07.sol\":1220:1240  int public i = -1234 */\n    tag_21:\n      tag_87\n      tag_88\n      jump\t// in\n    tag_87:\n      mload(0x40)\n      tag_89\n      swap2\n      swap1\n      tag_45\n      jump\t// in\n    tag_89:\n      mload(0x40)\n      dup1\n      swap2\n      sub\n      swap1\n      return\n        /* \"contracts/dataTypes_07.sol\":2818:2845  address public  defaultAddr */\n    tag_22:\n      tag_90\n      tag_91\n      jump\t// in\n    tag_90:\n      mload(0x40)\n      tag_92\n      swap2\n      swap1\n      tag_55\n      jump\t// in\n    tag_92:\n      mload(0x40)\n      dup1\n      swap2\n      sub\n      swap1\n      return\n        /* \"contracts/dataTypes_07.sol\":2046:2068  bytes1 public a = 0xb5 */\n    tag_27:\n      0x08\n      0x02\n      swap1\n      sload\n      swap1\n      0x0100\n      exp\n      swap1\n      div\n      0xf8\n      shl\n      dup2\n      jump\t// out\n        /* \"contracts/dataTypes_07.sol\":1560:1596  int8 public maxInt8 = type(int8).max */\n    tag_31:\n      0x08\n      0x01\n      swap1\n      sload\n      swap1\n      0x0100\n      exp\n      swap1\n      div\n      0x00\n      signextend\n      dup2\n      jump\t// out\n        /* \"contracts/dataTypes_07.sol\":197:212  bool public key */\n    tag_35:\n      0x00\n      dup1\n      sload\n      swap1\n      0x0100\n      exp\n      swap1\n      div\n      0xff\n      and\n      dup2\n      jump\t// out\n        /* \"contracts/dataTypes_07.sol\":738:761  uint  public u256 = 456 */\n    tag_39:\n      sload(0x01)\n      dup2\n      jump\t// out\n        /* \"contracts/dataTypes_07.sol\":1193:1214  int public i256 = 456 */\n    tag_43:\n      sload(0x04)\n      dup2\n      jump\t// out\n        /* \"contracts/dataTypes_07.sol\":2088:2110  bytes1 public b = 0x56 */\n    tag_47:\n      0x08\n      0x03\n      swap1\n      sload\n      swap1\n      0x0100\n      exp\n      swap1\n      div\n      0xf8\n      shl\n      dup2\n      jump\t// out\n        /* \"contracts/dataTypes_07.sol\":2780:2806  int     public  defaultInt */\n    tag_50:\n      sload(0x0b)\n      dup2\n      jump\t// out\n        /* \"contracts/dataTypes_07.sol\":2477:2541  address public addr = 0x5B38Da6a701c568545dCfcB03FcB875f56beddC4 */\n    tag_53:\n      0x09\n      0x00\n      swap1\n      sload\n      swap1\n      0x0100\n      exp\n      swap1\n      div\n      0xffffffffffffffffffffffffffffffffffffffff\n      and\n      dup2\n      jump\t// out\n        /* \"contracts/dataTypes_07.sol\":1478:1511  int public maxInt = type(int).max */\n    tag_57:\n      sload(0x07)\n      dup2\n      jump\t// out\n        /* \"contracts/dataTypes_07.sol\":1439:1472  int public minInt = type(int).min */\n    tag_60:\n      sload(0x06)\n      dup2\n      jump\t// out\n        /* \"contracts/dataTypes_07.sol\":2742:2764  uint    public  number */\n    tag_63:\n      sload(0x0a)\n      dup2\n      jump\t// out\n        /* \"contracts/dataTypes_07.sol\":1168:1187  int8 public i8 = -1 */\n    tag_66:\n      0x03\n      0x00\n      swap1\n      sload\n      swap1\n      0x0100\n      exp\n      swap1\n      div\n      0x00\n      signextend\n      dup2\n      jump\t// out\n        /* \"contracts/dataTypes_07.sol\":2700:2727  bool    public  defaultBoll */\n    tag_69:\n      0x09\n      0x14\n      swap1\n      sload\n      swap1\n      0x0100\n      exp\n      swap1\n      div\n      0xff\n      and\n      dup2\n      jump\t// out\n        /* \"contracts/dataTypes_07.sol\":1518:1554  int8 public minInt8 = type(int8).min */\n    tag_72:\n      0x08\n      0x00\n      swap1\n      sload\n      swap1\n      0x0100\n      exp\n      swap1\n      div\n      0x00\n      signextend\n      dup2\n      jump\t// out\n        /* \"contracts/dataTypes_07.sol\":713:732  uint8 public u8 = 1 */\n    tag_75:\n      0x00\n      0x02\n      swap1\n      sload\n      swap1\n      0x0100\n      exp\n      swap1\n      div\n      0xff\n      and\n      dup2\n      jump\t// out\n        /* \"contracts/dataTypes_07.sol\":218:239  bool public no = true */\n    tag_79:\n      0x00\n      0x01\n      swap1\n      sload\n      swap1\n      0x0100\n      exp\n      swap1\n      div\n      0xff\n      and\n      dup2\n      jump\t// out\n        /* \"contracts/dataTypes_07.sol\":2403:2421  address public hey */\n    tag_82:\n      0x08\n      0x04\n      swap1\n      sload\n      swap1\n      0x0100\n      exp\n      swap1\n      div\n      0xffffffffffffffffffffffffffffffffffffffff\n      and\n      dup2\n      jump\t// out\n        /* \"contracts/dataTypes_07.sol\":767:787  uint  public u = 123 */\n    tag_85:\n      sload(0x02)\n      dup2\n      jump\t// out\n        /* \"contracts/dataTypes_07.sol\":1220:1240  int public i = -1234 */\n    tag_88:\n      sload(0x05)\n      dup2\n      jump\t// out\n        /* \"contracts/dataTypes_07.sol\":2818:2845  address public  defaultAddr */\n    tag_91:\n      0x0c\n      0x00\n      swap1\n      sload\n      swap1\n      0x0100\n      exp\n      swap1\n      div\n      0xffffffffffffffffffffffffffffffffffffffff\n      and\n      dup2\n      jump\t// out\n        /* \"#utility.yul\":7:156   */\n    tag_93:\n        /* \"#utility.yul\":43:50   */\n      0x00\n        /* \"#utility.yul\":83:149   */\n      0xff00000000000000000000000000000000000000000000000000000000000000\n        /* \"#utility.yul\":76:81   */\n      dup3\n        /* \"#utility.yul\":72:150   */\n      and\n        /* \"#utility.yul\":61:150   */\n      swap1\n      pop\n        /* \"#utility.yul\":7:156   */\n      swap2\n      swap1\n      pop\n      jump\t// out\n        /* \"#utility.yul\":162:277   */\n    tag_94:\n        /* \"#utility.yul\":247:270   */\n      tag_111\n        /* \"#utility.yul\":264:269   */\n      dup2\n        /* \"#utility.yul\":247:270   */\n      tag_93\n      jump\t// in\n    tag_111:\n        /* \"#utility.yul\":242:245   */\n      dup3\n        /* \"#utility.yul\":235:271   */\n      mstore\n        /* \"#utility.yul\":162:277   */\n      pop\n      pop\n      jump\t// out\n        /* \"#utility.yul\":283:501   */\n    tag_29:\n        /* \"#utility.yul\":374:378   */\n      0x00\n        /* \"#utility.yul\":412:414   */\n      0x20\n        /* \"#utility.yul\":401:410   */\n      dup3\n        /* \"#utility.yul\":397:415   */\n      add\n        /* \"#utility.yul\":389:415   */\n      swap1\n      pop\n        /* \"#utility.yul\":425:494   */\n      tag_113\n        /* \"#utility.yul\":491:492   */\n      0x00\n        /* \"#utility.yul\":480:489   */\n      dup4\n        /* \"#utility.yul\":476:493   */\n      add\n        /* \"#utility.yul\":467:473   */\n      dup5\n        /* \"#utility.yul\":425:494   */\n      tag_94\n      jump\t// in\n    tag_113:\n        /* \"#utility.yul\":283:501   */\n      swap3\n      swap2\n      pop\n      pop\n      jump\t// out\n        /* \"#utility.yul\":507:596   */\n    tag_95:\n        /* \"#utility.yul\":541:548   */\n      0x00\n        /* \"#utility.yul\":584:589   */\n      dup2\n        /* \"#utility.yul\":581:582   */\n      0x00\n        /* \"#utility.yul\":570:590   */\n      signextend\n        /* \"#utility.yul\":559:590   */\n      swap1\n      pop\n        /* \"#utility.yul\":507:596   */\n      swap2\n      swap1\n      pop\n      jump\t// out\n        /* \"#utility.yul\":602:711   */\n    tag_96:\n        /* \"#utility.yul\":683:704   */\n      tag_116\n        /* \"#utility.yul\":698:703   */\n      dup2\n        /* \"#utility.yul\":683:704   */\n      tag_95\n      jump\t// in\n    tag_116:\n        /* \"#utility.yul\":678:681   */\n      dup3\n        /* \"#utility.yul\":671:705   */\n      mstore\n        /* \"#utility.yul\":602:711   */\n      pop\n      pop\n      jump\t// out\n        /* \"#utility.yul\":717:927   */\n    tag_33:\n        /* \"#utility.yul\":804:808   */\n      0x00\n        /* \"#utility.yul\":842:844   */\n      0x20\n        /* \"#utility.yul\":831:840   */\n      dup3\n        /* \"#utility.yul\":827:845   */\n      add\n        /* \"#utility.yul\":819:845   */\n      swap1\n      pop\n        /* \"#utility.yul\":855:920   */\n      tag_118\n        /* \"#utility.yul\":917:918   */\n      0x00\n        /* \"#utility.yul\":906:915   */\n      dup4\n        /* \"#utility.yul\":902:919   */\n      add\n        /* \"#utility.yul\":893:899   */\n      dup5\n        /* \"#utility.yul\":855:920   */\n      tag_96\n      jump\t// in\n    tag_118:\n        /* \"#utility.yul\":717:927   */\n      swap3\n      swap2\n      pop\n      pop\n      jump\t// out\n        /* \"#utility.yul\":933:1023   */\n    tag_97:\n        /* \"#utility.yul\":967:974   */\n      0x00\n        /* \"#utility.yul\":1010:1015   */\n      dup2\n        /* \"#utility.yul\":1003:1016   */\n      iszero\n        /* \"#utility.yul\":996:1017   */\n      iszero\n        /* \"#utility.yul\":985:1017   */\n      swap1\n      pop\n        /* \"#utility.yul\":933:1023   */\n      swap2\n      swap1\n      pop\n      jump\t// out\n        /* \"#utility.yul\":1029:1138   */\n    tag_98:\n        /* \"#utility.yul\":1110:1131   */\n      tag_121\n        /* \"#utility.yul\":1125:1130   */\n      dup2\n        /* \"#utility.yul\":1110:1131   */\n      tag_97\n      jump\t// in\n    tag_121:\n        /* \"#utility.yul\":1105:1108   */\n      dup3\n        /* \"#utility.yul\":1098:1132   */\n      mstore\n        /* \"#utility.yul\":1029:1138   */\n      pop\n      pop\n      jump\t// out\n        /* \"#utility.yul\":1144:1354   */\n    tag_37:\n        /* \"#utility.yul\":1231:1235   */\n      0x00\n        /* \"#utility.yul\":1269:1271   */\n      0x20\n        /* \"#utility.yul\":1258:1267   */\n      dup3\n        /* \"#utility.yul\":1254:1272   */\n      add\n        /* \"#utility.yul\":1246:1272   */\n      swap1\n      pop\n        /* \"#utility.yul\":1282:1347   */\n      tag_123\n        /* \"#utility.yul\":1344:1345   */\n      0x00\n        /* \"#utility.yul\":1333:1342   */\n      dup4\n        /* \"#utility.yul\":1329:1346   */\n      add\n        /* \"#utility.yul\":1320:1326   */\n      dup5\n        /* \"#utility.yul\":1282:1347   */\n      tag_98\n      jump\t// in\n    tag_123:\n        /* \"#utility.yul\":1144:1354   */\n      swap3\n      swap2\n      pop\n      pop\n      jump\t// out\n        /* \"#utility.yul\":1360:1437   */\n    tag_99:\n        /* \"#utility.yul\":1397:1404   */\n      0x00\n        /* \"#utility.yul\":1426:1431   */\n      dup2\n        /* \"#utility.yul\":1415:1431   */\n      swap1\n      pop\n        /* \"#utility.yul\":1360:1437   */\n      swap2\n      swap1\n      pop\n      jump\t// out\n        /* \"#utility.yul\":1443:1561   */\n    tag_100:\n        /* \"#utility.yul\":1530:1554   */\n      tag_126\n        /* \"#utility.yul\":1548:1553   */\n      dup2\n        /* \"#utility.yul\":1530:1554   */\n      tag_99\n      jump\t// in\n    tag_126:\n        /* \"#utility.yul\":1525:1528   */\n      dup3\n        /* \"#utility.yul\":1518:1555   */\n      mstore\n        /* \"#utility.yul\":1443:1561   */\n      pop\n      pop\n      jump\t// out\n        /* \"#utility.yul\":1567:1789   */\n    tag_41:\n        /* \"#utility.yul\":1660:1664   */\n      0x00\n        /* \"#utility.yul\":1698:1700   */\n      0x20\n        /* \"#utility.yul\":1687:1696   */\n      dup3\n        /* \"#utility.yul\":1683:1701   */\n      add\n        /* \"#utility.yul\":1675:1701   */\n      swap1\n      pop\n        /* \"#utility.yul\":1711:1782   */\n      tag_128\n        /* \"#utility.yul\":1779:1780   */\n      0x00\n        /* \"#utility.yul\":1768:1777   */\n      dup4\n        /* \"#utility.yul\":1764:1781   */\n      add\n        /* \"#utility.yul\":1755:1761   */\n      dup5\n        /* \"#utility.yul\":1711:1782   */\n      tag_100\n      jump\t// in\n    tag_128:\n        /* \"#utility.yul\":1567:1789   */\n      swap3\n      swap2\n      pop\n      pop\n      jump\t// out\n        /* \"#utility.yul\":1795:1871   */\n    tag_101:\n        /* \"#utility.yul\":1831:1838   */\n      0x00\n        /* \"#utility.yul\":1860:1865   */\n      dup2\n        /* \"#utility.yul\":1849:1865   */\n      swap1\n      pop\n        /* \"#utility.yul\":1795:1871   */\n      swap2\n      swap1\n      pop\n      jump\t// out\n        /* \"#utility.yul\":1877:1992   */\n    tag_102:\n        /* \"#utility.yul\":1962:1985   */\n      tag_131\n        /* \"#utility.yul\":1979:1984   */\n      dup2\n        /* \"#utility.yul\":1962:1985   */\n      tag_101\n      jump\t// in\n    tag_131:\n        /* \"#utility.yul\":1957:1960   */\n      dup3\n        /* \"#utility.yul\":1950:1986   */\n      mstore\n        /* \"#utility.yul\":1877:1992   */\n      pop\n      pop\n      jump\t// out\n        /* \"#utility.yul\":1998:2216   */\n    tag_45:\n        /* \"#utility.yul\":2089:2093   */\n      0x00\n        /* \"#utility.yul\":2127:2129   */\n      0x20\n        /* \"#utility.yul\":2116:2125   */\n      dup3\n        /* \"#utility.yul\":2112:2130   */\n      add\n        /* \"#utility.yul\":2104:2130   */\n      swap1\n      pop\n        /* \"#utility.yul\":2140:2209   */\n      tag_133\n        /* \"#utility.yul\":2206:2207   */\n      0x00\n        /* \"#utility.yul\":2195:2204   */\n      dup4\n        /* \"#utility.yul\":2191:2208   */\n      add\n        /* \"#utility.yul\":2182:2188   */\n      dup5\n        /* \"#utility.yul\":2140:2209   */\n      tag_102\n      jump\t// in\n    tag_133:\n        /* \"#utility.yul\":1998:2216   */\n      swap3\n      swap2\n      pop\n      pop\n      jump\t// out\n        /* \"#utility.yul\":2222:2348   */\n    tag_103:\n        /* \"#utility.yul\":2259:2266   */\n      0x00\n        /* \"#utility.yul\":2299:2341   */\n      0xffffffffffffffffffffffffffffffffffffffff\n        /* \"#utility.yul\":2292:2297   */\n      dup3\n        /* \"#utility.yul\":2288:2342   */\n      and\n        /* \"#utility.yul\":2277:2342   */\n      swap1\n      pop\n        /* \"#utility.yul\":2222:2348   */\n      swap2\n      swap1\n      pop\n      jump\t// out\n        /* \"#utility.yul\":2354:2450   */\n    tag_104:\n        /* \"#utility.yul\":2391:2398   */\n      0x00\n        /* \"#utility.yul\":2420:2444   */\n      tag_136\n        /* \"#utility.yul\":2438:2443   */\n      dup3\n        /* \"#utility.yul\":2420:2444   */\n      tag_103\n      jump\t// in\n    tag_136:\n        /* \"#utility.yul\":2409:2444   */\n      swap1\n      pop\n        /* \"#utility.yul\":2354:2450   */\n      swap2\n      swap1\n      pop\n      jump\t// out\n        /* \"#utility.yul\":2456:2574   */\n    tag_105:\n        /* \"#utility.yul\":2543:2567   */\n      tag_138\n        /* \"#utility.yul\":2561:2566   */\n      dup2\n        /* \"#utility.yul\":2543:2567   */\n      tag_104\n      jump\t// in\n    tag_138:\n        /* \"#utility.yul\":2538:2541   */\n      dup3\n        /* \"#utility.yul\":2531:2568   */\n      mstore\n        /* \"#utility.yul\":2456:2574   */\n      pop\n      pop\n      jump\t// out\n        /* \"#utility.yul\":2580:2802   */\n    tag_55:\n        /* \"#utility.yul\":2673:2677   */\n      0x00\n        /* \"#utility.yul\":2711:2713   */\n      0x20\n        /* \"#utility.yul\":2700:2709   */\n      dup3\n        /* \"#utility.yul\":2696:2714   */\n      add\n        /* \"#utility.yul\":2688:2714   */\n      swap1\n      pop\n        /* \"#utility.yul\":2724:2795   */\n      tag_140\n        /* \"#utility.yul\":2792:2793   */\n      0x00\n        /* \"#utility.yul\":2781:2790   */\n      dup4\n        /* \"#utility.yul\":2777:2794   */\n      add\n        /* \"#utility.yul\":2768:2774   */\n      dup5\n        /* \"#utility.yul\":2724:2795   */\n      tag_105\n      jump\t// in\n    tag_140:\n        /* \"#utility.yul\":2580:2802   */\n      swap3\n      swap2\n      pop\n      pop\n      jump\t// out\n        /* \"#utility.yul\":2808:2894   */\n    tag_106:\n        /* \"#utility.yul\":2843:2850   */\n      0x00\n        /* \"#utility.yul\":2883:2887   */\n      0xff\n        /* \"#utility.yul\":2876:2881   */\n      dup3\n        /* \"#utility.yul\":2872:2888   */\n      and\n        /* \"#utility.yul\":2861:2888   */\n      swap1\n      pop\n        /* \"#utility.yul\":2808:2894   */\n      swap2\n      swap1\n      pop\n      jump\t// out\n        /* \"#utility.yul\":2900:3012   */\n    tag_107:\n        /* \"#utility.yul\":2983:3005   */\n      tag_143\n        /* \"#utility.yul\":2999:3004   */\n      dup2\n        /* \"#utility.yul\":2983:3005   */\n      tag_106\n      jump\t// in\n    tag_143:\n        /* \"#utility.yul\":2978:2981   */\n      dup3\n        /* \"#utility.yul\":2971:3006   */\n      mstore\n        /* \"#utility.yul\":2900:3012   */\n      pop\n      pop\n      jump\t// out\n        /* \"#utility.yul\":3018:3232   */\n    tag_77:\n        /* \"#utility.yul\":3107:3111   */\n      0x00\n        /* \"#utility.yul\":3145:3147   */\n      0x20\n        /* \"#utility.yul\":3134:3143   */\n      dup3\n        /* \"#utility.yul\":3130:3148   */\n      add\n        /* \"#utility.yul\":3122:3148   */\n      swap1\n      pop\n        /* \"#utility.yul\":3158:3225   */\n      tag_145\n        /* \"#utility.yul\":3222:3223   */\n      0x00\n        /* \"#utility.yul\":3211:3220   */\n      dup4\n        /* \"#utility.yul\":3207:3224   */\n      add\n        /* \"#utility.yul\":3198:3204   */\n      dup5\n        /* \"#utility.yul\":3158:3225   */\n      tag_107\n      jump\t// in\n    tag_145:\n        /* \"#utility.yul\":3018:3232   */\n      swap3\n      swap2\n      pop\n      pop\n      jump\t// out\n\n    auxdata: 0xa26469706673582212202c81e0a7ee80f21d86b5871954dcd249d935688fc0ef0ad022abeb35be666b9b64736f6c634300080d0033\n}\n",
				"bytecode": {
					"linkReferences": {},
					"object": "60806040526001600060016101000a81548160ff0219169083151502179055506001600060026101000a81548160ff021916908360ff1602179055506101c8600155607b6002557fffffffffffffffffffffffffffffffffffffffffffffffffffffffffffffffff600360006101000a81548160ff021916908360000b60ff1602179055506101c86004557ffffffffffffffffffffffffffffffffffffffffffffffffffffffffffffffb2e6005557f80000000000000000000000000000000000000000000000000000000000000006006557f7fffffffffffffffffffffffffffffffffffffffffffffffffffffffffffffff6007557fffffffffffffffffffffffffffffffffffffffffffffffffffffffffffffff80600860006101000a81548160ff021916908360000b60ff160217905550607f600860016101000a81548160ff021916908360000b60ff16021790555060b560f81b600860026101000a81548160ff021916908360f81c0217905550605660f81b600860036101000a81548160ff021916908360f81c0217905550735b38da6a701c568545dcfcb03fcb875f56beddc4600960006101000a81548173ffffffffffffffffffffffffffffffffffffffff021916908373ffffffffffffffffffffffffffffffffffffffff1602179055503480156101f257600080fd5b506106c8806102026000396000f3fe608060405234801561001057600080fd5b506004361061012c5760003560e01c80638381f58a116100ad578063b6c52ae811610071578063b6c52ae8146102f3578063bde2b57314610311578063c6a898c51461032f578063e5aa3d581461034d578063f2427d371461036b5761012c565b80638381f58a1461025d578063921cda741461027b578063a1dd7ec014610299578063a631eb62146102b7578063ab3a58a3146102d55761012c565b80634df7e3d0116100f45780634df7e3d0146101c75780635abe622b146101e5578063767800de146102035780637a4c2571146102215780637e4e14cc1461023f5761012c565b80630dbe671f146101315780633814c8561461014f5780633943380c1461016d578063459b1acf1461018b5780634c27fd62146101a9575b600080fd5b610139610389565b604051610146919061050f565b60405180910390f35b61015761039c565b6040516101649190610546565b60405180910390f35b6101756103af565b604051610182919061057c565b60405180910390f35b6101936103c0565b6040516101a091906105b0565b60405180910390f35b6101b16103c6565b6040516101be91906105e4565b60405180910390f35b6101cf6103cc565b6040516101dc919061050f565b60405180910390f35b6101ed6103df565b6040516101fa91906105e4565b60405180910390f35b61020b6103e5565b6040516102189190610640565b60405180910390f35b61022961040b565b60405161023691906105e4565b60405180910390f35b610247610411565b60405161025491906105e4565b60405180910390f35b610265610417565b60405161027291906105b0565b60405180910390f35b61028361041d565b6040516102909190610546565b60405180910390f35b6102a1610430565b6040516102ae919061057c565b60405180910390f35b6102bf610443565b6040516102cc9190610546565b60405180910390f35b6102dd610456565b6040516102ea9190610677565b60405180910390f35b6102fb610469565b604051610308919061057c565b60405180910390f35b61031961047c565b6040516103269190610640565b60405180910390f35b6103376104a2565b60405161034491906105b0565b60405180910390f35b6103556104a8565b60405161036291906105e4565b60405180910390f35b6103736104ae565b6040516103809190610640565b60405180910390f35b600860029054906101000a900460f81b81565b600860019054906101000a900460000b81565b60008054906101000a900460ff1681565b60015481565b60045481565b600860039054906101000a900460f81b81565b600b5481565b600960009054906101000a900473ffffffffffffffffffffffffffffffffffffffff1681565b60075481565b60065481565b600a5481565b600360009054906101000a900460000b81565b600960149054906101000a900460ff1681565b600860009054906101000a900460000b81565b600060029054906101000a900460ff1681565b600060019054906101000a900460ff1681565b600860049054906101000a900473ffffffffffffffffffffffffffffffffffffffff1681565b60025481565b60055481565b600c60009054906101000a900473ffffffffffffffffffffffffffffffffffffffff1681565b60007fff0000000000000000000000000000000000000000000000000000000000000082169050919050565b610509816104d4565b82525050565b60006020820190506105246000830184610500565b92915050565b60008160000b9050919050565b6105408161052a565b82525050565b600060208201905061055b6000830184610537565b92915050565b60008115159050919050565b61057681610561565b82525050565b6000602082019050610591600083018461056d565b92915050565b6000819050919050565b6105aa81610597565b82525050565b60006020820190506105c560008301846105a1565b92915050565b6000819050919050565b6105de816105cb565b82525050565b60006020820190506105f960008301846105d5565b92915050565b600073ffffffffffffffffffffffffffffffffffffffff82169050919050565b600061062a826105ff565b9050919050565b61063a8161061f565b82525050565b60006020820190506106556000830184610631565b92915050565b600060ff82169050919050565b6106718161065b565b82525050565b600060208201905061068c6000830184610668565b9291505056fea26469706673582212202c81e0a7ee80f21d86b5871954dcd249d935688fc0ef0ad022abeb35be666b9b64736f6c634300080d0033",
					"opcodes": "PUSH1 0x80 PUSH1 0x40 MSTORE PUSH1 0x1 PUSH1 0x0 PUSH1 0x1 PUSH2 0x100 EXP DUP2 SLOAD DUP2 PUSH1 0xFF MUL NOT AND SWAP1 DUP4 ISZERO ISZERO MUL OR SWAP1 SSTORE POP PUSH1 0x1 PUSH1 0x0 PUSH1 0x2 PUSH2 0x100 EXP DUP2 SLOAD DUP2 PUSH1 0xFF MUL NOT AND SWAP1 DUP4 PUSH1 0xFF AND MUL OR SWAP1 SSTORE POP PUSH2 0x1C8 PUSH1 0x1 SSTORE PUSH1 0x7B PUSH1 0x2 SSTORE PUSH32 0xFFFFFFFFFFFFFFFFFFFFFFFFFFFFFFFFFFFFFFFFFFFFFFFFFFFFFFFFFFFFFFFF PUSH1 0x3 PUSH1 0x0 PUSH2 0x100 EXP DUP2 SLOAD DUP2 PUSH1 0xFF MUL NOT AND SWAP1 DUP4 PUSH1 0x0 SIGNEXTEND PUSH1 0xFF AND MUL OR SWAP1 SSTORE POP PUSH2 0x1C8 PUSH1 0x4 SSTORE PUSH32 0xFFFFFFFFFFFFFFFFFFFFFFFFFFFFFFFFFFFFFFFFFFFFFFFFFFFFFFFFFFFFFB2E PUSH1 0x5 SSTORE PUSH32 0x8000000000000000000000000000000000000000000000000000000000000000 PUSH1 0x6 SSTORE PUSH32 0x7FFFFFFFFFFFFFFFFFFFFFFFFFFFFFFFFFFFFFFFFFFFFFFFFFFFFFFFFFFFFFFF PUSH1 0x7 SSTORE PUSH32 0xFFFFFFFFFFFFFFFFFFFFFFFFFFFFFFFFFFFFFFFFFFFFFFFFFFFFFFFFFFFFFF80 PUSH1 0x8 PUSH1 0x0 PUSH2 0x100 EXP DUP2 SLOAD DUP2 PUSH1 0xFF MUL NOT AND SWAP1 DUP4 PUSH1 0x0 SIGNEXTEND PUSH1 0xFF AND MUL OR SWAP1 SSTORE POP PUSH1 0x7F PUSH1 0x8 PUSH1 0x1 PUSH2 0x100 EXP DUP2 SLOAD DUP2 PUSH1 0xFF MUL NOT AND SWAP1 DUP4 PUSH1 0x0 SIGNEXTEND PUSH1 0xFF AND MUL OR SWAP1 SSTORE POP PUSH1 0xB5 PUSH1 0xF8 SHL PUSH1 0x8 PUSH1 0x2 PUSH2 0x100 EXP DUP2 SLOAD DUP2 PUSH1 0xFF MUL NOT AND SWAP1 DUP4 PUSH1 0xF8 SHR MUL OR SWAP1 SSTORE POP PUSH1 0x56 PUSH1 0xF8 SHL PUSH1 0x8 PUSH1 0x3 PUSH2 0x100 EXP DUP2 SLOAD DUP2 PUSH1 0xFF MUL NOT AND SWAP1 DUP4 PUSH1 0xF8 SHR MUL OR SWAP1 SSTORE POP PUSH20 0x5B38DA6A701C568545DCFCB03FCB875F56BEDDC4 PUSH1 0x9 PUSH1 0x0 PUSH2 0x100 EXP DUP2 SLOAD DUP2 PUSH20 0xFFFFFFFFFFFFFFFFFFFFFFFFFFFFFFFFFFFFFFFF MUL NOT AND SWAP1 DUP4 PUSH20 0xFFFFFFFFFFFFFFFFFFFFFFFFFFFFFFFFFFFFFFFF AND MUL OR SWAP1 SSTORE POP CALLVALUE DUP1 ISZERO PUSH2 0x1F2 JUMPI PUSH1 0x0 DUP1 REVERT JUMPDEST POP PUSH2 0x6C8 DUP1 PUSH2 0x202 PUSH1 0x0 CODECOPY PUSH1 0x0 RETURN INVALID PUSH1 0x80 PUSH1 0x40 MSTORE CALLVALUE DUP1 ISZERO PUSH2 0x10 JUMPI PUSH1 0x0 DUP1 REVERT JUMPDEST POP PUSH1 0x4 CALLDATASIZE LT PUSH2 0x12C JUMPI PUSH1 0x0 CALLDATALOAD PUSH1 0xE0 SHR DUP1 PUSH4 0x8381F58A GT PUSH2 0xAD JUMPI DUP1 PUSH4 0xB6C52AE8 GT PUSH2 0x71 JUMPI DUP1 PUSH4 0xB6C52AE8 EQ PUSH2 0x2F3 JUMPI DUP1 PUSH4 0xBDE2B573 EQ PUSH2 0x311 JUMPI DUP1 PUSH4 0xC6A898C5 EQ PUSH2 0x32F JUMPI DUP1 PUSH4 0xE5AA3D58 EQ PUSH2 0x34D JUMPI DUP1 PUSH4 0xF2427D37 EQ PUSH2 0x36B JUMPI PUSH2 0x12C JUMP JUMPDEST DUP1 PUSH4 0x8381F58A EQ PUSH2 0x25D JUMPI DUP1 PUSH4 0x921CDA74 EQ PUSH2 0x27B JUMPI DUP1 PUSH4 0xA1DD7EC0 EQ PUSH2 0x299 JUMPI DUP1 PUSH4 0xA631EB62 EQ PUSH2 0x2B7 JUMPI DUP1 PUSH4 0xAB3A58A3 EQ PUSH2 0x2D5 JUMPI PUSH2 0x12C JUMP JUMPDEST DUP1 PUSH4 0x4DF7E3D0 GT PUSH2 0xF4 JUMPI DUP1 PUSH4 0x4DF7E3D0 EQ PUSH2 0x1C7 JUMPI DUP1 PUSH4 0x5ABE622B EQ PUSH2 0x1E5 JUMPI DUP1 PUSH4 0x767800DE EQ PUSH2 0x203 JUMPI DUP1 PUSH4 0x7A4C2571 EQ PUSH2 0x221 JUMPI DUP1 PUSH4 0x7E4E14CC EQ PUSH2 0x23F JUMPI PUSH2 0x12C JUMP JUMPDEST DUP1 PUSH4 0xDBE671F EQ PUSH2 0x131 JUMPI DUP1 PUSH4 0x3814C856 EQ PUSH2 0x14F JUMPI DUP1 PUSH4 0x3943380C EQ PUSH2 0x16D JUMPI DUP1 PUSH4 0x459B1ACF EQ PUSH2 0x18B JUMPI DUP1 PUSH4 0x4C27FD62 EQ PUSH2 0x1A9 JUMPI JUMPDEST PUSH1 0x0 DUP1 REVERT JUMPDEST PUSH2 0x139 PUSH2 0x389 JUMP JUMPDEST PUSH1 0x40 MLOAD PUSH2 0x146 SWAP2 SWAP1 PUSH2 0x50F JUMP JUMPDEST PUSH1 0x40 MLOAD DUP1 SWAP2 SUB SWAP1 RETURN JUMPDEST PUSH2 0x157 PUSH2 0x39C JUMP JUMPDEST PUSH1 0x40 MLOAD PUSH2 0x164 SWAP2 SWAP1 PUSH2 0x546 JUMP JUMPDEST PUSH1 0x40 MLOAD DUP1 SWAP2 SUB SWAP1 RETURN JUMPDEST PUSH2 0x175 PUSH2 0x3AF JUMP JUMPDEST PUSH1 0x40 MLOAD PUSH2 0x182 SWAP2 SWAP1 PUSH2 0x57C JUMP JUMPDEST PUSH1 0x40 MLOAD DUP1 SWAP2 SUB SWAP1 RETURN JUMPDEST PUSH2 0x193 PUSH2 0x3C0 JUMP JUMPDEST PUSH1 0x40 MLOAD PUSH2 0x1A0 SWAP2 SWAP1 PUSH2 0x5B0 JUMP JUMPDEST PUSH1 0x40 MLOAD DUP1 SWAP2 SUB SWAP1 RETURN JUMPDEST PUSH2 0x1B1 PUSH2 0x3C6 JUMP JUMPDEST PUSH1 0x40 MLOAD PUSH2 0x1BE SWAP2 SWAP1 PUSH2 0x5E4 JUMP JUMPDEST PUSH1 0x40 MLOAD DUP1 SWAP2 SUB SWAP1 RETURN JUMPDEST PUSH2 0x1CF PUSH2 0x3CC JUMP JUMPDEST PUSH1 0x40 MLOAD PUSH2 0x1DC SWAP2 SWAP1 PUSH2 0x50F JUMP JUMPDEST PUSH1 0x40 MLOAD DUP1 SWAP2 SUB SWAP1 RETURN JUMPDEST PUSH2 0x1ED PUSH2 0x3DF JUMP JUMPDEST PUSH1 0x40 MLOAD PUSH2 0x1FA SWAP2 SWAP1 PUSH2 0x5E4 JUMP JUMPDEST PUSH1 0x40 MLOAD DUP1 SWAP2 SUB SWAP1 RETURN JUMPDEST PUSH2 0x20B PUSH2 0x3E5 JUMP JUMPDEST PUSH1 0x40 MLOAD PUSH2 0x218 SWAP2 SWAP1 PUSH2 0x640 JUMP JUMPDEST PUSH1 0x40 MLOAD DUP1 SWAP2 SUB SWAP1 RETURN JUMPDEST PUSH2 0x229 PUSH2 0x40B JUMP JUMPDEST PUSH1 0x40 MLOAD PUSH2 0x236 SWAP2 SWAP1 PUSH2 0x5E4 JUMP JUMPDEST PUSH1 0x40 MLOAD DUP1 SWAP2 SUB SWAP1 RETURN JUMPDEST PUSH2 0x247 PUSH2 0x411 JUMP JUMPDEST PUSH1 0x40 MLOAD PUSH2 0x254 SWAP2 SWAP1 PUSH2 0x5E4 JUMP JUMPDEST PUSH1 0x40 MLOAD DUP1 SWAP2 SUB SWAP1 RETURN JUMPDEST PUSH2 0x265 PUSH2 0x417 JUMP JUMPDEST PUSH1 0x40 MLOAD PUSH2 0x272 SWAP2 SWAP1 PUSH2 0x5B0 JUMP JUMPDEST PUSH1 0x40 MLOAD DUP1 SWAP2 SUB SWAP1 RETURN JUMPDEST PUSH2 0x283 PUSH2 0x41D JUMP JUMPDEST PUSH1 0x40 MLOAD PUSH2 0x290 SWAP2 SWAP1 PUSH2 0x546 JUMP JUMPDEST PUSH1 0x40 MLOAD DUP1 SWAP2 SUB SWAP1 RETURN JUMPDEST PUSH2 0x2A1 PUSH2 0x430 JUMP JUMPDEST PUSH1 0x40 MLOAD PUSH2 0x2AE SWAP2 SWAP1 PUSH2 0x57C JUMP JUMPDEST PUSH1 0x40 MLOAD DUP1 SWAP2 SUB SWAP1 RETURN JUMPDEST PUSH2 0x2BF PUSH2 0x443 JUMP JUMPDEST PUSH1 0x40 MLOAD PUSH2 0x2CC SWAP2 SWAP1 PUSH2 0x546 JUMP JUMPDEST PUSH1 0x40 MLOAD DUP1 SWAP2 SUB SWAP1 RETURN JUMPDEST PUSH2 0x2DD PUSH2 0x456 JUMP JUMPDEST PUSH1 0x40 MLOAD PUSH2 0x2EA SWAP2 SWAP1 PUSH2 0x677 JUMP JUMPDEST PUSH1 0x40 MLOAD DUP1 SWAP2 SUB SWAP1 RETURN JUMPDEST PUSH2 0x2FB PUSH2 0x469 JUMP JUMPDEST PUSH1 0x40 MLOAD PUSH2 0x308 SWAP2 SWAP1 PUSH2 0x57C JUMP JUMPDEST PUSH1 0x40 MLOAD DUP1 SWAP2 SUB SWAP1 RETURN JUMPDEST PUSH2 0x319 PUSH2 0x47C JUMP JUMPDEST PUSH1 0x40 MLOAD PUSH2 0x326 SWAP2 SWAP1 PUSH2 0x640 JUMP JUMPDEST PUSH1 0x40 MLOAD DUP1 SWAP2 SUB SWAP1 RETURN JUMPDEST PUSH2 0x337 PUSH2 0x4A2 JUMP JUMPDEST PUSH1 0x40 MLOAD PUSH2 0x344 SWAP2 SWAP1 PUSH2 0x5B0 JUMP JUMPDEST PUSH1 0x40 MLOAD DUP1 SWAP2 SUB SWAP1 RETURN JUMPDEST PUSH2 0x355 PUSH2 0x4A8 JUMP JUMPDEST PUSH1 0x40 MLOAD PUSH2 0x362 SWAP2 SWAP1 PUSH2 0x5E4 JUMP JUMPDEST PUSH1 0x40 MLOAD DUP1 SWAP2 SUB SWAP1 RETURN JUMPDEST PUSH2 0x373 PUSH2 0x4AE JUMP JUMPDEST PUSH1 0x40 MLOAD PUSH2 0x380 SWAP2 SWAP1 PUSH2 0x640 JUMP JUMPDEST PUSH1 0x40 MLOAD DUP1 SWAP2 SUB SWAP1 RETURN JUMPDEST PUSH1 0x8 PUSH1 0x2 SWAP1 SLOAD SWAP1 PUSH2 0x100 EXP SWAP1 DIV PUSH1 0xF8 SHL DUP2 JUMP JUMPDEST PUSH1 0x8 PUSH1 0x1 SWAP1 SLOAD SWAP1 PUSH2 0x100 EXP SWAP1 DIV PUSH1 0x0 SIGNEXTEND DUP2 JUMP JUMPDEST PUSH1 0x0 DUP1 SLOAD SWAP1 PUSH2 0x100 EXP SWAP1 DIV PUSH1 0xFF AND DUP2 JUMP JUMPDEST PUSH1 0x1 SLOAD DUP2 JUMP JUMPDEST PUSH1 0x4 SLOAD DUP2 JUMP JUMPDEST PUSH1 0x8 PUSH1 0x3 SWAP1 SLOAD SWAP1 PUSH2 0x100 EXP SWAP1 DIV PUSH1 0xF8 SHL DUP2 JUMP JUMPDEST PUSH1 0xB SLOAD DUP2 JUMP JUMPDEST PUSH1 0x9 PUSH1 0x0 SWAP1 SLOAD SWAP1 PUSH2 0x100 EXP SWAP1 DIV PUSH20 0xFFFFFFFFFFFFFFFFFFFFFFFFFFFFFFFFFFFFFFFF AND DUP2 JUMP JUMPDEST PUSH1 0x7 SLOAD DUP2 JUMP JUMPDEST PUSH1 0x6 SLOAD DUP2 JUMP JUMPDEST PUSH1 0xA SLOAD DUP2 JUMP JUMPDEST PUSH1 0x3 PUSH1 0x0 SWAP1 SLOAD SWAP1 PUSH2 0x100 EXP SWAP1 DIV PUSH1 0x0 SIGNEXTEND DUP2 JUMP JUMPDEST PUSH1 0x9 PUSH1 0x14 SWAP1 SLOAD SWAP1 PUSH2 0x100 EXP SWAP1 DIV PUSH1 0xFF AND DUP2 JUMP JUMPDEST PUSH1 0x8 PUSH1 0x0 SWAP1 SLOAD SWAP1 PUSH2 0x100 EXP SWAP1 DIV PUSH1 0x0 SIGNEXTEND DUP2 JUMP JUMPDEST PUSH1 0x0 PUSH1 0x2 SWAP1 SLOAD SWAP1 PUSH2 0x100 EXP SWAP1 DIV PUSH1 0xFF AND DUP2 JUMP JUMPDEST PUSH1 0x0 PUSH1 0x1 SWAP1 SLOAD SWAP1 PUSH2 0x100 EXP SWAP1 DIV PUSH1 0xFF AND DUP2 JUMP JUMPDEST PUSH1 0x8 PUSH1 0x4 SWAP1 SLOAD SWAP1 PUSH2 0x100 EXP SWAP1 DIV PUSH20 0xFFFFFFFFFFFFFFFFFFFFFFFFFFFFFFFFFFFFFFFF AND DUP2 JUMP JUMPDEST PUSH1 0x2 SLOAD DUP2 JUMP JUMPDEST PUSH1 0x5 SLOAD DUP2 JUMP JUMPDEST PUSH1 0xC PUSH1 0x0 SWAP1 SLOAD SWAP1 PUSH2 0x100 EXP SWAP1 DIV PUSH20 0xFFFFFFFFFFFFFFFFFFFFFFFFFFFFFFFFFFFFFFFF AND DUP2 JUMP JUMPDEST PUSH1 0x0 PUSH32 0xFF00000000000000000000000000000000000000000000000000000000000000 DUP3 AND SWAP1 POP SWAP2 SWAP1 POP JUMP JUMPDEST PUSH2 0x509 DUP2 PUSH2 0x4D4 JUMP JUMPDEST DUP3 MSTORE POP POP JUMP JUMPDEST PUSH1 0x0 PUSH1 0x20 DUP3 ADD SWAP1 POP PUSH2 0x524 PUSH1 0x0 DUP4 ADD DUP5 PUSH2 0x500 JUMP JUMPDEST SWAP3 SWAP2 POP POP JUMP JUMPDEST PUSH1 0x0 DUP2 PUSH1 0x0 SIGNEXTEND SWAP1 POP SWAP2 SWAP1 POP JUMP JUMPDEST PUSH2 0x540 DUP2 PUSH2 0x52A JUMP JUMPDEST DUP3 MSTORE POP POP JUMP JUMPDEST PUSH1 0x0 PUSH1 0x20 DUP3 ADD SWAP1 POP PUSH2 0x55B PUSH1 0x0 DUP4 ADD DUP5 PUSH2 0x537 JUMP JUMPDEST SWAP3 SWAP2 POP POP JUMP JUMPDEST PUSH1 0x0 DUP2 ISZERO ISZERO SWAP1 POP SWAP2 SWAP1 POP JUMP JUMPDEST PUSH2 0x576 DUP2 PUSH2 0x561 JUMP JUMPDEST DUP3 MSTORE POP POP JUMP JUMPDEST PUSH1 0x0 PUSH1 0x20 DUP3 ADD SWAP1 POP PUSH2 0x591 PUSH1 0x0 DUP4 ADD DUP5 PUSH2 0x56D JUMP JUMPDEST SWAP3 SWAP2 POP POP JUMP JUMPDEST PUSH1 0x0 DUP2 SWAP1 POP SWAP2 SWAP1 POP JUMP JUMPDEST PUSH2 0x5AA DUP2 PUSH2 0x597 JUMP JUMPDEST DUP3 MSTORE POP POP JUMP JUMPDEST PUSH1 0x0 PUSH1 0x20 DUP3 ADD SWAP1 POP PUSH2 0x5C5 PUSH1 0x0 DUP4 ADD DUP5 PUSH2 0x5A1 JUMP JUMPDEST SWAP3 SWAP2 POP POP JUMP JUMPDEST PUSH1 0x0 DUP2 SWAP1 POP SWAP2 SWAP1 POP JUMP JUMPDEST PUSH2 0x5DE DUP2 PUSH2 0x5CB JUMP JUMPDEST DUP3 MSTORE POP POP JUMP JUMPDEST PUSH1 0x0 PUSH1 0x20 DUP3 ADD SWAP1 POP PUSH2 0x5F9 PUSH1 0x0 DUP4 ADD DUP5 PUSH2 0x5D5 JUMP JUMPDEST SWAP3 SWAP2 POP POP JUMP JUMPDEST PUSH1 0x0 PUSH20 0xFFFFFFFFFFFFFFFFFFFFFFFFFFFFFFFFFFFFFFFF DUP3 AND SWAP1 POP SWAP2 SWAP1 POP JUMP JUMPDEST PUSH1 0x0 PUSH2 0x62A DUP3 PUSH2 0x5FF JUMP JUMPDEST SWAP1 POP SWAP2 SWAP1 POP JUMP JUMPDEST PUSH2 0x63A DUP2 PUSH2 0x61F JUMP JUMPDEST DUP3 MSTORE POP POP JUMP JUMPDEST PUSH1 0x0 PUSH1 0x20 DUP3 ADD SWAP1 POP PUSH2 0x655 PUSH1 0x0 DUP4 ADD DUP5 PUSH2 0x631 JUMP JUMPDEST SWAP3 SWAP2 POP POP JUMP JUMPDEST PUSH1 0x0 PUSH1 0xFF DUP3 AND SWAP1 POP SWAP2 SWAP1 POP JUMP JUMPDEST PUSH2 0x671 DUP2 PUSH2 0x65B JUMP JUMPDEST DUP3 MSTORE POP POP JUMP JUMPDEST PUSH1 0x0 PUSH1 0x20 DUP3 ADD SWAP1 POP PUSH2 0x68C PUSH1 0x0 DUP4 ADD DUP5 PUSH2 0x668 JUMP JUMPDEST SWAP3 SWAP2 POP POP JUMP INVALID LOG2 PUSH5 0x6970667358 0x22 SLT KECCAK256 0x2C DUP2 0xE0 0xA7 0xEE DUP1 CALLCODE SAR DUP7 0xB5 DUP8 NOT SLOAD 0xDC 0xD2 0x49 0xD9 CALLDATALOAD PUSH9 0x8FC0EF0AD022ABEB35 0xBE PUSH7 0x6B9B64736F6C63 NUMBER STOP ADDMOD 0xD STOP CALLER "
				},
				"gasEstimates": {
					"creation": {
						"codeDepositCost": "347200",
						"executionCost": "327444",
						"totalCost": "674644"
					},
					"external": {
						"a()": "2545",
						"addr()": "2581",
						"b()": "2544",
						"defaultAddr()": "2624",
						"defaultBoll()": "2588",
						"defaultInt()": "2474",
						"hey()": "2608",
						"i()": "2517",
						"i256()": "2541",
						"i8()": "2520",
						"key()": "2536",
						"maxInt()": "2518",
						"maxInt8()": "2571",
						"minInt()": "2540",
						"minInt8()": "2564",
						"no()": "2543",
						"number()": "2452",
						"u()": "2495",
						"u256()": "2519",
						"u8()": "2632"
					}
				},
				"methodIdentifiers": {
					"a()": "0dbe671f",
					"addr()": "767800de",
					"b()": "4df7e3d0",
					"defaultAddr()": "f2427d37",
					"defaultBoll()": "a1dd7ec0",
					"defaultInt()": "5abe622b",
					"hey()": "bde2b573",
					"i()": "e5aa3d58",
					"i256()": "4c27fd62",
					"i8()": "921cda74",
					"key()": "3943380c",
					"maxInt()": "7a4c2571",
					"maxInt8()": "3814c856",
					"minInt()": "7e4e14cc",
					"minInt8()": "a631eb62",
					"no()": "b6c52ae8",
					"number()": "8381f58a",
					"u()": "c6a898c5",
					"u256()": "459b1acf",
					"u8()": "ab3a58a3"
				}
			},
			"storageLayout": {
				"storage": [
					{
						"astId": 3,
						"contract": "contracts/dataTypes_07.sol:DataTypes",
						"label": "key",
						"offset": 0,
						"slot": "0",
						"type": "t_bool"
					},
					{
						"astId": 6,
						"contract": "contracts/dataTypes_07.sol:DataTypes",
						"label": "no",
						"offset": 1,
						"slot": "0",
						"type": "t_bool"
					},
					{
						"astId": 9,
						"contract": "contracts/dataTypes_07.sol:DataTypes",
						"label": "u8",
						"offset": 2,
						"slot": "0",
						"type": "t_uint8"
					},
					{
						"astId": 12,
						"contract": "contracts/dataTypes_07.sol:DataTypes",
						"label": "u256",
						"offset": 0,
						"slot": "1",
						"type": "t_uint256"
					},
					{
						"astId": 15,
						"contract": "contracts/dataTypes_07.sol:DataTypes",
						"label": "u",
						"offset": 0,
						"slot": "2",
						"type": "t_uint256"
					},
					{
						"astId": 19,
						"contract": "contracts/dataTypes_07.sol:DataTypes",
						"label": "i8",
						"offset": 0,
						"slot": "3",
						"type": "t_int8"
					},
					{
						"astId": 22,
						"contract": "contracts/dataTypes_07.sol:DataTypes",
						"label": "i256",
						"offset": 0,
						"slot": "4",
						"type": "t_int256"
					},
					{
						"astId": 26,
						"contract": "contracts/dataTypes_07.sol:DataTypes",
						"label": "i",
						"offset": 0,
						"slot": "5",
						"type": "t_int256"
					},
					{
						"astId": 33,
						"contract": "contracts/dataTypes_07.sol:DataTypes",
						"label": "minInt",
						"offset": 0,
						"slot": "6",
						"type": "t_int256"
					},
					{
						"astId": 40,
						"contract": "contracts/dataTypes_07.sol:DataTypes",
						"label": "maxInt",
						"offset": 0,
						"slot": "7",
						"type": "t_int256"
					},
					{
						"astId": 47,
						"contract": "contracts/dataTypes_07.sol:DataTypes",
						"label": "minInt8",
						"offset": 0,
						"slot": "8",
						"type": "t_int8"
					},
					{
						"astId": 54,
						"contract": "contracts/dataTypes_07.sol:DataTypes",
						"label": "maxInt8",
						"offset": 1,
						"slot": "8",
						"type": "t_int8"
					},
					{
						"astId": 57,
						"contract": "contracts/dataTypes_07.sol:DataTypes",
						"label": "a",
						"offset": 2,
						"slot": "8",
						"type": "t_bytes1"
					},
					{
						"astId": 60,
						"contract": "contracts/dataTypes_07.sol:DataTypes",
						"label": "b",
						"offset": 3,
						"slot": "8",
						"type": "t_bytes1"
					},
					{
						"astId": 62,
						"contract": "contracts/dataTypes_07.sol:DataTypes",
						"label": "hey",
						"offset": 4,
						"slot": "8",
						"type": "t_address"
					},
					{
						"astId": 65,
						"contract": "contracts/dataTypes_07.sol:DataTypes",
						"label": "addr",
						"offset": 0,
						"slot": "9",
						"type": "t_address"
					},
					{
						"astId": 67,
						"contract": "contracts/dataTypes_07.sol:DataTypes",
						"label": "defaultBoll",
						"offset": 20,
						"slot": "9",
						"type": "t_bool"
					},
					{
						"astId": 69,
						"contract": "contracts/dataTypes_07.sol:DataTypes",
						"label": "number",
						"offset": 0,
						"slot": "10",
						"type": "t_uint256"
					},
					{
						"astId": 71,
						"contract": "contracts/dataTypes_07.sol:DataTypes",
						"label": "defaultInt",
						"offset": 0,
						"slot": "11",
						"type": "t_int256"
					},
					{
						"astId": 73,
						"contract": "contracts/dataTypes_07.sol:DataTypes",
						"label": "defaultAddr",
						"offset": 0,
						"slot": "12",
						"type": "t_address"
					}
				],
				"types": {
					"t_address": {
						"encoding": "inplace",
						"label": "address",
						"numberOfBytes": "20"
					},
					"t_bool": {
						"encoding": "inplace",
						"label": "bool",
						"numberOfBytes": "1"
					},
					"t_bytes1": {
						"encoding": "inplace",
						"label": "bytes1",
						"numberOfBytes": "1"
					},
					"t_int256": {
						"encoding": "inplace",
						"label": "int256",
						"numberOfBytes": "32"
					},
					"t_int8": {
						"encoding": "inplace",
						"label": "int8",
						"numberOfBytes": "1"
					},
					"t_uint256": {
						"encoding": "inplace",
						"label": "uint256",
						"numberOfBytes": "32"
					},
					"t_uint8": {
						"encoding": "inplace",
						"label": "uint8",
						"numberOfBytes": "1"
					}
				}
			},
			"userdoc": {
				"kind": "user",
				"methods": {},
				"version": 1
			}
		}
	}
}