{
	"contracts/globalVariable_11.sol": {
		"GlobalVariables": {
			"abi": [
				{
					"inputs": [],
					"stateMutability": "nonpayable",
					"type": "constructor"
				},
				{
					"inputs": [],
					"name": "MyBlockHash",
					"outputs": [
						{
							"internalType": "address",
							"name": "",
							"type": "address"
						}
					],
					"stateMutability": "view",
					"type": "function"
				},
				{
					"inputs": [],
					"name": "callData",
					"outputs": [
						{
							"internalType": "bytes",
							"name": "",
							"type": "bytes"
						}
					],
					"stateMutability": "view",
					"type": "function"
				},
				{
					"inputs": [],
					"name": "difficulty",
					"outputs": [
						{
							"internalType": "uint256",
							"name": "",
							"type": "uint256"
						}
					],
					"stateMutability": "view",
					"type": "function"
				},
				{
					"inputs": [],
					"name": "firstFour",
					"outputs": [
						{
							"internalType": "bytes4",
							"name": "",
							"type": "bytes4"
						}
					],
					"stateMutability": "view",
					"type": "function"
				},
				{
					"inputs": [],
					"name": "gasLimit",
					"outputs": [
						{
							"internalType": "uint256",
							"name": "",
							"type": "uint256"
						}
					],
					"stateMutability": "view",
					"type": "function"
				},
				{
					"inputs": [],
					"name": "gasprice",
					"outputs": [
						{
							"internalType": "uint256",
							"name": "",
							"type": "uint256"
						}
					],
					"stateMutability": "view",
					"type": "function"
				},
				{
					"inputs": [],
					"name": "nowOn",
					"outputs": [
						{
							"internalType": "uint256",
							"name": "",
							"type": "uint256"
						}
					],
					"stateMutability": "view",
					"type": "function"
				},
				{
					"inputs": [],
					"name": "number",
					"outputs": [
						{
							"internalType": "uint256",
							"name": "",
							"type": "uint256"
						}
					],
					"stateMutability": "view",
					"type": "function"
				},
				{
					"inputs": [],
					"name": "origin",
					"outputs": [
						{
							"internalType": "address",
							"name": "",
							"type": "address"
						}
					],
					"stateMutability": "view",
					"type": "function"
				},
				{
					"inputs": [],
					"name": "owner",
					"outputs": [
						{
							"internalType": "address",
							"name": "",
							"type": "address"
						}
					],
					"stateMutability": "view",
					"type": "function"
				},
				{
					"inputs": [],
					"name": "timestamp",
					"outputs": [
						{
							"internalType": "uint256",
							"name": "",
							"type": "uint256"
						}
					],
					"stateMutability": "view",
					"type": "function"
				},
				{
					"inputs": [],
					"name": "value",
					"outputs": [
						{
							"internalType": "uint256",
							"name": "",
							"type": "uint256"
						}
					],
					"stateMutability": "view",
					"type": "function"
				}
			],
			"devdoc": {
				"kind": "dev",
				"methods": {},
				"version": 1
			},
			"evm": {
				"assembly": "    /* \"contracts/globalVariable_11.sol\":104:1667  contract GlobalVariables{... */\n  mstore(0x40, 0x80)\n    /* \"contracts/globalVariable_11.sol\":764:1665  constructor(){... */\n  callvalue\n  dup1\n  iszero\n  tag_1\n  jumpi\n  0x00\n  dup1\n  revert\ntag_1:\n  pop\n    /* \"contracts/globalVariable_11.sol\":796:806  msg.sender */\n  caller\n    /* \"contracts/globalVariable_11.sol\":788:793  owner */\n  0x00\n  dup1\n    /* \"contracts/globalVariable_11.sol\":788:806  owner = msg.sender */\n  0x0100\n  exp\n  dup2\n  sload\n  dup2\n  0xffffffffffffffffffffffffffffffffffffffff\n  mul\n  not\n  and\n  swap1\n  dup4\n  0xffffffffffffffffffffffffffffffffffffffff\n  and\n  mul\n  or\n  swap1\n  sstore\n  pop\n    /* \"contracts/globalVariable_11.sol\":886:900  block.coinbase */\n  coinbase\n    /* \"contracts/globalVariable_11.sol\":872:883  MyBlockHash */\n  0x01\n  0x00\n    /* \"contracts/globalVariable_11.sol\":872:900  MyBlockHash = block.coinbase */\n  0x0100\n  exp\n  dup2\n  sload\n  dup2\n  0xffffffffffffffffffffffffffffffffffffffff\n  mul\n  not\n  and\n  swap1\n  dup4\n  0xffffffffffffffffffffffffffffffffffffffff\n  and\n  mul\n  or\n  swap1\n  sstore\n  pop\n    /* \"contracts/globalVariable_11.sol\":990:1006  block.difficulty */\n  difficulty\n    /* \"contracts/globalVariable_11.sol\":977:987  difficulty */\n  0x02\n    /* \"contracts/globalVariable_11.sol\":977:1006  difficulty = block.difficulty */\n  dup2\n  swap1\n  sstore\n  pop\n    /* \"contracts/globalVariable_11.sol\":1072:1086  block.gaslimit */\n  gaslimit\n    /* \"contracts/globalVariable_11.sol\":1061:1069  gasLimit */\n  0x03\n    /* \"contracts/globalVariable_11.sol\":1061:1086  gasLimit = block.gaslimit */\n  dup2\n  swap1\n  sstore\n  pop\n    /* \"contracts/globalVariable_11.sol\":1105:1117  block.number */\n  number\n    /* \"contracts/globalVariable_11.sol\":1096:1102  number */\n  0x04\n    /* \"contracts/globalVariable_11.sol\":1096:1117  number = block.number */\n  dup2\n  swap1\n  sstore\n  pop\n    /* \"contracts/globalVariable_11.sol\":1185:1200  block.timestamp */\n  timestamp\n    /* \"contracts/globalVariable_11.sol\":1173:1182  timestamp */\n  0x05\n    /* \"contracts/globalVariable_11.sol\":1173:1200  timestamp = block.timestamp */\n  dup2\n  swap1\n  sstore\n  pop\n    /* \"contracts/globalVariable_11.sol\":1264:1273  tx.origin */\n  origin\n    /* \"contracts/globalVariable_11.sol\":1255:1261  origin */\n  0x08\n  0x00\n    /* \"contracts/globalVariable_11.sol\":1255:1273  origin = tx.origin */\n  0x0100\n  exp\n  dup2\n  sload\n  dup2\n  0xffffffffffffffffffffffffffffffffffffffff\n  mul\n  not\n  and\n  swap1\n  dup4\n  0xffffffffffffffffffffffffffffffffffffffff\n  and\n  mul\n  or\n  swap1\n  sstore\n  pop\n    /* \"contracts/globalVariable_11.sol\":1396:1407  tx.gasprice */\n  gasprice\n    /* \"contracts/globalVariable_11.sol\":1385:1393  gasprice */\n  0x09\n    /* \"contracts/globalVariable_11.sol\":1385:1407  gasprice = tx.gasprice */\n  dup2\n  swap1\n  sstore\n  pop\n    /* \"contracts/globalVariable_11.sol\":1457:1465  msg.data */\n  0x00\n  calldatasize\n    /* \"contracts/globalVariable_11.sol\":1446:1454  callData */\n  0x0a\n    /* \"contracts/globalVariable_11.sol\":1446:1465  callData = msg.data */\n  swap2\n  swap1\n  tag_4\n  swap3\n  swap2\n  swap1\n  tag_5\n  jump\t// in\ntag_4:\n  pop\n    /* \"contracts/globalVariable_11.sol\":1526:1533  msg.sig */\n  and(0xffffffff00000000000000000000000000000000000000000000000000000000, calldataload(0x00))\n    /* \"contracts/globalVariable_11.sol\":1514:1523  firstFour */\n  0x0b\n  0x00\n    /* \"contracts/globalVariable_11.sol\":1514:1533  firstFour = msg.sig */\n  0x0100\n  exp\n  dup2\n  sload\n  dup2\n  0xffffffff\n  mul\n  not\n  and\n  swap1\n  dup4\n  0xe0\n  shr\n  mul\n  or\n  swap1\n  sstore\n  pop\n    /* \"contracts/globalVariable_11.sol\":104:1667  contract GlobalVariables{... */\n  jump(tag_6)\ntag_5:\n  dup3\n  dup1\n  sload\n  tag_7\n  swap1\n  tag_8\n  jump\t// in\ntag_7:\n  swap1\n  0x00\n  mstore\n  keccak256(0x00, 0x20)\n  swap1\n  0x1f\n  add\n  0x20\n  swap1\n  div\n  dup2\n  add\n  swap3\n  dup3\n  tag_10\n  jumpi\n  0x00\n  dup6\n  sstore\n  jump(tag_9)\ntag_10:\n  dup3\n  0x1f\n  lt\n  tag_11\n  jumpi\n  dup1\n  calldataload\n  not(0xff)\n  and\n  dup4\n  dup1\n  add\n  or\n  dup6\n  sstore\n  jump(tag_9)\ntag_11:\n  dup3\n  dup1\n  add\n  0x01\n  add\n  dup6\n  sstore\n  dup3\n  iszero\n  tag_9\n  jumpi\n  swap2\n  dup3\n  add\ntag_12:\n  dup3\n  dup2\n  gt\n  iszero\n  tag_13\n  jumpi\n  dup3\n  calldataload\n  dup3\n  sstore\n  swap2\n  0x20\n  add\n  swap2\n  swap1\n  0x01\n  add\n  swap1\n  jump(tag_12)\ntag_13:\ntag_9:\n  pop\n  swap1\n  pop\n  tag_14\n  swap2\n  swap1\n  tag_15\n  jump\t// in\ntag_14:\n  pop\n  swap1\n  jump\t// out\ntag_15:\ntag_16:\n  dup1\n  dup3\n  gt\n  iszero\n  tag_17\n  jumpi\n  0x00\n  dup2\n  0x00\n  swap1\n  sstore\n  pop\n  0x01\n  add\n  jump(tag_16)\ntag_17:\n  pop\n  swap1\n  jump\t// out\n    /* \"#utility.yul\":7:187   */\ntag_18:\n    /* \"#utility.yul\":55:132   */\n  0x4e487b7100000000000000000000000000000000000000000000000000000000\n    /* \"#utility.yul\":52:53   */\n  0x00\n    /* \"#utility.yul\":45:133   */\n  mstore\n    /* \"#utility.yul\":152:156   */\n  0x22\n    /* \"#utility.yul\":149:150   */\n  0x04\n    /* \"#utility.yul\":142:157   */\n  mstore\n    /* \"#utility.yul\":176:180   */\n  0x24\n    /* \"#utility.yul\":173:174   */\n  0x00\n    /* \"#utility.yul\":166:181   */\n  revert\n    /* \"#utility.yul\":193:513   */\ntag_8:\n    /* \"#utility.yul\":237:243   */\n  0x00\n    /* \"#utility.yul\":274:275   */\n  0x02\n    /* \"#utility.yul\":268:272   */\n  dup3\n    /* \"#utility.yul\":264:276   */\n  div\n    /* \"#utility.yul\":254:276   */\n  swap1\n  pop\n    /* \"#utility.yul\":321:322   */\n  0x01\n    /* \"#utility.yul\":315:319   */\n  dup3\n    /* \"#utility.yul\":311:323   */\n  and\n    /* \"#utility.yul\":342:360   */\n  dup1\n    /* \"#utility.yul\":332:413   */\n  tag_22\n  jumpi\n    /* \"#utility.yul\":398:402   */\n  0x7f\n    /* \"#utility.yul\":390:396   */\n  dup3\n    /* \"#utility.yul\":386:403   */\n  and\n    /* \"#utility.yul\":376:403   */\n  swap2\n  pop\n    /* \"#utility.yul\":332:413   */\ntag_22:\n    /* \"#utility.yul\":460:462   */\n  0x20\n    /* \"#utility.yul\":452:458   */\n  dup3\n    /* \"#utility.yul\":449:463   */\n  lt\n    /* \"#utility.yul\":429:447   */\n  dup2\n    /* \"#utility.yul\":426:464   */\n  sub\n    /* \"#utility.yul\":423:507   */\n  tag_23\n  jumpi\n    /* \"#utility.yul\":479:497   */\n  tag_24\n  tag_18\n  jump\t// in\ntag_24:\n    /* \"#utility.yul\":423:507   */\ntag_23:\n    /* \"#utility.yul\":244:513   */\n  pop\n    /* \"#utility.yul\":193:513   */\n  swap2\n  swap1\n  pop\n  jump\t// out\n    /* \"contracts/globalVariable_11.sol\":104:1667  contract GlobalVariables{... */\ntag_6:\n  dataSize(sub_0)\n  dup1\n  dataOffset(sub_0)\n  0x00\n  codecopy\n  0x00\n  return\nstop\n\nsub_0: assembly {\n        /* \"contracts/globalVariable_11.sol\":104:1667  contract GlobalVariables{... */\n      mstore(0x40, 0x80)\n      callvalue\n      dup1\n      iszero\n      tag_1\n      jumpi\n      0x00\n      dup1\n      revert\n    tag_1:\n      pop\n      jumpi(tag_2, lt(calldatasize, 0x04))\n      shr(0xe0, calldataload(0x00))\n      dup1\n      0x8da5cb5b\n      gt\n      tag_15\n      jumpi\n      dup1\n      0x8da5cb5b\n      eq\n      tag_9\n      jumpi\n      dup1\n      0x91953874\n      eq\n      tag_10\n      jumpi\n      dup1\n      0x938b5f32\n      eq\n      tag_11\n      jumpi\n      dup1\n      0xb80777ea\n      eq\n      tag_12\n      jumpi\n      dup1\n      0xe25ccbe7\n      eq\n      tag_13\n      jumpi\n      dup1\n      0xf68016b7\n      eq\n      tag_14\n      jumpi\n      jump(tag_2)\n    tag_15:\n      dup1\n      0x19cae462\n      eq\n      tag_3\n      jumpi\n      dup1\n      0x22b22ce8\n      eq\n      tag_4\n      jumpi\n      dup1\n      0x3fa4f245\n      eq\n      tag_5\n      jumpi\n      dup1\n      0x4e417a98\n      eq\n      tag_6\n      jumpi\n      dup1\n      0x6ec232d3\n      eq\n      tag_7\n      jumpi\n      dup1\n      0x8381f58a\n      eq\n      tag_8\n      jumpi\n    tag_2:\n      0x00\n      dup1\n      revert\n        /* \"contracts/globalVariable_11.sol\":252:277  uint256 public difficulty */\n    tag_3:\n      tag_16\n      tag_17\n      jump\t// in\n    tag_16:\n      mload(0x40)\n      tag_18\n      swap2\n      swap1\n      tag_19\n      jump\t// in\n    tag_18:\n      mload(0x40)\n      dup1\n      swap2\n      sub\n      swap1\n      return\n        /* \"contracts/globalVariable_11.sol\":399:419  uint256 public nowOn */\n    tag_4:\n      tag_20\n      tag_21\n      jump\t// in\n    tag_20:\n      mload(0x40)\n      tag_22\n      swap2\n      swap1\n      tag_19\n      jump\t// in\n    tag_22:\n      mload(0x40)\n      dup1\n      swap2\n      sub\n      swap1\n      return\n        /* \"contracts/globalVariable_11.sol\":373:393  uint256 public value */\n    tag_5:\n      tag_23\n      tag_24\n      jump\t// in\n    tag_23:\n      mload(0x40)\n      tag_25\n      swap2\n      swap1\n      tag_19\n      jump\t// in\n    tag_25:\n      mload(0x40)\n      dup1\n      swap2\n      sub\n      swap1\n      return\n        /* \"contracts/globalVariable_11.sol\":481:502  bytes public callData */\n    tag_6:\n      tag_26\n      tag_27\n      jump\t// in\n    tag_26:\n      mload(0x40)\n      tag_28\n      swap2\n      swap1\n      tag_29\n      jump\t// in\n    tag_28:\n      mload(0x40)\n      dup1\n      swap2\n      sub\n      swap1\n      return\n        /* \"contracts/globalVariable_11.sol\":452:475  uint256 public gasprice */\n    tag_7:\n      tag_30\n      tag_31\n      jump\t// in\n    tag_30:\n      mload(0x40)\n      tag_32\n      swap2\n      swap1\n      tag_19\n      jump\t// in\n    tag_32:\n      mload(0x40)\n      dup1\n      swap2\n      sub\n      swap1\n      return\n        /* \"contracts/globalVariable_11.sol\":316:337  uint256 public number */\n    tag_8:\n      tag_33\n      tag_34\n      jump\t// in\n    tag_33:\n      mload(0x40)\n      tag_35\n      swap2\n      swap1\n      tag_19\n      jump\t// in\n    tag_35:\n      mload(0x40)\n      dup1\n      swap2\n      sub\n      swap1\n      return\n        /* \"contracts/globalVariable_11.sol\":161:181  address public owner */\n    tag_9:\n      tag_36\n      tag_37\n      jump\t// in\n    tag_36:\n      mload(0x40)\n      tag_38\n      swap2\n      swap1\n      tag_39\n      jump\t// in\n    tag_38:\n      mload(0x40)\n      dup1\n      swap2\n      sub\n      swap1\n      return\n        /* \"contracts/globalVariable_11.sol\":220:246  address public MyBlockHash */\n    tag_10:\n      tag_40\n      tag_41\n      jump\t// in\n    tag_40:\n      mload(0x40)\n      tag_42\n      swap2\n      swap1\n      tag_39\n      jump\t// in\n    tag_42:\n      mload(0x40)\n      dup1\n      swap2\n      sub\n      swap1\n      return\n        /* \"contracts/globalVariable_11.sol\":425:446  address public origin */\n    tag_11:\n      tag_43\n      tag_44\n      jump\t// in\n    tag_43:\n      mload(0x40)\n      tag_45\n      swap2\n      swap1\n      tag_39\n      jump\t// in\n    tag_45:\n      mload(0x40)\n      dup1\n      swap2\n      sub\n      swap1\n      return\n        /* \"contracts/globalVariable_11.sol\":343:367  uint256 public timestamp */\n    tag_12:\n      tag_46\n      tag_47\n      jump\t// in\n    tag_46:\n      mload(0x40)\n      tag_48\n      swap2\n      swap1\n      tag_19\n      jump\t// in\n    tag_48:\n      mload(0x40)\n      dup1\n      swap2\n      sub\n      swap1\n      return\n        /* \"contracts/globalVariable_11.sol\":508:531  bytes4 public firstFour */\n    tag_13:\n      tag_49\n      tag_50\n      jump\t// in\n    tag_49:\n      mload(0x40)\n      tag_51\n      swap2\n      swap1\n      tag_52\n      jump\t// in\n    tag_51:\n      mload(0x40)\n      dup1\n      swap2\n      sub\n      swap1\n      return\n        /* \"contracts/globalVariable_11.sol\":287:310  uint256 public gasLimit */\n    tag_14:\n      tag_53\n      tag_54\n      jump\t// in\n    tag_53:\n      mload(0x40)\n      tag_55\n      swap2\n      swap1\n      tag_19\n      jump\t// in\n    tag_55:\n      mload(0x40)\n      dup1\n      swap2\n      sub\n      swap1\n      return\n        /* \"contracts/globalVariable_11.sol\":252:277  uint256 public difficulty */\n    tag_17:\n      sload(0x02)\n      dup2\n      jump\t// out\n        /* \"contracts/globalVariable_11.sol\":399:419  uint256 public nowOn */\n    tag_21:\n      sload(0x07)\n      dup2\n      jump\t// out\n        /* \"contracts/globalVariable_11.sol\":373:393  uint256 public value */\n    tag_24:\n      sload(0x06)\n      dup2\n      jump\t// out\n        /* \"contracts/globalVariable_11.sol\":481:502  bytes public callData */\n    tag_27:\n      0x0a\n      dup1\n      sload\n      tag_56\n      swap1\n      tag_57\n      jump\t// in\n    tag_56:\n      dup1\n      0x1f\n      add\n      0x20\n      dup1\n      swap2\n      div\n      mul\n      0x20\n      add\n      mload(0x40)\n      swap1\n      dup2\n      add\n      0x40\n      mstore\n      dup1\n      swap3\n      swap2\n      swap1\n      dup2\n      dup2\n      mstore\n      0x20\n      add\n      dup3\n      dup1\n      sload\n      tag_58\n      swap1\n      tag_57\n      jump\t// in\n    tag_58:\n      dup1\n      iszero\n      tag_59\n      jumpi\n      dup1\n      0x1f\n      lt\n      tag_60\n      jumpi\n      0x0100\n      dup1\n      dup4\n      sload\n      div\n      mul\n      dup4\n      mstore\n      swap2\n      0x20\n      add\n      swap2\n      jump(tag_59)\n    tag_60:\n      dup3\n      add\n      swap2\n      swap1\n      0x00\n      mstore\n      keccak256(0x00, 0x20)\n      swap1\n    tag_61:\n      dup2\n      sload\n      dup2\n      mstore\n      swap1\n      0x01\n      add\n      swap1\n      0x20\n      add\n      dup1\n      dup4\n      gt\n      tag_61\n      jumpi\n      dup3\n      swap1\n      sub\n      0x1f\n      and\n      dup3\n      add\n      swap2\n    tag_59:\n      pop\n      pop\n      pop\n      pop\n      pop\n      dup2\n      jump\t// out\n        /* \"contracts/globalVariable_11.sol\":452:475  uint256 public gasprice */\n    tag_31:\n      sload(0x09)\n      dup2\n      jump\t// out\n        /* \"contracts/globalVariable_11.sol\":316:337  uint256 public number */\n    tag_34:\n      sload(0x04)\n      dup2\n      jump\t// out\n        /* \"contracts/globalVariable_11.sol\":161:181  address public owner */\n    tag_37:\n      0x00\n      dup1\n      sload\n      swap1\n      0x0100\n      exp\n      swap1\n      div\n      0xffffffffffffffffffffffffffffffffffffffff\n      and\n      dup2\n      jump\t// out\n        /* \"contracts/globalVariable_11.sol\":220:246  address public MyBlockHash */\n    tag_41:\n      0x01\n      0x00\n      swap1\n      sload\n      swap1\n      0x0100\n      exp\n      swap1\n      div\n      0xffffffffffffffffffffffffffffffffffffffff\n      and\n      dup2\n      jump\t// out\n        /* \"contracts/globalVariable_11.sol\":425:446  address public origin */\n    tag_44:\n      0x08\n      0x00\n      swap1\n      sload\n      swap1\n      0x0100\n      exp\n      swap1\n      div\n      0xffffffffffffffffffffffffffffffffffffffff\n      and\n      dup2\n      jump\t// out\n        /* \"contracts/globalVariable_11.sol\":343:367  uint256 public timestamp */\n    tag_47:\n      sload(0x05)\n      dup2\n      jump\t// out\n        /* \"contracts/globalVariable_11.sol\":508:531  bytes4 public firstFour */\n    tag_50:\n      0x0b\n      0x00\n      swap1\n      sload\n      swap1\n      0x0100\n      exp\n      swap1\n      div\n      0xe0\n      shl\n      dup2\n      jump\t// out\n        /* \"contracts/globalVariable_11.sol\":287:310  uint256 public gasLimit */\n    tag_54:\n      sload(0x03)\n      dup2\n      jump\t// out\n        /* \"#utility.yul\":7:84   */\n    tag_62:\n        /* \"#utility.yul\":44:51   */\n      0x00\n        /* \"#utility.yul\":73:78   */\n      dup2\n        /* \"#utility.yul\":62:78   */\n      swap1\n      pop\n        /* \"#utility.yul\":7:84   */\n      swap2\n      swap1\n      pop\n      jump\t// out\n        /* \"#utility.yul\":90:208   */\n    tag_63:\n        /* \"#utility.yul\":177:201   */\n      tag_78\n        /* \"#utility.yul\":195:200   */\n      dup2\n        /* \"#utility.yul\":177:201   */\n      tag_62\n      jump\t// in\n    tag_78:\n        /* \"#utility.yul\":172:175   */\n      dup3\n        /* \"#utility.yul\":165:202   */\n      mstore\n        /* \"#utility.yul\":90:208   */\n      pop\n      pop\n      jump\t// out\n        /* \"#utility.yul\":214:436   */\n    tag_19:\n        /* \"#utility.yul\":307:311   */\n      0x00\n        /* \"#utility.yul\":345:347   */\n      0x20\n        /* \"#utility.yul\":334:343   */\n      dup3\n        /* \"#utility.yul\":330:348   */\n      add\n        /* \"#utility.yul\":322:348   */\n      swap1\n      pop\n        /* \"#utility.yul\":358:429   */\n      tag_80\n        /* \"#utility.yul\":426:427   */\n      0x00\n        /* \"#utility.yul\":415:424   */\n      dup4\n        /* \"#utility.yul\":411:428   */\n      add\n        /* \"#utility.yul\":402:408   */\n      dup5\n        /* \"#utility.yul\":358:429   */\n      tag_63\n      jump\t// in\n    tag_80:\n        /* \"#utility.yul\":214:436   */\n      swap3\n      swap2\n      pop\n      pop\n      jump\t// out\n        /* \"#utility.yul\":442:540   */\n    tag_64:\n        /* \"#utility.yul\":493:499   */\n      0x00\n        /* \"#utility.yul\":527:532   */\n      dup2\n        /* \"#utility.yul\":521:533   */\n      mload\n        /* \"#utility.yul\":511:533   */\n      swap1\n      pop\n        /* \"#utility.yul\":442:540   */\n      swap2\n      swap1\n      pop\n      jump\t// out\n        /* \"#utility.yul\":546:714   */\n    tag_65:\n        /* \"#utility.yul\":629:640   */\n      0x00\n        /* \"#utility.yul\":663:669   */\n      dup3\n        /* \"#utility.yul\":658:661   */\n      dup3\n        /* \"#utility.yul\":651:670   */\n      mstore\n        /* \"#utility.yul\":703:707   */\n      0x20\n        /* \"#utility.yul\":698:701   */\n      dup3\n        /* \"#utility.yul\":694:708   */\n      add\n        /* \"#utility.yul\":679:708   */\n      swap1\n      pop\n        /* \"#utility.yul\":546:714   */\n      swap3\n      swap2\n      pop\n      pop\n      jump\t// out\n        /* \"#utility.yul\":720:1027   */\n    tag_66:\n        /* \"#utility.yul\":788:789   */\n      0x00\n        /* \"#utility.yul\":798:911   */\n    tag_84:\n        /* \"#utility.yul\":812:818   */\n      dup4\n        /* \"#utility.yul\":809:810   */\n      dup2\n        /* \"#utility.yul\":806:819   */\n      lt\n        /* \"#utility.yul\":798:911   */\n      iszero\n      tag_86\n      jumpi\n        /* \"#utility.yul\":897:898   */\n      dup1\n        /* \"#utility.yul\":892:895   */\n      dup3\n        /* \"#utility.yul\":888:899   */\n      add\n        /* \"#utility.yul\":882:900   */\n      mload\n        /* \"#utility.yul\":878:879   */\n      dup2\n        /* \"#utility.yul\":873:876   */\n      dup5\n        /* \"#utility.yul\":869:880   */\n      add\n        /* \"#utility.yul\":862:901   */\n      mstore\n        /* \"#utility.yul\":834:836   */\n      0x20\n        /* \"#utility.yul\":831:832   */\n      dup2\n        /* \"#utility.yul\":827:837   */\n      add\n        /* \"#utility.yul\":822:837   */\n      swap1\n      pop\n        /* \"#utility.yul\":798:911   */\n      jump(tag_84)\n    tag_86:\n        /* \"#utility.yul\":929:935   */\n      dup4\n        /* \"#utility.yul\":926:927   */\n      dup2\n        /* \"#utility.yul\":923:936   */\n      gt\n        /* \"#utility.yul\":920:1021   */\n      iszero\n      tag_87\n      jumpi\n        /* \"#utility.yul\":1009:1010   */\n      0x00\n        /* \"#utility.yul\":1000:1006   */\n      dup5\n        /* \"#utility.yul\":995:998   */\n      dup5\n        /* \"#utility.yul\":991:1007   */\n      add\n        /* \"#utility.yul\":984:1011   */\n      mstore\n        /* \"#utility.yul\":920:1021   */\n    tag_87:\n        /* \"#utility.yul\":769:1027   */\n      pop\n        /* \"#utility.yul\":720:1027   */\n      pop\n      pop\n      pop\n      jump\t// out\n        /* \"#utility.yul\":1033:1135   */\n    tag_67:\n        /* \"#utility.yul\":1074:1080   */\n      0x00\n        /* \"#utility.yul\":1125:1127   */\n      0x1f\n        /* \"#utility.yul\":1121:1128   */\n      not\n        /* \"#utility.yul\":1116:1118   */\n      0x1f\n        /* \"#utility.yul\":1109:1114   */\n      dup4\n        /* \"#utility.yul\":1105:1119   */\n      add\n        /* \"#utility.yul\":1101:1129   */\n      and\n        /* \"#utility.yul\":1091:1129   */\n      swap1\n      pop\n        /* \"#utility.yul\":1033:1135   */\n      swap2\n      swap1\n      pop\n      jump\t// out\n        /* \"#utility.yul\":1141:1501   */\n    tag_68:\n        /* \"#utility.yul\":1227:1230   */\n      0x00\n        /* \"#utility.yul\":1255:1293   */\n      tag_90\n        /* \"#utility.yul\":1287:1292   */\n      dup3\n        /* \"#utility.yul\":1255:1293   */\n      tag_64\n      jump\t// in\n    tag_90:\n        /* \"#utility.yul\":1309:1379   */\n      tag_91\n        /* \"#utility.yul\":1372:1378   */\n      dup2\n        /* \"#utility.yul\":1367:1370   */\n      dup6\n        /* \"#utility.yul\":1309:1379   */\n      tag_65\n      jump\t// in\n    tag_91:\n        /* \"#utility.yul\":1302:1379   */\n      swap4\n      pop\n        /* \"#utility.yul\":1388:1440   */\n      tag_92\n        /* \"#utility.yul\":1433:1439   */\n      dup2\n        /* \"#utility.yul\":1428:1431   */\n      dup6\n        /* \"#utility.yul\":1421:1425   */\n      0x20\n        /* \"#utility.yul\":1414:1419   */\n      dup7\n        /* \"#utility.yul\":1410:1426   */\n      add\n        /* \"#utility.yul\":1388:1440   */\n      tag_66\n      jump\t// in\n    tag_92:\n        /* \"#utility.yul\":1465:1494   */\n      tag_93\n        /* \"#utility.yul\":1487:1493   */\n      dup2\n        /* \"#utility.yul\":1465:1494   */\n      tag_67\n      jump\t// in\n    tag_93:\n        /* \"#utility.yul\":1460:1463   */\n      dup5\n        /* \"#utility.yul\":1456:1495   */\n      add\n        /* \"#utility.yul\":1449:1495   */\n      swap2\n      pop\n        /* \"#utility.yul\":1231:1501   */\n      pop\n        /* \"#utility.yul\":1141:1501   */\n      swap3\n      swap2\n      pop\n      pop\n      jump\t// out\n        /* \"#utility.yul\":1507:1816   */\n    tag_29:\n        /* \"#utility.yul\":1618:1622   */\n      0x00\n        /* \"#utility.yul\":1656:1658   */\n      0x20\n        /* \"#utility.yul\":1645:1654   */\n      dup3\n        /* \"#utility.yul\":1641:1659   */\n      add\n        /* \"#utility.yul\":1633:1659   */\n      swap1\n      pop\n        /* \"#utility.yul\":1705:1714   */\n      dup2\n        /* \"#utility.yul\":1699:1703   */\n      dup2\n        /* \"#utility.yul\":1695:1715   */\n      sub\n        /* \"#utility.yul\":1691:1692   */\n      0x00\n        /* \"#utility.yul\":1680:1689   */\n      dup4\n        /* \"#utility.yul\":1676:1693   */\n      add\n        /* \"#utility.yul\":1669:1716   */\n      mstore\n        /* \"#utility.yul\":1733:1809   */\n      tag_95\n        /* \"#utility.yul\":1804:1808   */\n      dup2\n        /* \"#utility.yul\":1795:1801   */\n      dup5\n        /* \"#utility.yul\":1733:1809   */\n      tag_68\n      jump\t// in\n    tag_95:\n        /* \"#utility.yul\":1725:1809   */\n      swap1\n      pop\n        /* \"#utility.yul\":1507:1816   */\n      swap3\n      swap2\n      pop\n      pop\n      jump\t// out\n        /* \"#utility.yul\":1822:1948   */\n    tag_69:\n        /* \"#utility.yul\":1859:1866   */\n      0x00\n        /* \"#utility.yul\":1899:1941   */\n      0xffffffffffffffffffffffffffffffffffffffff\n        /* \"#utility.yul\":1892:1897   */\n      dup3\n        /* \"#utility.yul\":1888:1942   */\n      and\n        /* \"#utility.yul\":1877:1942   */\n      swap1\n      pop\n        /* \"#utility.yul\":1822:1948   */\n      swap2\n      swap1\n      pop\n      jump\t// out\n        /* \"#utility.yul\":1954:2050   */\n    tag_70:\n        /* \"#utility.yul\":1991:1998   */\n      0x00\n        /* \"#utility.yul\":2020:2044   */\n      tag_98\n        /* \"#utility.yul\":2038:2043   */\n      dup3\n        /* \"#utility.yul\":2020:2044   */\n      tag_69\n      jump\t// in\n    tag_98:\n        /* \"#utility.yul\":2009:2044   */\n      swap1\n      pop\n        /* \"#utility.yul\":1954:2050   */\n      swap2\n      swap1\n      pop\n      jump\t// out\n        /* \"#utility.yul\":2056:2174   */\n    tag_71:\n        /* \"#utility.yul\":2143:2167   */\n      tag_100\n        /* \"#utility.yul\":2161:2166   */\n      dup2\n        /* \"#utility.yul\":2143:2167   */\n      tag_70\n      jump\t// in\n    tag_100:\n        /* \"#utility.yul\":2138:2141   */\n      dup3\n        /* \"#utility.yul\":2131:2168   */\n      mstore\n        /* \"#utility.yul\":2056:2174   */\n      pop\n      pop\n      jump\t// out\n        /* \"#utility.yul\":2180:2402   */\n    tag_39:\n        /* \"#utility.yul\":2273:2277   */\n      0x00\n        /* \"#utility.yul\":2311:2313   */\n      0x20\n        /* \"#utility.yul\":2300:2309   */\n      dup3\n        /* \"#utility.yul\":2296:2314   */\n      add\n        /* \"#utility.yul\":2288:2314   */\n      swap1\n      pop\n        /* \"#utility.yul\":2324:2395   */\n      tag_102\n        /* \"#utility.yul\":2392:2393   */\n      0x00\n        /* \"#utility.yul\":2381:2390   */\n      dup4\n        /* \"#utility.yul\":2377:2394   */\n      add\n        /* \"#utility.yul\":2368:2374   */\n      dup5\n        /* \"#utility.yul\":2324:2395   */\n      tag_71\n      jump\t// in\n    tag_102:\n        /* \"#utility.yul\":2180:2402   */\n      swap3\n      swap2\n      pop\n      pop\n      jump\t// out\n        /* \"#utility.yul\":2408:2557   */\n    tag_72:\n        /* \"#utility.yul\":2444:2451   */\n      0x00\n        /* \"#utility.yul\":2484:2550   */\n      0xffffffff00000000000000000000000000000000000000000000000000000000\n        /* \"#utility.yul\":2477:2482   */\n      dup3\n        /* \"#utility.yul\":2473:2551   */\n      and\n        /* \"#utility.yul\":2462:2551   */\n      swap1\n      pop\n        /* \"#utility.yul\":2408:2557   */\n      swap2\n      swap1\n      pop\n      jump\t// out\n        /* \"#utility.yul\":2563:2678   */\n    tag_73:\n        /* \"#utility.yul\":2648:2671   */\n      tag_105\n        /* \"#utility.yul\":2665:2670   */\n      dup2\n        /* \"#utility.yul\":2648:2671   */\n      tag_72\n      jump\t// in\n    tag_105:\n        /* \"#utility.yul\":2643:2646   */\n      dup3\n        /* \"#utility.yul\":2636:2672   */\n      mstore\n        /* \"#utility.yul\":2563:2678   */\n      pop\n      pop\n      jump\t// out\n        /* \"#utility.yul\":2684:2902   */\n    tag_52:\n        /* \"#utility.yul\":2775:2779   */\n      0x00\n        /* \"#utility.yul\":2813:2815   */\n      0x20\n        /* \"#utility.yul\":2802:2811   */\n      dup3\n        /* \"#utility.yul\":2798:2816   */\n      add\n        /* \"#utility.yul\":2790:2816   */\n      swap1\n      pop\n        /* \"#utility.yul\":2826:2895   */\n      tag_107\n        /* \"#utility.yul\":2892:2893   */\n      0x00\n        /* \"#utility.yul\":2881:2890   */\n      dup4\n        /* \"#utility.yul\":2877:2894   */\n      add\n        /* \"#utility.yul\":2868:2874   */\n      dup5\n        /* \"#utility.yul\":2826:2895   */\n      tag_73\n      jump\t// in\n    tag_107:\n        /* \"#utility.yul\":2684:2902   */\n      swap3\n      swap2\n      pop\n      pop\n      jump\t// out\n        /* \"#utility.yul\":2908:3088   */\n    tag_74:\n        /* \"#utility.yul\":2956:3033   */\n      0x4e487b7100000000000000000000000000000000000000000000000000000000\n        /* \"#utility.yul\":2953:2954   */\n      0x00\n        /* \"#utility.yul\":2946:3034   */\n      mstore\n        /* \"#utility.yul\":3053:3057   */\n      0x22\n        /* \"#utility.yul\":3050:3051   */\n      0x04\n        /* \"#utility.yul\":3043:3058   */\n      mstore\n        /* \"#utility.yul\":3077:3081   */\n      0x24\n        /* \"#utility.yul\":3074:3075   */\n      0x00\n        /* \"#utility.yul\":3067:3082   */\n      revert\n        /* \"#utility.yul\":3094:3414   */\n    tag_57:\n        /* \"#utility.yul\":3138:3144   */\n      0x00\n        /* \"#utility.yul\":3175:3176   */\n      0x02\n        /* \"#utility.yul\":3169:3173   */\n      dup3\n        /* \"#utility.yul\":3165:3177   */\n      div\n        /* \"#utility.yul\":3155:3177   */\n      swap1\n      pop\n        /* \"#utility.yul\":3222:3223   */\n      0x01\n        /* \"#utility.yul\":3216:3220   */\n      dup3\n        /* \"#utility.yul\":3212:3224   */\n      and\n        /* \"#utility.yul\":3243:3261   */\n      dup1\n        /* \"#utility.yul\":3233:3314   */\n      tag_110\n      jumpi\n        /* \"#utility.yul\":3299:3303   */\n      0x7f\n        /* \"#utility.yul\":3291:3297   */\n      dup3\n        /* \"#utility.yul\":3287:3304   */\n      and\n        /* \"#utility.yul\":3277:3304   */\n      swap2\n      pop\n        /* \"#utility.yul\":3233:3314   */\n    tag_110:\n        /* \"#utility.yul\":3361:3363   */\n      0x20\n        /* \"#utility.yul\":3353:3359   */\n      dup3\n        /* \"#utility.yul\":3350:3364   */\n      lt\n        /* \"#utility.yul\":3330:3348   */\n      dup2\n        /* \"#utility.yul\":3327:3365   */\n      sub\n        /* \"#utility.yul\":3324:3408   */\n      tag_111\n      jumpi\n        /* \"#utility.yul\":3380:3398   */\n      tag_112\n      tag_74\n      jump\t// in\n    tag_112:\n        /* \"#utility.yul\":3324:3408   */\n    tag_111:\n        /* \"#utility.yul\":3145:3414   */\n      pop\n        /* \"#utility.yul\":3094:3414   */\n      swap2\n      swap1\n      pop\n      jump\t// out\n\n    auxdata: 0xa26469706673582212205edc933d12847c7b311a9ae6c9647e554305fc6a13387551647e9f7636361aa564736f6c634300080d0033\n}\n",
				"bytecode": {
					"linkReferences": {},
					"object": "608060405234801561001057600080fd5b50336000806101000a81548173ffffffffffffffffffffffffffffffffffffffff021916908373ffffffffffffffffffffffffffffffffffffffff16021790555041600160006101000a81548173ffffffffffffffffffffffffffffffffffffffff021916908373ffffffffffffffffffffffffffffffffffffffff1602179055504460028190555045600381905550436004819055504260058190555032600860006101000a81548173ffffffffffffffffffffffffffffffffffffffff021916908373ffffffffffffffffffffffffffffffffffffffff1602179055503a600981905550600036600a9190610108929190610150565b506000357fffffffff0000000000000000000000000000000000000000000000000000000016600b60006101000a81548163ffffffff021916908360e01c0217905550610253565b82805461015c90610222565b90600052602060002090601f01602090048101928261017e57600085556101c5565b82601f1061019757803560ff19168380011785556101c5565b828001600101855582156101c5579182015b828111156101c45782358255916020019190600101906101a9565b5b5090506101d291906101d6565b5090565b5b808211156101ef5760008160009055506001016101d7565b5090565b7f4e487b7100000000000000000000000000000000000000000000000000000000600052602260045260246000fd5b6000600282049050600182168061023a57607f821691505b60208210810361024d5761024c6101f3565b5b50919050565b610593806102626000396000f3fe608060405234801561001057600080fd5b50600436106100b45760003560e01c80638da5cb5b116100715780638da5cb5b1461016d578063919538741461018b578063938b5f32146101a9578063b80777ea146101c7578063e25ccbe7146101e5578063f68016b714610203576100b4565b806319cae462146100b957806322b22ce8146100d75780633fa4f245146100f55780634e417a98146101135780636ec232d3146101315780638381f58a1461014f575b600080fd5b6100c1610221565b6040516100ce9190610375565b60405180910390f35b6100df610227565b6040516100ec9190610375565b60405180910390f35b6100fd61022d565b60405161010a9190610375565b60405180910390f35b61011b610233565b6040516101289190610429565b60405180910390f35b6101396102c1565b6040516101469190610375565b60405180910390f35b6101576102c7565b6040516101649190610375565b60405180910390f35b6101756102cd565b604051610182919061048c565b60405180910390f35b6101936102f1565b6040516101a0919061048c565b60405180910390f35b6101b1610317565b6040516101be919061048c565b60405180910390f35b6101cf61033d565b6040516101dc9190610375565b60405180910390f35b6101ed610343565b6040516101fa91906104e2565b60405180910390f35b61020b610356565b6040516102189190610375565b60405180910390f35b60025481565b60075481565b60065481565b600a80546102409061052c565b80601f016020809104026020016040519081016040528092919081815260200182805461026c9061052c565b80156102b95780601f1061028e576101008083540402835291602001916102b9565b820191906000526020600020905b81548152906001019060200180831161029c57829003601f168201915b505050505081565b60095481565b60045481565b60008054906101000a900473ffffffffffffffffffffffffffffffffffffffff1681565b600160009054906101000a900473ffffffffffffffffffffffffffffffffffffffff1681565b600860009054906101000a900473ffffffffffffffffffffffffffffffffffffffff1681565b60055481565b600b60009054906101000a900460e01b81565b60035481565b6000819050919050565b61036f8161035c565b82525050565b600060208201905061038a6000830184610366565b92915050565b600081519050919050565b600082825260208201905092915050565b60005b838110156103ca5780820151818401526020810190506103af565b838111156103d9576000848401525b50505050565b6000601f19601f8301169050919050565b60006103fb82610390565b610405818561039b565b93506104158185602086016103ac565b61041e816103df565b840191505092915050565b6000602082019050818103600083015261044381846103f0565b905092915050565b600073ffffffffffffffffffffffffffffffffffffffff82169050919050565b60006104768261044b565b9050919050565b6104868161046b565b82525050565b60006020820190506104a1600083018461047d565b92915050565b60007fffffffff0000000000000000000000000000000000000000000000000000000082169050919050565b6104dc816104a7565b82525050565b60006020820190506104f760008301846104d3565b92915050565b7f4e487b7100000000000000000000000000000000000000000000000000000000600052602260045260246000fd5b6000600282049050600182168061054457607f821691505b602082108103610557576105566104fd565b5b5091905056fea26469706673582212205edc933d12847c7b311a9ae6c9647e554305fc6a13387551647e9f7636361aa564736f6c634300080d0033",
					"opcodes": "PUSH1 0x80 PUSH1 0x40 MSTORE CALLVALUE DUP1 ISZERO PUSH2 0x10 JUMPI PUSH1 0x0 DUP1 REVERT JUMPDEST POP CALLER PUSH1 0x0 DUP1 PUSH2 0x100 EXP DUP2 SLOAD DUP2 PUSH20 0xFFFFFFFFFFFFFFFFFFFFFFFFFFFFFFFFFFFFFFFF MUL NOT AND SWAP1 DUP4 PUSH20 0xFFFFFFFFFFFFFFFFFFFFFFFFFFFFFFFFFFFFFFFF AND MUL OR SWAP1 SSTORE POP COINBASE PUSH1 0x1 PUSH1 0x0 PUSH2 0x100 EXP DUP2 SLOAD DUP2 PUSH20 0xFFFFFFFFFFFFFFFFFFFFFFFFFFFFFFFFFFFFFFFF MUL NOT AND SWAP1 DUP4 PUSH20 0xFFFFFFFFFFFFFFFFFFFFFFFFFFFFFFFFFFFFFFFF AND MUL OR SWAP1 SSTORE POP DIFFICULTY PUSH1 0x2 DUP2 SWAP1 SSTORE POP GASLIMIT PUSH1 0x3 DUP2 SWAP1 SSTORE POP NUMBER PUSH1 0x4 DUP2 SWAP1 SSTORE POP TIMESTAMP PUSH1 0x5 DUP2 SWAP1 SSTORE POP ORIGIN PUSH1 0x8 PUSH1 0x0 PUSH2 0x100 EXP DUP2 SLOAD DUP2 PUSH20 0xFFFFFFFFFFFFFFFFFFFFFFFFFFFFFFFFFFFFFFFF MUL NOT AND SWAP1 DUP4 PUSH20 0xFFFFFFFFFFFFFFFFFFFFFFFFFFFFFFFFFFFFFFFF AND MUL OR SWAP1 SSTORE POP GASPRICE PUSH1 0x9 DUP2 SWAP1 SSTORE POP PUSH1 0x0 CALLDATASIZE PUSH1 0xA SWAP2 SWAP1 PUSH2 0x108 SWAP3 SWAP2 SWAP1 PUSH2 0x150 JUMP JUMPDEST POP PUSH1 0x0 CALLDATALOAD PUSH32 0xFFFFFFFF00000000000000000000000000000000000000000000000000000000 AND PUSH1 0xB PUSH1 0x0 PUSH2 0x100 EXP DUP2 SLOAD DUP2 PUSH4 0xFFFFFFFF MUL NOT AND SWAP1 DUP4 PUSH1 0xE0 SHR MUL OR SWAP1 SSTORE POP PUSH2 0x253 JUMP JUMPDEST DUP3 DUP1 SLOAD PUSH2 0x15C SWAP1 PUSH2 0x222 JUMP JUMPDEST SWAP1 PUSH1 0x0 MSTORE PUSH1 0x20 PUSH1 0x0 KECCAK256 SWAP1 PUSH1 0x1F ADD PUSH1 0x20 SWAP1 DIV DUP2 ADD SWAP3 DUP3 PUSH2 0x17E JUMPI PUSH1 0x0 DUP6 SSTORE PUSH2 0x1C5 JUMP JUMPDEST DUP3 PUSH1 0x1F LT PUSH2 0x197 JUMPI DUP1 CALLDATALOAD PUSH1 0xFF NOT AND DUP4 DUP1 ADD OR DUP6 SSTORE PUSH2 0x1C5 JUMP JUMPDEST DUP3 DUP1 ADD PUSH1 0x1 ADD DUP6 SSTORE DUP3 ISZERO PUSH2 0x1C5 JUMPI SWAP2 DUP3 ADD JUMPDEST DUP3 DUP2 GT ISZERO PUSH2 0x1C4 JUMPI DUP3 CALLDATALOAD DUP3 SSTORE SWAP2 PUSH1 0x20 ADD SWAP2 SWAP1 PUSH1 0x1 ADD SWAP1 PUSH2 0x1A9 JUMP JUMPDEST JUMPDEST POP SWAP1 POP PUSH2 0x1D2 SWAP2 SWAP1 PUSH2 0x1D6 JUMP JUMPDEST POP SWAP1 JUMP JUMPDEST JUMPDEST DUP1 DUP3 GT ISZERO PUSH2 0x1EF JUMPI PUSH1 0x0 DUP2 PUSH1 0x0 SWAP1 SSTORE POP PUSH1 0x1 ADD PUSH2 0x1D7 JUMP JUMPDEST POP SWAP1 JUMP JUMPDEST PUSH32 0x4E487B7100000000000000000000000000000000000000000000000000000000 PUSH1 0x0 MSTORE PUSH1 0x22 PUSH1 0x4 MSTORE PUSH1 0x24 PUSH1 0x0 REVERT JUMPDEST PUSH1 0x0 PUSH1 0x2 DUP3 DIV SWAP1 POP PUSH1 0x1 DUP3 AND DUP1 PUSH2 0x23A JUMPI PUSH1 0x7F DUP3 AND SWAP2 POP JUMPDEST PUSH1 0x20 DUP3 LT DUP2 SUB PUSH2 0x24D JUMPI PUSH2 0x24C PUSH2 0x1F3 JUMP JUMPDEST JUMPDEST POP SWAP2 SWAP1 POP JUMP JUMPDEST PUSH2 0x593 DUP1 PUSH2 0x262 PUSH1 0x0 CODECOPY PUSH1 0x0 RETURN INVALID PUSH1 0x80 PUSH1 0x40 MSTORE CALLVALUE DUP1 ISZERO PUSH2 0x10 JUMPI PUSH1 0x0 DUP1 REVERT JUMPDEST POP PUSH1 0x4 CALLDATASIZE LT PUSH2 0xB4 JUMPI PUSH1 0x0 CALLDATALOAD PUSH1 0xE0 SHR DUP1 PUSH4 0x8DA5CB5B GT PUSH2 0x71 JUMPI DUP1 PUSH4 0x8DA5CB5B EQ PUSH2 0x16D JUMPI DUP1 PUSH4 0x91953874 EQ PUSH2 0x18B JUMPI DUP1 PUSH4 0x938B5F32 EQ PUSH2 0x1A9 JUMPI DUP1 PUSH4 0xB80777EA EQ PUSH2 0x1C7 JUMPI DUP1 PUSH4 0xE25CCBE7 EQ PUSH2 0x1E5 JUMPI DUP1 PUSH4 0xF68016B7 EQ PUSH2 0x203 JUMPI PUSH2 0xB4 JUMP JUMPDEST DUP1 PUSH4 0x19CAE462 EQ PUSH2 0xB9 JUMPI DUP1 PUSH4 0x22B22CE8 EQ PUSH2 0xD7 JUMPI DUP1 PUSH4 0x3FA4F245 EQ PUSH2 0xF5 JUMPI DUP1 PUSH4 0x4E417A98 EQ PUSH2 0x113 JUMPI DUP1 PUSH4 0x6EC232D3 EQ PUSH2 0x131 JUMPI DUP1 PUSH4 0x8381F58A EQ PUSH2 0x14F JUMPI JUMPDEST PUSH1 0x0 DUP1 REVERT JUMPDEST PUSH2 0xC1 PUSH2 0x221 JUMP JUMPDEST PUSH1 0x40 MLOAD PUSH2 0xCE SWAP2 SWAP1 PUSH2 0x375 JUMP JUMPDEST PUSH1 0x40 MLOAD DUP1 SWAP2 SUB SWAP1 RETURN JUMPDEST PUSH2 0xDF PUSH2 0x227 JUMP JUMPDEST PUSH1 0x40 MLOAD PUSH2 0xEC SWAP2 SWAP1 PUSH2 0x375 JUMP JUMPDEST PUSH1 0x40 MLOAD DUP1 SWAP2 SUB SWAP1 RETURN JUMPDEST PUSH2 0xFD PUSH2 0x22D JUMP JUMPDEST PUSH1 0x40 MLOAD PUSH2 0x10A SWAP2 SWAP1 PUSH2 0x375 JUMP JUMPDEST PUSH1 0x40 MLOAD DUP1 SWAP2 SUB SWAP1 RETURN JUMPDEST PUSH2 0x11B PUSH2 0x233 JUMP JUMPDEST PUSH1 0x40 MLOAD PUSH2 0x128 SWAP2 SWAP1 PUSH2 0x429 JUMP JUMPDEST PUSH1 0x40 MLOAD DUP1 SWAP2 SUB SWAP1 RETURN JUMPDEST PUSH2 0x139 PUSH2 0x2C1 JUMP JUMPDEST PUSH1 0x40 MLOAD PUSH2 0x146 SWAP2 SWAP1 PUSH2 0x375 JUMP JUMPDEST PUSH1 0x40 MLOAD DUP1 SWAP2 SUB SWAP1 RETURN JUMPDEST PUSH2 0x157 PUSH2 0x2C7 JUMP JUMPDEST PUSH1 0x40 MLOAD PUSH2 0x164 SWAP2 SWAP1 PUSH2 0x375 JUMP JUMPDEST PUSH1 0x40 MLOAD DUP1 SWAP2 SUB SWAP1 RETURN JUMPDEST PUSH2 0x175 PUSH2 0x2CD JUMP JUMPDEST PUSH1 0x40 MLOAD PUSH2 0x182 SWAP2 SWAP1 PUSH2 0x48C JUMP JUMPDEST PUSH1 0x40 MLOAD DUP1 SWAP2 SUB SWAP1 RETURN JUMPDEST PUSH2 0x193 PUSH2 0x2F1 JUMP JUMPDEST PUSH1 0x40 MLOAD PUSH2 0x1A0 SWAP2 SWAP1 PUSH2 0x48C JUMP JUMPDEST PUSH1 0x40 MLOAD DUP1 SWAP2 SUB SWAP1 RETURN JUMPDEST PUSH2 0x1B1 PUSH2 0x317 JUMP JUMPDEST PUSH1 0x40 MLOAD PUSH2 0x1BE SWAP2 SWAP1 PUSH2 0x48C JUMP JUMPDEST PUSH1 0x40 MLOAD DUP1 SWAP2 SUB SWAP1 RETURN JUMPDEST PUSH2 0x1CF PUSH2 0x33D JUMP JUMPDEST PUSH1 0x40 MLOAD PUSH2 0x1DC SWAP2 SWAP1 PUSH2 0x375 JUMP JUMPDEST PUSH1 0x40 MLOAD DUP1 SWAP2 SUB SWAP1 RETURN JUMPDEST PUSH2 0x1ED PUSH2 0x343 JUMP JUMPDEST PUSH1 0x40 MLOAD PUSH2 0x1FA SWAP2 SWAP1 PUSH2 0x4E2 JUMP JUMPDEST PUSH1 0x40 MLOAD DUP1 SWAP2 SUB SWAP1 RETURN JUMPDEST PUSH2 0x20B PUSH2 0x356 JUMP JUMPDEST PUSH1 0x40 MLOAD PUSH2 0x218 SWAP2 SWAP1 PUSH2 0x375 JUMP JUMPDEST PUSH1 0x40 MLOAD DUP1 SWAP2 SUB SWAP1 RETURN JUMPDEST PUSH1 0x2 SLOAD DUP2 JUMP JUMPDEST PUSH1 0x7 SLOAD DUP2 JUMP JUMPDEST PUSH1 0x6 SLOAD DUP2 JUMP JUMPDEST PUSH1 0xA DUP1 SLOAD PUSH2 0x240 SWAP1 PUSH2 0x52C JUMP JUMPDEST DUP1 PUSH1 0x1F ADD PUSH1 0x20 DUP1 SWAP2 DIV MUL PUSH1 0x20 ADD PUSH1 0x40 MLOAD SWAP1 DUP2 ADD PUSH1 0x40 MSTORE DUP1 SWAP3 SWAP2 SWAP1 DUP2 DUP2 MSTORE PUSH1 0x20 ADD DUP3 DUP1 SLOAD PUSH2 0x26C SWAP1 PUSH2 0x52C JUMP JUMPDEST DUP1 ISZERO PUSH2 0x2B9 JUMPI DUP1 PUSH1 0x1F LT PUSH2 0x28E JUMPI PUSH2 0x100 DUP1 DUP4 SLOAD DIV MUL DUP4 MSTORE SWAP2 PUSH1 0x20 ADD SWAP2 PUSH2 0x2B9 JUMP JUMPDEST DUP3 ADD SWAP2 SWAP1 PUSH1 0x0 MSTORE PUSH1 0x20 PUSH1 0x0 KECCAK256 SWAP1 JUMPDEST DUP2 SLOAD DUP2 MSTORE SWAP1 PUSH1 0x1 ADD SWAP1 PUSH1 0x20 ADD DUP1 DUP4 GT PUSH2 0x29C JUMPI DUP3 SWAP1 SUB PUSH1 0x1F AND DUP3 ADD SWAP2 JUMPDEST POP POP POP POP POP DUP2 JUMP JUMPDEST PUSH1 0x9 SLOAD DUP2 JUMP JUMPDEST PUSH1 0x4 SLOAD DUP2 JUMP JUMPDEST PUSH1 0x0 DUP1 SLOAD SWAP1 PUSH2 0x100 EXP SWAP1 DIV PUSH20 0xFFFFFFFFFFFFFFFFFFFFFFFFFFFFFFFFFFFFFFFF AND DUP2 JUMP JUMPDEST PUSH1 0x1 PUSH1 0x0 SWAP1 SLOAD SWAP1 PUSH2 0x100 EXP SWAP1 DIV PUSH20 0xFFFFFFFFFFFFFFFFFFFFFFFFFFFFFFFFFFFFFFFF AND DUP2 JUMP JUMPDEST PUSH1 0x8 PUSH1 0x0 SWAP1 SLOAD SWAP1 PUSH2 0x100 EXP SWAP1 DIV PUSH20 0xFFFFFFFFFFFFFFFFFFFFFFFFFFFFFFFFFFFFFFFF AND DUP2 JUMP JUMPDEST PUSH1 0x5 SLOAD DUP2 JUMP JUMPDEST PUSH1 0xB PUSH1 0x0 SWAP1 SLOAD SWAP1 PUSH2 0x100 EXP SWAP1 DIV PUSH1 0xE0 SHL DUP2 JUMP JUMPDEST PUSH1 0x3 SLOAD DUP2 JUMP JUMPDEST PUSH1 0x0 DUP2 SWAP1 POP SWAP2 SWAP1 POP JUMP JUMPDEST PUSH2 0x36F DUP2 PUSH2 0x35C JUMP JUMPDEST DUP3 MSTORE POP POP JUMP JUMPDEST PUSH1 0x0 PUSH1 0x20 DUP3 ADD SWAP1 POP PUSH2 0x38A PUSH1 0x0 DUP4 ADD DUP5 PUSH2 0x366 JUMP JUMPDEST SWAP3 SWAP2 POP POP JUMP JUMPDEST PUSH1 0x0 DUP2 MLOAD SWAP1 POP SWAP2 SWAP1 POP JUMP JUMPDEST PUSH1 0x0 DUP3 DUP3 MSTORE PUSH1 0x20 DUP3 ADD SWAP1 POP SWAP3 SWAP2 POP POP JUMP JUMPDEST PUSH1 0x0 JUMPDEST DUP4 DUP2 LT ISZERO PUSH2 0x3CA JUMPI DUP1 DUP3 ADD MLOAD DUP2 DUP5 ADD MSTORE PUSH1 0x20 DUP2 ADD SWAP1 POP PUSH2 0x3AF JUMP JUMPDEST DUP4 DUP2 GT ISZERO PUSH2 0x3D9 JUMPI PUSH1 0x0 DUP5 DUP5 ADD MSTORE JUMPDEST POP POP POP POP JUMP JUMPDEST PUSH1 0x0 PUSH1 0x1F NOT PUSH1 0x1F DUP4 ADD AND SWAP1 POP SWAP2 SWAP1 POP JUMP JUMPDEST PUSH1 0x0 PUSH2 0x3FB DUP3 PUSH2 0x390 JUMP JUMPDEST PUSH2 0x405 DUP2 DUP6 PUSH2 0x39B JUMP JUMPDEST SWAP4 POP PUSH2 0x415 DUP2 DUP6 PUSH1 0x20 DUP7 ADD PUSH2 0x3AC JUMP JUMPDEST PUSH2 0x41E DUP2 PUSH2 0x3DF JUMP JUMPDEST DUP5 ADD SWAP2 POP POP SWAP3 SWAP2 POP POP JUMP JUMPDEST PUSH1 0x0 PUSH1 0x20 DUP3 ADD SWAP1 POP DUP2 DUP2 SUB PUSH1 0x0 DUP4 ADD MSTORE PUSH2 0x443 DUP2 DUP5 PUSH2 0x3F0 JUMP JUMPDEST SWAP1 POP SWAP3 SWAP2 POP POP JUMP JUMPDEST PUSH1 0x0 PUSH20 0xFFFFFFFFFFFFFFFFFFFFFFFFFFFFFFFFFFFFFFFF DUP3 AND SWAP1 POP SWAP2 SWAP1 POP JUMP JUMPDEST PUSH1 0x0 PUSH2 0x476 DUP3 PUSH2 0x44B JUMP JUMPDEST SWAP1 POP SWAP2 SWAP1 POP JUMP JUMPDEST PUSH2 0x486 DUP2 PUSH2 0x46B JUMP JUMPDEST DUP3 MSTORE POP POP JUMP JUMPDEST PUSH1 0x0 PUSH1 0x20 DUP3 ADD SWAP1 POP PUSH2 0x4A1 PUSH1 0x0 DUP4 ADD DUP5 PUSH2 0x47D JUMP JUMPDEST SWAP3 SWAP2 POP POP JUMP JUMPDEST PUSH1 0x0 PUSH32 0xFFFFFFFF00000000000000000000000000000000000000000000000000000000 DUP3 AND SWAP1 POP SWAP2 SWAP1 POP JUMP JUMPDEST PUSH2 0x4DC DUP2 PUSH2 0x4A7 JUMP JUMPDEST DUP3 MSTORE POP POP JUMP JUMPDEST PUSH1 0x0 PUSH1 0x20 DUP3 ADD SWAP1 POP PUSH2 0x4F7 PUSH1 0x0 DUP4 ADD DUP5 PUSH2 0x4D3 JUMP JUMPDEST SWAP3 SWAP2 POP POP JUMP JUMPDEST PUSH32 0x4E487B7100000000000000000000000000000000000000000000000000000000 PUSH1 0x0 MSTORE PUSH1 0x22 PUSH1 0x4 MSTORE PUSH1 0x24 PUSH1 0x0 REVERT JUMPDEST PUSH1 0x0 PUSH1 0x2 DUP3 DIV SWAP1 POP PUSH1 0x1 DUP3 AND DUP1 PUSH2 0x544 JUMPI PUSH1 0x7F DUP3 AND SWAP2 POP JUMPDEST PUSH1 0x20 DUP3 LT DUP2 SUB PUSH2 0x557 JUMPI PUSH2 0x556 PUSH2 0x4FD JUMP JUMPDEST JUMPDEST POP SWAP2 SWAP1 POP JUMP INVALID LOG2 PUSH5 0x6970667358 0x22 SLT KECCAK256 0x5E 0xDC SWAP4 RETURNDATASIZE SLT DUP5 PUSH29 0x7B311A9AE6C9647E554305FC6A13387551647E9F7636361AA564736F6C PUSH4 0x4300080D STOP CALLER "
				},
				"gasEstimates": {
					"creation": {
						"codeDepositCost": "285400",
						"executionCost": "infinite",
						"totalCost": "infinite"
					},
					"external": {
						"MyBlockHash()": "2536",
						"callData()": "infinite",
						"difficulty()": "2430",
						"firstFour()": "2559",
						"gasLimit()": "2539",
						"gasprice()": "2518",
						"nowOn()": "2452",
						"number()": "2540",
						"origin()": "2558",
						"owner()": "2511",
						"timestamp()": "2495",
						"value()": "2474"
					}
				},
				"methodIdentifiers": {
					"MyBlockHash()": "91953874",
					"callData()": "4e417a98",
					"difficulty()": "19cae462",
					"firstFour()": "e25ccbe7",
					"gasLimit()": "f68016b7",
					"gasprice()": "6ec232d3",
					"nowOn()": "22b22ce8",
					"number()": "8381f58a",
					"origin()": "938b5f32",
					"owner()": "8da5cb5b",
					"timestamp()": "b80777ea",
					"value()": "3fa4f245"
				}
			},
			"storageLayout": {
				"storage": [
					{
						"astId": 3,
						"contract": "contracts/globalVariable_11.sol:GlobalVariables",
						"label": "owner",
						"offset": 0,
						"slot": "0",
						"type": "t_address"
					},
					{
						"astId": 5,
						"contract": "contracts/globalVariable_11.sol:GlobalVariables",
						"label": "MyBlockHash",
						"offset": 0,
						"slot": "1",
						"type": "t_address"
					},
					{
						"astId": 7,
						"contract": "contracts/globalVariable_11.sol:GlobalVariables",
						"label": "difficulty",
						"offset": 0,
						"slot": "2",
						"type": "t_uint256"
					},
					{
						"astId": 9,
						"contract": "contracts/globalVariable_11.sol:GlobalVariables",
						"label": "gasLimit",
						"offset": 0,
						"slot": "3",
						"type": "t_uint256"
					},
					{
						"astId": 11,
						"contract": "contracts/globalVariable_11.sol:GlobalVariables",
						"label": "number",
						"offset": 0,
						"slot": "4",
						"type": "t_uint256"
					},
					{
						"astId": 13,
						"contract": "contracts/globalVariable_11.sol:GlobalVariables",
						"label": "timestamp",
						"offset": 0,
						"slot": "5",
						"type": "t_uint256"
					},
					{
						"astId": 15,
						"contract": "contracts/globalVariable_11.sol:GlobalVariables",
						"label": "value",
						"offset": 0,
						"slot": "6",
						"type": "t_uint256"
					},
					{
						"astId": 17,
						"contract": "contracts/globalVariable_11.sol:GlobalVariables",
						"label": "nowOn",
						"offset": 0,
						"slot": "7",
						"type": "t_uint256"
					},
					{
						"astId": 19,
						"contract": "contracts/globalVariable_11.sol:GlobalVariables",
						"label": "origin",
						"offset": 0,
						"slot": "8",
						"type": "t_address"
					},
					{
						"astId": 21,
						"contract": "contracts/globalVariable_11.sol:GlobalVariables",
						"label": "gasprice",
						"offset": 0,
						"slot": "9",
						"type": "t_uint256"
					},
					{
						"astId": 23,
						"contract": "contracts/globalVariable_11.sol:GlobalVariables",
						"label": "callData",
						"offset": 0,
						"slot": "10",
						"type": "t_bytes_storage"
					},
					{
						"astId": 25,
						"contract": "contracts/globalVariable_11.sol:GlobalVariables",
						"label": "firstFour",
						"offset": 0,
						"slot": "11",
						"type": "t_bytes4"
					}
				],
				"types": {
					"t_address": {
						"encoding": "inplace",
						"label": "address",
						"numberOfBytes": "20"
					},
					"t_bytes4": {
						"encoding": "inplace",
						"label": "bytes4",
						"numberOfBytes": "4"
					},
					"t_bytes_storage": {
						"encoding": "bytes",
						"label": "bytes",
						"numberOfBytes": "32"
					},
					"t_uint256": {
						"encoding": "inplace",
						"label": "uint256",
						"numberOfBytes": "32"
					}
				}
			},
			"userdoc": {
				"kind": "user",
				"methods": {},
				"version": 1
			}
		}
	}
}