{
	"contracts/teste.sol": {
		"Require": {
			"abi": [
				{
					"inputs": [
						{
							"internalType": "int256",
							"name": "_num",
							"type": "int256"
						}
					],
					"name": "verifica8bytes",
					"outputs": [
						{
							"internalType": "string",
							"name": "",
							"type": "string"
						}
					],
					"stateMutability": "pure",
					"type": "function"
				},
				{
					"inputs": [
						{
							"internalType": "uint256",
							"name": "_input",
							"type": "uint256"
						}
					],
					"name": "verificaImpar",
					"outputs": [
						{
							"internalType": "bool",
							"name": "",
							"type": "bool"
						}
					],
					"stateMutability": "pure",
					"type": "function"
				}
			],
			"devdoc": {
				"kind": "dev",
				"methods": {},
				"version": 1
			},
			"evm": {
				"assembly": "    /* \"contracts/teste.sol\":58:432  contract Require {    ... */\n  mstore(0x40, 0x80)\n  callvalue\n  dup1\n  iszero\n  tag_1\n  jumpi\n  0x00\n  dup1\n  revert\ntag_1:\n  pop\n  dataSize(sub_0)\n  dup1\n  dataOffset(sub_0)\n  0x00\n  codecopy\n  0x00\n  return\nstop\n\nsub_0: assembly {\n        /* \"contracts/teste.sol\":58:432  contract Require {    ... */\n      mstore(0x40, 0x80)\n      callvalue\n      dup1\n      iszero\n      tag_1\n      jumpi\n      0x00\n      dup1\n      revert\n    tag_1:\n      pop\n      jumpi(tag_2, lt(calldatasize, 0x04))\n      shr(0xe0, calldataload(0x00))\n      dup1\n      0xb390cda9\n      eq\n      tag_3\n      jumpi\n      dup1\n      0xb6583613\n      eq\n      tag_4\n      jumpi\n    tag_2:\n      0x00\n      dup1\n      revert\n        /* \"contracts/teste.sol\":91:298  function verifica8bytes(int256 _num)public pure returns(string memory){... */\n    tag_3:\n      tag_5\n      0x04\n      dup1\n      calldatasize\n      sub\n      dup2\n      add\n      swap1\n      tag_6\n      swap2\n      swap1\n      tag_7\n      jump\t// in\n    tag_6:\n      tag_8\n      jump\t// in\n    tag_5:\n      mload(0x40)\n      tag_9\n      swap2\n      swap1\n      tag_10\n      jump\t// in\n    tag_9:\n      mload(0x40)\n      dup1\n      swap2\n      sub\n      swap1\n      return\n        /* \"contracts/teste.sol\":304:430  function verificaImpar(uint256 _input)public pure returns(bool){... */\n    tag_4:\n      tag_11\n      0x04\n      dup1\n      calldatasize\n      sub\n      dup2\n      add\n      swap1\n      tag_12\n      swap2\n      swap1\n      tag_13\n      jump\t// in\n    tag_12:\n      tag_14\n      jump\t// in\n    tag_11:\n      mload(0x40)\n      tag_15\n      swap2\n      swap1\n      tag_16\n      jump\t// in\n    tag_15:\n      mload(0x40)\n      dup1\n      swap2\n      sub\n      swap1\n      return\n        /* \"contracts/teste.sol\":91:298  function verifica8bytes(int256 _num)public pure returns(string memory){... */\n    tag_8:\n        /* \"contracts/teste.sol\":147:160  string memory */\n      0x60\n        /* \"contracts/teste.sol\":187:190  128 */\n      0x80\n        /* \"contracts/teste.sol\":180:184  _num */\n      dup3\n        /* \"contracts/teste.sol\":180:190  _num < 128 */\n      slt\n        /* \"contracts/teste.sol\":172:208  require(_num < 128, \"It's not int8\") */\n      tag_18\n      jumpi\n      mload(0x40)\n      0x08c379a000000000000000000000000000000000000000000000000000000000\n      dup2\n      mstore\n      0x04\n      add\n      tag_19\n      swap1\n      tag_20\n      jump\t// in\n    tag_19:\n      mload(0x40)\n      dup1\n      swap2\n      sub\n      swap1\n      revert\n    tag_18:\n        /* \"contracts/teste.sol\":242:246  -128 */\n      0xffffffffffffffffffffffffffffffffffffffffffffffffffffffffffffff80\n        /* \"contracts/teste.sol\":234:238  _num */\n      dup3\n        /* \"contracts/teste.sol\":234:246  _num >= -128 */\n      slt\n      iszero\n        /* \"contracts/teste.sol\":226:264  require(_num >= -128, \"It's not int8\") */\n      tag_21\n      jumpi\n      mload(0x40)\n      0x08c379a000000000000000000000000000000000000000000000000000000000\n      dup2\n      mstore\n      0x04\n      add\n      tag_22\n      swap1\n      tag_20\n      jump\t// in\n    tag_22:\n      mload(0x40)\n      dup1\n      swap2\n      sub\n      swap1\n      revert\n    tag_21:\n        /* \"contracts/teste.sol\":275:291  return \"is int8\" */\n      mload(0x40)\n      dup1\n      0x40\n      add\n      0x40\n      mstore\n      dup1\n      0x07\n      dup2\n      mstore\n      0x20\n      add\n      0x697320696e743800000000000000000000000000000000000000000000000000\n      dup2\n      mstore\n      pop\n      swap1\n      pop\n        /* \"contracts/teste.sol\":91:298  function verifica8bytes(int256 _num)public pure returns(string memory){... */\n      swap2\n      swap1\n      pop\n      jump\t// out\n        /* \"contracts/teste.sol\":304:430  function verificaImpar(uint256 _input)public pure returns(bool){... */\n    tag_14:\n        /* \"contracts/teste.sol\":362:366  bool */\n      0x00\n        /* \"contracts/teste.sol\":400:401  0 */\n      dup1\n        /* \"contracts/teste.sol\":395:396  2 */\n      0x02\n        /* \"contracts/teste.sol\":386:392  _input */\n      dup4\n        /* \"contracts/teste.sol\":386:396  _input % 2 */\n      tag_24\n      swap2\n      swap1\n      tag_25\n      jump\t// in\n    tag_24:\n        /* \"contracts/teste.sol\":386:401  _input % 2 != 0 */\n      sub\n        /* \"contracts/teste.sol\":378:402  require(_input % 2 != 0) */\n      tag_26\n      jumpi\n      0x00\n      dup1\n      revert\n    tag_26:\n        /* \"contracts/teste.sol\":419:423  true */\n      0x01\n        /* \"contracts/teste.sol\":412:423  return true */\n      swap1\n      pop\n        /* \"contracts/teste.sol\":304:430  function verificaImpar(uint256 _input)public pure returns(bool){... */\n      swap2\n      swap1\n      pop\n      jump\t// out\n        /* \"#utility.yul\":88:205   */\n    tag_28:\n        /* \"#utility.yul\":197:198   */\n      0x00\n        /* \"#utility.yul\":194:195   */\n      dup1\n        /* \"#utility.yul\":187:199   */\n      revert\n        /* \"#utility.yul\":334:410   */\n    tag_30:\n        /* \"#utility.yul\":370:377   */\n      0x00\n        /* \"#utility.yul\":399:404   */\n      dup2\n        /* \"#utility.yul\":388:404   */\n      swap1\n      pop\n        /* \"#utility.yul\":334:410   */\n      swap2\n      swap1\n      pop\n      jump\t// out\n        /* \"#utility.yul\":416:536   */\n    tag_31:\n        /* \"#utility.yul\":488:511   */\n      tag_52\n        /* \"#utility.yul\":505:510   */\n      dup2\n        /* \"#utility.yul\":488:511   */\n      tag_30\n      jump\t// in\n    tag_52:\n        /* \"#utility.yul\":481:486   */\n      dup2\n        /* \"#utility.yul\":478:512   */\n      eq\n        /* \"#utility.yul\":468:530   */\n      tag_53\n      jumpi\n        /* \"#utility.yul\":526:527   */\n      0x00\n        /* \"#utility.yul\":523:524   */\n      dup1\n        /* \"#utility.yul\":516:528   */\n      revert\n        /* \"#utility.yul\":468:530   */\n    tag_53:\n        /* \"#utility.yul\":416:536   */\n      pop\n      jump\t// out\n        /* \"#utility.yul\":542:679   */\n    tag_32:\n        /* \"#utility.yul\":587:592   */\n      0x00\n        /* \"#utility.yul\":625:631   */\n      dup2\n        /* \"#utility.yul\":612:632   */\n      calldataload\n        /* \"#utility.yul\":603:632   */\n      swap1\n      pop\n        /* \"#utility.yul\":641:673   */\n      tag_55\n        /* \"#utility.yul\":667:672   */\n      dup2\n        /* \"#utility.yul\":641:673   */\n      tag_31\n      jump\t// in\n    tag_55:\n        /* \"#utility.yul\":542:679   */\n      swap3\n      swap2\n      pop\n      pop\n      jump\t// out\n        /* \"#utility.yul\":685:1012   */\n    tag_7:\n        /* \"#utility.yul\":743:749   */\n      0x00\n        /* \"#utility.yul\":792:794   */\n      0x20\n        /* \"#utility.yul\":780:789   */\n      dup3\n        /* \"#utility.yul\":771:778   */\n      dup5\n        /* \"#utility.yul\":767:790   */\n      sub\n        /* \"#utility.yul\":763:795   */\n      slt\n        /* \"#utility.yul\":760:879   */\n      iszero\n      tag_57\n      jumpi\n        /* \"#utility.yul\":798:877   */\n      tag_58\n      tag_28\n      jump\t// in\n    tag_58:\n        /* \"#utility.yul\":760:879   */\n    tag_57:\n        /* \"#utility.yul\":918:919   */\n      0x00\n        /* \"#utility.yul\":943:995   */\n      tag_59\n        /* \"#utility.yul\":987:994   */\n      dup5\n        /* \"#utility.yul\":978:984   */\n      dup3\n        /* \"#utility.yul\":967:976   */\n      dup6\n        /* \"#utility.yul\":963:985   */\n      add\n        /* \"#utility.yul\":943:995   */\n      tag_32\n      jump\t// in\n    tag_59:\n        /* \"#utility.yul\":933:995   */\n      swap2\n      pop\n        /* \"#utility.yul\":889:1005   */\n      pop\n        /* \"#utility.yul\":685:1012   */\n      swap3\n      swap2\n      pop\n      pop\n      jump\t// out\n        /* \"#utility.yul\":1018:1117   */\n    tag_33:\n        /* \"#utility.yul\":1070:1076   */\n      0x00\n        /* \"#utility.yul\":1104:1109   */\n      dup2\n        /* \"#utility.yul\":1098:1110   */\n      mload\n        /* \"#utility.yul\":1088:1110   */\n      swap1\n      pop\n        /* \"#utility.yul\":1018:1117   */\n      swap2\n      swap1\n      pop\n      jump\t// out\n        /* \"#utility.yul\":1123:1292   */\n    tag_34:\n        /* \"#utility.yul\":1207:1218   */\n      0x00\n        /* \"#utility.yul\":1241:1247   */\n      dup3\n        /* \"#utility.yul\":1236:1239   */\n      dup3\n        /* \"#utility.yul\":1229:1248   */\n      mstore\n        /* \"#utility.yul\":1281:1285   */\n      0x20\n        /* \"#utility.yul\":1276:1279   */\n      dup3\n        /* \"#utility.yul\":1272:1286   */\n      add\n        /* \"#utility.yul\":1257:1286   */\n      swap1\n      pop\n        /* \"#utility.yul\":1123:1292   */\n      swap3\n      swap2\n      pop\n      pop\n      jump\t// out\n        /* \"#utility.yul\":1298:1605   */\n    tag_35:\n        /* \"#utility.yul\":1366:1367   */\n      0x00\n        /* \"#utility.yul\":1376:1489   */\n    tag_63:\n        /* \"#utility.yul\":1390:1396   */\n      dup4\n        /* \"#utility.yul\":1387:1388   */\n      dup2\n        /* \"#utility.yul\":1384:1397   */\n      lt\n        /* \"#utility.yul\":1376:1489   */\n      iszero\n      tag_65\n      jumpi\n        /* \"#utility.yul\":1475:1476   */\n      dup1\n        /* \"#utility.yul\":1470:1473   */\n      dup3\n        /* \"#utility.yul\":1466:1477   */\n      add\n        /* \"#utility.yul\":1460:1478   */\n      mload\n        /* \"#utility.yul\":1456:1457   */\n      dup2\n        /* \"#utility.yul\":1451:1454   */\n      dup5\n        /* \"#utility.yul\":1447:1458   */\n      add\n        /* \"#utility.yul\":1440:1479   */\n      mstore\n        /* \"#utility.yul\":1412:1414   */\n      0x20\n        /* \"#utility.yul\":1409:1410   */\n      dup2\n        /* \"#utility.yul\":1405:1415   */\n      add\n        /* \"#utility.yul\":1400:1415   */\n      swap1\n      pop\n        /* \"#utility.yul\":1376:1489   */\n      jump(tag_63)\n    tag_65:\n        /* \"#utility.yul\":1507:1513   */\n      dup4\n        /* \"#utility.yul\":1504:1505   */\n      dup2\n        /* \"#utility.yul\":1501:1514   */\n      gt\n        /* \"#utility.yul\":1498:1599   */\n      iszero\n      tag_66\n      jumpi\n        /* \"#utility.yul\":1587:1588   */\n      0x00\n        /* \"#utility.yul\":1578:1584   */\n      dup5\n        /* \"#utility.yul\":1573:1576   */\n      dup5\n        /* \"#utility.yul\":1569:1585   */\n      add\n        /* \"#utility.yul\":1562:1589   */\n      mstore\n        /* \"#utility.yul\":1498:1599   */\n    tag_66:\n        /* \"#utility.yul\":1347:1605   */\n      pop\n        /* \"#utility.yul\":1298:1605   */\n      pop\n      pop\n      pop\n      jump\t// out\n        /* \"#utility.yul\":1611:1713   */\n    tag_36:\n        /* \"#utility.yul\":1652:1658   */\n      0x00\n        /* \"#utility.yul\":1703:1705   */\n      0x1f\n        /* \"#utility.yul\":1699:1706   */\n      not\n        /* \"#utility.yul\":1694:1696   */\n      0x1f\n        /* \"#utility.yul\":1687:1692   */\n      dup4\n        /* \"#utility.yul\":1683:1697   */\n      add\n        /* \"#utility.yul\":1679:1707   */\n      and\n        /* \"#utility.yul\":1669:1707   */\n      swap1\n      pop\n        /* \"#utility.yul\":1611:1713   */\n      swap2\n      swap1\n      pop\n      jump\t// out\n        /* \"#utility.yul\":1719:2083   */\n    tag_37:\n        /* \"#utility.yul\":1807:1810   */\n      0x00\n        /* \"#utility.yul\":1835:1874   */\n      tag_69\n        /* \"#utility.yul\":1868:1873   */\n      dup3\n        /* \"#utility.yul\":1835:1874   */\n      tag_33\n      jump\t// in\n    tag_69:\n        /* \"#utility.yul\":1890:1961   */\n      tag_70\n        /* \"#utility.yul\":1954:1960   */\n      dup2\n        /* \"#utility.yul\":1949:1952   */\n      dup6\n        /* \"#utility.yul\":1890:1961   */\n      tag_34\n      jump\t// in\n    tag_70:\n        /* \"#utility.yul\":1883:1961   */\n      swap4\n      pop\n        /* \"#utility.yul\":1970:2022   */\n      tag_71\n        /* \"#utility.yul\":2015:2021   */\n      dup2\n        /* \"#utility.yul\":2010:2013   */\n      dup6\n        /* \"#utility.yul\":2003:2007   */\n      0x20\n        /* \"#utility.yul\":1996:2001   */\n      dup7\n        /* \"#utility.yul\":1992:2008   */\n      add\n        /* \"#utility.yul\":1970:2022   */\n      tag_35\n      jump\t// in\n    tag_71:\n        /* \"#utility.yul\":2047:2076   */\n      tag_72\n        /* \"#utility.yul\":2069:2075   */\n      dup2\n        /* \"#utility.yul\":2047:2076   */\n      tag_36\n      jump\t// in\n    tag_72:\n        /* \"#utility.yul\":2042:2045   */\n      dup5\n        /* \"#utility.yul\":2038:2077   */\n      add\n        /* \"#utility.yul\":2031:2077   */\n      swap2\n      pop\n        /* \"#utility.yul\":1811:2083   */\n      pop\n        /* \"#utility.yul\":1719:2083   */\n      swap3\n      swap2\n      pop\n      pop\n      jump\t// out\n        /* \"#utility.yul\":2089:2402   */\n    tag_10:\n        /* \"#utility.yul\":2202:2206   */\n      0x00\n        /* \"#utility.yul\":2240:2242   */\n      0x20\n        /* \"#utility.yul\":2229:2238   */\n      dup3\n        /* \"#utility.yul\":2225:2243   */\n      add\n        /* \"#utility.yul\":2217:2243   */\n      swap1\n      pop\n        /* \"#utility.yul\":2289:2298   */\n      dup2\n        /* \"#utility.yul\":2283:2287   */\n      dup2\n        /* \"#utility.yul\":2279:2299   */\n      sub\n        /* \"#utility.yul\":2275:2276   */\n      0x00\n        /* \"#utility.yul\":2264:2273   */\n      dup4\n        /* \"#utility.yul\":2260:2277   */\n      add\n        /* \"#utility.yul\":2253:2300   */\n      mstore\n        /* \"#utility.yul\":2317:2395   */\n      tag_74\n        /* \"#utility.yul\":2390:2394   */\n      dup2\n        /* \"#utility.yul\":2381:2387   */\n      dup5\n        /* \"#utility.yul\":2317:2395   */\n      tag_37\n      jump\t// in\n    tag_74:\n        /* \"#utility.yul\":2309:2395   */\n      swap1\n      pop\n        /* \"#utility.yul\":2089:2402   */\n      swap3\n      swap2\n      pop\n      pop\n      jump\t// out\n        /* \"#utility.yul\":2408:2485   */\n    tag_38:\n        /* \"#utility.yul\":2445:2452   */\n      0x00\n        /* \"#utility.yul\":2474:2479   */\n      dup2\n        /* \"#utility.yul\":2463:2479   */\n      swap1\n      pop\n        /* \"#utility.yul\":2408:2485   */\n      swap2\n      swap1\n      pop\n      jump\t// out\n        /* \"#utility.yul\":2491:2613   */\n    tag_39:\n        /* \"#utility.yul\":2564:2588   */\n      tag_77\n        /* \"#utility.yul\":2582:2587   */\n      dup2\n        /* \"#utility.yul\":2564:2588   */\n      tag_38\n      jump\t// in\n    tag_77:\n        /* \"#utility.yul\":2557:2562   */\n      dup2\n        /* \"#utility.yul\":2554:2589   */\n      eq\n        /* \"#utility.yul\":2544:2607   */\n      tag_78\n      jumpi\n        /* \"#utility.yul\":2603:2604   */\n      0x00\n        /* \"#utility.yul\":2600:2601   */\n      dup1\n        /* \"#utility.yul\":2593:2605   */\n      revert\n        /* \"#utility.yul\":2544:2607   */\n    tag_78:\n        /* \"#utility.yul\":2491:2613   */\n      pop\n      jump\t// out\n        /* \"#utility.yul\":2619:2758   */\n    tag_40:\n        /* \"#utility.yul\":2665:2670   */\n      0x00\n        /* \"#utility.yul\":2703:2709   */\n      dup2\n        /* \"#utility.yul\":2690:2710   */\n      calldataload\n        /* \"#utility.yul\":2681:2710   */\n      swap1\n      pop\n        /* \"#utility.yul\":2719:2752   */\n      tag_80\n        /* \"#utility.yul\":2746:2751   */\n      dup2\n        /* \"#utility.yul\":2719:2752   */\n      tag_39\n      jump\t// in\n    tag_80:\n        /* \"#utility.yul\":2619:2758   */\n      swap3\n      swap2\n      pop\n      pop\n      jump\t// out\n        /* \"#utility.yul\":2764:3093   */\n    tag_13:\n        /* \"#utility.yul\":2823:2829   */\n      0x00\n        /* \"#utility.yul\":2872:2874   */\n      0x20\n        /* \"#utility.yul\":2860:2869   */\n      dup3\n        /* \"#utility.yul\":2851:2858   */\n      dup5\n        /* \"#utility.yul\":2847:2870   */\n      sub\n        /* \"#utility.yul\":2843:2875   */\n      slt\n        /* \"#utility.yul\":2840:2959   */\n      iszero\n      tag_82\n      jumpi\n        /* \"#utility.yul\":2878:2957   */\n      tag_83\n      tag_28\n      jump\t// in\n    tag_83:\n        /* \"#utility.yul\":2840:2959   */\n    tag_82:\n        /* \"#utility.yul\":2998:2999   */\n      0x00\n        /* \"#utility.yul\":3023:3076   */\n      tag_84\n        /* \"#utility.yul\":3068:3075   */\n      dup5\n        /* \"#utility.yul\":3059:3065   */\n      dup3\n        /* \"#utility.yul\":3048:3057   */\n      dup6\n        /* \"#utility.yul\":3044:3066   */\n      add\n        /* \"#utility.yul\":3023:3076   */\n      tag_40\n      jump\t// in\n    tag_84:\n        /* \"#utility.yul\":3013:3076   */\n      swap2\n      pop\n        /* \"#utility.yul\":2969:3086   */\n      pop\n        /* \"#utility.yul\":2764:3093   */\n      swap3\n      swap2\n      pop\n      pop\n      jump\t// out\n        /* \"#utility.yul\":3099:3189   */\n    tag_41:\n        /* \"#utility.yul\":3133:3140   */\n      0x00\n        /* \"#utility.yul\":3176:3181   */\n      dup2\n        /* \"#utility.yul\":3169:3182   */\n      iszero\n        /* \"#utility.yul\":3162:3183   */\n      iszero\n        /* \"#utility.yul\":3151:3183   */\n      swap1\n      pop\n        /* \"#utility.yul\":3099:3189   */\n      swap2\n      swap1\n      pop\n      jump\t// out\n        /* \"#utility.yul\":3195:3304   */\n    tag_42:\n        /* \"#utility.yul\":3276:3297   */\n      tag_87\n        /* \"#utility.yul\":3291:3296   */\n      dup2\n        /* \"#utility.yul\":3276:3297   */\n      tag_41\n      jump\t// in\n    tag_87:\n        /* \"#utility.yul\":3271:3274   */\n      dup3\n        /* \"#utility.yul\":3264:3298   */\n      mstore\n        /* \"#utility.yul\":3195:3304   */\n      pop\n      pop\n      jump\t// out\n        /* \"#utility.yul\":3310:3520   */\n    tag_16:\n        /* \"#utility.yul\":3397:3401   */\n      0x00\n        /* \"#utility.yul\":3435:3437   */\n      0x20\n        /* \"#utility.yul\":3424:3433   */\n      dup3\n        /* \"#utility.yul\":3420:3438   */\n      add\n        /* \"#utility.yul\":3412:3438   */\n      swap1\n      pop\n        /* \"#utility.yul\":3448:3513   */\n      tag_89\n        /* \"#utility.yul\":3510:3511   */\n      0x00\n        /* \"#utility.yul\":3499:3508   */\n      dup4\n        /* \"#utility.yul\":3495:3512   */\n      add\n        /* \"#utility.yul\":3486:3492   */\n      dup5\n        /* \"#utility.yul\":3448:3513   */\n      tag_42\n      jump\t// in\n    tag_89:\n        /* \"#utility.yul\":3310:3520   */\n      swap3\n      swap2\n      pop\n      pop\n      jump\t// out\n        /* \"#utility.yul\":3526:3689   */\n    tag_43:\n        /* \"#utility.yul\":3666:3681   */\n      0x49742773206e6f7420696e743800000000000000000000000000000000000000\n        /* \"#utility.yul\":3662:3663   */\n      0x00\n        /* \"#utility.yul\":3654:3660   */\n      dup3\n        /* \"#utility.yul\":3650:3664   */\n      add\n        /* \"#utility.yul\":3643:3682   */\n      mstore\n        /* \"#utility.yul\":3526:3689   */\n      pop\n      jump\t// out\n        /* \"#utility.yul\":3695:4061   */\n    tag_44:\n        /* \"#utility.yul\":3837:3840   */\n      0x00\n        /* \"#utility.yul\":3858:3925   */\n      tag_92\n        /* \"#utility.yul\":3922:3924   */\n      0x0d\n        /* \"#utility.yul\":3917:3920   */\n      dup4\n        /* \"#utility.yul\":3858:3925   */\n      tag_34\n      jump\t// in\n    tag_92:\n        /* \"#utility.yul\":3851:3925   */\n      swap2\n      pop\n        /* \"#utility.yul\":3934:4027   */\n      tag_93\n        /* \"#utility.yul\":4023:4026   */\n      dup3\n        /* \"#utility.yul\":3934:4027   */\n      tag_43\n      jump\t// in\n    tag_93:\n        /* \"#utility.yul\":4052:4054   */\n      0x20\n        /* \"#utility.yul\":4047:4050   */\n      dup3\n        /* \"#utility.yul\":4043:4055   */\n      add\n        /* \"#utility.yul\":4036:4055   */\n      swap1\n      pop\n        /* \"#utility.yul\":3695:4061   */\n      swap2\n      swap1\n      pop\n      jump\t// out\n        /* \"#utility.yul\":4067:4486   */\n    tag_20:\n        /* \"#utility.yul\":4233:4237   */\n      0x00\n        /* \"#utility.yul\":4271:4273   */\n      0x20\n        /* \"#utility.yul\":4260:4269   */\n      dup3\n        /* \"#utility.yul\":4256:4274   */\n      add\n        /* \"#utility.yul\":4248:4274   */\n      swap1\n      pop\n        /* \"#utility.yul\":4320:4329   */\n      dup2\n        /* \"#utility.yul\":4314:4318   */\n      dup2\n        /* \"#utility.yul\":4310:4330   */\n      sub\n        /* \"#utility.yul\":4306:4307   */\n      0x00\n        /* \"#utility.yul\":4295:4304   */\n      dup4\n        /* \"#utility.yul\":4291:4308   */\n      add\n        /* \"#utility.yul\":4284:4331   */\n      mstore\n        /* \"#utility.yul\":4348:4479   */\n      tag_95\n        /* \"#utility.yul\":4474:4478   */\n      dup2\n        /* \"#utility.yul\":4348:4479   */\n      tag_44\n      jump\t// in\n    tag_95:\n        /* \"#utility.yul\":4340:4479   */\n      swap1\n      pop\n        /* \"#utility.yul\":4067:4486   */\n      swap2\n      swap1\n      pop\n      jump\t// out\n        /* \"#utility.yul\":4492:4672   */\n    tag_45:\n        /* \"#utility.yul\":4540:4617   */\n      0x4e487b7100000000000000000000000000000000000000000000000000000000\n        /* \"#utility.yul\":4537:4538   */\n      0x00\n        /* \"#utility.yul\":4530:4618   */\n      mstore\n        /* \"#utility.yul\":4637:4641   */\n      0x12\n        /* \"#utility.yul\":4634:4635   */\n      0x04\n        /* \"#utility.yul\":4627:4642   */\n      mstore\n        /* \"#utility.yul\":4661:4665   */\n      0x24\n        /* \"#utility.yul\":4658:4659   */\n      0x00\n        /* \"#utility.yul\":4651:4666   */\n      revert\n        /* \"#utility.yul\":4678:4854   */\n    tag_25:\n        /* \"#utility.yul\":4710:4711   */\n      0x00\n        /* \"#utility.yul\":4727:4747   */\n      tag_98\n        /* \"#utility.yul\":4745:4746   */\n      dup3\n        /* \"#utility.yul\":4727:4747   */\n      tag_38\n      jump\t// in\n    tag_98:\n        /* \"#utility.yul\":4722:4747   */\n      swap2\n      pop\n        /* \"#utility.yul\":4761:4781   */\n      tag_99\n        /* \"#utility.yul\":4779:4780   */\n      dup4\n        /* \"#utility.yul\":4761:4781   */\n      tag_38\n      jump\t// in\n    tag_99:\n        /* \"#utility.yul\":4756:4781   */\n      swap3\n      pop\n        /* \"#utility.yul\":4800:4801   */\n      dup3\n        /* \"#utility.yul\":4790:4825   */\n      tag_100\n      jumpi\n        /* \"#utility.yul\":4805:4823   */\n      tag_101\n      tag_45\n      jump\t// in\n    tag_101:\n        /* \"#utility.yul\":4790:4825   */\n    tag_100:\n        /* \"#utility.yul\":4846:4847   */\n      dup3\n        /* \"#utility.yul\":4843:4844   */\n      dup3\n        /* \"#utility.yul\":4839:4848   */\n      mod\n        /* \"#utility.yul\":4834:4848   */\n      swap1\n      pop\n        /* \"#utility.yul\":4678:4854   */\n      swap3\n      swap2\n      pop\n      pop\n      jump\t// out\n\n    auxdata: 0xa2646970667358221220d23c6ed9fe4f0dc34a8e0f2d9ee92cac8850139d667ec8a61d69a45bca7e847664736f6c634300080d0033\n}\n",
				"bytecode": {
					"linkReferences": {},
					"object": "608060405234801561001057600080fd5b50610461806100206000396000f3fe608060405234801561001057600080fd5b50600436106100365760003560e01c8063b390cda91461003b578063b65836131461006b575b600080fd5b610055600480360381019061005091906101de565b61009b565b60405161006291906102a4565b60405180910390f35b610085600480360381019061008091906102fc565b610180565b6040516100929190610344565b60405180910390f35b6060608082126100e0576040517f08c379a00000000000000000000000000000000000000000000000000000000081526004016100d7906103ab565b60405180910390fd5b7fffffffffffffffffffffffffffffffffffffffffffffffffffffffffffffff80821215610143576040517f08c379a000000000000000000000000000000000000000000000000000000000815260040161013a906103ab565b60405180910390fd5b6040518060400160405280600781526020017f697320696e7438000000000000000000000000000000000000000000000000008152509050919050565b60008060028361019091906103fa565b0361019a57600080fd5b60019050919050565b600080fd5b6000819050919050565b6101bb816101a8565b81146101c657600080fd5b50565b6000813590506101d8816101b2565b92915050565b6000602082840312156101f4576101f36101a3565b5b6000610202848285016101c9565b91505092915050565b600081519050919050565b600082825260208201905092915050565b60005b8381101561024557808201518184015260208101905061022a565b83811115610254576000848401525b50505050565b6000601f19601f8301169050919050565b60006102768261020b565b6102808185610216565b9350610290818560208601610227565b6102998161025a565b840191505092915050565b600060208201905081810360008301526102be818461026b565b905092915050565b6000819050919050565b6102d9816102c6565b81146102e457600080fd5b50565b6000813590506102f6816102d0565b92915050565b600060208284031215610312576103116101a3565b5b6000610320848285016102e7565b91505092915050565b60008115159050919050565b61033e81610329565b82525050565b60006020820190506103596000830184610335565b92915050565b7f49742773206e6f7420696e743800000000000000000000000000000000000000600082015250565b6000610395600d83610216565b91506103a08261035f565b602082019050919050565b600060208201905081810360008301526103c481610388565b9050919050565b7f4e487b7100000000000000000000000000000000000000000000000000000000600052601260045260246000fd5b6000610405826102c6565b9150610410836102c6565b9250826104205761041f6103cb565b5b82820690509291505056fea2646970667358221220d23c6ed9fe4f0dc34a8e0f2d9ee92cac8850139d667ec8a61d69a45bca7e847664736f6c634300080d0033",
					"opcodes": "PUSH1 0x80 PUSH1 0x40 MSTORE CALLVALUE DUP1 ISZERO PUSH2 0x10 JUMPI PUSH1 0x0 DUP1 REVERT JUMPDEST POP PUSH2 0x461 DUP1 PUSH2 0x20 PUSH1 0x0 CODECOPY PUSH1 0x0 RETURN INVALID PUSH1 0x80 PUSH1 0x40 MSTORE CALLVALUE DUP1 ISZERO PUSH2 0x10 JUMPI PUSH1 0x0 DUP1 REVERT JUMPDEST POP PUSH1 0x4 CALLDATASIZE LT PUSH2 0x36 JUMPI PUSH1 0x0 CALLDATALOAD PUSH1 0xE0 SHR DUP1 PUSH4 0xB390CDA9 EQ PUSH2 0x3B JUMPI DUP1 PUSH4 0xB6583613 EQ PUSH2 0x6B JUMPI JUMPDEST PUSH1 0x0 DUP1 REVERT JUMPDEST PUSH2 0x55 PUSH1 0x4 DUP1 CALLDATASIZE SUB DUP2 ADD SWAP1 PUSH2 0x50 SWAP2 SWAP1 PUSH2 0x1DE JUMP JUMPDEST PUSH2 0x9B JUMP JUMPDEST PUSH1 0x40 MLOAD PUSH2 0x62 SWAP2 SWAP1 PUSH2 0x2A4 JUMP JUMPDEST PUSH1 0x40 MLOAD DUP1 SWAP2 SUB SWAP1 RETURN JUMPDEST PUSH2 0x85 PUSH1 0x4 DUP1 CALLDATASIZE SUB DUP2 ADD SWAP1 PUSH2 0x80 SWAP2 SWAP1 PUSH2 0x2FC JUMP JUMPDEST PUSH2 0x180 JUMP JUMPDEST PUSH1 0x40 MLOAD PUSH2 0x92 SWAP2 SWAP1 PUSH2 0x344 JUMP JUMPDEST PUSH1 0x40 MLOAD DUP1 SWAP2 SUB SWAP1 RETURN JUMPDEST PUSH1 0x60 PUSH1 0x80 DUP3 SLT PUSH2 0xE0 JUMPI PUSH1 0x40 MLOAD PUSH32 0x8C379A000000000000000000000000000000000000000000000000000000000 DUP2 MSTORE PUSH1 0x4 ADD PUSH2 0xD7 SWAP1 PUSH2 0x3AB JUMP JUMPDEST PUSH1 0x40 MLOAD DUP1 SWAP2 SUB SWAP1 REVERT JUMPDEST PUSH32 0xFFFFFFFFFFFFFFFFFFFFFFFFFFFFFFFFFFFFFFFFFFFFFFFFFFFFFFFFFFFFFF80 DUP3 SLT ISZERO PUSH2 0x143 JUMPI PUSH1 0x40 MLOAD PUSH32 0x8C379A000000000000000000000000000000000000000000000000000000000 DUP2 MSTORE PUSH1 0x4 ADD PUSH2 0x13A SWAP1 PUSH2 0x3AB JUMP JUMPDEST PUSH1 0x40 MLOAD DUP1 SWAP2 SUB SWAP1 REVERT JUMPDEST PUSH1 0x40 MLOAD DUP1 PUSH1 0x40 ADD PUSH1 0x40 MSTORE DUP1 PUSH1 0x7 DUP2 MSTORE PUSH1 0x20 ADD PUSH32 0x697320696E743800000000000000000000000000000000000000000000000000 DUP2 MSTORE POP SWAP1 POP SWAP2 SWAP1 POP JUMP JUMPDEST PUSH1 0x0 DUP1 PUSH1 0x2 DUP4 PUSH2 0x190 SWAP2 SWAP1 PUSH2 0x3FA JUMP JUMPDEST SUB PUSH2 0x19A JUMPI PUSH1 0x0 DUP1 REVERT JUMPDEST PUSH1 0x1 SWAP1 POP SWAP2 SWAP1 POP JUMP JUMPDEST PUSH1 0x0 DUP1 REVERT JUMPDEST PUSH1 0x0 DUP2 SWAP1 POP SWAP2 SWAP1 POP JUMP JUMPDEST PUSH2 0x1BB DUP2 PUSH2 0x1A8 JUMP JUMPDEST DUP2 EQ PUSH2 0x1C6 JUMPI PUSH1 0x0 DUP1 REVERT JUMPDEST POP JUMP JUMPDEST PUSH1 0x0 DUP2 CALLDATALOAD SWAP1 POP PUSH2 0x1D8 DUP2 PUSH2 0x1B2 JUMP JUMPDEST SWAP3 SWAP2 POP POP JUMP JUMPDEST PUSH1 0x0 PUSH1 0x20 DUP3 DUP5 SUB SLT ISZERO PUSH2 0x1F4 JUMPI PUSH2 0x1F3 PUSH2 0x1A3 JUMP JUMPDEST JUMPDEST PUSH1 0x0 PUSH2 0x202 DUP5 DUP3 DUP6 ADD PUSH2 0x1C9 JUMP JUMPDEST SWAP2 POP POP SWAP3 SWAP2 POP POP JUMP JUMPDEST PUSH1 0x0 DUP2 MLOAD SWAP1 POP SWAP2 SWAP1 POP JUMP JUMPDEST PUSH1 0x0 DUP3 DUP3 MSTORE PUSH1 0x20 DUP3 ADD SWAP1 POP SWAP3 SWAP2 POP POP JUMP JUMPDEST PUSH1 0x0 JUMPDEST DUP4 DUP2 LT ISZERO PUSH2 0x245 JUMPI DUP1 DUP3 ADD MLOAD DUP2 DUP5 ADD MSTORE PUSH1 0x20 DUP2 ADD SWAP1 POP PUSH2 0x22A JUMP JUMPDEST DUP4 DUP2 GT ISZERO PUSH2 0x254 JUMPI PUSH1 0x0 DUP5 DUP5 ADD MSTORE JUMPDEST POP POP POP POP JUMP JUMPDEST PUSH1 0x0 PUSH1 0x1F NOT PUSH1 0x1F DUP4 ADD AND SWAP1 POP SWAP2 SWAP1 POP JUMP JUMPDEST PUSH1 0x0 PUSH2 0x276 DUP3 PUSH2 0x20B JUMP JUMPDEST PUSH2 0x280 DUP2 DUP6 PUSH2 0x216 JUMP JUMPDEST SWAP4 POP PUSH2 0x290 DUP2 DUP6 PUSH1 0x20 DUP7 ADD PUSH2 0x227 JUMP JUMPDEST PUSH2 0x299 DUP2 PUSH2 0x25A JUMP JUMPDEST DUP5 ADD SWAP2 POP POP SWAP3 SWAP2 POP POP JUMP JUMPDEST PUSH1 0x0 PUSH1 0x20 DUP3 ADD SWAP1 POP DUP2 DUP2 SUB PUSH1 0x0 DUP4 ADD MSTORE PUSH2 0x2BE DUP2 DUP5 PUSH2 0x26B JUMP JUMPDEST SWAP1 POP SWAP3 SWAP2 POP POP JUMP JUMPDEST PUSH1 0x0 DUP2 SWAP1 POP SWAP2 SWAP1 POP JUMP JUMPDEST PUSH2 0x2D9 DUP2 PUSH2 0x2C6 JUMP JUMPDEST DUP2 EQ PUSH2 0x2E4 JUMPI PUSH1 0x0 DUP1 REVERT JUMPDEST POP JUMP JUMPDEST PUSH1 0x0 DUP2 CALLDATALOAD SWAP1 POP PUSH2 0x2F6 DUP2 PUSH2 0x2D0 JUMP JUMPDEST SWAP3 SWAP2 POP POP JUMP JUMPDEST PUSH1 0x0 PUSH1 0x20 DUP3 DUP5 SUB SLT ISZERO PUSH2 0x312 JUMPI PUSH2 0x311 PUSH2 0x1A3 JUMP JUMPDEST JUMPDEST PUSH1 0x0 PUSH2 0x320 DUP5 DUP3 DUP6 ADD PUSH2 0x2E7 JUMP JUMPDEST SWAP2 POP POP SWAP3 SWAP2 POP POP JUMP JUMPDEST PUSH1 0x0 DUP2 ISZERO ISZERO SWAP1 POP SWAP2 SWAP1 POP JUMP JUMPDEST PUSH2 0x33E DUP2 PUSH2 0x329 JUMP JUMPDEST DUP3 MSTORE POP POP JUMP JUMPDEST PUSH1 0x0 PUSH1 0x20 DUP3 ADD SWAP1 POP PUSH2 0x359 PUSH1 0x0 DUP4 ADD DUP5 PUSH2 0x335 JUMP JUMPDEST SWAP3 SWAP2 POP POP JUMP JUMPDEST PUSH32 0x49742773206E6F7420696E743800000000000000000000000000000000000000 PUSH1 0x0 DUP3 ADD MSTORE POP JUMP JUMPDEST PUSH1 0x0 PUSH2 0x395 PUSH1 0xD DUP4 PUSH2 0x216 JUMP JUMPDEST SWAP2 POP PUSH2 0x3A0 DUP3 PUSH2 0x35F JUMP JUMPDEST PUSH1 0x20 DUP3 ADD SWAP1 POP SWAP2 SWAP1 POP JUMP JUMPDEST PUSH1 0x0 PUSH1 0x20 DUP3 ADD SWAP1 POP DUP2 DUP2 SUB PUSH1 0x0 DUP4 ADD MSTORE PUSH2 0x3C4 DUP2 PUSH2 0x388 JUMP JUMPDEST SWAP1 POP SWAP2 SWAP1 POP JUMP JUMPDEST PUSH32 0x4E487B7100000000000000000000000000000000000000000000000000000000 PUSH1 0x0 MSTORE PUSH1 0x12 PUSH1 0x4 MSTORE PUSH1 0x24 PUSH1 0x0 REVERT JUMPDEST PUSH1 0x0 PUSH2 0x405 DUP3 PUSH2 0x2C6 JUMP JUMPDEST SWAP2 POP PUSH2 0x410 DUP4 PUSH2 0x2C6 JUMP JUMPDEST SWAP3 POP DUP3 PUSH2 0x420 JUMPI PUSH2 0x41F PUSH2 0x3CB JUMP JUMPDEST JUMPDEST DUP3 DUP3 MOD SWAP1 POP SWAP3 SWAP2 POP POP JUMP INVALID LOG2 PUSH5 0x6970667358 0x22 SLT KECCAK256 0xD2 EXTCODECOPY PUSH15 0xD9FE4F0DC34A8E0F2D9EE92CAC8850 SGT SWAP14 PUSH7 0x7EC8A61D69A45B 0xCA PUSH31 0x847664736F6C634300080D0033000000000000000000000000000000000000 "
				},
				"gasEstimates": {
					"creation": {
						"codeDepositCost": "224200",
						"executionCost": "269",
						"totalCost": "224469"
					},
					"external": {
						"verifica8bytes(int256)": "infinite",
						"verificaImpar(uint256)": "infinite"
					}
				},
				"methodIdentifiers": {
					"verifica8bytes(int256)": "b390cda9",
					"verificaImpar(uint256)": "b6583613"
				}
			},
			"storageLayout": {
				"storage": [],
				"types": null
			},
			"userdoc": {
				"kind": "user",
				"methods": {},
				"version": 1
			}
		}
	}
}