{
	"data": {
		"bytecode": {
			"linkReferences": {},
			"object": "60806040526004600055600a60015534801561001a57600080fd5b5061020c8061002a6000396000f3fe608060405234801561001057600080fd5b506004361061002b5760003560e01c80633bc5de3014610030575b600080fd5b610038610051565b60405161004894939291906100b2565b60405180910390f35b6000806000806000601e9050600060329050600082836100719190610126565b9050600082836100819190610180565b90508383838397509750975097505050505090919293565b6000819050919050565b6100ac81610099565b82525050565b60006080820190506100c760008301876100a3565b6100d460208301866100a3565b6100e160408301856100a3565b6100ee60608301846100a3565b95945050505050565b7f4e487b7100000000000000000000000000000000000000000000000000000000600052601160045260246000fd5b600061013182610099565b915061013c83610099565b9250817fffffffffffffffffffffffffffffffffffffffffffffffffffffffffffffffff0483118215151615610175576101746100f7565b5b828202905092915050565b600061018b82610099565b915061019683610099565b9250827fffffffffffffffffffffffffffffffffffffffffffffffffffffffffffffffff038211156101cb576101ca6100f7565b5b82820190509291505056fea2646970667358221220e9f1e1a76b870fbbcb9709bbb2d671cbf8072da54a5e6285139456a21e02e55d64736f6c634300080d0033",
			"opcodes": "PUSH1 0x80 PUSH1 0x40 MSTORE PUSH1 0x4 PUSH1 0x0 SSTORE PUSH1 0xA PUSH1 0x1 SSTORE CALLVALUE DUP1 ISZERO PUSH2 0x1A JUMPI PUSH1 0x0 DUP1 REVERT JUMPDEST POP PUSH2 0x20C DUP1 PUSH2 0x2A PUSH1 0x0 CODECOPY PUSH1 0x0 RETURN INVALID PUSH1 0x80 PUSH1 0x40 MSTORE CALLVALUE DUP1 ISZERO PUSH2 0x10 JUMPI PUSH1 0x0 DUP1 REVERT JUMPDEST POP PUSH1 0x4 CALLDATASIZE LT PUSH2 0x2B JUMPI PUSH1 0x0 CALLDATALOAD PUSH1 0xE0 SHR DUP1 PUSH4 0x3BC5DE30 EQ PUSH2 0x30 JUMPI JUMPDEST PUSH1 0x0 DUP1 REVERT JUMPDEST PUSH2 0x38 PUSH2 0x51 JUMP JUMPDEST PUSH1 0x40 MLOAD PUSH2 0x48 SWAP5 SWAP4 SWAP3 SWAP2 SWAP1 PUSH2 0xB2 JUMP JUMPDEST PUSH1 0x40 MLOAD DUP1 SWAP2 SUB SWAP1 RETURN JUMPDEST PUSH1 0x0 DUP1 PUSH1 0x0 DUP1 PUSH1 0x0 PUSH1 0x1E SWAP1 POP PUSH1 0x0 PUSH1 0x32 SWAP1 POP PUSH1 0x0 DUP3 DUP4 PUSH2 0x71 SWAP2 SWAP1 PUSH2 0x126 JUMP JUMPDEST SWAP1 POP PUSH1 0x0 DUP3 DUP4 PUSH2 0x81 SWAP2 SWAP1 PUSH2 0x180 JUMP JUMPDEST SWAP1 POP DUP4 DUP4 DUP4 DUP4 SWAP8 POP SWAP8 POP SWAP8 POP SWAP8 POP POP POP POP POP SWAP1 SWAP2 SWAP3 SWAP4 JUMP JUMPDEST PUSH1 0x0 DUP2 SWAP1 POP SWAP2 SWAP1 POP JUMP JUMPDEST PUSH2 0xAC DUP2 PUSH2 0x99 JUMP JUMPDEST DUP3 MSTORE POP POP JUMP JUMPDEST PUSH1 0x0 PUSH1 0x80 DUP3 ADD SWAP1 POP PUSH2 0xC7 PUSH1 0x0 DUP4 ADD DUP8 PUSH2 0xA3 JUMP JUMPDEST PUSH2 0xD4 PUSH1 0x20 DUP4 ADD DUP7 PUSH2 0xA3 JUMP JUMPDEST PUSH2 0xE1 PUSH1 0x40 DUP4 ADD DUP6 PUSH2 0xA3 JUMP JUMPDEST PUSH2 0xEE PUSH1 0x60 DUP4 ADD DUP5 PUSH2 0xA3 JUMP JUMPDEST SWAP6 SWAP5 POP POP POP POP POP JUMP JUMPDEST PUSH32 0x4E487B7100000000000000000000000000000000000000000000000000000000 PUSH1 0x0 MSTORE PUSH1 0x11 PUSH1 0x4 MSTORE PUSH1 0x24 PUSH1 0x0 REVERT JUMPDEST PUSH1 0x0 PUSH2 0x131 DUP3 PUSH2 0x99 JUMP JUMPDEST SWAP2 POP PUSH2 0x13C DUP4 PUSH2 0x99 JUMP JUMPDEST SWAP3 POP DUP2 PUSH32 0xFFFFFFFFFFFFFFFFFFFFFFFFFFFFFFFFFFFFFFFFFFFFFFFFFFFFFFFFFFFFFFFF DIV DUP4 GT DUP3 ISZERO ISZERO AND ISZERO PUSH2 0x175 JUMPI PUSH2 0x174 PUSH2 0xF7 JUMP JUMPDEST JUMPDEST DUP3 DUP3 MUL SWAP1 POP SWAP3 SWAP2 POP POP JUMP JUMPDEST PUSH1 0x0 PUSH2 0x18B DUP3 PUSH2 0x99 JUMP JUMPDEST SWAP2 POP PUSH2 0x196 DUP4 PUSH2 0x99 JUMP JUMPDEST SWAP3 POP DUP3 PUSH32 0xFFFFFFFFFFFFFFFFFFFFFFFFFFFFFFFFFFFFFFFFFFFFFFFFFFFFFFFFFFFFFFFF SUB DUP3 GT ISZERO PUSH2 0x1CB JUMPI PUSH2 0x1CA PUSH2 0xF7 JUMP JUMPDEST JUMPDEST DUP3 DUP3 ADD SWAP1 POP SWAP3 SWAP2 POP POP JUMP INVALID LOG2 PUSH5 0x6970667358 0x22 SLT KECCAK256 0xE9 CALL 0xE1 0xA7 PUSH12 0x870FBBCB9709BBB2D671CBF8 SMOD 0x2D 0xA5 0x4A 0x5E PUSH3 0x851394 JUMP LOG2 0x1E MUL 0xE5 0x5D PUSH5 0x736F6C6343 STOP ADDMOD 0xD STOP CALLER "
		},
		"gasEstimates": {
			"creation": {
				"codeDepositCost": "104800",
				"executionCost": "44365",
				"totalCost": "149165"
			},
			"external": {
				"getData()": "infinite"
			}
		},
		"methodIdentifiers": {
			"getData()": "3bc5de30"
		}
	},
	"abi": [
		{
			"inputs": [],
			"name": "getData",
			"outputs": [
				{
					"internalType": "uint256",
					"name": "",
					"type": "uint256"
				},
				{
					"internalType": "uint256",
					"name": "",
					"type": "uint256"
				},
				{
					"internalType": "uint256",
					"name": "",
					"type": "uint256"
				},
				{
					"internalType": "uint256",
					"name": "",
					"type": "uint256"
				}
			],
			"stateMutability": "pure",
			"type": "function"
		}
	]
}