{
	"data": {
		"bytecode": {
			"linkReferences": {},
			"object": "6080604052600b600055601660015561014d6002556101bc60035534801561002657600080fd5b506103b6806100366000396000f3fe608060405234801561001057600080fd5b506004361061007d5760003560e01c80634fa37b0c1161005b5780634fa37b0c146100df5780637808f90b146100fe578063892dfb5b1461011c578063d675b1211461013b5761007d565b8063056ccccf1461008257806321292970146100a157806338a305e8146100c0575b600080fd5b61008a610159565b60405161009892919061025d565b60405180910390f35b6100a9610194565b6040516100b792919061025d565b60405180910390f35b6100c86101c5565b6040516100d692919061025d565b60405180910390f35b6100e76101f0565b6040516100f592919061025d565b60405180910390f35b610106610201565b6040516101139190610286565b60405180910390f35b610124610207565b60405161013292919061025d565b60405180910390f35b61014361023e565b6040516101509190610286565b60405180910390f35b6000806001600081905550600260018190555060015460005461017c91906102d0565b915060015460005461018e919061032a565b90509091565b60008060006001905060006002905080826101af91906102d0565b935080826101bd919061032a565b925050509091565b6000806001546000546101d891906102d0565b91506001546000546101ea919061032a565b90509091565b600080600054600154915091509091565b60025481565b600080600060035460025461021c91906102d0565b90506000600354600254610230919061032a565b905081819350935050509091565b60035481565b6000819050919050565b61025781610244565b82525050565b6000604082019050610272600083018561024e565b61027f602083018461024e565b9392505050565b600060208201905061029b600083018461024e565b92915050565b7f4e487b7100000000000000000000000000000000000000000000000000000000600052601160045260246000fd5b60006102db82610244565b91506102e683610244565b9250817fffffffffffffffffffffffffffffffffffffffffffffffffffffffffffffffff048311821515161561031f5761031e6102a1565b5b828202905092915050565b600061033582610244565b915061034083610244565b9250827fffffffffffffffffffffffffffffffffffffffffffffffffffffffffffffffff03821115610375576103746102a1565b5b82820190509291505056fea26469706673582212207dc222a3b94528b86f0bc18f01400ae708ce59d9058adbfcb2c5fc631805ca3b64736f6c634300080d0033",
			"opcodes": "PUSH1 0x80 PUSH1 0x40 MSTORE PUSH1 0xB PUSH1 0x0 SSTORE PUSH1 0x16 PUSH1 0x1 SSTORE PUSH2 0x14D PUSH1 0x2 SSTORE PUSH2 0x1BC PUSH1 0x3 SSTORE CALLVALUE DUP1 ISZERO PUSH2 0x26 JUMPI PUSH1 0x0 DUP1 REVERT JUMPDEST POP PUSH2 0x3B6 DUP1 PUSH2 0x36 PUSH1 0x0 CODECOPY PUSH1 0x0 RETURN INVALID PUSH1 0x80 PUSH1 0x40 MSTORE CALLVALUE DUP1 ISZERO PUSH2 0x10 JUMPI PUSH1 0x0 DUP1 REVERT JUMPDEST POP PUSH1 0x4 CALLDATASIZE LT PUSH2 0x7D JUMPI PUSH1 0x0 CALLDATALOAD PUSH1 0xE0 SHR DUP1 PUSH4 0x4FA37B0C GT PUSH2 0x5B JUMPI DUP1 PUSH4 0x4FA37B0C EQ PUSH2 0xDF JUMPI DUP1 PUSH4 0x7808F90B EQ PUSH2 0xFE JUMPI DUP1 PUSH4 0x892DFB5B EQ PUSH2 0x11C JUMPI DUP1 PUSH4 0xD675B121 EQ PUSH2 0x13B JUMPI PUSH2 0x7D JUMP JUMPDEST DUP1 PUSH4 0x56CCCCF EQ PUSH2 0x82 JUMPI DUP1 PUSH4 0x21292970 EQ PUSH2 0xA1 JUMPI DUP1 PUSH4 0x38A305E8 EQ PUSH2 0xC0 JUMPI JUMPDEST PUSH1 0x0 DUP1 REVERT JUMPDEST PUSH2 0x8A PUSH2 0x159 JUMP JUMPDEST PUSH1 0x40 MLOAD PUSH2 0x98 SWAP3 SWAP2 SWAP1 PUSH2 0x25D JUMP JUMPDEST PUSH1 0x40 MLOAD DUP1 SWAP2 SUB SWAP1 RETURN JUMPDEST PUSH2 0xA9 PUSH2 0x194 JUMP JUMPDEST PUSH1 0x40 MLOAD PUSH2 0xB7 SWAP3 SWAP2 SWAP1 PUSH2 0x25D JUMP JUMPDEST PUSH1 0x40 MLOAD DUP1 SWAP2 SUB SWAP1 RETURN JUMPDEST PUSH2 0xC8 PUSH2 0x1C5 JUMP JUMPDEST PUSH1 0x40 MLOAD PUSH2 0xD6 SWAP3 SWAP2 SWAP1 PUSH2 0x25D JUMP JUMPDEST PUSH1 0x40 MLOAD DUP1 SWAP2 SUB SWAP1 RETURN JUMPDEST PUSH2 0xE7 PUSH2 0x1F0 JUMP JUMPDEST PUSH1 0x40 MLOAD PUSH2 0xF5 SWAP3 SWAP2 SWAP1 PUSH2 0x25D JUMP JUMPDEST PUSH1 0x40 MLOAD DUP1 SWAP2 SUB SWAP1 RETURN JUMPDEST PUSH2 0x106 PUSH2 0x201 JUMP JUMPDEST PUSH1 0x40 MLOAD PUSH2 0x113 SWAP2 SWAP1 PUSH2 0x286 JUMP JUMPDEST PUSH1 0x40 MLOAD DUP1 SWAP2 SUB SWAP1 RETURN JUMPDEST PUSH2 0x124 PUSH2 0x207 JUMP JUMPDEST PUSH1 0x40 MLOAD PUSH2 0x132 SWAP3 SWAP2 SWAP1 PUSH2 0x25D JUMP JUMPDEST PUSH1 0x40 MLOAD DUP1 SWAP2 SUB SWAP1 RETURN JUMPDEST PUSH2 0x143 PUSH2 0x23E JUMP JUMPDEST PUSH1 0x40 MLOAD PUSH2 0x150 SWAP2 SWAP1 PUSH2 0x286 JUMP JUMPDEST PUSH1 0x40 MLOAD DUP1 SWAP2 SUB SWAP1 RETURN JUMPDEST PUSH1 0x0 DUP1 PUSH1 0x1 PUSH1 0x0 DUP2 SWAP1 SSTORE POP PUSH1 0x2 PUSH1 0x1 DUP2 SWAP1 SSTORE POP PUSH1 0x1 SLOAD PUSH1 0x0 SLOAD PUSH2 0x17C SWAP2 SWAP1 PUSH2 0x2D0 JUMP JUMPDEST SWAP2 POP PUSH1 0x1 SLOAD PUSH1 0x0 SLOAD PUSH2 0x18E SWAP2 SWAP1 PUSH2 0x32A JUMP JUMPDEST SWAP1 POP SWAP1 SWAP2 JUMP JUMPDEST PUSH1 0x0 DUP1 PUSH1 0x0 PUSH1 0x1 SWAP1 POP PUSH1 0x0 PUSH1 0x2 SWAP1 POP DUP1 DUP3 PUSH2 0x1AF SWAP2 SWAP1 PUSH2 0x2D0 JUMP JUMPDEST SWAP4 POP DUP1 DUP3 PUSH2 0x1BD SWAP2 SWAP1 PUSH2 0x32A JUMP JUMPDEST SWAP3 POP POP POP SWAP1 SWAP2 JUMP JUMPDEST PUSH1 0x0 DUP1 PUSH1 0x1 SLOAD PUSH1 0x0 SLOAD PUSH2 0x1D8 SWAP2 SWAP1 PUSH2 0x2D0 JUMP JUMPDEST SWAP2 POP PUSH1 0x1 SLOAD PUSH1 0x0 SLOAD PUSH2 0x1EA SWAP2 SWAP1 PUSH2 0x32A JUMP JUMPDEST SWAP1 POP SWAP1 SWAP2 JUMP JUMPDEST PUSH1 0x0 DUP1 PUSH1 0x0 SLOAD PUSH1 0x1 SLOAD SWAP2 POP SWAP2 POP SWAP1 SWAP2 JUMP JUMPDEST PUSH1 0x2 SLOAD DUP2 JUMP JUMPDEST PUSH1 0x0 DUP1 PUSH1 0x0 PUSH1 0x3 SLOAD PUSH1 0x2 SLOAD PUSH2 0x21C SWAP2 SWAP1 PUSH2 0x2D0 JUMP JUMPDEST SWAP1 POP PUSH1 0x0 PUSH1 0x3 SLOAD PUSH1 0x2 SLOAD PUSH2 0x230 SWAP2 SWAP1 PUSH2 0x32A JUMP JUMPDEST SWAP1 POP DUP2 DUP2 SWAP4 POP SWAP4 POP POP POP SWAP1 SWAP2 JUMP JUMPDEST PUSH1 0x3 SLOAD DUP2 JUMP JUMPDEST PUSH1 0x0 DUP2 SWAP1 POP SWAP2 SWAP1 POP JUMP JUMPDEST PUSH2 0x257 DUP2 PUSH2 0x244 JUMP JUMPDEST DUP3 MSTORE POP POP JUMP JUMPDEST PUSH1 0x0 PUSH1 0x40 DUP3 ADD SWAP1 POP PUSH2 0x272 PUSH1 0x0 DUP4 ADD DUP6 PUSH2 0x24E JUMP JUMPDEST PUSH2 0x27F PUSH1 0x20 DUP4 ADD DUP5 PUSH2 0x24E JUMP JUMPDEST SWAP4 SWAP3 POP POP POP JUMP JUMPDEST PUSH1 0x0 PUSH1 0x20 DUP3 ADD SWAP1 POP PUSH2 0x29B PUSH1 0x0 DUP4 ADD DUP5 PUSH2 0x24E JUMP JUMPDEST SWAP3 SWAP2 POP POP JUMP JUMPDEST PUSH32 0x4E487B7100000000000000000000000000000000000000000000000000000000 PUSH1 0x0 MSTORE PUSH1 0x11 PUSH1 0x4 MSTORE PUSH1 0x24 PUSH1 0x0 REVERT JUMPDEST PUSH1 0x0 PUSH2 0x2DB DUP3 PUSH2 0x244 JUMP JUMPDEST SWAP2 POP PUSH2 0x2E6 DUP4 PUSH2 0x244 JUMP JUMPDEST SWAP3 POP DUP2 PUSH32 0xFFFFFFFFFFFFFFFFFFFFFFFFFFFFFFFFFFFFFFFFFFFFFFFFFFFFFFFFFFFFFFFF DIV DUP4 GT DUP3 ISZERO ISZERO AND ISZERO PUSH2 0x31F JUMPI PUSH2 0x31E PUSH2 0x2A1 JUMP JUMPDEST JUMPDEST DUP3 DUP3 MUL SWAP1 POP SWAP3 SWAP2 POP POP JUMP JUMPDEST PUSH1 0x0 PUSH2 0x335 DUP3 PUSH2 0x244 JUMP JUMPDEST SWAP2 POP PUSH2 0x340 DUP4 PUSH2 0x244 JUMP JUMPDEST SWAP3 POP DUP3 PUSH32 0xFFFFFFFFFFFFFFFFFFFFFFFFFFFFFFFFFFFFFFFFFFFFFFFFFFFFFFFFFFFFFFFF SUB DUP3 GT ISZERO PUSH2 0x375 JUMPI PUSH2 0x374 PUSH2 0x2A1 JUMP JUMPDEST JUMPDEST DUP3 DUP3 ADD SWAP1 POP SWAP3 SWAP2 POP POP JUMP INVALID LOG2 PUSH5 0x6970667358 0x22 SLT KECCAK256 PUSH30 0xC222A3B94528B86F0BC18F01400AE708CE59D9058ADBFCB2C5FC631805CA EXTCODESIZE PUSH5 0x736F6C6343 STOP ADDMOD 0xD STOP CALLER "
		},
		"gasEstimates": {
			"creation": {
				"codeDepositCost": "190000",
				"executionCost": "88656",
				"totalCost": "278656"
			},
			"external": {
				"NumC()": "2451",
				"NumD()": "2495",
				"calcProdTot()": "infinite",
				"calcProdTotVarGlob()": "infinite",
				"calcProdTotVarGlobPublc()": "infinite",
				"calcProdTotVarGlobView()": "infinite",
				"printNums()": "infinite"
			}
		},
		"methodIdentifiers": {
			"NumC()": "7808f90b",
			"NumD()": "d675b121",
			"calcProdTot()": "21292970",
			"calcProdTotVarGlob()": "38a305e8",
			"calcProdTotVarGlobPublc()": "892dfb5b",
			"calcProdTotVarGlobView()": "056ccccf",
			"printNums()": "4fa37b0c"
		}
	},
	"abi": [
		{
			"inputs": [],
			"name": "NumC",
			"outputs": [
				{
					"internalType": "uint256",
					"name": "",
					"type": "uint256"
				}
			],
			"stateMutability": "view",
			"type": "function"
		},
		{
			"inputs": [],
			"name": "NumD",
			"outputs": [
				{
					"internalType": "uint256",
					"name": "",
					"type": "uint256"
				}
			],
			"stateMutability": "view",
			"type": "function"
		},
		{
			"inputs": [],
			"name": "calcProdTot",
			"outputs": [
				{
					"internalType": "uint256",
					"name": "produto",
					"type": "uint256"
				},
				{
					"internalType": "uint256",
					"name": "total",
					"type": "uint256"
				}
			],
			"stateMutability": "pure",
			"type": "function"
		},
		{
			"inputs": [],
			"name": "calcProdTotVarGlob",
			"outputs": [
				{
					"internalType": "uint256",
					"name": "produto",
					"type": "uint256"
				},
				{
					"internalType": "uint256",
					"name": "total",
					"type": "uint256"
				}
			],
			"stateMutability": "view",
			"type": "function"
		},
		{
			"inputs": [],
			"name": "calcProdTotVarGlobPublc",
			"outputs": [
				{
					"internalType": "uint256",
					"name": "",
					"type": "uint256"
				},
				{
					"internalType": "uint256",
					"name": "",
					"type": "uint256"
				}
			],
			"stateMutability": "view",
			"type": "function"
		},
		{
			"inputs": [],
			"name": "calcProdTotVarGlobView",
			"outputs": [
				{
					"internalType": "uint256",
					"name": "produto",
					"type": "uint256"
				},
				{
					"internalType": "uint256",
					"name": "total",
					"type": "uint256"
				}
			],
			"stateMutability": "nonpayable",
			"type": "function"
		},
		{
			"inputs": [],
			"name": "printNums",
			"outputs": [
				{
					"internalType": "uint256",
					"name": "",
					"type": "uint256"
				},
				{
					"internalType": "uint256",
					"name": "",
					"type": "uint256"
				}
			],
			"stateMutability": "view",
			"type": "function"
		}
	]
}